{
  "contractName": "ERC721BurnableMock",
  "abi": [
    {
      "inputs": [
        {
          "internalType": "string",
          "name": "name",
          "type": "string"
        },
        {
          "internalType": "string",
          "name": "symbol",
          "type": "string"
        }
      ],
      "stateMutability": "nonpayable",
      "type": "constructor"
    },
    {
      "anonymous": false,
      "inputs": [
        {
          "indexed": true,
          "internalType": "address",
          "name": "owner",
          "type": "address"
        },
        {
          "indexed": true,
          "internalType": "address",
          "name": "approved",
          "type": "address"
        },
        {
          "indexed": true,
          "internalType": "uint256",
          "name": "tokenId",
          "type": "uint256"
        }
      ],
      "name": "Approval",
      "type": "event"
    },
    {
      "anonymous": false,
      "inputs": [
        {
          "indexed": true,
          "internalType": "address",
          "name": "owner",
          "type": "address"
        },
        {
          "indexed": true,
          "internalType": "address",
          "name": "operator",
          "type": "address"
        },
        {
          "indexed": false,
          "internalType": "bool",
          "name": "approved",
          "type": "bool"
        }
      ],
      "name": "ApprovalForAll",
      "type": "event"
    },
    {
      "anonymous": false,
      "inputs": [
        {
          "indexed": true,
          "internalType": "address",
          "name": "from",
          "type": "address"
        },
        {
          "indexed": true,
          "internalType": "address",
          "name": "to",
          "type": "address"
        },
        {
          "indexed": true,
          "internalType": "uint256",
          "name": "tokenId",
          "type": "uint256"
        }
      ],
      "name": "Transfer",
      "type": "event"
    },
    {
      "inputs": [
        {
          "internalType": "address",
          "name": "to",
          "type": "address"
        },
        {
          "internalType": "uint256",
          "name": "tokenId",
          "type": "uint256"
        }
      ],
      "name": "approve",
      "outputs": [],
      "stateMutability": "nonpayable",
      "type": "function"
    },
    {
      "inputs": [
        {
          "internalType": "address",
          "name": "owner",
          "type": "address"
        }
      ],
      "name": "balanceOf",
      "outputs": [
        {
          "internalType": "uint256",
          "name": "",
          "type": "uint256"
        }
      ],
      "stateMutability": "view",
      "type": "function",
      "constant": true
    },
    {
      "inputs": [],
      "name": "baseURI",
      "outputs": [
        {
          "internalType": "string",
          "name": "",
          "type": "string"
        }
      ],
      "stateMutability": "view",
      "type": "function",
      "constant": true
    },
    {
      "inputs": [
        {
          "internalType": "uint256",
          "name": "tokenId",
          "type": "uint256"
        }
      ],
      "name": "burn",
      "outputs": [],
      "stateMutability": "nonpayable",
      "type": "function"
    },
    {
      "inputs": [
        {
          "internalType": "uint256",
          "name": "tokenId",
          "type": "uint256"
        }
      ],
      "name": "getApproved",
      "outputs": [
        {
          "internalType": "address",
          "name": "",
          "type": "address"
        }
      ],
      "stateMutability": "view",
      "type": "function",
      "constant": true
    },
    {
      "inputs": [
        {
          "internalType": "address",
          "name": "owner",
          "type": "address"
        },
        {
          "internalType": "address",
          "name": "operator",
          "type": "address"
        }
      ],
      "name": "isApprovedForAll",
      "outputs": [
        {
          "internalType": "bool",
          "name": "",
          "type": "bool"
        }
      ],
      "stateMutability": "view",
      "type": "function",
      "constant": true
    },
    {
      "inputs": [],
      "name": "name",
      "outputs": [
        {
          "internalType": "string",
          "name": "",
          "type": "string"
        }
      ],
      "stateMutability": "view",
      "type": "function",
      "constant": true
    },
    {
      "inputs": [
        {
          "internalType": "uint256",
          "name": "tokenId",
          "type": "uint256"
        }
      ],
      "name": "ownerOf",
      "outputs": [
        {
          "internalType": "address",
          "name": "",
          "type": "address"
        }
      ],
      "stateMutability": "view",
      "type": "function",
      "constant": true
    },
    {
      "inputs": [
        {
          "internalType": "address",
          "name": "from",
          "type": "address"
        },
        {
          "internalType": "address",
          "name": "to",
          "type": "address"
        },
        {
          "internalType": "uint256",
          "name": "tokenId",
          "type": "uint256"
        }
      ],
      "name": "safeTransferFrom",
      "outputs": [],
      "stateMutability": "nonpayable",
      "type": "function"
    },
    {
      "inputs": [
        {
          "internalType": "address",
          "name": "from",
          "type": "address"
        },
        {
          "internalType": "address",
          "name": "to",
          "type": "address"
        },
        {
          "internalType": "uint256",
          "name": "tokenId",
          "type": "uint256"
        },
        {
          "internalType": "bytes",
          "name": "_data",
          "type": "bytes"
        }
      ],
      "name": "safeTransferFrom",
      "outputs": [],
      "stateMutability": "nonpayable",
      "type": "function"
    },
    {
      "inputs": [
        {
          "internalType": "address",
          "name": "operator",
          "type": "address"
        },
        {
          "internalType": "bool",
          "name": "approved",
          "type": "bool"
        }
      ],
      "name": "setApprovalForAll",
      "outputs": [],
      "stateMutability": "nonpayable",
      "type": "function"
    },
    {
      "inputs": [
        {
          "internalType": "bytes4",
          "name": "interfaceId",
          "type": "bytes4"
        }
      ],
      "name": "supportsInterface",
      "outputs": [
        {
          "internalType": "bool",
          "name": "",
          "type": "bool"
        }
      ],
      "stateMutability": "view",
      "type": "function",
      "constant": true
    },
    {
      "inputs": [],
      "name": "symbol",
      "outputs": [
        {
          "internalType": "string",
          "name": "",
          "type": "string"
        }
      ],
      "stateMutability": "view",
      "type": "function",
      "constant": true
    },
    {
      "inputs": [
        {
          "internalType": "uint256",
          "name": "index",
          "type": "uint256"
        }
      ],
      "name": "tokenByIndex",
      "outputs": [
        {
          "internalType": "uint256",
          "name": "",
          "type": "uint256"
        }
      ],
      "stateMutability": "view",
      "type": "function",
      "constant": true
    },
    {
      "inputs": [
        {
          "internalType": "address",
          "name": "owner",
          "type": "address"
        },
        {
          "internalType": "uint256",
          "name": "index",
          "type": "uint256"
        }
      ],
      "name": "tokenOfOwnerByIndex",
      "outputs": [
        {
          "internalType": "uint256",
          "name": "",
          "type": "uint256"
        }
      ],
      "stateMutability": "view",
      "type": "function",
      "constant": true
    },
    {
      "inputs": [],
      "name": "tokenPointer",
      "outputs": [
        {
          "internalType": "uint256",
          "name": "",
          "type": "uint256"
        }
      ],
      "stateMutability": "view",
      "type": "function",
      "constant": true
    },
    {
      "inputs": [
        {
          "internalType": "uint256",
          "name": "tokenId",
          "type": "uint256"
        }
      ],
      "name": "tokenURI",
      "outputs": [
        {
          "internalType": "string",
          "name": "",
          "type": "string"
        }
      ],
      "stateMutability": "view",
      "type": "function",
      "constant": true
    },
    {
      "inputs": [],
      "name": "totalSupply",
      "outputs": [
        {
          "internalType": "uint256",
          "name": "",
          "type": "uint256"
        }
      ],
      "stateMutability": "view",
      "type": "function",
      "constant": true
    },
    {
      "inputs": [
        {
          "internalType": "address",
          "name": "from",
          "type": "address"
        },
        {
          "internalType": "address",
          "name": "to",
          "type": "address"
        },
        {
          "internalType": "uint256",
          "name": "tokenId",
          "type": "uint256"
        }
      ],
      "name": "transferFrom",
      "outputs": [],
      "stateMutability": "nonpayable",
      "type": "function"
    },
    {
      "inputs": [],
      "name": "mint",
      "outputs": [],
      "stateMutability": "nonpayable",
      "type": "function"
    }
  ],
  "bytecode": "0x60806040526000600d553480156200001657600080fd5b5060405162001f4138038062001f41833981810160405260408110156200003c57600080fd5b81019080805160405193929190846401000000008211156200005d57600080fd5b9083019060208201858111156200007357600080fd5b82516401000000008111828201881017156200008e57600080fd5b82525081516020918201929091019080838360005b83811015620000bd578181015183820152602001620000a3565b50505050905090810190601f168015620000eb5780820380516001836020036101000a031916815260200191505b50604052602001805160405193929190846401000000008211156200010f57600080fd5b9083019060208201858111156200012557600080fd5b82516401000000008111828201881017156200014057600080fd5b82525081516020918201929091019080838360005b838110156200016f57818101518382015260200162000155565b50505050905090810190601f1680156200019d5780820380516001836020036101000a031916815260200191505b50604052508391508290508181620001c56301ffc9a760e01b6001600160e01b036200024e16565b620001e06380ac58cd60e01b6001600160e01b036200024e16565b620001fb63780e9d6360e01b6001600160e01b036200024e16565b815162000210906009906020850190620002d3565b5080516200022690600a906020840190620002d3565b5062000242635b5e139f60e01b6001600160e01b036200024e16565b50505050505062000378565b6001600160e01b03198082161415620002ae576040805162461bcd60e51b815260206004820152601c60248201527f4552433136353a20696e76616c696420696e7465726661636520696400000000604482015290519081900360640190fd5b6001600160e01b0319166000908152602081905260409020805460ff19166001179055565b828054600181600116156101000203166002900490600052602060002090601f016020900481019282601f106200031657805160ff191683800117855562000346565b8280016001018555821562000346579182015b828111156200034657825182559160200191906001019062000329565b506200035492915062000358565b5090565b6200037591905b808211156200035457600081556001016200035f565b90565b611bb980620003886000396000f3fe608060405234801561001057600080fd5b506004361061012c5760003560e01c806342966c68116100ad57806395d89b411161007157806395d89b4114610397578063a22cb4651461039f578063b88d4fde146103cd578063c87b56dd14610493578063e985e9c5146104b05761012c565b806342966c68146103125780634f6ccce71461032f5780636352211e1461034c5780636c0360eb1461036957806370a08231146103715761012c565b80631249c58b116100f45780631249c58b1461026a57806318160ddd1461027257806323b872dd1461027a5780632f745c59146102b057806342842e0e146102dc5761012c565b806301ffc9a714610131578063028316511461016c57806306fdde0314610186578063081812fc14610203578063095ea7b31461023c575b600080fd5b6101586004803603602081101561014757600080fd5b50356001600160e01b0319166104de565b604080519115158252519081900360200190f35b610174610501565b60408051918252519081900360200190f35b61018e610507565b6040805160208082528351818301528351919283929083019185019080838360005b838110156101c85781810151838201526020016101b0565b50505050905090810190601f1680156101f55780820380516001836020036101000a031916815260200191505b509250505060405180910390f35b6102206004803603602081101561021957600080fd5b503561059e565b604080516001600160a01b039092168252519081900360200190f35b6102686004803603604081101561025257600080fd5b506001600160a01b038135169060200135610600565b005b6102686106db565b6101746106f5565b6102686004803603606081101561029057600080fd5b506001600160a01b038135811691602081013590911690604001356106fb565b610174600480360360408110156102c657600080fd5b506001600160a01b038135169060200135610752565b610268600480360360608110156102f257600080fd5b506001600160a01b038135811691602081013590911690604001356107d1565b6102686004803603602081101561032857600080fd5b50356107ec565b6101746004803603602081101561034557600080fd5b503561083e565b6102206004803603602081101561036257600080fd5b50356108a4565b61018e6108fe565b6101746004803603602081101561038757600080fd5b50356001600160a01b031661095f565b61018e6109c7565b610268600480360360408110156103b557600080fd5b506001600160a01b0381351690602001351515610a28565b610268600480360360808110156103e357600080fd5b6001600160a01b0382358116926020810135909116916040820135919081019060808101606082013564010000000081111561041e57600080fd5b82018360208201111561043057600080fd5b8035906020019184600183028401116401000000008311171561045257600080fd5b91908080601f016020809104026020016040519081016040528093929190818152602001838380828437600092019190915250929550610b2d945050505050565b61018e600480360360208110156104a957600080fd5b5035610b8b565b610158600480360360408110156104c657600080fd5b506001600160a01b0381358116916020013516610d57565b6001600160e01b0319811660009081526020819052604090205460ff165b919050565b600d5481565b60098054604080516020601f60026000196101006001881615020190951694909404938401819004810282018101909252828152606093909290918301828280156105935780601f1061056857610100808354040283529160200191610593565b820191906000526020600020905b81548152906001019060200180831161057657829003601f168201915b505050505090505b90565b60006105a982610d85565b6105e45760405162461bcd60e51b815260040180806020018281038252602c815260200180611a52602c913960400191505060405180910390fd5b506000908152600260205260409020546001600160a01b031690565b600061060b826108a4565b9050806001600160a01b0316836001600160a01b0316141561065e5760405162461bcd60e51b8152600401808060200182810382526021815260200180611ad66021913960400191505060405180910390fd5b806001600160a01b0316610670610da2565b6001600160a01b0316148061069157506106918161068c610da2565b610d57565b6106cc5760405162461bcd60e51b81526004018080602001828103825260388152602001806119c76038913960400191505060405180910390fd5b6106d68383610da6565b505050565b600d54600101600d819055506106f333600d54610e14565b565b60075490565b61070c610706610da2565b82610f51565b6107475760405162461bcd60e51b8152600401808060200182810382526031815260200180611af76031913960400191505060405180910390fd5b6106d6838383610ff5565b600061075d8361095f565b821061079a5760405162461bcd60e51b815260040180806020018281038252602b81526020018061191a602b913960400191505060405180910390fd5b6001600160a01b03831660009081526005602052604090208054839081106107be57fe5b9060005260206000200154905092915050565b6106d683838360405180602001604052806000815250610b2d565b6107f7610706610da2565b6108325760405162461bcd60e51b8152600401808060200182810382526030815260200180611b546030913960400191505060405180910390fd5b61083b81611146565b50565b60006108486106f5565b82106108855760405162461bcd60e51b815260040180806020018281038252602c815260200180611b28602c913960400191505060405180910390fd5b6007828154811061089257fe5b90600052602060002001549050919050565b6000818152600160205260408120546001600160a01b0316806108f85760405162461bcd60e51b8152600401808060200182810382526029815260200180611a296029913960400191505060405180910390fd5b92915050565b600c8054604080516020601f60026000196101006001881615020190951694909404938401819004810282018101909252828152606093909290918301828280156105935780601f1061056857610100808354040283529160200191610593565b60006001600160a01b0382166109a65760405162461bcd60e51b815260040180806020018281038252602a8152602001806119ff602a913960400191505060405180910390fd5b6001600160a01b03821660009081526003602052604090206108f8906111e0565b600a8054604080516020601f60026000196101006001881615020190951694909404938401819004810282018101909252828152606093909290918301828280156105935780601f1061056857610100808354040283529160200191610593565b610a30610da2565b6001600160a01b0316826001600160a01b03161415610a96576040805162461bcd60e51b815260206004820152601960248201527f4552433732313a20617070726f766520746f2063616c6c657200000000000000604482015290519081900360640190fd5b8060046000610aa3610da2565b6001600160a01b03908116825260208083019390935260409182016000908120918716808252919093529120805460ff191692151592909217909155610ae7610da2565b60408051841515815290516001600160a01b0392909216917f17307eab39ab6107e8899845ad3d59bd9653f200f220920489ca2b5937696c319181900360200190a35050565b610b3e610b38610da2565b83610f51565b610b795760405162461bcd60e51b8152600401808060200182810382526031815260200180611af76031913960400191505060405180910390fd5b610b85848484846111e4565b50505050565b6060610b9682610d85565b610bd15760405162461bcd60e51b815260040180806020018281038252602f815260200180611aa7602f913960400191505060405180910390fd5b6000828152600b602090815260409182902080548351601f6002600019610100600186161502019093169290920491820184900484028101840190945280845260609392830182828015610c665780601f10610c3b57610100808354040283529160200191610c66565b820191906000526020600020905b815481529060010190602001808311610c4957829003601f168201915b50505050509050805160001415610c8d5750506040805160208101909152600081526104fc565b600c816040516020018083805460018160011615610100020316600290048015610cee5780601f10610ccc576101008083540402835291820191610cee565b820191906000526020600020905b815481529060010190602001808311610cda575b5050825160208401908083835b60208310610d1a5780518252601f199092019160209182019101610cfb565b6001836020036101000a038019825116818451168082178552505050505050905001925050506040516020818303038152906040529150506104fc565b6001600160a01b03918216600090815260046020908152604080832093909416825291909152205460ff1690565b6000908152600160205260409020546001600160a01b0316151590565b3390565b600081815260026020526040902080546001600160a01b0319166001600160a01b0384169081179091558190610ddb826108a4565b6001600160a01b03167f8c5be1e5ebec7d5bd14f71427d1e84f3dd0314c0f7b2291e5b200ac8c7c3b92560405160405180910390a45050565b6001600160a01b038216610e6f576040805162461bcd60e51b815260206004820181905260248201527f4552433732313a206d696e7420746f20746865207a65726f2061646472657373604482015290519081900360640190fd5b610e7881610d85565b15610eca576040805162461bcd60e51b815260206004820152601c60248201527f4552433732313a20746f6b656e20616c7265616479206d696e74656400000000604482015290519081900360640190fd5b610ed660008383611236565b600081815260016020908152604080832080546001600160a01b0319166001600160a01b038716908117909155835260039091529020610f1590611241565b60405181906001600160a01b038416906000907fddf252ad1be2c89b69c2b068fc378daa952ba7f163c4a11628f55a4df523b3ef908290a45050565b6000610f5c82610d85565b610f975760405162461bcd60e51b815260040180806020018281038252602c81526020018061199b602c913960400191505060405180910390fd5b6000610fa2836108a4565b9050806001600160a01b0316846001600160a01b03161480610fdd5750836001600160a01b0316610fd28461059e565b6001600160a01b0316145b80610fed5750610fed8185610d57565b949350505050565b826001600160a01b0316611008826108a4565b6001600160a01b03161461104d5760405162461bcd60e51b8152600401808060200182810382526029815260200180611a7e6029913960400191505060405180910390fd5b6001600160a01b0382166110925760405162461bcd60e51b81526004018080602001828103825260248152602001806119776024913960400191505060405180910390fd5b61109d838383611236565b6110a8600082610da6565b6001600160a01b03831660009081526003602052604090206110c99061124a565b6001600160a01b03821660009081526003602052604090206110ea90611241565b60008181526001602052604080822080546001600160a01b0319166001600160a01b0386811691821790925591518493918716917fddf252ad1be2c89b69c2b068fc378daa952ba7f163c4a11628f55a4df523b3ef91a4505050565b6000611151826108a4565b905061115f81600084611236565b61116a600083610da6565b6001600160a01b038116600090815260036020526040902061118b9061124a565b60008281526001602052604080822080546001600160a01b0319169055518391906001600160a01b038416907fddf252ad1be2c89b69c2b068fc378daa952ba7f163c4a11628f55a4df523b3ef908390a45050565b5490565b6111ef848484610ff5565b6111fb84848484611261565b610b855760405162461bcd60e51b81526004018080602001828103825260328152602001806119456032913960400191505060405180910390fd5b6106d683838361149c565b80546001019055565b805461125d90600163ffffffff6114a716565b9055565b6000611275846001600160a01b03166114f0565b61128157506001610fed565b600060606001600160a01b038616630a85bd0160e11b61129f610da2565b89888860405160240180856001600160a01b03166001600160a01b03168152602001846001600160a01b03166001600160a01b0316815260200183815260200180602001828103825283818151815260200191508051906020019080838360005b83811015611318578181015183820152602001611300565b50505050905090810190601f1680156113455780820380516001836020036101000a031916815260200191505b5060408051601f198184030181529181526020820180516001600160e01b03166001600160e01b0319909a16999099178952518151919890975087965094509250829150849050835b602083106113ad5780518252601f19909201916020918201910161138e565b6001836020036101000a0380198251168184511680821785525050505050509050019150506000604051808303816000865af19150503d806000811461140f576040519150601f19603f3d011682016040523d82523d6000602084013e611414565b606091505b5091509150816114655780511561142e5780518082602001fd5b60405162461bcd60e51b81526004018080602001828103825260328152602001806119456032913960400191505060405180910390fd5b600081806020019051602081101561147c57600080fd5b50516001600160e01b031916630a85bd0160e11b149350610fed92505050565b6106d6838383611529565b60006114e983836040518060400160405280601e81526020017f536166654d6174683a207375627472616374696f6e206f766572666c6f770000815250611580565b9392505050565b6000813f7fc5d2460186f7233c927e7db2dcc703c0e500b653ca82273b7bfad8045d85a470818114801590610fed575050151592915050565b611534838383611617565b6001600160a01b0382166106d6576000818152600b602052604090205460026000196101006001841615020190911604156106d6576000818152600b602052604081206106d6916118c0565b6000818484111561160f5760405162461bcd60e51b81526004018080602001828103825283818151815260200191508051906020019080838360005b838110156115d45781810151838201526020016115bc565b50505050905090810190601f1680156116015780820380516001836020036101000a031916815260200191505b509250505060405180910390fd5b505050900390565b6116228383836106d6565b6001600160a01b0383166116485761163a8282611688565b611643816116c6565b6106d6565b6001600160a01b03821661167857611660838261170a565b6000818152600660205260408120556116438161180c565b611682838261170a565b6106d682825b6001600160a01b0390911660009081526005602081815260408084208054868652600684529185208290559282526001810183559183529091200155565b600780546000838152600860205260408120829055600182018355919091527fa66cc928b5edb82af9bd49922954155ab7b0942694bea4ce44661d9a8736c6880155565b6001600160a01b03821660009081526005602052604081205461173490600163ffffffff6114a716565b6000838152600660205260409020549091508082146117cf576001600160a01b038416600090815260056020526040812080548490811061177157fe5b906000526020600020015490508060056000876001600160a01b03166001600160a01b0316815260200190815260200160002083815481106117af57fe5b600091825260208083209091019290925591825260069052604090208190555b6001600160a01b03841660009081526005602052604090208054806117f057fe5b6001900381819060005260206000200160009055905550505050565b60075460009061182390600163ffffffff6114a716565b6000838152600860205260408120546007805493945090928490811061184557fe5b90600052602060002001549050806007838154811061186057fe5b6000918252602080832090910192909255828152600890915260409020829055600780548061188b57fe5b600190038181906000526020600020016000905590556000600860008681526020019081526020016000208190555050505050565b50805460018160011615610100020316600290046000825580601f106118e6575061083b565b600091825260209182902061083b9261059b92601f01048101905b808211156119155760008155600101611901565b509056fe455243373231456e756d657261626c653a206f776e657220696e646578206f7574206f6620626f756e64734552433732313a207472616e7366657220746f206e6f6e20455243373231526563656976657220696d706c656d656e7465724552433732313a207472616e7366657220746f20746865207a65726f20616464726573734552433732313a206f70657261746f7220717565727920666f72206e6f6e6578697374656e7420746f6b656e4552433732313a20617070726f76652063616c6c6572206973206e6f74206f776e6572206e6f7220617070726f76656420666f7220616c6c4552433732313a2062616c616e636520717565727920666f7220746865207a65726f20616464726573734552433732313a206f776e657220717565727920666f72206e6f6e6578697374656e7420746f6b656e4552433732313a20617070726f76656420717565727920666f72206e6f6e6578697374656e7420746f6b656e4552433732313a207472616e73666572206f6620746f6b656e2074686174206973206e6f74206f776e4552433732314d657461646174613a2055524920717565727920666f72206e6f6e6578697374656e7420746f6b656e4552433732313a20617070726f76616c20746f2063757272656e74206f776e65724552433732313a207472616e736665722063616c6c6572206973206e6f74206f776e6572206e6f7220617070726f766564455243373231456e756d657261626c653a20676c6f62616c20696e646578206f7574206f6620626f756e64734552433732314275726e61626c653a2063616c6c6572206973206e6f74206f776e6572206e6f7220617070726f766564a2646970667358221220abd1b65ec31878762dd91fc66ec34dd029e23f065bee663d09b6fa03865efcbf64736f6c63430006040033",
  "source": "pragma solidity ^0.6.0;\n\nimport \"@openzeppelin/contracts/token/ERC721/ERC721Full.sol\";\nimport \"@openzeppelin/contracts/token/ERC721/ERC721Burnable.sol\";\n\n/*\n    Mock contract used in the testing of tagging NFT assets\n*/\ncontract ERC721BurnableMock is ERC721Full, ERC721Burnable {\n    uint256 public tokenPointer = 0;\n\n    constructor (string memory name, string memory symbol) public ERC721Full(name, symbol) { }\n\n    function _beforeTokenTransfer(address from, address to, uint256 tokenId) internal virtual override(ERC721, ERC721Full) {\n        super._beforeTokenTransfer(from, to, tokenId);\n    }\n\n    function mint() public {\n        tokenPointer = tokenPointer + 1;\n        _mint(msg.sender, tokenPointer);\n    }\n}",
  "sourcePath": "/Users/Natalie/Projects/hashtag-contracts/contracts/mock/ERC721BurnableMock.sol",
  "compiler": {
    "name": "solc",
    "version": "0.6.4+commit.1dca32f3.Emscripten.clang"
  },
  "schemaVersion": "3.0.23",
  "updatedAt": "2020-04-08T12:48:24.474Z",
  "networkType": "ethereum",
  "devdoc": {
    "methods": {
      "approve(address,uint256)": {
        "details": "Approves another address to transfer the given token ID The zero address indicates there is no approved address. There can only be one approved address per token at a given time. Can only be called by the token owner or an approved operator.",
        "params": {
          "to": "address to be approved for the given token ID",
          "tokenId": "uint256 ID of the token to be approved"
        }
      },
      "balanceOf(address)": {
        "details": "Gets the balance of the specified address.",
        "params": {
          "owner": "address to query the balance of"
        },
        "returns": {
          "_0": "uint256 representing the amount owned by the passed address"
        }
      },
      "baseURI()": {
        "details": "Returns the base URI set via {_setBaseURI}. This will be automatically added as a preffix in {tokenURI} to each token's URI, when they are non-empty."
      },
      "burn(uint256)": {
        "details": "Burns a specific ERC721 token.",
        "params": {
          "tokenId": "uint256 id of the ERC721 token to be burned."
        }
      },
      "getApproved(uint256)": {
        "details": "Gets the approved address for a token ID, or zero if no address set Reverts if the token ID does not exist.",
        "params": {
          "tokenId": "uint256 ID of the token to query the approval of"
        },
        "returns": {
          "_0": "address currently approved for the given token ID"
        }
      },
      "isApprovedForAll(address,address)": {
        "details": "Tells whether an operator is approved by a given owner.",
        "params": {
          "operator": "operator address which you want to query the approval of",
          "owner": "owner address which you want to query the approval of"
        },
        "returns": {
          "_0": "bool whether the given operator is approved by the given owner"
        }
      },
      "name()": {
        "details": "Gets the token name.",
        "returns": {
          "_0": "string representing the token name"
        }
      },
      "ownerOf(uint256)": {
        "details": "Gets the owner of the specified token ID.",
        "params": {
          "tokenId": "uint256 ID of the token to query the owner of"
        },
        "returns": {
          "_0": "address currently marked as the owner of the given token ID"
        }
      },
      "safeTransferFrom(address,address,uint256)": {
        "details": "Safely transfers the ownership of a given token ID to another address If the target address is a contract, it must implement {IERC721Receiver-onERC721Received}, which is called upon a safe transfer, and return the magic value `bytes4(keccak256(\"onERC721Received(address,address,uint256,bytes)\"))`; otherwise, the transfer is reverted. Requires the msg.sender to be the owner, approved, or operator",
        "params": {
          "from": "current owner of the token",
          "to": "address to receive the ownership of the given token ID",
          "tokenId": "uint256 ID of the token to be transferred"
        }
      },
      "safeTransferFrom(address,address,uint256,bytes)": {
        "details": "Safely transfers the ownership of a given token ID to another address If the target address is a contract, it must implement {IERC721Receiver-onERC721Received}, which is called upon a safe transfer, and return the magic value `bytes4(keccak256(\"onERC721Received(address,address,uint256,bytes)\"))`; otherwise, the transfer is reverted. Requires the _msgSender() to be the owner, approved, or operator",
        "params": {
          "_data": "bytes data to send along with a safe transfer check",
          "from": "current owner of the token",
          "to": "address to receive the ownership of the given token ID",
          "tokenId": "uint256 ID of the token to be transferred"
        }
      },
      "setApprovalForAll(address,bool)": {
        "details": "Sets or unsets the approval of a given operator An operator is allowed to transfer all tokens of the sender on their behalf.",
        "params": {
          "approved": "representing the status of the approval to be set",
          "operator": "operator address to set the approval"
        }
      },
      "supportsInterface(bytes4)": {
        "details": "See {IERC165-supportsInterface}.     * Time complexity O(1), guaranteed to always use less than 30 000 gas."
      },
      "symbol()": {
        "details": "Gets the token symbol.",
        "returns": {
          "_0": "string representing the token symbol"
        }
      },
      "tokenByIndex(uint256)": {
        "details": "Gets the token ID at a given index of all the tokens in this contract Reverts if the index is greater or equal to the total number of tokens.",
        "params": {
          "index": "uint256 representing the index to be accessed of the tokens list"
        },
        "returns": {
          "_0": "uint256 token ID at the given index of the tokens list"
        }
      },
      "tokenOfOwnerByIndex(address,uint256)": {
        "details": "Gets the token ID at a given index of the tokens list of the requested owner.",
        "params": {
          "index": "uint256 representing the index to be accessed of the requested tokens list",
          "owner": "address owning the tokens list to be accessed"
        },
        "returns": {
          "_0": "uint256 token ID at the given index of the tokens list owned by the requested address"
        }
      },
      "tokenURI(uint256)": {
        "details": "Returns the URI for a given token ID. May return an empty string.     * If the token's URI is non-empty and a base URI was set (via {_setBaseURI}), it will be added to the token ID's URI as a prefix.     * Reverts if the token ID does not exist."
      },
      "totalSupply()": {
        "details": "Gets the total amount of tokens stored by the contract.",
        "returns": {
          "_0": "uint256 representing the total amount of tokens"
        }
      },
      "transferFrom(address,address,uint256)": {
        "details": "Transfers the ownership of a given token ID to another address. Usage of this method is discouraged, use {safeTransferFrom} whenever possible. Requires the msg.sender to be the owner, approved, or operator.",
        "params": {
          "from": "current owner of the token",
          "to": "address to receive the ownership of the given token ID",
          "tokenId": "uint256 ID of the token to be transferred"
        }
      }
    }
  },
  "userdoc": {
    "methods": {}
  }
}