{
  "contractName": "ERC721HashtagRegistry",
  "abi": [
    {
      "inputs": [
        {
          "internalType": "contract HashtagAccessControls",
          "name": "_accessControls",
          "type": "address"
        },
        {
          "internalType": "contract HashtagProtocol",
          "name": "_hashtagProtocol",
          "type": "address"
        },
        {
          "internalType": "contract HashtagLinkSplitter",
          "name": "_splitter",
          "type": "address"
        }
      ],
      "stateMutability": "nonpayable",
      "type": "constructor"
    },
    {
      "anonymous": false,
      "inputs": [
        {
          "indexed": true,
          "internalType": "address",
          "name": "tagger",
          "type": "address"
        },
        {
          "indexed": true,
          "internalType": "address",
          "name": "nftContract",
          "type": "address"
        },
        {
          "indexed": true,
          "internalType": "address",
          "name": "publisher",
          "type": "address"
        },
        {
          "indexed": false,
          "internalType": "uint256",
          "name": "hashtagId",
          "type": "uint256"
        },
        {
          "indexed": false,
          "internalType": "uint256",
          "name": "nftId",
          "type": "uint256"
        },
        {
          "indexed": false,
          "internalType": "uint256",
          "name": "platformFee",
          "type": "uint256"
        },
        {
          "indexed": false,
          "internalType": "uint256",
          "name": "publisherFee",
          "type": "uint256"
        },
        {
          "indexed": false,
          "internalType": "uint256",
          "name": "hashtagFee",
          "type": "uint256"
        }
      ],
      "name": "HashtagRegistered",
      "type": "event"
    },
    {
      "inputs": [],
      "name": "accessControls",
      "outputs": [
        {
          "internalType": "contract HashtagAccessControls",
          "name": "",
          "type": "address"
        }
      ],
      "stateMutability": "view",
      "type": "function",
      "constant": true
    },
    {
      "inputs": [
        {
          "internalType": "uint256",
          "name": "",
          "type": "uint256"
        },
        {
          "internalType": "uint256",
          "name": "",
          "type": "uint256"
        }
      ],
      "name": "hashtagIdToListOfTagIds",
      "outputs": [
        {
          "internalType": "uint256",
          "name": "",
          "type": "uint256"
        }
      ],
      "stateMutability": "view",
      "type": "function",
      "constant": true
    },
    {
      "inputs": [],
      "name": "hashtagProtocol",
      "outputs": [
        {
          "internalType": "contract HashtagProtocol",
          "name": "",
          "type": "address"
        }
      ],
      "stateMutability": "view",
      "type": "function",
      "constant": true
    },
    {
      "inputs": [],
      "name": "mintAndTagDiscount",
      "outputs": [
        {
          "internalType": "uint256",
          "name": "",
          "type": "uint256"
        }
      ],
      "stateMutability": "view",
      "type": "function",
      "constant": true
    },
    {
      "inputs": [],
      "name": "modulo",
      "outputs": [
        {
          "internalType": "uint256",
          "name": "",
          "type": "uint256"
        }
      ],
      "stateMutability": "view",
      "type": "function",
      "constant": true
    },
    {
      "inputs": [
        {
          "internalType": "address",
          "name": "",
          "type": "address"
        },
        {
          "internalType": "uint256",
          "name": "",
          "type": "uint256"
        },
        {
          "internalType": "uint256",
          "name": "",
          "type": "uint256"
        }
      ],
      "name": "nftToListOfTagIds",
      "outputs": [
        {
          "internalType": "uint256",
          "name": "",
          "type": "uint256"
        }
      ],
      "stateMutability": "view",
      "type": "function",
      "constant": true
    },
    {
      "inputs": [
        {
          "internalType": "address",
          "name": "",
          "type": "address"
        },
        {
          "internalType": "uint256",
          "name": "",
          "type": "uint256"
        }
      ],
      "name": "publisherToListOfTagIds",
      "outputs": [
        {
          "internalType": "uint256",
          "name": "",
          "type": "uint256"
        }
      ],
      "stateMutability": "view",
      "type": "function",
      "constant": true
    },
    {
      "inputs": [],
      "name": "splitter",
      "outputs": [
        {
          "internalType": "contract HashtagLinkSplitter",
          "name": "",
          "type": "address"
        }
      ],
      "stateMutability": "view",
      "type": "function",
      "constant": true
    },
    {
      "inputs": [],
      "name": "tagFee",
      "outputs": [
        {
          "internalType": "uint256",
          "name": "",
          "type": "uint256"
        }
      ],
      "stateMutability": "view",
      "type": "function",
      "constant": true
    },
    {
      "inputs": [
        {
          "internalType": "uint256",
          "name": "",
          "type": "uint256"
        }
      ],
      "name": "tagIdToTag",
      "outputs": [
        {
          "internalType": "uint256",
          "name": "hashtagId",
          "type": "uint256"
        },
        {
          "internalType": "address",
          "name": "nftContract",
          "type": "address"
        },
        {
          "internalType": "uint256",
          "name": "nftId",
          "type": "uint256"
        },
        {
          "internalType": "address",
          "name": "tagger",
          "type": "address"
        },
        {
          "internalType": "uint256",
          "name": "tagstamp",
          "type": "uint256"
        },
        {
          "internalType": "address",
          "name": "publisher",
          "type": "address"
        }
      ],
      "stateMutability": "view",
      "type": "function",
      "constant": true
    },
    {
      "inputs": [
        {
          "internalType": "address",
          "name": "",
          "type": "address"
        },
        {
          "internalType": "uint256",
          "name": "",
          "type": "uint256"
        }
      ],
      "name": "taggerToListOfTagIds",
      "outputs": [
        {
          "internalType": "uint256",
          "name": "",
          "type": "uint256"
        }
      ],
      "stateMutability": "view",
      "type": "function",
      "constant": true
    },
    {
      "inputs": [],
      "name": "totalTags",
      "outputs": [
        {
          "internalType": "uint256",
          "name": "",
          "type": "uint256"
        }
      ],
      "stateMutability": "view",
      "type": "function",
      "constant": true
    },
    {
      "inputs": [
        {
          "internalType": "string",
          "name": "_hashtag",
          "type": "string"
        },
        {
          "internalType": "address",
          "name": "_nftContract",
          "type": "address"
        },
        {
          "internalType": "uint256",
          "name": "_nftId",
          "type": "uint256"
        },
        {
          "internalType": "address payable",
          "name": "_publisher",
          "type": "address"
        },
        {
          "internalType": "address",
          "name": "_tagger",
          "type": "address"
        }
      ],
      "name": "mintAndTag",
      "outputs": [],
      "stateMutability": "payable",
      "type": "function",
      "payable": true
    },
    {
      "inputs": [
        {
          "internalType": "uint256",
          "name": "_hashtagId",
          "type": "uint256"
        },
        {
          "internalType": "address",
          "name": "_nftContract",
          "type": "address"
        },
        {
          "internalType": "uint256",
          "name": "_nftId",
          "type": "uint256"
        },
        {
          "internalType": "address",
          "name": "_publisher",
          "type": "address"
        },
        {
          "internalType": "address",
          "name": "_tagger",
          "type": "address"
        }
      ],
      "name": "tag",
      "outputs": [],
      "stateMutability": "payable",
      "type": "function",
      "payable": true
    },
    {
      "inputs": [
        {
          "internalType": "uint256",
          "name": "_tagId",
          "type": "uint256"
        }
      ],
      "name": "getTagInfo",
      "outputs": [
        {
          "internalType": "uint256",
          "name": "_hashtagId",
          "type": "uint256"
        },
        {
          "internalType": "address",
          "name": "_nftContract",
          "type": "address"
        },
        {
          "internalType": "uint256",
          "name": "_nftId",
          "type": "uint256"
        },
        {
          "internalType": "address",
          "name": "_tagger",
          "type": "address"
        },
        {
          "internalType": "uint256",
          "name": "_tagstamp",
          "type": "uint256"
        },
        {
          "internalType": "address",
          "name": "_publisher",
          "type": "address"
        }
      ],
      "stateMutability": "view",
      "type": "function",
      "constant": true
    },
    {
      "inputs": [
        {
          "internalType": "uint256",
          "name": "_hashtagId",
          "type": "uint256"
        }
      ],
      "name": "getAllTagIdsForAGivenHashtag",
      "outputs": [
        {
          "internalType": "uint256[]",
          "name": "",
          "type": "uint256[]"
        }
      ],
      "stateMutability": "view",
      "type": "function",
      "constant": true
    },
    {
      "inputs": [
        {
          "internalType": "address",
          "name": "_nftContract",
          "type": "address"
        },
        {
          "internalType": "uint256",
          "name": "_nftId",
          "type": "uint256"
        }
      ],
      "name": "getAllTagIdsForAGivenNft",
      "outputs": [
        {
          "internalType": "uint256[]",
          "name": "",
          "type": "uint256[]"
        }
      ],
      "stateMutability": "view",
      "type": "function",
      "constant": true
    },
    {
      "inputs": [
        {
          "internalType": "address",
          "name": "_publisher",
          "type": "address"
        }
      ],
      "name": "getAllTagIdsForAGivenPublisher",
      "outputs": [
        {
          "internalType": "uint256[]",
          "name": "",
          "type": "uint256[]"
        }
      ],
      "stateMutability": "view",
      "type": "function",
      "constant": true
    },
    {
      "inputs": [
        {
          "internalType": "address",
          "name": "_tagger",
          "type": "address"
        }
      ],
      "name": "getAllTagIdsForAGivenTagger",
      "outputs": [
        {
          "internalType": "uint256[]",
          "name": "",
          "type": "uint256[]"
        }
      ],
      "stateMutability": "view",
      "type": "function",
      "constant": true
    },
    {
      "inputs": [
        {
          "internalType": "uint256",
          "name": "_fee",
          "type": "uint256"
        }
      ],
      "name": "setTagFee",
      "outputs": [],
      "stateMutability": "nonpayable",
      "type": "function"
    },
    {
      "inputs": [
        {
          "internalType": "uint256",
          "name": "_mintAndTagDiscount",
          "type": "uint256"
        }
      ],
      "name": "setMintAndTagDiscount",
      "outputs": [],
      "stateMutability": "nonpayable",
      "type": "function"
    },
    {
      "inputs": [],
      "name": "calculateTagFeeAfterDiscount",
      "outputs": [
        {
          "internalType": "uint256",
          "name": "",
          "type": "uint256"
        }
      ],
      "stateMutability": "view",
      "type": "function",
      "constant": true
    },
    {
      "inputs": [],
      "name": "calculateMintAndTagFee",
      "outputs": [
        {
          "internalType": "uint256",
          "name": "",
          "type": "uint256"
        }
      ],
      "stateMutability": "view",
      "type": "function",
      "constant": true
    },
    {
      "inputs": [
        {
          "internalType": "contract HashtagLinkSplitter",
          "name": "_splitter",
          "type": "address"
        }
      ],
      "name": "updateSplitter",
      "outputs": [],
      "stateMutability": "nonpayable",
      "type": "function"
    },
    {
      "inputs": [
        {
          "internalType": "contract HashtagAccessControls",
          "name": "_accessControls",
          "type": "address"
        }
      ],
      "name": "updateAccessControls",
      "outputs": [],
      "stateMutability": "nonpayable",
      "type": "function"
    }
  ],
  "bytecode": "0x60806040526000600355662386f26fc10000600455612710600555600060065534801561002b57600080fd5b5060405161219e38038061219e8339818101604052606081101561004e57600080fd5b5080516020820151604090920151600080546001600160a01b039384166001600160a01b03199182161790915560018054948416948216949094179093556002805492909116919092161790556120f4806100aa6000396000f3fe6080604052600436106101655760003560e01c8063716a5b49116100d1578063b0c315ee1161008a578063cd75afce11610064578063cd75afce14610552578063cf32502214610585578063d5cb95ea14610614578063fd7a2d3d1461063e57610165565b8063b0c315ee146104da578063bf6a94fc14610513578063ccd8cedd1461052857610165565b8063716a5b49146103fc578063748365ef1461041157806383c06c98146104265780639216afb91461043b578063a1b3c1841461047d578063a8eb6d8e146104a757610165565b806338d3b0691161012357806338d3b069146102b25780633cb1f26a1461033b5780633cd8045e146103505780635210b78114610381578063648afdee146103b45780636ef3da94146103c957610165565b8062e9236f1461016a57806311167ae0146101915780631d9e6a3f146101f957806329745262146102255780632ae1bd0e1461023a57806334db798214610273575b600080fd5b34801561017657600080fd5b5061017f61066e565b60408051918252519081900360200190f35b34801561019d57600080fd5b506101bb600480360360208110156101b457600080fd5b5035610674565b604080519687526001600160a01b039586166020880152868101949094529184166060860152608085015290911660a0830152519081900360c00190f35b34801561020557600080fd5b506102236004803603602081101561021c57600080fd5b50356106b8565b005b34801561023157600080fd5b5061017f610790565b34801561024657600080fd5b5061017f6004803603604081101561025d57600080fd5b506001600160a01b038135169060200135610796565b34801561027f57600080fd5b5061017f6004803603606081101561029657600080fd5b506001600160a01b0381351690602081013590604001356107c4565b3480156102be57600080fd5b506102eb600480360360408110156102d557600080fd5b506001600160a01b0381351690602001356107ff565b60408051602080825283518183015283519192839290830191858101910280838360005b8381101561032757818101518382015260200161030f565b505050509050019250505060405180910390f35b34801561034757600080fd5b5061017f610875565b34801561035c57600080fd5b506103656108bd565b604080516001600160a01b039092168252519081900360200190f35b34801561038d57600080fd5b506102eb600480360360208110156103a457600080fd5b50356001600160a01b03166108cc565b3480156103c057600080fd5b50610365610938565b3480156103d557600080fd5b50610223600480360360208110156103ec57600080fd5b50356001600160a01b0316610947565b34801561040857600080fd5b5061017f610a3c565b34801561041d57600080fd5b50610365610a42565b34801561043257600080fd5b5061017f610a51565b610223600480360360a081101561045157600080fd5b508035906001600160a01b03602082013581169160408101359160608201358116916080013516610af3565b34801561048957600080fd5b50610223600480360360208110156104a057600080fd5b5035611520565b3480156104b357600080fd5b50610223600480360360208110156104ca57600080fd5b50356001600160a01b03166115f8565b3480156104e657600080fd5b5061017f600480360360408110156104fd57600080fd5b506001600160a01b0381351690602001356116ed565b34801561051f57600080fd5b5061017f611706565b34801561053457600080fd5b506102eb6004803603602081101561054b57600080fd5b503561170c565b34801561055e57600080fd5b506102eb6004803603602081101561057557600080fd5b50356001600160a01b031661176c565b610223600480360360a081101561059b57600080fd5b8101906020810181356401000000008111156105b657600080fd5b8201836020820111156105c857600080fd5b803590602001918460018302840111640100000000831117156105ea57600080fd5b91935091506001600160a01b038135811691602081013591604082013581169160600135166117d6565b34801561062057600080fd5b506101bb6004803603602081101561063757600080fd5b5035611a1a565b34801561064a57600080fd5b5061017f6004803603604081101561066157600080fd5b5080359060200135611aa7565b60035481565b60076020526000908152604090208054600182015460028301546003840154600485015460059095015493946001600160a01b039384169492939182169290911686565b6000546001600160a01b03166324d7806c6106d1611ac0565b6040518263ffffffff1660e01b815260040180826001600160a01b03166001600160a01b0316815260200191505060206040518083038186803b15801561071757600080fd5b505afa15801561072b573d6000803e3d6000fd5b505050506040513d602081101561074157600080fd5b505161078b576040805162461bcd60e51b815260206004820152601460248201527321b0b63632b91036bab9ba1031329030b236b4b760611b604482015290519081900360640190fd5b600655565b60055481565b600b60205281600052604060002081815481106107af57fe5b90600052602060002001600091509150505481565b600960205282600052604060002060205281600052604060002081815481106107e957fe5b9060005260206000200160009250925050505481565b6001600160a01b038216600090815260096020908152604080832084845282529182902080548351818402810184019094528084526060939283018282801561086757602002820191906000526020600020905b815481526020019060010190808311610853575b505050505090505b92915050565b6000806108a1600654610895600554600454611ac490919063ffffffff16565b9063ffffffff611b0d16565b6004549091506108b7908263ffffffff611b6616565b91505090565b6002546001600160a01b031681565b6001600160a01b0381166000908152600a602090815260409182902080548351818402810184019094528084526060939283018282801561092c57602002820191906000526020600020905b815481526020019060010190808311610918575b50505050509050919050565b6001546001600160a01b031681565b6000546001600160a01b03166324d7806c610960611ac0565b6040518263ffffffff1660e01b815260040180826001600160a01b03166001600160a01b0316815260200191505060206040518083038186803b1580156109a657600080fd5b505afa1580156109ba573d6000803e3d6000fd5b505050506040513d60208110156109d057600080fd5b5051610a1a576040805162461bcd60e51b815260206004820152601460248201527321b0b63632b91036bab9ba1031329030b236b4b760611b604482015290519081900360640190fd5b600080546001600160a01b0319166001600160a01b0392909216919091179055565b60045481565b6000546001600160a01b031681565b600080600160009054906101000a90046001600160a01b03166001600160a01b031663ddca3f436040518163ffffffff1660e01b815260040160206040518083038186803b158015610aa257600080fd5b505afa158015610ab6573d6000803e3d6000fd5b505050506040513d6020811015610acc57600080fd5b505190506000610ada610875565b9050610aec828263ffffffff611ba816565b9250505090565b60015460408051634f558e7960e01b81526004810188905290516001600160a01b0390921691634f558e7991602480820192602092909190829003018186803b158015610b3f57600080fd5b505afa158015610b53573d6000803e3d6000fd5b505050506040513d6020811015610b6957600080fd5b5051610ba65760405162461bcd60e51b815260040180806020018281038252603d815260200180611f27603d913960400191505060405180910390fd5b60005460408051630830b35960e31b81526001600160a01b038581166004830152915191909216916341859ac8916024808301926020929190829003018186803b158015610bf357600080fd5b505afa158015610c07573d6000803e3d6000fd5b505050506040513d6020811015610c1d57600080fd5b5051610c5a5760405162461bcd60e51b81526004018080602001828103825260268152602001806120996026913960400191505060405180910390fd5b6000610c64610875565b905080341015610cbb576040805162461bcd60e51b815260206004820152601a60248201527f5461673a20596f75206d7573742073656e642074686520666565000000000000604482015290519081900360640190fd5b6001600160a01b038516610d005760405162461bcd60e51b8152600401808060200182810382526021815260200180611fa06021913960400191505060405180910390fd5b6001546001600160a01b0386811691161415610d4d5760405162461bcd60e51b815260040180806020018281038252603c815260200180611f64603c913960400191505060405180910390fd5b610d58868686611c02565b610da9576040805162461bcd60e51b815260206004820181905260248201527f5461673a204e46542068617320616c7265616479206265656e20746167676564604482015290519081900360640190fd5b604080516301ffc9a760e01b8152635b5e139f60e01b600482015290516001600160a01b038716916301ffc9a7916024808301926020929190829003018186803b158015610df657600080fd5b505afa925050508015610e1b57506040513d6020811015610e1657600080fd5b505160015b610fa8576040516000815260443d1015610e3757506000610ed4565b60046000803e60005160e01c6308c379a08114610e58576000915050610ed4565b60043d036004833e81513d602482011167ffffffffffffffff82111715610e8457600092505050610ed4565b808301805167ffffffffffffffff811115610ea6576000945050505050610ed4565b8060208301013d8601811115610ec457600095505050505050610ed4565b601f01601f191660405250925050505b80610edf5750610f64565b8060405162461bcd60e51b81526004018080602001828103825283818151815260200191508051906020019080838360005b83811015610f29578181015183820152602001610f11565b50505050905090810190601f168015610f565780820380516001836020036101000a031916815260200191505b509250505060405180910390fd5b6040805162461bcd60e51b8152602060048201526014602482015273125b9d985b1a59081391950818dbdb9d1c9858dd60621b604482015290519081900360640190fd5b600181151514610fe95760405162461bcd60e51b81526004018080602001828103825260308152602001806120466030913960400191505060405180910390fd5b50846001600160a01b0316636352211e856040518263ffffffff1660e01b81526004018082815260200191505060206040518083038186803b15801561102e57600080fd5b505afa92505050801561105357506040513d602081101561104e57600080fd5b505160015b611156576040516000815260443d101561106f5750600061110c565b60046000803e60005160e01c6308c379a0811461109057600091505061110c565b60043d036004833e81513d602482011167ffffffffffffffff821117156110bc5760009250505061110c565b808301805167ffffffffffffffff8111156110de57600094505050505061110c565b8060208301013d86018111156110fc5760009550505050505061110c565b601f01601f191660405250925050505b80610edf57506040805162461bcd60e51b8152602060048201526014602482015273151bdad95b88191bd95cc81b9bdd08195e1a5cdd60621b604482015290519081900360640190fd5b6001600160a01b03811661119b5760405162461bcd60e51b8152600401808060200182810382526034815260200180611fc16034913960400191505060405180910390fd5b506003546111b090600163ffffffff611ba816565b600381905550600060035490506040518060c00160405280888152602001876001600160a01b03168152602001868152602001846001600160a01b03168152602001428152602001856001600160a01b0316815250600760008381526020019081526020016000206000820151816000015560208201518160010160006101000a8154816001600160a01b0302191690836001600160a01b031602179055506040820151816002015560608201518160030160006101000a8154816001600160a01b0302191690836001600160a01b031602179055506080820151816004015560a08201518160050160006101000a8154816001600160a01b0302191690836001600160a01b031602179055509050506008600088815260200190815260200160002081908060018154018082558091505060019003906000526020600020016000909190919091505560096000876001600160a01b03166001600160a01b031681526020019081526020016000206000868152602001908152602001600020819080600181540180825580915050600190039060005260206000200160009091909190915055600a6000856001600160a01b03166001600160a01b03168152602001908152602001600020819080600181540180825580915050600190039060005260206000200160009091909190915055600b6000846001600160a01b03166001600160a01b031681526020019081526020016000208190806001815401808255809150506001900390600052602060002001600090919091909150556000806000600260009054906101000a90046001600160a01b03166001600160a01b03166377b653ad868c8a6040518463ffffffff1660e01b815260040180838152602001826001600160a01b03166001600160a01b03168152602001925050506060604051808303818588803b15801561146957600080fd5b505af115801561147d573d6000803e3d6000fd5b50505050506040513d606081101561149457600080fd5b508051602082015160409092015190945090925090506114b2611d47565b604080518b8152602081018a9052808201859052606081018490526080810183905290516001600160a01b03808a16928c821692918a16917f40a9ba9de8394714f8ec93689783918c2ab7f2d7c763c5b804dd219851a253139181900360a00190a450505050505050505050565b6000546001600160a01b03166324d7806c611539611ac0565b6040518263ffffffff1660e01b815260040180826001600160a01b03166001600160a01b0316815260200191505060206040518083038186803b15801561157f57600080fd5b505afa158015611593573d6000803e3d6000fd5b505050506040513d60208110156115a957600080fd5b50516115f3576040805162461bcd60e51b815260206004820152601460248201527321b0b63632b91036bab9ba1031329030b236b4b760611b604482015290519081900360640190fd5b600455565b6000546001600160a01b03166324d7806c611611611ac0565b6040518263ffffffff1660e01b815260040180826001600160a01b03166001600160a01b0316815260200191505060206040518083038186803b15801561165757600080fd5b505afa15801561166b573d6000803e3d6000fd5b505050506040513d602081101561168157600080fd5b50516116cb576040805162461bcd60e51b815260206004820152601460248201527321b0b63632b91036bab9ba1031329030b236b4b760611b604482015290519081900360640190fd5b600280546001600160a01b0319166001600160a01b0392909216919091179055565b600a60205281600052604060002081815481106107af57fe5b60065481565b60008181526008602090815260409182902080548351818402810184019094528084526060939283018282801561092c57602002820191906000526020600020908154815260200190600101908083116109185750505050509050919050565b6001600160a01b0381166000908152600b602090815260409182902080548351818402810184019094528084526060939283018282801561092c57602002820191906000526020600020908154815260200190600101908083116109185750505050509050919050565b60006117e0610a51565b9050803410156118215760405162461bcd60e51b81526004018080602001828103825260238152602001806120766023913960400191505060405180910390fd5b60005460408051630830b35960e31b81526001600160a01b038681166004830152915191909216916341859ac8916024808301926020929190829003018186803b15801561186e57600080fd5b505afa158015611882573d6000803e3d6000fd5b505050506040513d602081101561189857600080fd5b50516118d55760405162461bcd60e51b815260040180806020018281038252602f815260200180611ef8602f913960400191505060405180910390fd5b6001546040805163ddca3f4360e01b815290516000926001600160a01b031691637e6d945e91839163ddca3f43916004808301926020929190829003018186803b15801561192257600080fd5b505afa158015611936573d6000803e3d6000fd5b505050506040513d602081101561194c57600080fd5b50516040516001600160e01b031960e084901b1681526001600160a01b03808916602483015287166044820152606060048201908152606482018c90528c918c918a918a91908190608401868680828437600081840152601f19601f820116905080830192505050955050505050506020604051808303818588803b1580156119d457600080fd5b505af11580156119e8573d6000803e3d6000fd5b50505050506040513d60208110156119ff57600080fd5b50519050611a108187878787610af3565b5050505050505050565b600080600080600080611a2b611ea6565b5050506000948552505060076020908152604093849020845160c081018652815480825260018301546001600160a01b039081169483018590526002840154978301889052600384015481166060840181905260048501546080850181905260059095015490911660a090930183905290979396955093509091565b600860205281600052604060002081815481106107af57fe5b3390565b6000611b0683836040518060400160405280601a81526020017f536166654d6174683a206469766973696f6e206279207a65726f000000000000815250611de7565b9392505050565b600082611b1c5750600061086f565b82820282848281611b2957fe5b0414611b065760405162461bcd60e51b8152600401808060200182810382526021815260200180611ff56021913960400191505060405180910390fd5b6000611b0683836040518060400160405280601e81526020017f536166654d6174683a207375627472616374696f6e206f766572666c6f770000815250611e4c565b600082820183811015611b06576040805162461bcd60e51b815260206004820152601b60248201527f536166654d6174683a206164646974696f6e206f766572666c6f770000000000604482015290519081900360640190fd5b6001600160a01b038216600090815260096020908152604080832084845282528083208054825181850281018501909352808352606093830182828015611c6857602002820191906000526020600020905b815481526020019060010190808311611c54575b50939450600193506000925050505b8251811015611d3d576000838281518110611c8e57fe5b60200260200101519050611ca0611ea6565b50600081815260076020908152604091829020825160c0810184528154815260018201546001600160a01b0390811693820184905260028301549482019490945260038201548416606082015260048201546080820152600590910154831660a0820152918916148015611d175750868160400151145b8015611d235750805189145b15611d3357600093505050611d3d565b5050600101611c77565b5095945050505050565b306000611d52611ac0565b6040516001600160a01b039182169184163190600081818185875af1925050503d8060008114611d9e576040519150601f19603f3d011682016040523d82523d6000602084013e611da3565b606091505b5050905080611de35760405162461bcd60e51b81526004018080602001828103825260308152602001806120166030913960400191505060405180910390fd5b5050565b60008183611e365760405162461bcd60e51b8152602060048201818152835160248401528351909283926044909101919085019080838360008315610f29578181015183820152602001610f11565b506000838581611e4257fe5b0495945050505050565b60008184841115611e9e5760405162461bcd60e51b8152602060048201818152835160248401528351909283926044909101919085019080838360008315610f29578181015183820152602001610f11565b505050900390565b6040518060c001604052806000815260200160006001600160a01b031681526020016000815260200160006001600160a01b031681526020016000815260200160006001600160a01b03168152509056fe4d696e7420616e64207461673a20546865207075626c6973686572206d7573742062652077686974656c69737465645461673a20546865206861736874616720494420737570706c69656420697320696e76616c6964202d206e6f6e2d6578697374656e7420746f6b656e215461673a20496e76616c696420746167202d20796f752061726520617474656d7074696e6720746f2074616720616e6f7468657220686173687461675461673a20496e76616c6964206e667420636f6e74726163742061646472657373546f6b656e20646f6573206e6f74206578697374206f72206973206f776e656420627920746865207a65726f2061646472657373536166654d6174683a206d756c7469706c69636174696f6e206f766572666c6f774661696c656420746f20726566756e64207468652072656d61696e696e672062616c616e636520746f2073656e646572436f6e747261637420646f6573206e6f7420696d706c656d656e74207468652045524337323120696e746572666163654d696e7420616e64207461673a20596f75206d7573742073656e6420746865206665655461673a20546865207075626c6973686572206d7573742062652077686974656c6973746564a26469706673582212206aa312e2ca716112ad113b6dc50c5d828a1a674a72b9885d27512b22c97b8a1b64736f6c63430006060033",
  "immutableReferences": {},
  "source": "pragma solidity 0.6.6;\n\nimport \"@openzeppelin/contracts/math/SafeMath.sol\";\nimport \"@openzeppelin/contracts/token/ERC721/IERC721.sol\";\nimport \"@openzeppelin/contracts/GSN/Context.sol\";\nimport \"../HashtagLinkSplitter.sol\";\nimport \"../HashtagProtocol.sol\";\n\n/**\n * @title ERC721HashtagRegistry\n * @notice Contract that allows any ERC721 asset to be tagged by a hashtag within the Hashtag protocol\n * @author Hashtag Protocol\n*/\ncontract ERC721HashtagRegistry is Context {\n    using SafeMath for uint256;\n\n    HashtagAccessControls public accessControls;\n    HashtagProtocol public hashtagProtocol;\n    HashtagLinkSplitter public splitter;\n\n    uint256 public totalTags = 0;\n\n    uint256 public tagFee = 0.01 ether;\n\n    uint256 public modulo = 10000;\n    uint256 public mintAndTagDiscount = 0;\n\n    // Used to log that an NFT has been tagged\n    event HashtagRegistered(\n        address indexed tagger,\n        address indexed nftContract,\n        address indexed publisher,\n        uint256 hashtagId,\n        uint256 nftId,\n        uint256 platformFee,\n        uint256 publisherFee,\n        uint256 hashtagFee\n    );\n\n    // Stores important information about a tagging event\n    struct Tag {\n        uint256 hashtagId;\n        address nftContract;\n        uint256 nftId;\n        address tagger;\n        uint256 tagstamp;\n        address publisher;\n    }\n\n    // tag id (will come from the totalTags pointer) -> tag\n    mapping(uint256 => Tag) public tagIdToTag;\n\n    // hashtag id -> list of tag ids (can use .length for count)\n    mapping(uint256 => uint256[]) public hashtagIdToListOfTagIds;\n\n    // nft contract -> nft id -> list of tag ids (can use .length for count)\n    mapping(address => mapping(uint256 => uint256[])) public nftToListOfTagIds;\n\n    // publisher -> list of tag ids tagged through publisher (can use .length for count)\n    mapping(address => uint256[]) public publisherToListOfTagIds;\n\n    // tagger -> list of tag ids tagged by tagger (can use .length for count)\n    mapping(address => uint256[]) public taggerToListOfTagIds;\n\n    bytes4 private constant _INTERFACE_ID_ERC721 = 0x5b5e139f;\n\n    /**\n     * @notice Admin only execution guard\n     * @dev When applied to a method, only allows execution when the sender has the admin role\n    */\n    modifier onlyAdmin() {\n        require(accessControls.isAdmin(_msgSender()), \"Caller must be admin\");\n        _;\n    }\n\n    constructor (HashtagAccessControls _accessControls, HashtagProtocol _hashtagProtocol, HashtagLinkSplitter _splitter) public {\n        accessControls = _accessControls;\n        hashtagProtocol = _hashtagProtocol;\n        splitter = _splitter;\n    }\n\n    /**\n     * @notice Combines the action of creating a new hashtag and then tagging an NFT asset with this new tag.\n     * @dev Only a whitelisted publisher can execute this with the required fee unless the caller / sender has admin privileges.\n     * @param _hashtag string value of the hashtag to be minted\n     * @param _nftContract address of nft contract\n     * @param _nftId ID of the nft to link from the above nft contract\n     * @param _publisher the publisher attributed to the tagging\n     * @param _tagger the ethereum account that made the original tagging request\n    */\n    // FIXME think about how admin can use this for free - is it a problem?\n    function mintAndTag(string calldata _hashtag, address _nftContract, uint256 _nftId, address payable _publisher, address _tagger) payable external {\n        uint256 mintAndTagFee = calculateMintAndTagFee();\n        require(msg.value >= mintAndTagFee, \"Mint and tag: You must send the fee\");\n        require(accessControls.isPublisher(_publisher), \"Mint and tag: The publisher must be whitelisted\");\n\n        uint256 hashtagId = hashtagProtocol.mint{value: hashtagProtocol.fee()}(_hashtag, _publisher, _tagger);\n        tag(hashtagId, _nftContract, _nftId, _publisher, _tagger);\n    }\n\n    /**\n     * @notice Tags an ERC721 NFT asset by storing a reference between the asset and a hashtag\n     * @dev Only a whitelisted publisher can execute this with the required fee unless the caller / sender has admin privileges.\n     * @param _hashtagId ID of the hashtag being linked\n     * @param _nftContract address of nft contract\n     * @param _nftId ID of the nft to link from the above nft contract\n     * @param _tagger the ethereum account that made the original tagging request\n    */\n    // FIXME do we whitelist the NFT contracts you can tag?\n    function tag(uint256 _hashtagId, address _nftContract, uint256 _nftId, address _publisher, address _tagger) payable public {\n        require(hashtagProtocol.exists(_hashtagId), \"Tag: The hashtag ID supplied is invalid - non-existent token!\");\n        require(accessControls.isPublisher(_publisher), \"Tag: The publisher must be whitelisted\");\n\n        uint256 tagFeeAfterDiscount = calculateTagFeeAfterDiscount();\n        require(msg.value >= tagFeeAfterDiscount, \"Tag: You must send the fee\");\n\n        require(_nftContract != address(0), \"Tag: Invalid nft contract address\");\n        require(_nftContract != address(hashtagProtocol), \"Tag: Invalid tag - you are attempting to tag another hashtag\");\n        require(_isNewTagForNft(_hashtagId, _nftContract, _nftId), \"Tag: NFT has already been tagged\");\n\n        // Ensure that we are dealing with an ERC721 compliant _nftContract\n        try IERC721(_nftContract).supportsInterface(_INTERFACE_ID_ERC721) returns (bool result) {\n            require(result == true, \"Contract does not implement the ERC721 interface\");\n        } catch Error(string memory reason) {\n            require(false, reason);\n        } catch {\n            require(false, \"Invalid NFT contract\");\n        }\n\n        // NFT existence checks - revert if NFT does not exist\n        try IERC721(_nftContract).ownerOf(_nftId) returns (address owner) {\n            require(owner != address(0), \"Token does not exist or is owned by the zero address\");\n        } catch Error(string memory reason) {\n            require(false, reason);\n        } catch {\n            require(false, \"Token does not exist\");\n        }\n\n        // Generate a new tag ID\n        totalTags = totalTags.add(1);\n        uint256 tagId = totalTags;\n\n        tagIdToTag[tagId] = Tag({\n            hashtagId: _hashtagId,\n            nftContract: _nftContract,\n            nftId: _nftId,\n            tagger: _tagger,\n            tagstamp: now,\n            publisher: _publisher\n        });\n\n        // Create the links between the tagging event and the hashtag, nft, publisher and tagger\n        hashtagIdToListOfTagIds[_hashtagId].push(tagId);\n        nftToListOfTagIds[_nftContract][_nftId].push(tagId);\n        publisherToListOfTagIds[_publisher].push(tagId);\n        taggerToListOfTagIds[_tagger].push(tagId);\n\n        // Split the tagging fee paid by the tagger to the relevant entities i.e. publisher, owner and platform\n        (uint256 platformFee, uint256 publisherFee, uint256 hashtagFee) = splitter.handlePayment{value: tagFeeAfterDiscount}(_hashtagId, _publisher);\n\n        // Give the user their change if they've overpaid\n        _refundRemainingBalance();\n\n        // Log that an NFT has been tagged\n        emit HashtagRegistered(_tagger, _nftContract, _publisher, _hashtagId, _nftId, platformFee, publisherFee, hashtagFee);\n    }\n\n    /**\n     * @notice Retrieves information about a tag event\n     * @param _tagId ID of the tagging event of interest\n     * @return _hashtagId hashtag ID\n     * @return _nftContract NFT contract address\n     * @return _nftId NFT ID\n     * @return _tagger Address that tagged the NFT asset\n     * @return _tagstamp When the tag took place\n     * @return _publisher Publisher through which the tag took place\n    */\n    function getTagInfo(uint256 _tagId) external view returns (\n        uint256 _hashtagId,\n        address _nftContract,\n        uint256 _nftId,\n        address _tagger,\n        uint256 _tagstamp,\n        address _publisher\n    ) {\n        Tag memory tagInfo = tagIdToTag[_tagId];\n        return (\n            tagInfo.hashtagId,\n            tagInfo.nftContract,\n            tagInfo.nftId,\n            tagInfo.tagger,\n            tagInfo.tagstamp,\n            tagInfo.publisher\n        );\n    }\n\n    /**\n     * @notice Gets the IDs of all tag events related to a hashtag\n     * @param _hashtagId ID of the hashtag\n     * @return uint256[] List of tag IDs relating to tag events\n    */\n    function getAllTagIdsForAGivenHashtag(uint256 _hashtagId) external view returns (uint256[] memory) {\n        return hashtagIdToListOfTagIds[_hashtagId];\n    }\n\n    /**\n     * @notice Gets the IDs of all tag events related to an NFT\n     * @param _nftContract address of the nft contract\n     * @param _nftId ID of the nft\n     * @return uint256[] List of tag IDs relating to tag events\n    */\n    function getAllTagIdsForAGivenNft(address _nftContract, uint256 _nftId) external view returns (uint256[] memory) {\n        return nftToListOfTagIds[_nftContract][_nftId];\n    }\n\n    /**\n     * @notice Gets the IDs of all tag events that took place through a publisher\n     * @param _publisher Address of the publisher\n     * @return uint256[] List of tag IDs relating to tag events\n    */\n    function getAllTagIdsForAGivenPublisher(address _publisher) external view returns (uint256[] memory) {\n        return publisherToListOfTagIds[_publisher];\n    }\n\n    /**\n     * @notice Gets the IDs of all tag events that were triggered by a given address\n     * @param _tagger Address of the tagger\n     * @return uint256[] List of tag IDs relating to tag events\n    */\n    function getAllTagIdsForAGivenTagger(address _tagger) external view returns (uint256[] memory) {\n        return taggerToListOfTagIds[_tagger];\n    }\n\n    /**\n     * @notice Sets the fee required to tag an NFT asset\n     * @param _fee Value of the fee in WEI\n    */\n    function setTagFee(uint256 _fee) onlyAdmin external {\n        tagFee = _fee;\n    }\n\n    /**\n     * @notice Allows the configuration of a discount percentage on the tagging fee\n     * @dev The percentage defined must be to 2 decimal places. For example: For a discount of 12.55%, multiply this by 100 to get 1255\n     * @param _mintAndTagDiscount Discount percentage\n    */\n    function setMintAndTagDiscount(uint256 _mintAndTagDiscount) onlyAdmin external {\n        mintAndTagDiscount = _mintAndTagDiscount;\n    }\n\n    /**\n     * @notice Calculates the tagging fee after the discount is applied\n     * @return uint256 Tag fee after discount\n    */\n    function calculateTagFeeAfterDiscount() public view returns (uint256) {\n        uint256 tagFeeDiscount = tagFee.div(modulo).mul(mintAndTagDiscount);\n        return tagFee.sub(tagFeeDiscount);\n    }\n\n    /**\n     * @notice Calculates the fee that would be required to create a hashtag and tag an NFT asset in the same transaction\n     * @return uint256 Fee for minting and tagging\n    */\n    function calculateMintAndTagFee() public view returns (uint256) {\n        uint256 protocolFee = hashtagProtocol.fee();\n        uint256 finalTagFee = calculateTagFeeAfterDiscount();\n        return protocolFee.add(finalTagFee);\n    }\n\n    /**\n     * @notice Admin functionality for updating the commission splitter\n     * @param _splitter Address of the splitting contract\n    */\n    function updateSplitter(HashtagLinkSplitter _splitter) onlyAdmin external {\n        splitter = _splitter;\n    }\n\n    /**\n     * @notice Admin functionality for updating the access controls\n     * @param _accessControls Address of the access controls contract\n    */\n    function updateAccessControls(HashtagAccessControls _accessControls) onlyAdmin external {\n        accessControls = _accessControls;\n    }\n\n    /**\n     * @notice Given a contract balance, sends the value back to the sender - the equivalent of giving a user change\n    */\n    function _refundRemainingBalance() private {\n        address payable self = payable(address(this));\n        (bool refundSuccess, ) = _msgSender().call{value: self.balance}(\"\");\n        require(refundSuccess, \"Failed to refund the remaining balance to sender\");\n    }\n\n    /**\n     * @notice Private method for checking whether a hashtag is already associated with an NFT\n     * @param _hashtagId ID of the hashtag\n     * @param _nftContract Address of the nft contract\n     * @param _nftId ID of the NFT\n     * @return bool True if the hashtag has never been associated with the nft, false if there is an existing link\n    */\n    // FIXME loops are bad...might need another data structure to help with this\n    function _isNewTagForNft(uint256 _hashtagId, address _nftContract, uint256 _nftId) private view returns (bool) {\n        uint256[] memory tagIds = nftToListOfTagIds[_nftContract][_nftId];\n\n        bool isNewTag = true;\n        for(uint256 i = 0; i < tagIds.length; i++) {\n            uint256 tagId = tagIds[i];\n            Tag memory aTag = tagIdToTag[tagId];\n\n            if (aTag.nftContract == _nftContract && aTag.nftId == _nftId && aTag.hashtagId == _hashtagId) {\n                isNewTag = false;\n                break;\n            }\n        }\n\n        return isNewTag;\n    }\n}",
  "sourcePath": "/Users/Natalie/Projects/hashtag-contracts/contracts/registry/ERC721HashtagRegistry.sol",
  "compiler": {
    "name": "solc",
    "version": "0.6.6+commit.6c089d02.Emscripten.clang"
  },
  "schemaVersion": "3.1.0",
  "updatedAt": "2020-05-12T10:27:05.040Z",
  "networkType": "ethereum",
  "devdoc": {
    "author": "Hashtag Protocol",
    "methods": {
      "getAllTagIdsForAGivenHashtag(uint256)": {
        "params": {
          "_hashtagId": "ID of the hashtag"
        },
        "returns": {
          "_0": "uint256[] List of tag IDs relating to tag events"
        }
      },
      "getAllTagIdsForAGivenNft(address,uint256)": {
        "params": {
          "_nftContract": "address of the nft contract",
          "_nftId": "ID of the nft"
        },
        "returns": {
          "_0": "uint256[] List of tag IDs relating to tag events"
        }
      },
      "getAllTagIdsForAGivenPublisher(address)": {
        "params": {
          "_publisher": "Address of the publisher"
        },
        "returns": {
          "_0": "uint256[] List of tag IDs relating to tag events"
        }
      },
      "getAllTagIdsForAGivenTagger(address)": {
        "params": {
          "_tagger": "Address of the tagger"
        },
        "returns": {
          "_0": "uint256[] List of tag IDs relating to tag events"
        }
      },
      "getTagInfo(uint256)": {
        "params": {
          "_tagId": "ID of the tagging event of interest"
        },
        "returns": {
          "_hashtagId": "hashtag ID",
          "_nftContract": "NFT contract address",
          "_nftId": "NFT ID",
          "_publisher": "Publisher through which the tag took place",
          "_tagger": "Address that tagged the NFT asset",
          "_tagstamp": "When the tag took place"
        }
      },
      "mintAndTag(string,address,uint256,address,address)": {
        "details": "Only a whitelisted publisher can execute this with the required fee unless the caller / sender has admin privileges.",
        "params": {
          "_hashtag": "string value of the hashtag to be minted",
          "_nftContract": "address of nft contract",
          "_nftId": "ID of the nft to link from the above nft contract",
          "_publisher": "the publisher attributed to the tagging",
          "_tagger": "the ethereum account that made the original tagging request"
        }
      },
      "setMintAndTagDiscount(uint256)": {
        "details": "The percentage defined must be to 2 decimal places. For example: For a discount of 12.55%, multiply this by 100 to get 1255",
        "params": {
          "_mintAndTagDiscount": "Discount percentage"
        }
      },
      "setTagFee(uint256)": {
        "params": {
          "_fee": "Value of the fee in WEI"
        }
      },
      "tag(uint256,address,uint256,address,address)": {
        "details": "Only a whitelisted publisher can execute this with the required fee unless the caller / sender has admin privileges.",
        "params": {
          "_hashtagId": "ID of the hashtag being linked",
          "_nftContract": "address of nft contract",
          "_nftId": "ID of the nft to link from the above nft contract",
          "_tagger": "the ethereum account that made the original tagging request"
        }
      },
      "updateAccessControls(address)": {
        "params": {
          "_accessControls": "Address of the access controls contract"
        }
      },
      "updateSplitter(address)": {
        "params": {
          "_splitter": "Address of the splitting contract"
        }
      }
    },
    "title": "ERC721HashtagRegistry"
  },
  "userdoc": {
    "methods": {
      "calculateMintAndTagFee()": {
        "notice": "Calculates the fee that would be required to create a hashtag and tag an NFT asset in the same transaction"
      },
      "calculateTagFeeAfterDiscount()": {
        "notice": "Calculates the tagging fee after the discount is applied"
      },
      "getAllTagIdsForAGivenHashtag(uint256)": {
        "notice": "Gets the IDs of all tag events related to a hashtag"
      },
      "getAllTagIdsForAGivenNft(address,uint256)": {
        "notice": "Gets the IDs of all tag events related to an NFT"
      },
      "getAllTagIdsForAGivenPublisher(address)": {
        "notice": "Gets the IDs of all tag events that took place through a publisher"
      },
      "getAllTagIdsForAGivenTagger(address)": {
        "notice": "Gets the IDs of all tag events that were triggered by a given address"
      },
      "getTagInfo(uint256)": {
        "notice": "Retrieves information about a tag event"
      },
      "mintAndTag(string,address,uint256,address,address)": {
        "notice": "Combines the action of creating a new hashtag and then tagging an NFT asset with this new tag."
      },
      "setMintAndTagDiscount(uint256)": {
        "notice": "Allows the configuration of a discount percentage on the tagging fee"
      },
      "setTagFee(uint256)": {
        "notice": "Sets the fee required to tag an NFT asset"
      },
      "tag(uint256,address,uint256,address,address)": {
        "notice": "Tags an ERC721 NFT asset by storing a reference between the asset and a hashtag"
      },
      "updateAccessControls(address)": {
        "notice": "Admin functionality for updating the access controls"
      },
      "updateSplitter(address)": {
        "notice": "Admin functionality for updating the commission splitter"
      }
    },
    "notice": "Contract that allows any ERC721 asset to be tagged by a hashtag within the Hashtag protocol"
  }
}