{
  "contractName": "HashtagProtocol",
  "abi": [
    {
      "inputs": [
        {
          "internalType": "contract HashtagAccessControls",
          "name": "_accessControls",
          "type": "address"
        },
        {
          "internalType": "address payable",
          "name": "_platform",
          "type": "address"
        }
      ],
      "stateMutability": "nonpayable",
      "type": "constructor"
    },
    {
      "anonymous": false,
      "inputs": [
        {
          "indexed": true,
          "internalType": "address",
          "name": "owner",
          "type": "address"
        },
        {
          "indexed": true,
          "internalType": "address",
          "name": "approved",
          "type": "address"
        },
        {
          "indexed": true,
          "internalType": "uint256",
          "name": "tokenId",
          "type": "uint256"
        }
      ],
      "name": "Approval",
      "type": "event"
    },
    {
      "anonymous": false,
      "inputs": [
        {
          "indexed": true,
          "internalType": "address",
          "name": "owner",
          "type": "address"
        },
        {
          "indexed": true,
          "internalType": "address",
          "name": "operator",
          "type": "address"
        },
        {
          "indexed": false,
          "internalType": "bool",
          "name": "approved",
          "type": "bool"
        }
      ],
      "name": "ApprovalForAll",
      "type": "event"
    },
    {
      "anonymous": false,
      "inputs": [
        {
          "indexed": true,
          "internalType": "uint256",
          "name": "tokenId",
          "type": "uint256"
        },
        {
          "indexed": true,
          "internalType": "address",
          "name": "owner",
          "type": "address"
        },
        {
          "indexed": false,
          "internalType": "string",
          "name": "hashtag",
          "type": "string"
        },
        {
          "indexed": true,
          "internalType": "address",
          "name": "publisher",
          "type": "address"
        }
      ],
      "name": "MintHashtag",
      "type": "event"
    },
    {
      "anonymous": false,
      "inputs": [
        {
          "indexed": true,
          "internalType": "address",
          "name": "from",
          "type": "address"
        },
        {
          "indexed": true,
          "internalType": "address",
          "name": "to",
          "type": "address"
        },
        {
          "indexed": true,
          "internalType": "uint256",
          "name": "tokenId",
          "type": "uint256"
        }
      ],
      "name": "Transfer",
      "type": "event"
    },
    {
      "inputs": [],
      "name": "accessControls",
      "outputs": [
        {
          "internalType": "contract HashtagAccessControls",
          "name": "",
          "type": "address"
        }
      ],
      "stateMutability": "view",
      "type": "function",
      "constant": true
    },
    {
      "inputs": [
        {
          "internalType": "address",
          "name": "to",
          "type": "address"
        },
        {
          "internalType": "uint256",
          "name": "tokenId",
          "type": "uint256"
        }
      ],
      "name": "approve",
      "outputs": [],
      "stateMutability": "nonpayable",
      "type": "function"
    },
    {
      "inputs": [
        {
          "internalType": "address",
          "name": "owner",
          "type": "address"
        }
      ],
      "name": "balanceOf",
      "outputs": [
        {
          "internalType": "uint256",
          "name": "",
          "type": "uint256"
        }
      ],
      "stateMutability": "view",
      "type": "function",
      "constant": true
    },
    {
      "inputs": [],
      "name": "baseURI",
      "outputs": [
        {
          "internalType": "string",
          "name": "",
          "type": "string"
        }
      ],
      "stateMutability": "view",
      "type": "function",
      "constant": true
    },
    {
      "inputs": [
        {
          "internalType": "uint256",
          "name": "tokenId",
          "type": "uint256"
        }
      ],
      "name": "burn",
      "outputs": [],
      "stateMutability": "nonpayable",
      "type": "function"
    },
    {
      "inputs": [],
      "name": "fee",
      "outputs": [
        {
          "internalType": "uint256",
          "name": "",
          "type": "uint256"
        }
      ],
      "stateMutability": "view",
      "type": "function",
      "constant": true
    },
    {
      "inputs": [
        {
          "internalType": "uint256",
          "name": "tokenId",
          "type": "uint256"
        }
      ],
      "name": "getApproved",
      "outputs": [
        {
          "internalType": "address",
          "name": "",
          "type": "address"
        }
      ],
      "stateMutability": "view",
      "type": "function",
      "constant": true
    },
    {
      "inputs": [
        {
          "internalType": "string",
          "name": "",
          "type": "string"
        }
      ],
      "name": "hashtagToTokenId",
      "outputs": [
        {
          "internalType": "uint256",
          "name": "",
          "type": "uint256"
        }
      ],
      "stateMutability": "view",
      "type": "function",
      "constant": true
    },
    {
      "inputs": [
        {
          "internalType": "address",
          "name": "owner",
          "type": "address"
        },
        {
          "internalType": "address",
          "name": "operator",
          "type": "address"
        }
      ],
      "name": "isApprovedForAll",
      "outputs": [
        {
          "internalType": "bool",
          "name": "",
          "type": "bool"
        }
      ],
      "stateMutability": "view",
      "type": "function",
      "constant": true
    },
    {
      "inputs": [],
      "name": "name",
      "outputs": [
        {
          "internalType": "string",
          "name": "",
          "type": "string"
        }
      ],
      "stateMutability": "view",
      "type": "function",
      "constant": true
    },
    {
      "inputs": [
        {
          "internalType": "uint256",
          "name": "tokenId",
          "type": "uint256"
        }
      ],
      "name": "ownerOf",
      "outputs": [
        {
          "internalType": "address",
          "name": "",
          "type": "address"
        }
      ],
      "stateMutability": "view",
      "type": "function",
      "constant": true
    },
    {
      "inputs": [],
      "name": "platform",
      "outputs": [
        {
          "internalType": "address payable",
          "name": "",
          "type": "address"
        }
      ],
      "stateMutability": "view",
      "type": "function",
      "constant": true
    },
    {
      "inputs": [],
      "name": "platformPercentage",
      "outputs": [
        {
          "internalType": "uint256",
          "name": "",
          "type": "uint256"
        }
      ],
      "stateMutability": "view",
      "type": "function",
      "constant": true
    },
    {
      "inputs": [
        {
          "internalType": "address",
          "name": "from",
          "type": "address"
        },
        {
          "internalType": "address",
          "name": "to",
          "type": "address"
        },
        {
          "internalType": "uint256",
          "name": "tokenId",
          "type": "uint256"
        }
      ],
      "name": "safeTransferFrom",
      "outputs": [],
      "stateMutability": "nonpayable",
      "type": "function"
    },
    {
      "inputs": [
        {
          "internalType": "address",
          "name": "from",
          "type": "address"
        },
        {
          "internalType": "address",
          "name": "to",
          "type": "address"
        },
        {
          "internalType": "uint256",
          "name": "tokenId",
          "type": "uint256"
        },
        {
          "internalType": "bytes",
          "name": "_data",
          "type": "bytes"
        }
      ],
      "name": "safeTransferFrom",
      "outputs": [],
      "stateMutability": "nonpayable",
      "type": "function"
    },
    {
      "inputs": [
        {
          "internalType": "address",
          "name": "operator",
          "type": "address"
        },
        {
          "internalType": "bool",
          "name": "approved",
          "type": "bool"
        }
      ],
      "name": "setApprovalForAll",
      "outputs": [],
      "stateMutability": "nonpayable",
      "type": "function"
    },
    {
      "inputs": [
        {
          "internalType": "bytes4",
          "name": "interfaceId",
          "type": "bytes4"
        }
      ],
      "name": "supportsInterface",
      "outputs": [
        {
          "internalType": "bool",
          "name": "",
          "type": "bool"
        }
      ],
      "stateMutability": "view",
      "type": "function",
      "constant": true
    },
    {
      "inputs": [],
      "name": "symbol",
      "outputs": [
        {
          "internalType": "string",
          "name": "",
          "type": "string"
        }
      ],
      "stateMutability": "view",
      "type": "function",
      "constant": true
    },
    {
      "inputs": [
        {
          "internalType": "uint256",
          "name": "index",
          "type": "uint256"
        }
      ],
      "name": "tokenByIndex",
      "outputs": [
        {
          "internalType": "uint256",
          "name": "",
          "type": "uint256"
        }
      ],
      "stateMutability": "view",
      "type": "function",
      "constant": true
    },
    {
      "inputs": [
        {
          "internalType": "uint256",
          "name": "",
          "type": "uint256"
        }
      ],
      "name": "tokenIdToHashtag",
      "outputs": [
        {
          "internalType": "uint256",
          "name": "created",
          "type": "uint256"
        },
        {
          "internalType": "address",
          "name": "originalPublisher",
          "type": "address"
        },
        {
          "internalType": "address",
          "name": "creator",
          "type": "address"
        },
        {
          "internalType": "string",
          "name": "value",
          "type": "string"
        }
      ],
      "stateMutability": "view",
      "type": "function",
      "constant": true
    },
    {
      "inputs": [
        {
          "internalType": "address",
          "name": "owner",
          "type": "address"
        },
        {
          "internalType": "uint256",
          "name": "index",
          "type": "uint256"
        }
      ],
      "name": "tokenOfOwnerByIndex",
      "outputs": [
        {
          "internalType": "uint256",
          "name": "",
          "type": "uint256"
        }
      ],
      "stateMutability": "view",
      "type": "function",
      "constant": true
    },
    {
      "inputs": [],
      "name": "tokenPointer",
      "outputs": [
        {
          "internalType": "uint256",
          "name": "",
          "type": "uint256"
        }
      ],
      "stateMutability": "view",
      "type": "function",
      "constant": true
    },
    {
      "inputs": [
        {
          "internalType": "uint256",
          "name": "tokenId",
          "type": "uint256"
        }
      ],
      "name": "tokenURI",
      "outputs": [
        {
          "internalType": "string",
          "name": "",
          "type": "string"
        }
      ],
      "stateMutability": "view",
      "type": "function",
      "constant": true
    },
    {
      "inputs": [],
      "name": "totalSupply",
      "outputs": [
        {
          "internalType": "uint256",
          "name": "",
          "type": "uint256"
        }
      ],
      "stateMutability": "view",
      "type": "function",
      "constant": true
    },
    {
      "inputs": [
        {
          "internalType": "address",
          "name": "from",
          "type": "address"
        },
        {
          "internalType": "address",
          "name": "to",
          "type": "address"
        },
        {
          "internalType": "uint256",
          "name": "tokenId",
          "type": "uint256"
        }
      ],
      "name": "transferFrom",
      "outputs": [],
      "stateMutability": "nonpayable",
      "type": "function"
    },
    {
      "inputs": [
        {
          "internalType": "uint256",
          "name": "_tokenId",
          "type": "uint256"
        }
      ],
      "name": "exists",
      "outputs": [
        {
          "internalType": "bool",
          "name": "",
          "type": "bool"
        }
      ],
      "stateMutability": "view",
      "type": "function",
      "constant": true
    },
    {
      "inputs": [
        {
          "internalType": "address",
          "name": "_owner",
          "type": "address"
        }
      ],
      "name": "tokensOfOwner",
      "outputs": [
        {
          "internalType": "uint256[]",
          "name": "",
          "type": "uint256[]"
        }
      ],
      "stateMutability": "view",
      "type": "function",
      "constant": true
    },
    {
      "inputs": [
        {
          "internalType": "uint256",
          "name": "_tokenId",
          "type": "uint256"
        },
        {
          "internalType": "string",
          "name": "_uri",
          "type": "string"
        }
      ],
      "name": "setTokenURI",
      "outputs": [],
      "stateMutability": "nonpayable",
      "type": "function"
    },
    {
      "inputs": [
        {
          "internalType": "string",
          "name": "_baseURI",
          "type": "string"
        }
      ],
      "name": "setBaseURI",
      "outputs": [],
      "stateMutability": "nonpayable",
      "type": "function"
    },
    {
      "inputs": [
        {
          "internalType": "string",
          "name": "_hashtag",
          "type": "string"
        },
        {
          "internalType": "address payable",
          "name": "_publisher",
          "type": "address"
        },
        {
          "internalType": "address",
          "name": "_recipient",
          "type": "address"
        }
      ],
      "name": "mint",
      "outputs": [
        {
          "internalType": "uint256",
          "name": "_tokenId",
          "type": "uint256"
        }
      ],
      "stateMutability": "payable",
      "type": "function",
      "payable": true
    },
    {
      "inputs": [
        {
          "internalType": "uint256",
          "name": "_fee",
          "type": "uint256"
        }
      ],
      "name": "setFee",
      "outputs": [],
      "stateMutability": "nonpayable",
      "type": "function"
    },
    {
      "inputs": [
        {
          "internalType": "uint256",
          "name": "_platformPercentage",
          "type": "uint256"
        }
      ],
      "name": "setPlatformPercentage",
      "outputs": [],
      "stateMutability": "nonpayable",
      "type": "function"
    },
    {
      "inputs": [
        {
          "internalType": "address payable",
          "name": "_platform",
          "type": "address"
        }
      ],
      "name": "setPlatform",
      "outputs": [],
      "stateMutability": "nonpayable",
      "type": "function"
    },
    {
      "inputs": [
        {
          "internalType": "uint256",
          "name": "_tokenId",
          "type": "uint256"
        }
      ],
      "name": "getPaymentAddresses",
      "outputs": [
        {
          "internalType": "address payable",
          "name": "_platform",
          "type": "address"
        },
        {
          "internalType": "address payable",
          "name": "_owner",
          "type": "address"
        }
      ],
      "stateMutability": "view",
      "type": "function",
      "constant": true
    },
    {
      "inputs": [
        {
          "internalType": "address",
          "name": "_addr",
          "type": "address"
        }
      ],
      "name": "isAdmin",
      "outputs": [
        {
          "internalType": "bool",
          "name": "",
          "type": "bool"
        }
      ],
      "stateMutability": "view",
      "type": "function",
      "constant": true
    },
    {
      "inputs": [
        {
          "internalType": "address",
          "name": "_addr",
          "type": "address"
        }
      ],
      "name": "isPublisher",
      "outputs": [
        {
          "internalType": "bool",
          "name": "",
          "type": "bool"
        }
      ],
      "stateMutability": "view",
      "type": "function",
      "constant": true
    },
    {
      "inputs": [
        {
          "internalType": "address",
          "name": "_addr",
          "type": "address"
        }
      ],
      "name": "isMinter",
      "outputs": [
        {
          "internalType": "bool",
          "name": "",
          "type": "bool"
        }
      ],
      "stateMutability": "view",
      "type": "function",
      "constant": true
    },
    {
      "inputs": [
        {
          "internalType": "address",
          "name": "_addr",
          "type": "address"
        }
      ],
      "name": "isSenderPublisher",
      "outputs": [
        {
          "internalType": "bool",
          "name": "",
          "type": "bool"
        }
      ],
      "stateMutability": "view",
      "type": "function",
      "constant": true
    }
  ],
  "bytecode": "0x60806040526000600d55662386f26fc10000600e556123286012556127106013553480156200002d57600080fd5b506040516200351e3803806200351e833981810160405260408110156200005357600080fd5b508051602091820151604080518082018252601081526f12185cda1d1859c8141c9bdd1bd8dbdb60821b81860152815180830190925260078252664841534854414760c81b94820194909452919290918181620000c06301ffc9a760e01b6001600160e01b036200017816565b620000db6380ac58cd60e01b6001600160e01b036200017816565b620000f663780e9d6360e01b6001600160e01b036200017816565b81516200010b906009906020850190620001fd565b5080516200012190600a906020840190620001fd565b506200013d635b5e139f60e01b6001600160e01b036200017816565b5050601480546001600160a01b039586166001600160a01b031991821617909155601180549490951693169290921790925550620002a29050565b6001600160e01b03198082161415620001d8576040805162461bcd60e51b815260206004820152601c60248201527f4552433136353a20696e76616c696420696e7465726661636520696400000000604482015290519081900360640190fd5b6001600160e01b0319166000908152602081905260409020805460ff19166001179055565b828054600181600116156101000203166002900490600052602060002090601f016020900481019282601f106200024057805160ff191683800117855562000270565b8280016001018555821562000270579182015b828111156200027057825182559160200191906001019062000253565b506200027e92915062000282565b5090565b6200029f91905b808211156200027e576000815560010162000289565b90565b61326c80620002b26000396000f3fe6080604052600436106102255760003560e01c806355f804b311610123578063878327ab116100ab578063c87b56dd1161006f578063c87b56dd14610b11578063d977a65314610b3b578063ddca3f4314610bec578063e2e982c814610c01578063e985e9c514610cdc57610225565b8063878327ab1461096d57806395d89b41146109bd578063a22cb465146109d2578063aa271e1a14610a0d578063b88d4fde14610a4057610225565b80636c0360eb116100f25780636c0360eb146107d357806370a08231146107e8578063748365ef1461081b5780637e6d945e146108305780638462151c146108ea57610225565b806355f804b31461069b5780636352211e1461074c5780636945c5ea1461077657806369fe0e2d146107a957610225565b806323b872dd116101b157806342842e0e1161017557806342842e0e146105c557806342966c68146106085780634bde38c8146106325780634f558e79146106475780634f6ccce71461067157610225565b806323b872dd146104b057806324d7806c146104f35780632f745c591461052657806337c5e15f1461055f57806341859ac81461059257610225565b8063095ea7b3116101f8578063095ea7b31461036957806314d39bad146103a4578063162094c4146103ce57806318160ddd146104865780631f7418971461049b57610225565b806301ffc9a71461022a578063028316511461027257806306fdde0314610299578063081812fc14610323575b600080fd5b34801561023657600080fd5b5061025e6004803603602081101561024d57600080fd5b50356001600160e01b031916610d17565b604080519115158252519081900360200190f35b34801561027e57600080fd5b50610287610d3a565b60408051918252519081900360200190f35b3480156102a557600080fd5b506102ae610d40565b6040805160208082528351818301528351919283929083019185019080838360005b838110156102e85781810151838201526020016102d0565b50505050905090810190601f1680156103155780820380516001836020036101000a031916815260200191505b509250505060405180910390f35b34801561032f57600080fd5b5061034d6004803603602081101561034657600080fd5b5035610dd7565b604080516001600160a01b039092168252519081900360200190f35b34801561037557600080fd5b506103a26004803603604081101561038c57600080fd5b506001600160a01b038135169060200135610e39565b005b3480156103b057600080fd5b506103a2600480360360208110156103c757600080fd5b5035610f14565b3480156103da57600080fd5b506103a2600480360360408110156103f157600080fd5b81359190810190604081016020820135600160201b81111561041257600080fd5b82018360208201111561042457600080fd5b803590602001918460018302840111600160201b8311171561044557600080fd5b91908080601f016020809104026020016040519081016040528093929190818152602001838380828437600092019190915250929550610f71945050505050565b34801561049257600080fd5b50610287610fd2565b3480156104a757600080fd5b50610287610fd8565b3480156104bc57600080fd5b506103a2600480360360608110156104d357600080fd5b506001600160a01b03813581169160208101359091169060400135610fde565b3480156104ff57600080fd5b5061025e6004803603602081101561051657600080fd5b50356001600160a01b0316611035565b34801561053257600080fd5b506102876004803603604081101561054957600080fd5b506001600160a01b0381351690602001356110bf565b34801561056b57600080fd5b5061025e6004803603602081101561058257600080fd5b50356001600160a01b031661113f565b34801561059e57600080fd5b5061025e600480360360208110156105b557600080fd5b50356001600160a01b0316611146565b3480156105d157600080fd5b506103a2600480360360608110156105e857600080fd5b506001600160a01b038135811691602081013590911690604001356111e8565b34801561061457600080fd5b506103a26004803603602081101561062b57600080fd5b5035611203565b34801561063e57600080fd5b5061034d611255565b34801561065357600080fd5b5061025e6004803603602081101561066a57600080fd5b5035611264565b34801561067d57600080fd5b506102876004803603602081101561069457600080fd5b503561126f565b3480156106a757600080fd5b506103a2600480360360208110156106be57600080fd5b810190602081018135600160201b8111156106d857600080fd5b8201836020820111156106ea57600080fd5b803590602001918460018302840111600160201b8311171561070b57600080fd5b91908080601f0160208091040260200160405190810160405280939291908181526020018383808284376000920191909152509295506112d5945050505050565b34801561075857600080fd5b5061034d6004803603602081101561076f57600080fd5b5035611331565b34801561078257600080fd5b506103a26004803603602081101561079957600080fd5b50356001600160a01b0316611385565b3480156107b557600080fd5b506103a2600480360360208110156107cc57600080fd5b50356113fa565b3480156107df57600080fd5b506102ae611452565b3480156107f457600080fd5b506102876004803603602081101561080b57600080fd5b50356001600160a01b03166114b3565b34801561082757600080fd5b5061034d61151b565b6102876004803603606081101561084657600080fd5b810190602081018135600160201b81111561086057600080fd5b82018360208201111561087257600080fd5b803590602001918460018302840111600160201b8311171561089357600080fd5b91908080601f016020809104026020016040519081016040528093929190818152602001838380828437600092019190915250929550506001600160a01b03833581169450602090930135909216915061152a9050565b3480156108f657600080fd5b5061091d6004803603602081101561090d57600080fd5b50356001600160a01b031661197e565b60408051602080825283518183015283519192839290830191858101910280838360005b83811015610959578181015183820152602001610941565b505050509050019250505060405180910390f35b34801561097957600080fd5b506109976004803603602081101561099057600080fd5b50356119df565b604080516001600160a01b03938416815291909216602082015281519081900390910190f35b3480156109c957600080fd5b506102ae611a02565b3480156109de57600080fd5b506103a2600480360360408110156109f557600080fd5b506001600160a01b0381351690602001351515611a63565b348015610a1957600080fd5b5061025e60048036036020811015610a3057600080fd5b50356001600160a01b0316611b68565b348015610a4c57600080fd5b506103a260048036036080811015610a6357600080fd5b6001600160a01b03823581169260208101359091169160408201359190810190608081016060820135600160201b811115610a9d57600080fd5b820183602082011115610aaf57600080fd5b803590602001918460018302840111600160201b83111715610ad057600080fd5b91908080601f016020809104026020016040519081016040528093929190818152602001838380828437600092019190915250929550611be2945050505050565b348015610b1d57600080fd5b506102ae60048036036020811015610b3457600080fd5b5035611c40565b348015610b4757600080fd5b5061028760048036036020811015610b5e57600080fd5b810190602081018135600160201b811115610b7857600080fd5b820183602082011115610b8a57600080fd5b803590602001918460018302840111600160201b83111715610bab57600080fd5b91908080601f016020809104026020016040519081016040528093929190818152602001838380828437600092019190915250929550611e0c945050505050565b348015610bf857600080fd5b50610287611e29565b348015610c0d57600080fd5b50610c2b60048036036020811015610c2457600080fd5b5035611e2f565b60405180858152602001846001600160a01b03166001600160a01b03168152602001836001600160a01b03166001600160a01b0316815260200180602001828103825283818151815260200191508051906020019080838360005b83811015610c9e578181015183820152602001610c86565b50505050905090810190601f168015610ccb5780820380516001836020036101000a031916815260200191505b509550505050505060405180910390f35b348015610ce857600080fd5b5061025e60048036036040811015610cff57600080fd5b506001600160a01b0381358116916020013516611eef565b6001600160e01b0319811660009081526020819052604090205460ff165b919050565b600d5481565b60098054604080516020601f6002600019610100600188161502019095169490940493840181900481028201810190925282815260609390929091830182828015610dcc5780601f10610da157610100808354040283529160200191610dcc565b820191906000526020600020905b815481529060010190602001808311610daf57829003601f168201915b505050505090505b90565b6000610de282611f1d565b610e1d5760405162461bcd60e51b815260040180806020018281038252602c815260200180613031602c913960400191505060405180910390fd5b506000908152600260205260409020546001600160a01b031690565b6000610e4482611331565b9050806001600160a01b0316836001600160a01b03161415610e975760405162461bcd60e51b815260040180806020018281038252602181526020018061315f6021913960400191505060405180910390fd5b806001600160a01b0316610ea9611f3a565b6001600160a01b03161480610eca5750610eca81610ec5611f3a565b611eef565b610f055760405162461bcd60e51b8152600401808060200182810382526038815260200180612f5c6038913960400191505060405180910390fd5b610f0f8383611f3e565b505050565b610f24610f1f611f3a565b611035565b610f6c576040805162461bcd60e51b815260206004820152601460248201527321b0b63632b91036bab9ba1031329030b236b4b760611b604482015290519081900360640190fd5b601255565b610f7c610f1f611f3a565b610fc4576040805162461bcd60e51b815260206004820152601460248201527321b0b63632b91036bab9ba1031329030b236b4b760611b604482015290519081900360640190fd5b610fce8282611fac565b5050565b60075490565b60125481565b610fef610fe9611f3a565b8261200f565b61102a5760405162461bcd60e51b81526004018080602001828103825260318152602001806131806031913960400191505060405180910390fd5b610f0f8383836120b3565b60145460408051632474521560e21b81526000600482018190526001600160a01b03858116602484015292519093849316916391d14854916044808301926020929190829003018186803b15801561108c57600080fd5b505afa1580156110a0573d6000803e3d6000fd5b505050506040513d60208110156110b657600080fd5b50519392505050565b60006110ca836114b3565b82106111075760405162461bcd60e51b815260040180806020018281038252602b815260200180612eaf602b913960400191505060405180910390fd5b6001600160a01b038316600090815260056020526040902080548390811061112b57fe5b906000526020600020015490505b92915050565b6000611139825b6014546040805168282aa12624a9a422a960b91b81528151908190036009018120632474521560e21b825260048201526001600160a01b038481166024830152915160009392909216916391d1485491604480820192602092909190829003018186803b1580156111b657600080fd5b505afa1580156111ca573d6000803e3d6000fd5b505050506040513d60208110156111e057600080fd5b505192915050565b610f0f83838360405180602001604052806000815250611be2565b61120e610fe9611f3a565b6112495760405162461bcd60e51b81526004018080602001828103825260308152602001806132076030913960400191505060405180910390fd5b61125281612204565b50565b6011546001600160a01b031681565b600061113982611f1d565b6000611279610fd2565b82106112b65760405162461bcd60e51b815260040180806020018281038252602c8152602001806131b1602c913960400191505060405180910390fd5b600782815481106112c357fe5b90600052602060002001549050919050565b6112e0610f1f611f3a565b611328576040805162461bcd60e51b815260206004820152601460248201527321b0b63632b91036bab9ba1031329030b236b4b760611b604482015290519081900360640190fd5b6112528161229e565b6000818152600160205260408120546001600160a01b0316806111395760405162461bcd60e51b8152600401808060200182810382526029815260200180612fbe6029913960400191505060405180910390fd5b611390610f1f611f3a565b6113d8576040805162461bcd60e51b815260206004820152601460248201527321b0b63632b91036bab9ba1031329030b236b4b760611b604482015290519081900360640190fd5b601180546001600160a01b0319166001600160a01b0392909216919091179055565b611405610f1f611f3a565b61144d576040805162461bcd60e51b815260206004820152601460248201527321b0b63632b91036bab9ba1031329030b236b4b760611b604482015290519081900360640190fd5b600e55565b600c8054604080516020601f6002600019610100600188161502019095169490940493840181900481028201810190925282815260609390929091830182828015610dcc5780601f10610da157610100808354040283529160200191610dcc565b60006001600160a01b0382166114fa5760405162461bcd60e51b815260040180806020018281038252602a815260200180612f94602a913960400191505060405180910390fd5b6001600160a01b0382166000908152600360205260409020611139906122b1565b6014546001600160a01b031681565b6000611535836122b5565b6115705760405162461bcd60e51b815260040180806020018281038252604e815260200180613111604e913960600191505060405180910390fd5b606061157b85612305565b90506010816040518082805190602001908083835b602083106115af5780518252601f199092019160209182019101611590565b51815160209384036101000a60001901801990921691161790529201948552506040519384900301909220541591506116319050576040805162461bcd60e51b815260206004820152601c60248201527f4d696e743a204861736874616720616c7265616479206f776e65642e00000000604482015290519081900360640190fd5b600d5461164590600163ffffffff61236916565b600d819055604080516080810182524281526001600160a01b0387166020820152908101611671611f3a565b6001600160a01b03908116825260209182018590526000848152600f835260409081902084518155848401516001820180549185166001600160a01b031992831617905591850151600282018054919094169216919091179091556060830151805191926116e792600385019290910190612dda565b50905050600d546010836040518082805190602001908083835b602083106117205780518252601f199092019160209182019101611701565b51815160209384036101000a60001901801990921691161790529201948552506040519384900301909220929092555061175c905084826123ca565b600061178760125461177b601354600e5461250790919063ffffffff16565b9063ffffffff61254916565b6011546040519192506000916001600160a01b039091169083908381818185875af1925050503d80600081146117d9576040519150601f19603f3d011682016040523d82523d6000602084013e6117de565b606091505b505090508061181e5760405162461bcd60e51b8152600401808060200182810382526029815260200180612fe76029913960400191505060405180910390fd5b60006001600160a01b03881661183a348563ffffffff6125a216565b604051600081818185875af1925050503d8060008114611876576040519150601f19603f3d011682016040523d82523d6000602084013e61187b565b606091505b50509050806118bb5760405162461bcd60e51b815260040180806020018281038252602a8152602001806131dd602a913960400191505060405180910390fd5b6118c36125e4565b876001600160a01b0316336001600160a01b0316857f07b13007633d2ea39b2d62e9b25fd9f75d6936677e83436a7eef20143d24af16886040518080602001828103825283818151815260200191508051906020019080838360005b8381101561193757818101518382015260200161191f565b50505050905090810190601f1680156119645780820380516001836020036101000a031916815260200191505b509250505060405180910390a45091979650505050505050565b606061198982612680565b8054806020026020016040519081016040528092919081815260200182805480156119d357602002820191906000526020600020905b8154815260200190600101908083116119bf575b50505050509050919050565b60115460009081906001600160a01b03166119f984611331565b91509150915091565b600a8054604080516020601f6002600019610100600188161502019095169490940493840181900481028201810190925282815260609390929091830182828015610dcc5780601f10610da157610100808354040283529160200191610dcc565b611a6b611f3a565b6001600160a01b0316826001600160a01b03161415611ad1576040805162461bcd60e51b815260206004820152601960248201527f4552433732313a20617070726f766520746f2063616c6c657200000000000000604482015290519081900360640190fd5b8060046000611ade611f3a565b6001600160a01b03908116825260208083019390935260409182016000908120918716808252919093529120805460ff191692151592909217909155611b22611f3a565b60408051841515815290516001600160a01b0392909216917f17307eab39ab6107e8899845ad3d59bd9653f200f220920489ca2b5937696c319181900360200190a35050565b6014546040805172484153485441475f4d494e5445525f524f4c4560681b81528151908190036013018120632474521560e21b825260048201526001600160a01b038481166024830152915160009392909216916391d1485491604480820192602092909190829003018186803b1580156111b657600080fd5b611bf3611bed611f3a565b8361200f565b611c2e5760405162461bcd60e51b81526004018080602001828103825260318152602001806131806031913960400191505060405180910390fd5b611c3a8484848461269a565b50505050565b6060611c4b82611f1d565b611c865760405162461bcd60e51b815260040180806020018281038252602f8152602001806130e2602f913960400191505060405180910390fd5b6000828152600b602090815260409182902080548351601f6002600019610100600186161502019093169290920491820184900484028101840190945280845260609392830182828015611d1b5780601f10611cf057610100808354040283529160200191611d1b565b820191906000526020600020905b815481529060010190602001808311611cfe57829003601f168201915b50505050509050805160001415611d42575050604080516020810190915260008152610d35565b600c816040516020018083805460018160011615610100020316600290048015611da35780601f10611d81576101008083540402835291820191611da3565b820191906000526020600020905b815481529060010190602001808311611d8f575b5050825160208401908083835b60208310611dcf5780518252601f199092019160209182019101611db0565b6001836020036101000a03801982511681845116808217855250505050505090500192505050604051602081830303815290604052915050610d35565b805160208183018101805160108252928201919093012091525481565b600e5481565b600f60209081526000918252604091829020805460018083015460028085015460038601805489516101009682161596909602600019011692909204601f810188900488028501880190985287845293966001600160a01b03928316969290941694939091830182828015611ee55780601f10611eba57610100808354040283529160200191611ee5565b820191906000526020600020905b815481529060010190602001808311611ec857829003601f168201915b5050505050905084565b6001600160a01b03918216600090815260046020908152604080832093909416825291909152205460ff1690565b6000908152600160205260409020546001600160a01b0316151590565b3390565b600081815260026020526040902080546001600160a01b0319166001600160a01b0384169081179091558190611f7382611331565b6001600160a01b03167f8c5be1e5ebec7d5bd14f71427d1e84f3dd0314c0f7b2291e5b200ac8c7c3b92560405160405180910390a45050565b611fb582611f1d565b611ff05760405162461bcd60e51b815260040180806020018281038252602c81526020018061305d602c913960400191505060405180910390fd5b6000828152600b602090815260409091208251610f0f92840190612dda565b600061201a82611f1d565b6120555760405162461bcd60e51b815260040180806020018281038252602c815260200180612f30602c913960400191505060405180910390fd5b600061206083611331565b9050806001600160a01b0316846001600160a01b0316148061209b5750836001600160a01b031661209084610dd7565b6001600160a01b0316145b806120ab57506120ab8185611eef565b949350505050565b826001600160a01b03166120c682611331565b6001600160a01b03161461210b5760405162461bcd60e51b81526004018080602001828103825260298152602001806130b96029913960400191505060405180910390fd5b6001600160a01b0382166121505760405162461bcd60e51b8152600401808060200182810382526024815260200180612f0c6024913960400191505060405180910390fd5b61215b8383836126ec565b612166600082611f3e565b6001600160a01b0383166000908152600360205260409020612187906126f7565b6001600160a01b03821660009081526003602052604090206121a89061270e565b60008181526001602052604080822080546001600160a01b0319166001600160a01b0386811691821790925591518493918716917fddf252ad1be2c89b69c2b068fc378daa952ba7f163c4a11628f55a4df523b3ef91a4505050565b600061220f82611331565b905061221d816000846126ec565b612228600083611f3e565b6001600160a01b0381166000908152600360205260409020612249906126f7565b60008281526001602052604080822080546001600160a01b0319169055518391906001600160a01b038416907fddf252ad1be2c89b69c2b068fc378daa952ba7f163c4a11628f55a4df523b3ef908390a45050565b8051610fce90600c906020840190612dda565b5490565b6000806122c3610f1f611f3a565b905060006122d76122d2611f3a565b611b68565b806122e657506122e68461113f565b905081806120ab57508080156120ab5750600e54341015949350505050565b60608160005b81518110156123625761233782828151811061232357fe5b01602001516001600160f81b031916612717565b82828151811061234357fe5b60200101906001600160f81b031916908160001a90535060010161230b565b5092915050565b6000828201838110156123c3576040805162461bcd60e51b815260206004820152601b60248201527f536166654d6174683a206164646974696f6e206f766572666c6f770000000000604482015290519081900360640190fd5b9392505050565b6001600160a01b038216612425576040805162461bcd60e51b815260206004820181905260248201527f4552433732313a206d696e7420746f20746865207a65726f2061646472657373604482015290519081900360640190fd5b61242e81611f1d565b15612480576040805162461bcd60e51b815260206004820152601c60248201527f4552433732313a20746f6b656e20616c7265616479206d696e74656400000000604482015290519081900360640190fd5b61248c600083836126ec565b600081815260016020908152604080832080546001600160a01b0319166001600160a01b0387169081179091558352600390915290206124cb9061270e565b60405181906001600160a01b038416906000907fddf252ad1be2c89b69c2b068fc378daa952ba7f163c4a11628f55a4df523b3ef908290a45050565b60006123c383836040518060400160405280601a81526020017f536166654d6174683a206469766973696f6e206279207a65726f00000000000081525061275f565b60008261255857506000611139565b8282028284828161256557fe5b04146123c35760405162461bcd60e51b81526004018080602001828103825260218152602001806130106021913960400191505060405180910390fd5b60006123c383836040518060400160405280601e81526020017f536166654d6174683a207375627472616374696f6e206f766572666c6f770000815250612801565b3060006125ef611f3a565b6040516001600160a01b039182169184163190600081818185875af1925050503d806000811461263b576040519150601f19603f3d011682016040523d82523d6000602084013e612640565b606091505b5050905080610fce5760405162461bcd60e51b81526004018080602001828103825260308152602001806130896030913960400191505060405180910390fd5b6001600160a01b0316600090815260056020526040902090565b6126a58484846120b3565b6126b18484848461285b565b611c3a5760405162461bcd60e51b8152600401808060200182810382526032815260200180612eda6032913960400191505060405180910390fd5b610f0f838383612a96565b805461270a90600163ffffffff6125a216565b9055565b80546001019055565b6000604160f81b6001600160f81b03198316108015906127455750602d60f91b6001600160f81b0319831611155b1561275b578160f81c60200160f81b9050610d35565b5090565b600081836127eb5760405162461bcd60e51b81526004018080602001828103825283818151815260200191508051906020019080838360005b838110156127b0578181015183820152602001612798565b50505050905090810190601f1680156127dd5780820380516001836020036101000a031916815260200191505b509250505060405180910390fd5b5060008385816127f757fe5b0495945050505050565b600081848411156128535760405162461bcd60e51b81526020600482018181528351602484015283519092839260449091019190850190808383600083156127b0578181015183820152602001612798565b505050900390565b600061286f846001600160a01b0316612aa1565b61287b575060016120ab565b600060606001600160a01b038616630a85bd0160e11b612899611f3a565b89888860405160240180856001600160a01b03166001600160a01b03168152602001846001600160a01b03166001600160a01b0316815260200183815260200180602001828103825283818151815260200191508051906020019080838360005b838110156129125781810151838201526020016128fa565b50505050905090810190601f16801561293f5780820380516001836020036101000a031916815260200191505b5060408051601f198184030181529181526020820180516001600160e01b03166001600160e01b0319909a16999099178952518151919890975087965094509250829150849050835b602083106129a75780518252601f199092019160209182019101612988565b6001836020036101000a0380198251168184511680821785525050505050509050019150506000604051808303816000865af19150503d8060008114612a09576040519150601f19603f3d011682016040523d82523d6000602084013e612a0e565b606091505b509150915081612a5f57805115612a285780518082602001fd5b60405162461bcd60e51b8152600401808060200182810382526032815260200180612eda6032913960400191505060405180910390fd5b6000818060200190516020811015612a7657600080fd5b50516001600160e01b031916630a85bd0160e11b1493506120ab92505050565b610f0f838383612ada565b6000813f7fc5d2460186f7233c927e7db2dcc703c0e500b653ca82273b7bfad8045d85a4708181148015906120ab575050151592915050565b612ae5838383612b31565b6001600160a01b038216610f0f576000818152600b60205260409020546002600019610100600184161502019091160415610f0f576000818152600b60205260408120610f0f91612e54565b612b3c838383610f0f565b6001600160a01b038316612b6257612b548282612ba2565b612b5d81612be0565b610f0f565b6001600160a01b038216612b9257612b7a8382612c24565b600081815260066020526040812055612b5d81612d26565b612b9c8382612c24565b610f0f82825b6001600160a01b0390911660009081526005602081815260408084208054868652600684529185208290559282526001810183559183529091200155565b600780546000838152600860205260408120829055600182018355919091527fa66cc928b5edb82af9bd49922954155ab7b0942694bea4ce44661d9a8736c6880155565b6001600160a01b038216600090815260056020526040812054612c4e90600163ffffffff6125a216565b600083815260066020526040902054909150808214612ce9576001600160a01b0384166000908152600560205260408120805484908110612c8b57fe5b906000526020600020015490508060056000876001600160a01b03166001600160a01b031681526020019081526020016000208381548110612cc957fe5b600091825260208083209091019290925591825260069052604090208190555b6001600160a01b0384166000908152600560205260409020805480612d0a57fe5b6001900381819060005260206000200160009055905550505050565b600754600090612d3d90600163ffffffff6125a216565b60008381526008602052604081205460078054939450909284908110612d5f57fe5b906000526020600020015490508060078381548110612d7a57fe5b60009182526020808320909101929092558281526008909152604090208290556007805480612da557fe5b600190038181906000526020600020016000905590556000600860008681526020019081526020016000208190555050505050565b828054600181600116156101000203166002900490600052602060002090601f016020900481019282601f10612e1b57805160ff1916838001178555612e48565b82800160010185558215612e48579182015b82811115612e48578251825591602001919060010190612e2d565b5061275b929150612e94565b50805460018160011615610100020316600290046000825580601f10612e7a5750611252565b601f01602090049060005260206000209081019061125291905b610dd491905b8082111561275b5760008155600101612e9a56fe455243373231456e756d657261626c653a206f776e657220696e646578206f7574206f6620626f756e64734552433732313a207472616e7366657220746f206e6f6e20455243373231526563656976657220696d706c656d656e7465724552433732313a207472616e7366657220746f20746865207a65726f20616464726573734552433732313a206f70657261746f7220717565727920666f72206e6f6e6578697374656e7420746f6b656e4552433732313a20617070726f76652063616c6c6572206973206e6f74206f776e6572206e6f7220617070726f76656420666f7220616c6c4552433732313a2062616c616e636520717565727920666f7220746865207a65726f20616464726573734552433732313a206f776e657220717565727920666f72206e6f6e6578697374656e7420746f6b656e4661696c656420746f207472616e7366657220636f6d6d697373696f6e20746f20706c6174666f726d536166654d6174683a206d756c7469706c69636174696f6e206f766572666c6f774552433732313a20617070726f76656420717565727920666f72206e6f6e6578697374656e7420746f6b656e4552433732314d657461646174613a2055524920736574206f66206e6f6e6578697374656e7420746f6b656e4661696c656420746f20726566756e64207468652072656d61696e696e672062616c616e636520746f2073656e6465724552433732313a207472616e73666572206f6620746f6b656e2074686174206973206e6f74206f776e4552433732314d657461646174613a2055524920717565727920666f72206e6f6e6578697374656e7420746f6b656e4d696e743a20596f75206d757374206265206569746865722061646d696e206f7220626520617574686f726973656420616e64206861766520706169642074686520706c6174666f726d206665654552433732313a20617070726f76616c20746f2063757272656e74206f776e65724552433732313a207472616e736665722063616c6c6572206973206e6f74206f776e6572206e6f7220617070726f766564455243373231456e756d657261626c653a20676c6f62616c20696e646578206f7574206f6620626f756e64734661696c656420746f207472616e7366657220636f6d6d697373696f6e20746f207075626c69736865724552433732314275726e61626c653a2063616c6c6572206973206e6f74206f776e6572206e6f7220617070726f766564a2646970667358221220de12f558c96b2658322caeb1b8da25f434d99f27490ac613e918987799ca333264736f6c63430006040033",
  "source": "pragma solidity ^0.6.0;\n\nimport \"@openzeppelin/contracts/token/ERC721/ERC721Full.sol\";\nimport \"@openzeppelin/contracts/token/ERC721/ERC721Burnable.sol\";\nimport \"@openzeppelin/contracts/math/SafeMath.sol\";\nimport \"./HashtagAccessControls.sol\";\n\n/**\n * @title HashtagProtocol contract\n * @notice Core smart contract of the protocol that governs the creation of hashtag tokens\n * @author Hashtag Protocol\n*/\ncontract HashtagProtocol is ERC721Full, ERC721Burnable {\n    using SafeMath for uint256;\n\n    event MintHashtag(uint256 indexed tokenId, address indexed owner, string hashtag, address indexed publisher);\n\n    // Definition of a Hashtag which bundles associated metadata\n    struct Hashtag {\n        uint256 created;\n        address originalPublisher;\n        address creator;\n        string value;\n    }\n\n    uint256 public tokenPointer = 0;\n    uint256 public fee = 0.01 ether;\n\n    mapping(uint256 => Hashtag) public tokenIdToHashtag;\n    mapping(string => uint256) public hashtagToTokenId;\n\n    address payable public platform;\n    uint256 public platformPercentage = 9000;\n    uint256 modulo = 10000;\n\n    HashtagAccessControls public accessControls;\n\n    /**\n     * @notice Admin only execution guard\n     * @dev When applied to a method, only allows execution when the sender has the admin role\n    */\n    modifier onlyAdmin() {\n        require(isAdmin(_msgSender()), \"Caller must be admin\");\n        _;\n    }\n\n    constructor (HashtagAccessControls _accessControls, address payable _platform)\n    public ERC721Full(\"Hashtag Protocol\", \"HASHTAG\") {\n        accessControls = _accessControls;\n        platform = _platform;\n    }\n\n    /**\n     * @notice Utility method for checking whether a hashtag exists\n     * @param _tokenId ID of the hashtag\n     * @return bool True if a hashtag exists, false if not\n    */\n    function exists(uint256 _tokenId) public view returns (bool) {\n        return _exists(_tokenId);\n    }\n\n    /**\n     * @notice Utility method for retrieving all hashtags of a given address\n     * @param _owner Address of a hashtag token owner\n     * @return uint256[] List of IDs owned by the above address\n    */\n    function tokensOfOwner(address _owner) public view returns (uint256[] memory) {\n        return _tokensOfOwner(_owner);\n    }\n\n    /**\n     * @notice Admin method for updating the token URI of a hashtag\n     * @param _tokenId ID of the hashtag\n     * @param _uri New token URI\n    */\n    function setTokenURI(uint256 _tokenId, string memory _uri) onlyAdmin public {\n        _setTokenURI(_tokenId, _uri);\n    }\n\n    /**\n     * @notice Admin method for updating the base token URI of a hashtag\n     * @param _baseURI Base URI for all tokens\n    */\n    function setBaseURI(string memory _baseURI) onlyAdmin public {\n        _setBaseURI(_baseURI);\n    }\n\n    function _beforeTokenTransfer(address _from, address _to, uint256 _tokenId) internal virtual override(ERC721, ERC721Full) {\n        super._beforeTokenTransfer(_from, _to, _tokenId);\n    }\n\n    /**\n     * @notice Method that a publisher can call to create a hashtag\n     * @dev A fee is required unless the caller has an admin role\n     * @param _hashtag String version of the hashtag to mint\n     * @param _publisher Address of the publisher through which the hashtag is being created\n     * @param _recipient Address that will receive the hashtag\n     * @return _tokenId ID of the new hashtag\n    */\n    function mint(string memory _hashtag, address payable _publisher, address _recipient) payable public returns (uint256 _tokenId) {\n        require(_senderCanMintForPublisher(_publisher), \"Mint: You must be either admin or be authorised and have paid the platform fee\");\n\n        // generate the lowercase version of the hashtag and ensure it's not already been minted\n        string memory lowerHashtag = lower(_hashtag);\n        require(hashtagToTokenId[lowerHashtag] == 0, \"Mint: Hashtag already owned.\");\n\n        // generate the new hashtag token id\n        tokenPointer = tokenPointer.add(1);\n        uint256 tokenId = tokenPointer;\n\n        // create the hashtag\n        tokenIdToHashtag[tokenId] = Hashtag({\n            value: lowerHashtag,\n            created: now,\n            originalPublisher: _publisher,\n            creator: _msgSender()\n        });\n\n        // store a reverse lookup and mint the tag\n        hashtagToTokenId[lowerHashtag] = tokenPointer;\n\n        _mint(_recipient, tokenId);\n\n        // split fee\n        uint256 platformPayment = fee.div(modulo).mul(platformPercentage);\n        (bool platformSuccess,) = platform.call{value: platformPayment}(\"\");\n        require(platformSuccess, \"Failed to transfer commission to platform\");\n\n        (bool publisherSuccess, ) = _publisher.call{value: msg.value.sub(platformPayment)}(\"\");\n        require(publisherSuccess, \"Failed to transfer commission to publisher\");\n\n        // send the user any change back\n        _refundRemainingBalance();\n\n        // log the minting event\n        emit MintHashtag(tokenId, msg.sender, lowerHashtag, _publisher);\n\n        return tokenId;\n    }\n\n    /**\n     * @notice Admin functionality for setting the fee required in order to create and mint a hashtag\n     * @param _fee Value that the fee will be set to in WEI\n    */\n    function setFee(uint256 _fee) onlyAdmin external {\n        fee = _fee;\n    }\n\n    /**\n     * @notice Admin functionality for updating the percentage of the minting fee that the platform receives\n     * @dev The percentage defined must be to 2 decimal places. For example: For a percentage of 12.55%, multiply this by 100 to get 1255\n     * @param _platformPercentage Percentage of the minting fee that the Hashtag Protocol receives\n    */\n    function setPlatformPercentage(uint256 _platformPercentage) onlyAdmin external {\n        platformPercentage = _platformPercentage;\n    }\n\n    /**\n     * @notice Admin functionality for updating the address that receives the commission on behalf of the platform\n     * @param _platform Address that receives platform fees\n    */\n    function setPlatform(address payable _platform) onlyAdmin external {\n        platform = _platform;\n    }\n\n    /**\n     * @notice Returns the commission addresses related to a token\n     * @param _tokenId ID of a hashtag\n     * @return _platform Platform commission address\n     * @return _owner Address of the owner of the hashtag\n    */\n    function getPaymentAddresses(uint256 _tokenId) public view returns (\n        address payable _platform,\n        address payable _owner\n    ) {\n        return (\n            platform,\n            payable(ownerOf(_tokenId))\n        );\n    }\n\n    /**\n     * @notice Checks whether an address has an admin role\n     * @param _addr Address being checked\n     * @return bool True if the address has the role, false if not\n    */\n    function isAdmin(address _addr) public view returns (bool) {\n        bytes32 adminRole = 0x00;\n        return accessControls.hasRole(adminRole, _addr);\n    }\n\n    /**\n     * @notice Checks whether an address has a publisher role\n     * @param _addr Address being checked\n     * @return bool True if the address has the role, false if not\n    */\n    function isPublisher(address _addr) public view returns (bool) {\n        return accessControls.hasRole(keccak256(\"PUBLISHER\"), _addr);\n    }\n\n    /**\n     * @notice Checks whether an address has the minter role\n     * @param _addr Address being checked\n     * @return bool True if the address has the role, false if not\n    */\n    function isMinter(address _addr) public view returns (bool) {\n        return accessControls.hasRole(keccak256(\"HASHTAG_MINTER_ROLE\"), _addr);\n    }\n\n    /**\n     * @notice Checks whether an address and the sender match and whether they have the publisher role\n     * @param _addr Address being checked\n     * @return bool True if the sender has the role, false if not\n    */\n    function isSenderPublisher(address _addr) public view returns (bool) {\n        //require(_addr == _msgSender(), \"Address supplied as publisher and sender do not match\");\n        return isPublisher(_addr);\n    }\n\n    /**\n     * @notice A sender can mint when they are either admin or are an authorised sender and have paid the platform fee\n     * @param _publisher Address assumed to be a publisher\n     * @return bool True if the sender can mint for a given publisher, false if they are either not a publisher or have not paid the minting fee\n    */\n    function _senderCanMintForPublisher(address _publisher) private view returns (bool) {\n        bool isSenderAdmin = isAdmin(_msgSender());\n        bool isAuthorisedSender = isMinter(_msgSender()) || isSenderPublisher(_publisher);\n        return isSenderAdmin || (isAuthorisedSender && msg.value >= fee);\n    }\n\n    /**\n     * @notice Converts a string to its lowercase equivalent\n     * @param _base String to convert\n     * @return string Lowercase version of string supplied\n    */\n    function lower(string memory _base) internal pure returns (string memory) {\n        bytes memory _baseBytes = bytes(_base);\n        for (uint i = 0; i < _baseBytes.length; i++) {\n            _baseBytes[i] = _lower(_baseBytes[i]);\n        }\n        return string(_baseBytes);\n    }\n\n    /**\n     * @notice Given a contract balance, sends the value back to the sender - the equivalent of giving a user change\n    */\n    function _refundRemainingBalance() private {\n        address payable self = payable(address(this));\n        (bool refundSuccess, ) = _msgSender().call{value: self.balance}(\"\");\n        require(refundSuccess, \"Failed to refund the remaining balance to sender\");\n    }\n\n    /**\n     * @notice Internal method that converts a character of a string to the lowercase equivalent\n     * @param _b1 byte representation of a character from a sting\n     * @return bytes1 lower case version of a character from a string as bytes1\n    */\n    function _lower(bytes1 _b1) private pure returns (bytes1) {\n\n        if (_b1 >= 0x41 && _b1 <= 0x5A) {\n            return bytes1(uint8(_b1) + 32);\n        }\n\n        return _b1;\n    }\n}\n",
  "sourcePath": "/Users/Natalie/Projects/hashtag-contracts/contracts/HashtagProtocol.sol",
  "compiler": {
    "name": "solc",
    "version": "0.6.4+commit.1dca32f3.Emscripten.clang"
  },
  "schemaVersion": "3.0.23",
  "updatedAt": "2020-04-08T12:45:54.785Z",
  "networkType": "ethereum",
  "devdoc": {
    "author": "Hashtag Protocol",
    "methods": {
      "approve(address,uint256)": {
        "details": "Approves another address to transfer the given token ID The zero address indicates there is no approved address. There can only be one approved address per token at a given time. Can only be called by the token owner or an approved operator.",
        "params": {
          "to": "address to be approved for the given token ID",
          "tokenId": "uint256 ID of the token to be approved"
        }
      },
      "balanceOf(address)": {
        "details": "Gets the balance of the specified address.",
        "params": {
          "owner": "address to query the balance of"
        },
        "returns": {
          "_0": "uint256 representing the amount owned by the passed address"
        }
      },
      "baseURI()": {
        "details": "Returns the base URI set via {_setBaseURI}. This will be automatically added as a preffix in {tokenURI} to each token's URI, when they are non-empty."
      },
      "burn(uint256)": {
        "details": "Burns a specific ERC721 token.",
        "params": {
          "tokenId": "uint256 id of the ERC721 token to be burned."
        }
      },
      "exists(uint256)": {
        "params": {
          "_tokenId": "ID of the hashtag"
        },
        "returns": {
          "_0": "bool True if a hashtag exists, false if not"
        }
      },
      "getApproved(uint256)": {
        "details": "Gets the approved address for a token ID, or zero if no address set Reverts if the token ID does not exist.",
        "params": {
          "tokenId": "uint256 ID of the token to query the approval of"
        },
        "returns": {
          "_0": "address currently approved for the given token ID"
        }
      },
      "getPaymentAddresses(uint256)": {
        "params": {
          "_tokenId": "ID of a hashtag"
        },
        "returns": {
          "_owner": "Address of the owner of the hashtag",
          "_platform": "Platform commission address"
        }
      },
      "isAdmin(address)": {
        "params": {
          "_addr": "Address being checked"
        },
        "returns": {
          "_0": "bool True if the address has the role, false if not"
        }
      },
      "isApprovedForAll(address,address)": {
        "details": "Tells whether an operator is approved by a given owner.",
        "params": {
          "operator": "operator address which you want to query the approval of",
          "owner": "owner address which you want to query the approval of"
        },
        "returns": {
          "_0": "bool whether the given operator is approved by the given owner"
        }
      },
      "isMinter(address)": {
        "params": {
          "_addr": "Address being checked"
        },
        "returns": {
          "_0": "bool True if the address has the role, false if not"
        }
      },
      "isPublisher(address)": {
        "params": {
          "_addr": "Address being checked"
        },
        "returns": {
          "_0": "bool True if the address has the role, false if not"
        }
      },
      "isSenderPublisher(address)": {
        "params": {
          "_addr": "Address being checked"
        },
        "returns": {
          "_0": "bool True if the sender has the role, false if not"
        }
      },
      "mint(string,address,address)": {
        "details": "A fee is required unless the caller has an admin role",
        "params": {
          "_hashtag": "String version of the hashtag to mint",
          "_publisher": "Address of the publisher through which the hashtag is being created",
          "_recipient": "Address that will receive the hashtag"
        },
        "returns": {
          "_tokenId": "ID of the new hashtag"
        }
      },
      "name()": {
        "details": "Gets the token name.",
        "returns": {
          "_0": "string representing the token name"
        }
      },
      "ownerOf(uint256)": {
        "details": "Gets the owner of the specified token ID.",
        "params": {
          "tokenId": "uint256 ID of the token to query the owner of"
        },
        "returns": {
          "_0": "address currently marked as the owner of the given token ID"
        }
      },
      "safeTransferFrom(address,address,uint256)": {
        "details": "Safely transfers the ownership of a given token ID to another address If the target address is a contract, it must implement {IERC721Receiver-onERC721Received}, which is called upon a safe transfer, and return the magic value `bytes4(keccak256(\"onERC721Received(address,address,uint256,bytes)\"))`; otherwise, the transfer is reverted. Requires the msg.sender to be the owner, approved, or operator",
        "params": {
          "from": "current owner of the token",
          "to": "address to receive the ownership of the given token ID",
          "tokenId": "uint256 ID of the token to be transferred"
        }
      },
      "safeTransferFrom(address,address,uint256,bytes)": {
        "details": "Safely transfers the ownership of a given token ID to another address If the target address is a contract, it must implement {IERC721Receiver-onERC721Received}, which is called upon a safe transfer, and return the magic value `bytes4(keccak256(\"onERC721Received(address,address,uint256,bytes)\"))`; otherwise, the transfer is reverted. Requires the _msgSender() to be the owner, approved, or operator",
        "params": {
          "_data": "bytes data to send along with a safe transfer check",
          "from": "current owner of the token",
          "to": "address to receive the ownership of the given token ID",
          "tokenId": "uint256 ID of the token to be transferred"
        }
      },
      "setApprovalForAll(address,bool)": {
        "details": "Sets or unsets the approval of a given operator An operator is allowed to transfer all tokens of the sender on their behalf.",
        "params": {
          "approved": "representing the status of the approval to be set",
          "operator": "operator address to set the approval"
        }
      },
      "setBaseURI(string)": {
        "params": {
          "_baseURI": "Base URI for all tokens"
        }
      },
      "setFee(uint256)": {
        "params": {
          "_fee": "Value that the fee will be set to in WEI"
        }
      },
      "setPlatform(address)": {
        "params": {
          "_platform": "Address that receives platform fees"
        }
      },
      "setPlatformPercentage(uint256)": {
        "details": "The percentage defined must be to 2 decimal places. For example: For a percentage of 12.55%, multiply this by 100 to get 1255",
        "params": {
          "_platformPercentage": "Percentage of the minting fee that the Hashtag Protocol receives"
        }
      },
      "setTokenURI(uint256,string)": {
        "params": {
          "_tokenId": "ID of the hashtag",
          "_uri": "New token URI"
        }
      },
      "supportsInterface(bytes4)": {
        "details": "See {IERC165-supportsInterface}.     * Time complexity O(1), guaranteed to always use less than 30 000 gas."
      },
      "symbol()": {
        "details": "Gets the token symbol.",
        "returns": {
          "_0": "string representing the token symbol"
        }
      },
      "tokenByIndex(uint256)": {
        "details": "Gets the token ID at a given index of all the tokens in this contract Reverts if the index is greater or equal to the total number of tokens.",
        "params": {
          "index": "uint256 representing the index to be accessed of the tokens list"
        },
        "returns": {
          "_0": "uint256 token ID at the given index of the tokens list"
        }
      },
      "tokenOfOwnerByIndex(address,uint256)": {
        "details": "Gets the token ID at a given index of the tokens list of the requested owner.",
        "params": {
          "index": "uint256 representing the index to be accessed of the requested tokens list",
          "owner": "address owning the tokens list to be accessed"
        },
        "returns": {
          "_0": "uint256 token ID at the given index of the tokens list owned by the requested address"
        }
      },
      "tokenURI(uint256)": {
        "details": "Returns the URI for a given token ID. May return an empty string.     * If the token's URI is non-empty and a base URI was set (via {_setBaseURI}), it will be added to the token ID's URI as a prefix.     * Reverts if the token ID does not exist."
      },
      "tokensOfOwner(address)": {
        "params": {
          "_owner": "Address of a hashtag token owner"
        },
        "returns": {
          "_0": "uint256[] List of IDs owned by the above address"
        }
      },
      "totalSupply()": {
        "details": "Gets the total amount of tokens stored by the contract.",
        "returns": {
          "_0": "uint256 representing the total amount of tokens"
        }
      },
      "transferFrom(address,address,uint256)": {
        "details": "Transfers the ownership of a given token ID to another address. Usage of this method is discouraged, use {safeTransferFrom} whenever possible. Requires the msg.sender to be the owner, approved, or operator.",
        "params": {
          "from": "current owner of the token",
          "to": "address to receive the ownership of the given token ID",
          "tokenId": "uint256 ID of the token to be transferred"
        }
      }
    },
    "title": "HashtagProtocol contract"
  },
  "userdoc": {
    "methods": {
      "exists(uint256)": {
        "notice": "Utility method for checking whether a hashtag exists"
      },
      "getPaymentAddresses(uint256)": {
        "notice": "Returns the commission addresses related to a token"
      },
      "isAdmin(address)": {
        "notice": "Checks whether an address has an admin role"
      },
      "isMinter(address)": {
        "notice": "Checks whether an address has the minter role"
      },
      "isPublisher(address)": {
        "notice": "Checks whether an address has a publisher role"
      },
      "isSenderPublisher(address)": {
        "notice": "Checks whether an address and the sender match and whether they have the publisher role"
      },
      "mint(string,address,address)": {
        "notice": "Method that a publisher can call to create a hashtag"
      },
      "setBaseURI(string)": {
        "notice": "Admin method for updating the base token URI of a hashtag"
      },
      "setFee(uint256)": {
        "notice": "Admin functionality for setting the fee required in order to create and mint a hashtag"
      },
      "setPlatform(address)": {
        "notice": "Admin functionality for updating the address that receives the commission on behalf of the platform"
      },
      "setPlatformPercentage(uint256)": {
        "notice": "Admin functionality for updating the percentage of the minting fee that the platform receives"
      },
      "setTokenURI(uint256,string)": {
        "notice": "Admin method for updating the token URI of a hashtag"
      },
      "tokensOfOwner(address)": {
        "notice": "Utility method for retrieving all hashtags of a given address"
      }
    },
    "notice": "Core smart contract of the protocol that governs the creation of hashtag tokens"
  }
}