{
  "contractName": "HashtagProtocol",
  "abi": [
    {
      "inputs": [
        {
          "internalType": "contract HashtagAccessControls",
          "name": "_accessControls",
          "type": "address"
        },
        {
          "internalType": "address payable",
          "name": "_platform",
          "type": "address"
        }
      ],
      "stateMutability": "nonpayable",
      "type": "constructor"
    },
    {
      "anonymous": false,
      "inputs": [
        {
          "indexed": true,
          "internalType": "address",
          "name": "owner",
          "type": "address"
        },
        {
          "indexed": true,
          "internalType": "address",
          "name": "approved",
          "type": "address"
        },
        {
          "indexed": true,
          "internalType": "uint256",
          "name": "tokenId",
          "type": "uint256"
        }
      ],
      "name": "Approval",
      "type": "event"
    },
    {
      "anonymous": false,
      "inputs": [
        {
          "indexed": true,
          "internalType": "address",
          "name": "owner",
          "type": "address"
        },
        {
          "indexed": true,
          "internalType": "address",
          "name": "operator",
          "type": "address"
        },
        {
          "indexed": false,
          "internalType": "bool",
          "name": "approved",
          "type": "bool"
        }
      ],
      "name": "ApprovalForAll",
      "type": "event"
    },
    {
      "anonymous": false,
      "inputs": [
        {
          "indexed": true,
          "internalType": "uint256",
          "name": "tokenId",
          "type": "uint256"
        },
        {
          "indexed": true,
          "internalType": "address",
          "name": "owner",
          "type": "address"
        },
        {
          "indexed": false,
          "internalType": "string",
          "name": "hashtag",
          "type": "string"
        },
        {
          "indexed": true,
          "internalType": "address",
          "name": "publisher",
          "type": "address"
        }
      ],
      "name": "MintHashtag",
      "type": "event"
    },
    {
      "anonymous": false,
      "inputs": [
        {
          "indexed": true,
          "internalType": "address",
          "name": "from",
          "type": "address"
        },
        {
          "indexed": true,
          "internalType": "address",
          "name": "to",
          "type": "address"
        },
        {
          "indexed": true,
          "internalType": "uint256",
          "name": "tokenId",
          "type": "uint256"
        }
      ],
      "name": "Transfer",
      "type": "event"
    },
    {
      "inputs": [],
      "name": "accessControls",
      "outputs": [
        {
          "internalType": "contract HashtagAccessControls",
          "name": "",
          "type": "address"
        }
      ],
      "stateMutability": "view",
      "type": "function",
      "constant": true
    },
    {
      "inputs": [
        {
          "internalType": "address",
          "name": "to",
          "type": "address"
        },
        {
          "internalType": "uint256",
          "name": "tokenId",
          "type": "uint256"
        }
      ],
      "name": "approve",
      "outputs": [],
      "stateMutability": "nonpayable",
      "type": "function"
    },
    {
      "inputs": [
        {
          "internalType": "address",
          "name": "owner",
          "type": "address"
        }
      ],
      "name": "balanceOf",
      "outputs": [
        {
          "internalType": "uint256",
          "name": "",
          "type": "uint256"
        }
      ],
      "stateMutability": "view",
      "type": "function",
      "constant": true
    },
    {
      "inputs": [],
      "name": "baseURI",
      "outputs": [
        {
          "internalType": "string",
          "name": "",
          "type": "string"
        }
      ],
      "stateMutability": "view",
      "type": "function",
      "constant": true
    },
    {
      "inputs": [
        {
          "internalType": "uint256",
          "name": "tokenId",
          "type": "uint256"
        }
      ],
      "name": "burn",
      "outputs": [],
      "stateMutability": "nonpayable",
      "type": "function"
    },
    {
      "inputs": [],
      "name": "fee",
      "outputs": [
        {
          "internalType": "uint256",
          "name": "",
          "type": "uint256"
        }
      ],
      "stateMutability": "view",
      "type": "function",
      "constant": true
    },
    {
      "inputs": [
        {
          "internalType": "uint256",
          "name": "tokenId",
          "type": "uint256"
        }
      ],
      "name": "getApproved",
      "outputs": [
        {
          "internalType": "address",
          "name": "",
          "type": "address"
        }
      ],
      "stateMutability": "view",
      "type": "function",
      "constant": true
    },
    {
      "inputs": [
        {
          "internalType": "string",
          "name": "",
          "type": "string"
        }
      ],
      "name": "hashtagToTokenId",
      "outputs": [
        {
          "internalType": "uint256",
          "name": "",
          "type": "uint256"
        }
      ],
      "stateMutability": "view",
      "type": "function",
      "constant": true
    },
    {
      "inputs": [
        {
          "internalType": "address",
          "name": "owner",
          "type": "address"
        },
        {
          "internalType": "address",
          "name": "operator",
          "type": "address"
        }
      ],
      "name": "isApprovedForAll",
      "outputs": [
        {
          "internalType": "bool",
          "name": "",
          "type": "bool"
        }
      ],
      "stateMutability": "view",
      "type": "function",
      "constant": true
    },
    {
      "inputs": [],
      "name": "name",
      "outputs": [
        {
          "internalType": "string",
          "name": "",
          "type": "string"
        }
      ],
      "stateMutability": "view",
      "type": "function",
      "constant": true
    },
    {
      "inputs": [
        {
          "internalType": "uint256",
          "name": "tokenId",
          "type": "uint256"
        }
      ],
      "name": "ownerOf",
      "outputs": [
        {
          "internalType": "address",
          "name": "",
          "type": "address"
        }
      ],
      "stateMutability": "view",
      "type": "function",
      "constant": true
    },
    {
      "inputs": [],
      "name": "platform",
      "outputs": [
        {
          "internalType": "address payable",
          "name": "",
          "type": "address"
        }
      ],
      "stateMutability": "view",
      "type": "function",
      "constant": true
    },
    {
      "inputs": [],
      "name": "platformPercentage",
      "outputs": [
        {
          "internalType": "uint256",
          "name": "",
          "type": "uint256"
        }
      ],
      "stateMutability": "view",
      "type": "function",
      "constant": true
    },
    {
      "inputs": [
        {
          "internalType": "address",
          "name": "from",
          "type": "address"
        },
        {
          "internalType": "address",
          "name": "to",
          "type": "address"
        },
        {
          "internalType": "uint256",
          "name": "tokenId",
          "type": "uint256"
        }
      ],
      "name": "safeTransferFrom",
      "outputs": [],
      "stateMutability": "nonpayable",
      "type": "function"
    },
    {
      "inputs": [
        {
          "internalType": "address",
          "name": "from",
          "type": "address"
        },
        {
          "internalType": "address",
          "name": "to",
          "type": "address"
        },
        {
          "internalType": "uint256",
          "name": "tokenId",
          "type": "uint256"
        },
        {
          "internalType": "bytes",
          "name": "_data",
          "type": "bytes"
        }
      ],
      "name": "safeTransferFrom",
      "outputs": [],
      "stateMutability": "nonpayable",
      "type": "function"
    },
    {
      "inputs": [
        {
          "internalType": "address",
          "name": "operator",
          "type": "address"
        },
        {
          "internalType": "bool",
          "name": "approved",
          "type": "bool"
        }
      ],
      "name": "setApprovalForAll",
      "outputs": [],
      "stateMutability": "nonpayable",
      "type": "function"
    },
    {
      "inputs": [
        {
          "internalType": "bytes4",
          "name": "interfaceId",
          "type": "bytes4"
        }
      ],
      "name": "supportsInterface",
      "outputs": [
        {
          "internalType": "bool",
          "name": "",
          "type": "bool"
        }
      ],
      "stateMutability": "view",
      "type": "function",
      "constant": true
    },
    {
      "inputs": [],
      "name": "symbol",
      "outputs": [
        {
          "internalType": "string",
          "name": "",
          "type": "string"
        }
      ],
      "stateMutability": "view",
      "type": "function",
      "constant": true
    },
    {
      "inputs": [
        {
          "internalType": "uint256",
          "name": "index",
          "type": "uint256"
        }
      ],
      "name": "tokenByIndex",
      "outputs": [
        {
          "internalType": "uint256",
          "name": "",
          "type": "uint256"
        }
      ],
      "stateMutability": "view",
      "type": "function",
      "constant": true
    },
    {
      "inputs": [
        {
          "internalType": "uint256",
          "name": "",
          "type": "uint256"
        }
      ],
      "name": "tokenIdToHashtag",
      "outputs": [
        {
          "internalType": "uint256",
          "name": "created",
          "type": "uint256"
        },
        {
          "internalType": "address",
          "name": "originalPublisher",
          "type": "address"
        },
        {
          "internalType": "address",
          "name": "creator",
          "type": "address"
        },
        {
          "internalType": "string",
          "name": "value",
          "type": "string"
        }
      ],
      "stateMutability": "view",
      "type": "function",
      "constant": true
    },
    {
      "inputs": [
        {
          "internalType": "address",
          "name": "owner",
          "type": "address"
        },
        {
          "internalType": "uint256",
          "name": "index",
          "type": "uint256"
        }
      ],
      "name": "tokenOfOwnerByIndex",
      "outputs": [
        {
          "internalType": "uint256",
          "name": "",
          "type": "uint256"
        }
      ],
      "stateMutability": "view",
      "type": "function",
      "constant": true
    },
    {
      "inputs": [],
      "name": "tokenPointer",
      "outputs": [
        {
          "internalType": "uint256",
          "name": "",
          "type": "uint256"
        }
      ],
      "stateMutability": "view",
      "type": "function",
      "constant": true
    },
    {
      "inputs": [
        {
          "internalType": "uint256",
          "name": "tokenId",
          "type": "uint256"
        }
      ],
      "name": "tokenURI",
      "outputs": [
        {
          "internalType": "string",
          "name": "",
          "type": "string"
        }
      ],
      "stateMutability": "view",
      "type": "function",
      "constant": true
    },
    {
      "inputs": [],
      "name": "totalSupply",
      "outputs": [
        {
          "internalType": "uint256",
          "name": "",
          "type": "uint256"
        }
      ],
      "stateMutability": "view",
      "type": "function",
      "constant": true
    },
    {
      "inputs": [
        {
          "internalType": "address",
          "name": "from",
          "type": "address"
        },
        {
          "internalType": "address",
          "name": "to",
          "type": "address"
        },
        {
          "internalType": "uint256",
          "name": "tokenId",
          "type": "uint256"
        }
      ],
      "name": "transferFrom",
      "outputs": [],
      "stateMutability": "nonpayable",
      "type": "function"
    },
    {
      "inputs": [
        {
          "internalType": "uint256",
          "name": "_tokenId",
          "type": "uint256"
        }
      ],
      "name": "exists",
      "outputs": [
        {
          "internalType": "bool",
          "name": "",
          "type": "bool"
        }
      ],
      "stateMutability": "view",
      "type": "function",
      "constant": true
    },
    {
      "inputs": [
        {
          "internalType": "address",
          "name": "_owner",
          "type": "address"
        }
      ],
      "name": "tokensOfOwner",
      "outputs": [
        {
          "internalType": "uint256[]",
          "name": "",
          "type": "uint256[]"
        }
      ],
      "stateMutability": "view",
      "type": "function",
      "constant": true
    },
    {
      "inputs": [
        {
          "internalType": "uint256",
          "name": "_tokenId",
          "type": "uint256"
        },
        {
          "internalType": "string",
          "name": "_uri",
          "type": "string"
        }
      ],
      "name": "setTokenURI",
      "outputs": [],
      "stateMutability": "nonpayable",
      "type": "function"
    },
    {
      "inputs": [
        {
          "internalType": "string",
          "name": "_baseURI",
          "type": "string"
        }
      ],
      "name": "setBaseURI",
      "outputs": [],
      "stateMutability": "nonpayable",
      "type": "function"
    },
    {
      "inputs": [
        {
          "internalType": "string",
          "name": "_hashtag",
          "type": "string"
        },
        {
          "internalType": "address payable",
          "name": "_publisher",
          "type": "address"
        },
        {
          "internalType": "address",
          "name": "_recipient",
          "type": "address"
        }
      ],
      "name": "mint",
      "outputs": [
        {
          "internalType": "uint256",
          "name": "_tokenId",
          "type": "uint256"
        }
      ],
      "stateMutability": "payable",
      "type": "function",
      "payable": true
    },
    {
      "inputs": [
        {
          "internalType": "uint256",
          "name": "_fee",
          "type": "uint256"
        }
      ],
      "name": "setFee",
      "outputs": [],
      "stateMutability": "nonpayable",
      "type": "function"
    },
    {
      "inputs": [
        {
          "internalType": "uint256",
          "name": "_platformPercentage",
          "type": "uint256"
        }
      ],
      "name": "setPlatformPercentage",
      "outputs": [],
      "stateMutability": "nonpayable",
      "type": "function"
    },
    {
      "inputs": [
        {
          "internalType": "address payable",
          "name": "_platform",
          "type": "address"
        }
      ],
      "name": "setPlatform",
      "outputs": [],
      "stateMutability": "nonpayable",
      "type": "function"
    },
    {
      "inputs": [
        {
          "internalType": "uint256",
          "name": "_tokenId",
          "type": "uint256"
        }
      ],
      "name": "getPaymentAddresses",
      "outputs": [
        {
          "internalType": "address payable",
          "name": "_platform",
          "type": "address"
        },
        {
          "internalType": "address payable",
          "name": "_owner",
          "type": "address"
        }
      ],
      "stateMutability": "view",
      "type": "function",
      "constant": true
    },
    {
      "inputs": [
        {
          "internalType": "address",
          "name": "addr",
          "type": "address"
        }
      ],
      "name": "isAdmin",
      "outputs": [
        {
          "internalType": "bool",
          "name": "",
          "type": "bool"
        }
      ],
      "stateMutability": "view",
      "type": "function",
      "constant": true
    },
    {
      "inputs": [
        {
          "internalType": "address",
          "name": "addr",
          "type": "address"
        }
      ],
      "name": "isPublisher",
      "outputs": [
        {
          "internalType": "bool",
          "name": "",
          "type": "bool"
        }
      ],
      "stateMutability": "view",
      "type": "function",
      "constant": true
    },
    {
      "inputs": [
        {
          "internalType": "address",
          "name": "addr",
          "type": "address"
        }
      ],
      "name": "isMinter",
      "outputs": [
        {
          "internalType": "bool",
          "name": "",
          "type": "bool"
        }
      ],
      "stateMutability": "view",
      "type": "function",
      "constant": true
    },
    {
      "inputs": [
        {
          "internalType": "address",
          "name": "addr",
          "type": "address"
        }
      ],
      "name": "isSenderPublisher",
      "outputs": [
        {
          "internalType": "bool",
          "name": "",
          "type": "bool"
        }
      ],
      "stateMutability": "view",
      "type": "function",
      "constant": true
    }
  ],
  "bytecode": "0x60806040526000600d55662386f26fc10000600e556123286012556127106013553480156200002d57600080fd5b50604051620035aa380380620035aa833981810160405260408110156200005357600080fd5b508051602091820151604080518082018252601081526f12185cda1d1859c8141c9bdd1bd8dbdb60821b81860152815180830190925260078252664841534854414760c81b94820194909452919290918181620000c06301ffc9a760e01b6001600160e01b036200017816565b620000db6380ac58cd60e01b6001600160e01b036200017816565b620000f663780e9d6360e01b6001600160e01b036200017816565b81516200010b906009906020850190620001fd565b5080516200012190600a906020840190620001fd565b506200013d635b5e139f60e01b6001600160e01b036200017816565b5050601480546001600160a01b039586166001600160a01b031991821617909155601180549490951693169290921790925550620002a29050565b6001600160e01b03198082161415620001d8576040805162461bcd60e51b815260206004820152601c60248201527f4552433136353a20696e76616c696420696e7465726661636520696400000000604482015290519081900360640190fd5b6001600160e01b0319166000908152602081905260409020805460ff19166001179055565b828054600181600116156101000203166002900490600052602060002090601f016020900481019282601f106200024057805160ff191683800117855562000270565b8280016001018555821562000270579182015b828111156200027057825182559160200191906001019062000253565b506200027e92915062000282565b5090565b6200029f91905b808211156200027e576000815560010162000289565b90565b6132f880620002b26000396000f3fe6080604052600436106102255760003560e01c806355f804b311610123578063878327ab116100ab578063c87b56dd1161006f578063c87b56dd14610b11578063d977a65314610b3b578063ddca3f4314610bec578063e2e982c814610c01578063e985e9c514610cdc57610225565b8063878327ab1461096d57806395d89b41146109bd578063a22cb465146109d2578063aa271e1a14610a0d578063b88d4fde14610a4057610225565b80636c0360eb116100f25780636c0360eb146107d357806370a08231146107e8578063748365ef1461081b5780637e6d945e146108305780638462151c146108ea57610225565b806355f804b31461069b5780636352211e1461074c5780636945c5ea1461077657806369fe0e2d146107a957610225565b806323b872dd116101b157806342842e0e1161017557806342842e0e146105c557806342966c68146106085780634bde38c8146106325780634f558e79146106475780634f6ccce71461067157610225565b806323b872dd146104b057806324d7806c146104f35780632f745c591461052657806337c5e15f1461055f57806341859ac81461059257610225565b8063095ea7b3116101f8578063095ea7b31461036957806314d39bad146103a4578063162094c4146103ce57806318160ddd146104865780631f7418971461049b57610225565b806301ffc9a71461022a578063028316511461027257806306fdde0314610299578063081812fc14610323575b600080fd5b34801561023657600080fd5b5061025e6004803603602081101561024d57600080fd5b50356001600160e01b031916610d17565b604080519115158252519081900360200190f35b34801561027e57600080fd5b50610287610d3a565b60408051918252519081900360200190f35b3480156102a557600080fd5b506102ae610d40565b6040805160208082528351818301528351919283929083019185019080838360005b838110156102e85781810151838201526020016102d0565b50505050905090810190601f1680156103155780820380516001836020036101000a031916815260200191505b509250505060405180910390f35b34801561032f57600080fd5b5061034d6004803603602081101561034657600080fd5b5035610dd7565b604080516001600160a01b039092168252519081900360200190f35b34801561037557600080fd5b506103a26004803603604081101561038c57600080fd5b506001600160a01b038135169060200135610e39565b005b3480156103b057600080fd5b506103a2600480360360208110156103c757600080fd5b5035610f14565b3480156103da57600080fd5b506103a2600480360360408110156103f157600080fd5b81359190810190604081016020820135600160201b81111561041257600080fd5b82018360208201111561042457600080fd5b803590602001918460018302840111600160201b8311171561044557600080fd5b91908080601f016020809104026020016040519081016040528093929190818152602001838380828437600092019190915250929550610f71945050505050565b34801561049257600080fd5b50610287610fd2565b3480156104a757600080fd5b50610287610fd8565b3480156104bc57600080fd5b506103a2600480360360608110156104d357600080fd5b506001600160a01b03813581169160208101359091169060400135610fde565b3480156104ff57600080fd5b5061025e6004803603602081101561051657600080fd5b50356001600160a01b0316611035565b34801561053257600080fd5b506102876004803603604081101561054957600080fd5b506001600160a01b0381351690602001356110bf565b34801561056b57600080fd5b5061025e6004803603602081101561058257600080fd5b50356001600160a01b031661113f565b34801561059e57600080fd5b5061025e600480360360208110156105b557600080fd5b50356001600160a01b031661119d565b3480156105d157600080fd5b506103a2600480360360608110156105e857600080fd5b506001600160a01b0381358116916020810135909116906040013561123f565b34801561061457600080fd5b506103a26004803603602081101561062b57600080fd5b503561125a565b34801561063e57600080fd5b5061034d6112ac565b34801561065357600080fd5b5061025e6004803603602081101561066a57600080fd5b50356112bb565b34801561067d57600080fd5b506102876004803603602081101561069457600080fd5b50356112c6565b3480156106a757600080fd5b506103a2600480360360208110156106be57600080fd5b810190602081018135600160201b8111156106d857600080fd5b8201836020820111156106ea57600080fd5b803590602001918460018302840111600160201b8311171561070b57600080fd5b91908080601f01602080910402602001604051908101604052809392919081815260200183838082843760009201919091525092955061132c945050505050565b34801561075857600080fd5b5061034d6004803603602081101561076f57600080fd5b5035611388565b34801561078257600080fd5b506103a26004803603602081101561079957600080fd5b50356001600160a01b03166113dc565b3480156107b557600080fd5b506103a2600480360360208110156107cc57600080fd5b5035611451565b3480156107df57600080fd5b506102ae6114a9565b3480156107f457600080fd5b506102876004803603602081101561080b57600080fd5b50356001600160a01b031661150a565b34801561082757600080fd5b5061034d611572565b6102876004803603606081101561084657600080fd5b810190602081018135600160201b81111561086057600080fd5b82018360208201111561087257600080fd5b803590602001918460018302840111600160201b8311171561089357600080fd5b91908080601f016020809104026020016040519081016040528093929190818152602001838380828437600092019190915250929550506001600160a01b0383358116945060209093013590921691506115819050565b3480156108f657600080fd5b5061091d6004803603602081101561090d57600080fd5b50356001600160a01b03166119d5565b60408051602080825283518183015283519192839290830191858101910280838360005b83811015610959578181015183820152602001610941565b505050509050019250505060405180910390f35b34801561097957600080fd5b506109976004803603602081101561099057600080fd5b5035611a36565b604080516001600160a01b03938416815291909216602082015281519081900390910190f35b3480156109c957600080fd5b506102ae611a59565b3480156109de57600080fd5b506103a2600480360360408110156109f557600080fd5b506001600160a01b0381351690602001351515611aba565b348015610a1957600080fd5b5061025e60048036036020811015610a3057600080fd5b50356001600160a01b0316611bbf565b348015610a4c57600080fd5b506103a260048036036080811015610a6357600080fd5b6001600160a01b03823581169260208101359091169160408201359190810190608081016060820135600160201b811115610a9d57600080fd5b820183602082011115610aaf57600080fd5b803590602001918460018302840111600160201b83111715610ad057600080fd5b91908080601f016020809104026020016040519081016040528093929190818152602001838380828437600092019190915250929550611c39945050505050565b348015610b1d57600080fd5b506102ae60048036036020811015610b3457600080fd5b5035611c97565b348015610b4757600080fd5b5061028760048036036020811015610b5e57600080fd5b810190602081018135600160201b811115610b7857600080fd5b820183602082011115610b8a57600080fd5b803590602001918460018302840111600160201b83111715610bab57600080fd5b91908080601f016020809104026020016040519081016040528093929190818152602001838380828437600092019190915250929550611e63945050505050565b348015610bf857600080fd5b50610287611e80565b348015610c0d57600080fd5b50610c2b60048036036020811015610c2457600080fd5b5035611e86565b60405180858152602001846001600160a01b03166001600160a01b03168152602001836001600160a01b03166001600160a01b0316815260200180602001828103825283818151815260200191508051906020019080838360005b83811015610c9e578181015183820152602001610c86565b50505050905090810190601f168015610ccb5780820380516001836020036101000a031916815260200191505b509550505050505060405180910390f35b348015610ce857600080fd5b5061025e60048036036040811015610cff57600080fd5b506001600160a01b0381358116916020013516611f46565b6001600160e01b0319811660009081526020819052604090205460ff165b919050565b600d5481565b60098054604080516020601f6002600019610100600188161502019095169490940493840181900481028201810190925282815260609390929091830182828015610dcc5780601f10610da157610100808354040283529160200191610dcc565b820191906000526020600020905b815481529060010190602001808311610daf57829003601f168201915b505050505090505b90565b6000610de282611f74565b610e1d5760405162461bcd60e51b815260040180806020018281038252602c8152602001806130bd602c913960400191505060405180910390fd5b506000908152600260205260409020546001600160a01b031690565b6000610e4482611388565b9050806001600160a01b0316836001600160a01b03161415610e975760405162461bcd60e51b81526004018080602001828103825260218152602001806131eb6021913960400191505060405180910390fd5b806001600160a01b0316610ea9611f91565b6001600160a01b03161480610eca5750610eca81610ec5611f91565b611f46565b610f055760405162461bcd60e51b8152600401808060200182810382526038815260200180612fe86038913960400191505060405180910390fd5b610f0f8383611f95565b505050565b610f24610f1f611f91565b611035565b610f6c576040805162461bcd60e51b815260206004820152601460248201527321b0b63632b91036bab9ba1031329030b236b4b760611b604482015290519081900360640190fd5b601255565b610f7c610f1f611f91565b610fc4576040805162461bcd60e51b815260206004820152601460248201527321b0b63632b91036bab9ba1031329030b236b4b760611b604482015290519081900360640190fd5b610fce8282612003565b5050565b60075490565b60125481565b610fef610fe9611f91565b82612066565b61102a5760405162461bcd60e51b815260040180806020018281038252603181526020018061320c6031913960400191505060405180910390fd5b610f0f83838361210a565b60145460408051632474521560e21b81526000600482018190526001600160a01b03858116602484015292519093849316916391d14854916044808301926020929190829003018186803b15801561108c57600080fd5b505afa1580156110a0573d6000803e3d6000fd5b505050506040513d60208110156110b657600080fd5b50519392505050565b60006110ca8361150a565b82106111075760405162461bcd60e51b815260040180806020018281038252602b815260200180612f06602b913960400191505060405180910390fd5b6001600160a01b038316600090815260056020526040902080548390811061112b57fe5b906000526020600020015490505b92915050565b6000611149611f91565b6001600160a01b0316826001600160a01b0316146111985760405162461bcd60e51b8152600401808060200182810382526035815260200180612f876035913960400191505060405180910390fd5b611139825b6014546040805168282aa12624a9a422a960b91b81528151908190036009018120632474521560e21b825260048201526001600160a01b038481166024830152915160009392909216916391d1485491604480820192602092909190829003018186803b15801561120d57600080fd5b505afa158015611221573d6000803e3d6000fd5b505050506040513d602081101561123757600080fd5b505192915050565b610f0f83838360405180602001604052806000815250611c39565b611265610fe9611f91565b6112a05760405162461bcd60e51b81526004018080602001828103825260308152602001806132936030913960400191505060405180910390fd5b6112a98161225b565b50565b6011546001600160a01b031681565b600061113982611f74565b60006112d0610fd2565b821061130d5760405162461bcd60e51b815260040180806020018281038252602c81526020018061323d602c913960400191505060405180910390fd5b6007828154811061131a57fe5b90600052602060002001549050919050565b611337610f1f611f91565b61137f576040805162461bcd60e51b815260206004820152601460248201527321b0b63632b91036bab9ba1031329030b236b4b760611b604482015290519081900360640190fd5b6112a9816122f5565b6000818152600160205260408120546001600160a01b0316806111395760405162461bcd60e51b815260040180806020018281038252602981526020018061304a6029913960400191505060405180910390fd5b6113e7610f1f611f91565b61142f576040805162461bcd60e51b815260206004820152601460248201527321b0b63632b91036bab9ba1031329030b236b4b760611b604482015290519081900360640190fd5b601180546001600160a01b0319166001600160a01b0392909216919091179055565b61145c610f1f611f91565b6114a4576040805162461bcd60e51b815260206004820152601460248201527321b0b63632b91036bab9ba1031329030b236b4b760611b604482015290519081900360640190fd5b600e55565b600c8054604080516020601f6002600019610100600188161502019095169490940493840181900481028201810190925282815260609390929091830182828015610dcc5780601f10610da157610100808354040283529160200191610dcc565b60006001600160a01b0382166115515760405162461bcd60e51b815260040180806020018281038252602a815260200180613020602a913960400191505060405180910390fd5b6001600160a01b038216600090815260036020526040902061113990612308565b6014546001600160a01b031681565b600061158c8361230c565b6115c75760405162461bcd60e51b815260040180806020018281038252604e81526020018061319d604e913960600191505060405180910390fd5b60606115d28561235c565b90506010816040518082805190602001908083835b602083106116065780518252601f1990920191602091820191016115e7565b51815160209384036101000a60001901801990921691161790529201948552506040519384900301909220541591506116889050576040805162461bcd60e51b815260206004820152601c60248201527f4d696e743a204861736874616720616c7265616479206f776e65642e00000000604482015290519081900360640190fd5b600d5461169c90600163ffffffff6123c016565b600d819055604080516080810182524281526001600160a01b03871660208201529081016116c8611f91565b6001600160a01b03908116825260209182018590526000848152600f835260409081902084518155848401516001820180549185166001600160a01b0319928316179055918501516002820180549190941692169190911790915560608301518051919261173e92600385019290910190612e31565b50905050600d546010836040518082805190602001908083835b602083106117775780518252601f199092019160209182019101611758565b51815160209384036101000a6000190180199092169116179052920194855250604051938490030190922092909255506117b390508482612421565b60006117de6012546117d2601354600e5461255e90919063ffffffff16565b9063ffffffff6125a016565b6011546040519192506000916001600160a01b039091169083908381818185875af1925050503d8060008114611830576040519150601f19603f3d011682016040523d82523d6000602084013e611835565b606091505b50509050806118755760405162461bcd60e51b81526004018080602001828103825260298152602001806130736029913960400191505060405180910390fd5b60006001600160a01b038816611891348563ffffffff6125f916565b604051600081818185875af1925050503d80600081146118cd576040519150601f19603f3d011682016040523d82523d6000602084013e6118d2565b606091505b50509050806119125760405162461bcd60e51b815260040180806020018281038252602a815260200180613269602a913960400191505060405180910390fd5b61191a61263b565b876001600160a01b0316336001600160a01b0316857f07b13007633d2ea39b2d62e9b25fd9f75d6936677e83436a7eef20143d24af16886040518080602001828103825283818151815260200191508051906020019080838360005b8381101561198e578181015183820152602001611976565b50505050905090810190601f1680156119bb5780820380516001836020036101000a031916815260200191505b509250505060405180910390a45091979650505050505050565b60606119e0826126d7565b805480602002602001604051908101604052809291908181526020018280548015611a2a57602002820191906000526020600020905b815481526020019060010190808311611a16575b50505050509050919050565b60115460009081906001600160a01b0316611a5084611388565b91509150915091565b600a8054604080516020601f6002600019610100600188161502019095169490940493840181900481028201810190925282815260609390929091830182828015610dcc5780601f10610da157610100808354040283529160200191610dcc565b611ac2611f91565b6001600160a01b0316826001600160a01b03161415611b28576040805162461bcd60e51b815260206004820152601960248201527f4552433732313a20617070726f766520746f2063616c6c657200000000000000604482015290519081900360640190fd5b8060046000611b35611f91565b6001600160a01b03908116825260208083019390935260409182016000908120918716808252919093529120805460ff191692151592909217909155611b79611f91565b60408051841515815290516001600160a01b0392909216917f17307eab39ab6107e8899845ad3d59bd9653f200f220920489ca2b5937696c319181900360200190a35050565b6014546040805172484153485441475f4d494e5445525f524f4c4560681b81528151908190036013018120632474521560e21b825260048201526001600160a01b038481166024830152915160009392909216916391d1485491604480820192602092909190829003018186803b15801561120d57600080fd5b611c4a611c44611f91565b83612066565b611c855760405162461bcd60e51b815260040180806020018281038252603181526020018061320c6031913960400191505060405180910390fd5b611c91848484846126f1565b50505050565b6060611ca282611f74565b611cdd5760405162461bcd60e51b815260040180806020018281038252602f81526020018061316e602f913960400191505060405180910390fd5b6000828152600b602090815260409182902080548351601f6002600019610100600186161502019093169290920491820184900484028101840190945280845260609392830182828015611d725780601f10611d4757610100808354040283529160200191611d72565b820191906000526020600020905b815481529060010190602001808311611d5557829003601f168201915b50505050509050805160001415611d99575050604080516020810190915260008152610d35565b600c816040516020018083805460018160011615610100020316600290048015611dfa5780601f10611dd8576101008083540402835291820191611dfa565b820191906000526020600020905b815481529060010190602001808311611de6575b5050825160208401908083835b60208310611e265780518252601f199092019160209182019101611e07565b6001836020036101000a03801982511681845116808217855250505050505090500192505050604051602081830303815290604052915050610d35565b805160208183018101805160108252928201919093012091525481565b600e5481565b600f60209081526000918252604091829020805460018083015460028085015460038601805489516101009682161596909602600019011692909204601f810188900488028501880190985287845293966001600160a01b03928316969290941694939091830182828015611f3c5780601f10611f1157610100808354040283529160200191611f3c565b820191906000526020600020905b815481529060010190602001808311611f1f57829003601f168201915b5050505050905084565b6001600160a01b03918216600090815260046020908152604080832093909416825291909152205460ff1690565b6000908152600160205260409020546001600160a01b0316151590565b3390565b600081815260026020526040902080546001600160a01b0319166001600160a01b0384169081179091558190611fca82611388565b6001600160a01b03167f8c5be1e5ebec7d5bd14f71427d1e84f3dd0314c0f7b2291e5b200ac8c7c3b92560405160405180910390a45050565b61200c82611f74565b6120475760405162461bcd60e51b815260040180806020018281038252602c8152602001806130e9602c913960400191505060405180910390fd5b6000828152600b602090815260409091208251610f0f92840190612e31565b600061207182611f74565b6120ac5760405162461bcd60e51b815260040180806020018281038252602c815260200180612fbc602c913960400191505060405180910390fd5b60006120b783611388565b9050806001600160a01b0316846001600160a01b031614806120f25750836001600160a01b03166120e784610dd7565b6001600160a01b0316145b8061210257506121028185611f46565b949350505050565b826001600160a01b031661211d82611388565b6001600160a01b0316146121625760405162461bcd60e51b81526004018080602001828103825260298152602001806131456029913960400191505060405180910390fd5b6001600160a01b0382166121a75760405162461bcd60e51b8152600401808060200182810382526024815260200180612f636024913960400191505060405180910390fd5b6121b2838383612743565b6121bd600082611f95565b6001600160a01b03831660009081526003602052604090206121de9061274e565b6001600160a01b03821660009081526003602052604090206121ff90612765565b60008181526001602052604080822080546001600160a01b0319166001600160a01b0386811691821790925591518493918716917fddf252ad1be2c89b69c2b068fc378daa952ba7f163c4a11628f55a4df523b3ef91a4505050565b600061226682611388565b905061227481600084612743565b61227f600083611f95565b6001600160a01b03811660009081526003602052604090206122a09061274e565b60008281526001602052604080822080546001600160a01b0319169055518391906001600160a01b038416907fddf252ad1be2c89b69c2b068fc378daa952ba7f163c4a11628f55a4df523b3ef908390a45050565b8051610fce90600c906020840190612e31565b5490565b60008061231a610f1f611f91565b9050600061232e612329611f91565b611bbf565b8061233d575061233d8461113f565b9050818061210257508080156121025750600e54341015949350505050565b60608160005b81518110156123b95761238e82828151811061237a57fe5b01602001516001600160f81b03191661276e565b82828151811061239a57fe5b60200101906001600160f81b031916908160001a905350600101612362565b5092915050565b60008282018381101561241a576040805162461bcd60e51b815260206004820152601b60248201527f536166654d6174683a206164646974696f6e206f766572666c6f770000000000604482015290519081900360640190fd5b9392505050565b6001600160a01b03821661247c576040805162461bcd60e51b815260206004820181905260248201527f4552433732313a206d696e7420746f20746865207a65726f2061646472657373604482015290519081900360640190fd5b61248581611f74565b156124d7576040805162461bcd60e51b815260206004820152601c60248201527f4552433732313a20746f6b656e20616c7265616479206d696e74656400000000604482015290519081900360640190fd5b6124e360008383612743565b600081815260016020908152604080832080546001600160a01b0319166001600160a01b03871690811790915583526003909152902061252290612765565b60405181906001600160a01b038416906000907fddf252ad1be2c89b69c2b068fc378daa952ba7f163c4a11628f55a4df523b3ef908290a45050565b600061241a83836040518060400160405280601a81526020017f536166654d6174683a206469766973696f6e206279207a65726f0000000000008152506127b6565b6000826125af57506000611139565b828202828482816125bc57fe5b041461241a5760405162461bcd60e51b815260040180806020018281038252602181526020018061309c6021913960400191505060405180910390fd5b600061241a83836040518060400160405280601e81526020017f536166654d6174683a207375627472616374696f6e206f766572666c6f770000815250612858565b306000612646611f91565b6040516001600160a01b039182169184163190600081818185875af1925050503d8060008114612692576040519150601f19603f3d011682016040523d82523d6000602084013e612697565b606091505b5050905080610fce5760405162461bcd60e51b81526004018080602001828103825260308152602001806131156030913960400191505060405180910390fd5b6001600160a01b0316600090815260056020526040902090565b6126fc84848461210a565b612708848484846128b2565b611c915760405162461bcd60e51b8152600401808060200182810382526032815260200180612f316032913960400191505060405180910390fd5b610f0f838383612aed565b805461276190600163ffffffff6125f916565b9055565b80546001019055565b6000604160f81b6001600160f81b031983161080159061279c5750602d60f91b6001600160f81b0319831611155b156127b2578160f81c60200160f81b9050610d35565b5090565b600081836128425760405162461bcd60e51b81526004018080602001828103825283818151815260200191508051906020019080838360005b838110156128075781810151838201526020016127ef565b50505050905090810190601f1680156128345780820380516001836020036101000a031916815260200191505b509250505060405180910390fd5b50600083858161284e57fe5b0495945050505050565b600081848411156128aa5760405162461bcd60e51b81526020600482018181528351602484015283519092839260449091019190850190808383600083156128075781810151838201526020016127ef565b505050900390565b60006128c6846001600160a01b0316612af8565b6128d257506001612102565b600060606001600160a01b038616630a85bd0160e11b6128f0611f91565b89888860405160240180856001600160a01b03166001600160a01b03168152602001846001600160a01b03166001600160a01b0316815260200183815260200180602001828103825283818151815260200191508051906020019080838360005b83811015612969578181015183820152602001612951565b50505050905090810190601f1680156129965780820380516001836020036101000a031916815260200191505b5060408051601f198184030181529181526020820180516001600160e01b03166001600160e01b0319909a16999099178952518151919890975087965094509250829150849050835b602083106129fe5780518252601f1990920191602091820191016129df565b6001836020036101000a0380198251168184511680821785525050505050509050019150506000604051808303816000865af19150503d8060008114612a60576040519150601f19603f3d011682016040523d82523d6000602084013e612a65565b606091505b509150915081612ab657805115612a7f5780518082602001fd5b60405162461bcd60e51b8152600401808060200182810382526032815260200180612f316032913960400191505060405180910390fd5b6000818060200190516020811015612acd57600080fd5b50516001600160e01b031916630a85bd0160e11b14935061210292505050565b610f0f838383612b31565b6000813f7fc5d2460186f7233c927e7db2dcc703c0e500b653ca82273b7bfad8045d85a470818114801590612102575050151592915050565b612b3c838383612b88565b6001600160a01b038216610f0f576000818152600b60205260409020546002600019610100600184161502019091160415610f0f576000818152600b60205260408120610f0f91612eab565b612b93838383610f0f565b6001600160a01b038316612bb957612bab8282612bf9565b612bb481612c37565b610f0f565b6001600160a01b038216612be957612bd18382612c7b565b600081815260066020526040812055612bb481612d7d565b612bf38382612c7b565b610f0f82825b6001600160a01b0390911660009081526005602081815260408084208054868652600684529185208290559282526001810183559183529091200155565b600780546000838152600860205260408120829055600182018355919091527fa66cc928b5edb82af9bd49922954155ab7b0942694bea4ce44661d9a8736c6880155565b6001600160a01b038216600090815260056020526040812054612ca590600163ffffffff6125f916565b600083815260066020526040902054909150808214612d40576001600160a01b0384166000908152600560205260408120805484908110612ce257fe5b906000526020600020015490508060056000876001600160a01b03166001600160a01b031681526020019081526020016000208381548110612d2057fe5b600091825260208083209091019290925591825260069052604090208190555b6001600160a01b0384166000908152600560205260409020805480612d6157fe5b6001900381819060005260206000200160009055905550505050565b600754600090612d9490600163ffffffff6125f916565b60008381526008602052604081205460078054939450909284908110612db657fe5b906000526020600020015490508060078381548110612dd157fe5b60009182526020808320909101929092558281526008909152604090208290556007805480612dfc57fe5b600190038181906000526020600020016000905590556000600860008681526020019081526020016000208190555050505050565b828054600181600116156101000203166002900490600052602060002090601f016020900481019282601f10612e7257805160ff1916838001178555612e9f565b82800160010185558215612e9f579182015b82811115612e9f578251825591602001919060010190612e84565b506127b2929150612eeb565b50805460018160011615610100020316600290046000825580601f10612ed157506112a9565b601f0160209004906000526020600020908101906112a991905b610dd491905b808211156127b25760008155600101612ef156fe455243373231456e756d657261626c653a206f776e657220696e646578206f7574206f6620626f756e64734552433732313a207472616e7366657220746f206e6f6e20455243373231526563656976657220696d706c656d656e7465724552433732313a207472616e7366657220746f20746865207a65726f20616464726573734164647265737320737570706c696564206173207075626c697368657220616e642073656e64657220646f206e6f74206d617463684552433732313a206f70657261746f7220717565727920666f72206e6f6e6578697374656e7420746f6b656e4552433732313a20617070726f76652063616c6c6572206973206e6f74206f776e6572206e6f7220617070726f76656420666f7220616c6c4552433732313a2062616c616e636520717565727920666f7220746865207a65726f20616464726573734552433732313a206f776e657220717565727920666f72206e6f6e6578697374656e7420746f6b656e4661696c656420746f207472616e7366657220636f6d6d697373696f6e20746f20706c6174666f726d536166654d6174683a206d756c7469706c69636174696f6e206f766572666c6f774552433732313a20617070726f76656420717565727920666f72206e6f6e6578697374656e7420746f6b656e4552433732314d657461646174613a2055524920736574206f66206e6f6e6578697374656e7420746f6b656e4661696c656420746f20726566756e64207468652072656d61696e696e672062616c616e636520746f2073656e6465724552433732313a207472616e73666572206f6620746f6b656e2074686174206973206e6f74206f776e4552433732314d657461646174613a2055524920717565727920666f72206e6f6e6578697374656e7420746f6b656e4d696e743a20596f75206d757374206265206569746865722061646d696e206f7220626520617574686f726973656420616e64206861766520706169642074686520706c6174666f726d206665654552433732313a20617070726f76616c20746f2063757272656e74206f776e65724552433732313a207472616e736665722063616c6c6572206973206e6f74206f776e6572206e6f7220617070726f766564455243373231456e756d657261626c653a20676c6f62616c20696e646578206f7574206f6620626f756e64734661696c656420746f207472616e7366657220636f6d6d697373696f6e20746f207075626c69736865724552433732314275726e61626c653a2063616c6c6572206973206e6f74206f776e6572206e6f7220617070726f766564a264697066735822122021af34a409e56013a57b37633f56187edf1c7d8664247f7c2aaff8c197a075dd64736f6c63430006040033",
  "source": "pragma solidity ^0.6.0;\n\nimport \"@openzeppelin/contracts/token/ERC721/ERC721Full.sol\";\nimport \"@openzeppelin/contracts/token/ERC721/ERC721Burnable.sol\";\nimport \"@openzeppelin/contracts/math/SafeMath.sol\";\nimport \"./HashtagAccessControls.sol\";\n\ncontract HashtagProtocol is ERC721Full, ERC721Burnable {\n    using SafeMath for uint256;\n\n    event MintHashtag(uint256 indexed tokenId, address indexed owner, string hashtag, address indexed publisher);\n\n    struct Hashtag {\n        uint256 created;\n        address originalPublisher;\n        address creator;\n        string value;\n    }\n\n    uint256 public tokenPointer = 0;\n    uint256 public fee = 0.01 ether;\n\n    mapping(uint256 => Hashtag) public tokenIdToHashtag;\n    mapping(string => uint256) public hashtagToTokenId;\n\n    address payable public platform;\n    uint256 public platformPercentage = 9000;\n    uint256 modulo = 10000;\n\n    HashtagAccessControls public accessControls;\n\n    modifier onlyAdmin() {\n        require(isAdmin(_msgSender()), \"Caller must be admin\");\n        _;\n    }\n\n    constructor (HashtagAccessControls _accessControls, address payable _platform)\n    public ERC721Full(\"Hashtag Protocol\", \"HASHTAG\") {\n        accessControls = _accessControls;\n        platform = _platform;\n    }\n\n    function exists(uint256 _tokenId) public view returns (bool) {\n        return _exists(_tokenId);\n    }\n\n    function tokensOfOwner(address _owner) public view returns (uint256[] memory) {\n        return _tokensOfOwner(_owner);\n    }\n\n    function setTokenURI(uint256 _tokenId, string memory _uri) onlyAdmin public {\n        _setTokenURI(_tokenId, _uri);\n    }\n\n    function setBaseURI(string memory _baseURI) onlyAdmin public {\n        _setBaseURI(_baseURI);\n    }\n\n    function _beforeTokenTransfer(address _from, address _to, uint256 _tokenId) internal virtual override(ERC721, ERC721Full) {\n        super._beforeTokenTransfer(_from, _to, _tokenId);\n    }\n\n    function mint(string memory _hashtag, address payable _publisher, address _recipient) payable public returns (uint256 _tokenId) {\n        require(_senderCanMintForPublisher(_publisher), \"Mint: You must be either admin or be authorised and have paid the platform fee\");\n\n        string memory lowerHashtag = lower(_hashtag);\n        require(hashtagToTokenId[lowerHashtag] == 0, \"Mint: Hashtag already owned.\");\n\n        tokenPointer = tokenPointer.add(1);\n        uint256 tokenId = tokenPointer;\n\n        tokenIdToHashtag[tokenId] = Hashtag({\n            value: lowerHashtag,\n            created: now,\n            originalPublisher: _publisher,\n            creator: _msgSender()\n        });\n\n        hashtagToTokenId[lowerHashtag] = tokenPointer;\n\n        _mint(_recipient, tokenId);\n\n        // split fee\n        uint256 platformPayment = fee.div(modulo).mul(platformPercentage);\n        (bool platformSuccess,) = platform.call{value: platformPayment}(\"\");\n        require(platformSuccess, \"Failed to transfer commission to platform\");\n\n        (bool publisherSuccess, ) = _publisher.call{value: msg.value.sub(platformPayment)}(\"\");\n        require(publisherSuccess, \"Failed to transfer commission to publisher\");\n\n        _refundRemainingBalance();\n\n        emit MintHashtag(tokenId, msg.sender, lowerHashtag, _publisher);\n\n        return tokenId;\n    }\n\n    function setFee(uint256 _fee) onlyAdmin external {\n        fee = _fee;\n    }\n\n    function setPlatformPercentage(uint256 _platformPercentage) onlyAdmin external {\n        platformPercentage = _platformPercentage;\n    }\n\n    function setPlatform(address payable _platform) onlyAdmin external {\n        platform = _platform;\n    }\n\n    function getPaymentAddresses(uint256 _tokenId) public view returns (\n        address payable _platform,\n        address payable _owner\n    ) {\n        return (\n            platform,\n            payable(ownerOf(_tokenId))\n        );\n    }\n\n    // Checks whether an address has an admin role\n    function isAdmin(address addr) public view returns (bool) {\n        bytes32 adminRole = 0x00;\n        return accessControls.hasRole(adminRole, addr);\n    }\n\n    // Checks whether an address has a publisher role\n    function isPublisher(address addr) public view returns (bool) {\n        return accessControls.hasRole(keccak256(\"PUBLISHER\"), addr);\n    }\n\n    // Checks whether an address has a minter role\n    function isMinter(address addr) public view returns (bool) {\n        return accessControls.hasRole(keccak256(\"HASHTAG_MINTER_ROLE\"), addr);\n    }\n\n    // Checks whether an address and the sender match and whether they have the publisher role\n    function isSenderPublisher(address addr) public view returns (bool) {\n        require(addr == _msgSender(), \"Address supplied as publisher and sender do not match\");\n        return isPublisher(addr);\n    }\n\n    // A sender can mint when they are either admin or are an authorised sender and have paid the platform fee\n    function _senderCanMintForPublisher(address _publisher) private view returns (bool) {\n        bool isAdmin = isAdmin(_msgSender());\n        bool isAuthorisedSender = isMinter(_msgSender()) || isSenderPublisher(_publisher);\n        return isAdmin || (isAuthorisedSender && msg.value >= fee);\n    }\n\n    // converts a string to lowercase\n    function lower(string memory _base) internal pure returns (string memory) {\n        bytes memory _baseBytes = bytes(_base);\n        for (uint i = 0; i < _baseBytes.length; i++) {\n            _baseBytes[i] = _lower(_baseBytes[i]);\n        }\n        return string(_baseBytes);\n    }\n\n    function _refundRemainingBalance() private {\n        address payable self = payable(address(this));\n        (bool refundSuccess, ) = _msgSender().call{value: self.balance}(\"\");\n        require(refundSuccess, \"Failed to refund the remaining balance to sender\");\n    }\n\n    function _lower(bytes1 _b1) private pure returns (bytes1) {\n\n        if (_b1 >= 0x41 && _b1 <= 0x5A) {\n            return bytes1(uint8(_b1) + 32);\n        }\n\n        return _b1;\n    }\n}\n",
  "sourcePath": "/Users/Natalie/Projects/hashtag-contracts/contracts/HashtagProtocol.sol",
  "compiler": {
    "name": "solc",
    "version": "0.6.4+commit.1dca32f3.Emscripten.clang"
  },
  "schemaVersion": "3.0.23",
  "updatedAt": "2020-03-31T10:10:05.808Z",
  "networkType": "ethereum",
  "devdoc": {
    "methods": {
      "approve(address,uint256)": {
        "details": "Approves another address to transfer the given token ID The zero address indicates there is no approved address. There can only be one approved address per token at a given time. Can only be called by the token owner or an approved operator.",
        "params": {
          "to": "address to be approved for the given token ID",
          "tokenId": "uint256 ID of the token to be approved"
        }
      },
      "balanceOf(address)": {
        "details": "Gets the balance of the specified address.",
        "params": {
          "owner": "address to query the balance of"
        },
        "returns": {
          "_0": "uint256 representing the amount owned by the passed address"
        }
      },
      "baseURI()": {
        "details": "Returns the base URI set via {_setBaseURI}. This will be automatically added as a preffix in {tokenURI} to each token's URI, when they are non-empty."
      },
      "burn(uint256)": {
        "details": "Burns a specific ERC721 token.",
        "params": {
          "tokenId": "uint256 id of the ERC721 token to be burned."
        }
      },
      "getApproved(uint256)": {
        "details": "Gets the approved address for a token ID, or zero if no address set Reverts if the token ID does not exist.",
        "params": {
          "tokenId": "uint256 ID of the token to query the approval of"
        },
        "returns": {
          "_0": "address currently approved for the given token ID"
        }
      },
      "isApprovedForAll(address,address)": {
        "details": "Tells whether an operator is approved by a given owner.",
        "params": {
          "operator": "operator address which you want to query the approval of",
          "owner": "owner address which you want to query the approval of"
        },
        "returns": {
          "_0": "bool whether the given operator is approved by the given owner"
        }
      },
      "name()": {
        "details": "Gets the token name.",
        "returns": {
          "_0": "string representing the token name"
        }
      },
      "ownerOf(uint256)": {
        "details": "Gets the owner of the specified token ID.",
        "params": {
          "tokenId": "uint256 ID of the token to query the owner of"
        },
        "returns": {
          "_0": "address currently marked as the owner of the given token ID"
        }
      },
      "safeTransferFrom(address,address,uint256)": {
        "details": "Safely transfers the ownership of a given token ID to another address If the target address is a contract, it must implement {IERC721Receiver-onERC721Received}, which is called upon a safe transfer, and return the magic value `bytes4(keccak256(\"onERC721Received(address,address,uint256,bytes)\"))`; otherwise, the transfer is reverted. Requires the msg.sender to be the owner, approved, or operator",
        "params": {
          "from": "current owner of the token",
          "to": "address to receive the ownership of the given token ID",
          "tokenId": "uint256 ID of the token to be transferred"
        }
      },
      "safeTransferFrom(address,address,uint256,bytes)": {
        "details": "Safely transfers the ownership of a given token ID to another address If the target address is a contract, it must implement {IERC721Receiver-onERC721Received}, which is called upon a safe transfer, and return the magic value `bytes4(keccak256(\"onERC721Received(address,address,uint256,bytes)\"))`; otherwise, the transfer is reverted. Requires the _msgSender() to be the owner, approved, or operator",
        "params": {
          "_data": "bytes data to send along with a safe transfer check",
          "from": "current owner of the token",
          "to": "address to receive the ownership of the given token ID",
          "tokenId": "uint256 ID of the token to be transferred"
        }
      },
      "setApprovalForAll(address,bool)": {
        "details": "Sets or unsets the approval of a given operator An operator is allowed to transfer all tokens of the sender on their behalf.",
        "params": {
          "approved": "representing the status of the approval to be set",
          "operator": "operator address to set the approval"
        }
      },
      "supportsInterface(bytes4)": {
        "details": "See {IERC165-supportsInterface}.     * Time complexity O(1), guaranteed to always use less than 30 000 gas."
      },
      "symbol()": {
        "details": "Gets the token symbol.",
        "returns": {
          "_0": "string representing the token symbol"
        }
      },
      "tokenByIndex(uint256)": {
        "details": "Gets the token ID at a given index of all the tokens in this contract Reverts if the index is greater or equal to the total number of tokens.",
        "params": {
          "index": "uint256 representing the index to be accessed of the tokens list"
        },
        "returns": {
          "_0": "uint256 token ID at the given index of the tokens list"
        }
      },
      "tokenOfOwnerByIndex(address,uint256)": {
        "details": "Gets the token ID at a given index of the tokens list of the requested owner.",
        "params": {
          "index": "uint256 representing the index to be accessed of the requested tokens list",
          "owner": "address owning the tokens list to be accessed"
        },
        "returns": {
          "_0": "uint256 token ID at the given index of the tokens list owned by the requested address"
        }
      },
      "tokenURI(uint256)": {
        "details": "Returns the URI for a given token ID. May return an empty string.     * If the token's URI is non-empty and a base URI was set (via {_setBaseURI}), it will be added to the token ID's URI as a prefix.     * Reverts if the token ID does not exist."
      },
      "totalSupply()": {
        "details": "Gets the total amount of tokens stored by the contract.",
        "returns": {
          "_0": "uint256 representing the total amount of tokens"
        }
      },
      "transferFrom(address,address,uint256)": {
        "details": "Transfers the ownership of a given token ID to another address. Usage of this method is discouraged, use {safeTransferFrom} whenever possible. Requires the msg.sender to be the owner, approved, or operator.",
        "params": {
          "from": "current owner of the token",
          "to": "address to receive the ownership of the given token ID",
          "tokenId": "uint256 ID of the token to be transferred"
        }
      }
    }
  },
  "userdoc": {
    "methods": {}
  }
}