{
  "contractName": "HashtagProtocol",
  "abi": [
    {
      "inputs": [
        {
          "internalType": "address payable",
          "name": "_platform",
          "type": "address"
        }
      ],
      "stateMutability": "nonpayable",
      "type": "constructor"
    },
    {
      "anonymous": false,
      "inputs": [
        {
          "indexed": true,
          "internalType": "address",
          "name": "publisher",
          "type": "address"
        }
      ],
      "name": "AddPublisher",
      "type": "event"
    },
    {
      "anonymous": false,
      "inputs": [
        {
          "indexed": true,
          "internalType": "address",
          "name": "owner",
          "type": "address"
        },
        {
          "indexed": true,
          "internalType": "address",
          "name": "approved",
          "type": "address"
        },
        {
          "indexed": true,
          "internalType": "uint256",
          "name": "tokenId",
          "type": "uint256"
        }
      ],
      "name": "Approval",
      "type": "event"
    },
    {
      "anonymous": false,
      "inputs": [
        {
          "indexed": true,
          "internalType": "address",
          "name": "owner",
          "type": "address"
        },
        {
          "indexed": true,
          "internalType": "address",
          "name": "operator",
          "type": "address"
        },
        {
          "indexed": false,
          "internalType": "bool",
          "name": "approved",
          "type": "bool"
        }
      ],
      "name": "ApprovalForAll",
      "type": "event"
    },
    {
      "anonymous": false,
      "inputs": [
        {
          "indexed": true,
          "internalType": "uint256",
          "name": "tokenId",
          "type": "uint256"
        },
        {
          "indexed": true,
          "internalType": "address",
          "name": "owner",
          "type": "address"
        },
        {
          "indexed": false,
          "internalType": "string",
          "name": "hashtag",
          "type": "string"
        },
        {
          "indexed": true,
          "internalType": "address",
          "name": "publisher",
          "type": "address"
        }
      ],
      "name": "MintHashtag",
      "type": "event"
    },
    {
      "anonymous": false,
      "inputs": [
        {
          "indexed": true,
          "internalType": "address",
          "name": "previousOwner",
          "type": "address"
        },
        {
          "indexed": true,
          "internalType": "address",
          "name": "newOwner",
          "type": "address"
        }
      ],
      "name": "OwnershipTransferred",
      "type": "event"
    },
    {
      "anonymous": false,
      "inputs": [
        {
          "indexed": true,
          "internalType": "address",
          "name": "publisher",
          "type": "address"
        }
      ],
      "name": "RemovePublisher",
      "type": "event"
    },
    {
      "anonymous": false,
      "inputs": [
        {
          "indexed": true,
          "internalType": "address",
          "name": "from",
          "type": "address"
        },
        {
          "indexed": true,
          "internalType": "address",
          "name": "to",
          "type": "address"
        },
        {
          "indexed": true,
          "internalType": "uint256",
          "name": "tokenId",
          "type": "uint256"
        }
      ],
      "name": "Transfer",
      "type": "event"
    },
    {
      "inputs": [
        {
          "internalType": "address",
          "name": "to",
          "type": "address"
        },
        {
          "internalType": "uint256",
          "name": "tokenId",
          "type": "uint256"
        }
      ],
      "name": "approve",
      "outputs": [],
      "stateMutability": "nonpayable",
      "type": "function"
    },
    {
      "inputs": [
        {
          "internalType": "address",
          "name": "owner",
          "type": "address"
        }
      ],
      "name": "balanceOf",
      "outputs": [
        {
          "internalType": "uint256",
          "name": "",
          "type": "uint256"
        }
      ],
      "stateMutability": "view",
      "type": "function",
      "constant": true
    },
    {
      "inputs": [],
      "name": "baseURI",
      "outputs": [
        {
          "internalType": "string",
          "name": "",
          "type": "string"
        }
      ],
      "stateMutability": "view",
      "type": "function",
      "constant": true
    },
    {
      "inputs": [
        {
          "internalType": "uint256",
          "name": "tokenId",
          "type": "uint256"
        }
      ],
      "name": "burn",
      "outputs": [],
      "stateMutability": "nonpayable",
      "type": "function"
    },
    {
      "inputs": [],
      "name": "fee",
      "outputs": [
        {
          "internalType": "uint256",
          "name": "",
          "type": "uint256"
        }
      ],
      "stateMutability": "view",
      "type": "function",
      "constant": true
    },
    {
      "inputs": [
        {
          "internalType": "uint256",
          "name": "tokenId",
          "type": "uint256"
        }
      ],
      "name": "getApproved",
      "outputs": [
        {
          "internalType": "address",
          "name": "",
          "type": "address"
        }
      ],
      "stateMutability": "view",
      "type": "function",
      "constant": true
    },
    {
      "inputs": [
        {
          "internalType": "string",
          "name": "",
          "type": "string"
        }
      ],
      "name": "hashtagToTokenId",
      "outputs": [
        {
          "internalType": "uint256",
          "name": "",
          "type": "uint256"
        }
      ],
      "stateMutability": "view",
      "type": "function",
      "constant": true
    },
    {
      "inputs": [
        {
          "internalType": "address",
          "name": "owner",
          "type": "address"
        },
        {
          "internalType": "address",
          "name": "operator",
          "type": "address"
        }
      ],
      "name": "isApprovedForAll",
      "outputs": [
        {
          "internalType": "bool",
          "name": "",
          "type": "bool"
        }
      ],
      "stateMutability": "view",
      "type": "function",
      "constant": true
    },
    {
      "inputs": [],
      "name": "isOwner",
      "outputs": [
        {
          "internalType": "bool",
          "name": "",
          "type": "bool"
        }
      ],
      "stateMutability": "view",
      "type": "function",
      "constant": true
    },
    {
      "inputs": [],
      "name": "name",
      "outputs": [
        {
          "internalType": "string",
          "name": "",
          "type": "string"
        }
      ],
      "stateMutability": "view",
      "type": "function",
      "constant": true
    },
    {
      "inputs": [],
      "name": "owner",
      "outputs": [
        {
          "internalType": "address",
          "name": "",
          "type": "address"
        }
      ],
      "stateMutability": "view",
      "type": "function",
      "constant": true
    },
    {
      "inputs": [
        {
          "internalType": "uint256",
          "name": "tokenId",
          "type": "uint256"
        }
      ],
      "name": "ownerOf",
      "outputs": [
        {
          "internalType": "address",
          "name": "",
          "type": "address"
        }
      ],
      "stateMutability": "view",
      "type": "function",
      "constant": true
    },
    {
      "inputs": [],
      "name": "platform",
      "outputs": [
        {
          "internalType": "address payable",
          "name": "",
          "type": "address"
        }
      ],
      "stateMutability": "view",
      "type": "function",
      "constant": true
    },
    {
      "inputs": [],
      "name": "platformPercentage",
      "outputs": [
        {
          "internalType": "uint256",
          "name": "",
          "type": "uint256"
        }
      ],
      "stateMutability": "view",
      "type": "function",
      "constant": true
    },
    {
      "inputs": [
        {
          "internalType": "address",
          "name": "",
          "type": "address"
        }
      ],
      "name": "publisherWhitelist",
      "outputs": [
        {
          "internalType": "bool",
          "name": "",
          "type": "bool"
        }
      ],
      "stateMutability": "view",
      "type": "function",
      "constant": true
    },
    {
      "inputs": [],
      "name": "renounceOwnership",
      "outputs": [],
      "stateMutability": "nonpayable",
      "type": "function"
    },
    {
      "inputs": [
        {
          "internalType": "address",
          "name": "from",
          "type": "address"
        },
        {
          "internalType": "address",
          "name": "to",
          "type": "address"
        },
        {
          "internalType": "uint256",
          "name": "tokenId",
          "type": "uint256"
        }
      ],
      "name": "safeTransferFrom",
      "outputs": [],
      "stateMutability": "nonpayable",
      "type": "function"
    },
    {
      "inputs": [
        {
          "internalType": "address",
          "name": "from",
          "type": "address"
        },
        {
          "internalType": "address",
          "name": "to",
          "type": "address"
        },
        {
          "internalType": "uint256",
          "name": "tokenId",
          "type": "uint256"
        },
        {
          "internalType": "bytes",
          "name": "_data",
          "type": "bytes"
        }
      ],
      "name": "safeTransferFrom",
      "outputs": [],
      "stateMutability": "nonpayable",
      "type": "function"
    },
    {
      "inputs": [
        {
          "internalType": "address",
          "name": "operator",
          "type": "address"
        },
        {
          "internalType": "bool",
          "name": "approved",
          "type": "bool"
        }
      ],
      "name": "setApprovalForAll",
      "outputs": [],
      "stateMutability": "nonpayable",
      "type": "function"
    },
    {
      "inputs": [
        {
          "internalType": "bytes4",
          "name": "interfaceId",
          "type": "bytes4"
        }
      ],
      "name": "supportsInterface",
      "outputs": [
        {
          "internalType": "bool",
          "name": "",
          "type": "bool"
        }
      ],
      "stateMutability": "view",
      "type": "function",
      "constant": true
    },
    {
      "inputs": [],
      "name": "symbol",
      "outputs": [
        {
          "internalType": "string",
          "name": "",
          "type": "string"
        }
      ],
      "stateMutability": "view",
      "type": "function",
      "constant": true
    },
    {
      "inputs": [
        {
          "internalType": "uint256",
          "name": "index",
          "type": "uint256"
        }
      ],
      "name": "tokenByIndex",
      "outputs": [
        {
          "internalType": "uint256",
          "name": "",
          "type": "uint256"
        }
      ],
      "stateMutability": "view",
      "type": "function",
      "constant": true
    },
    {
      "inputs": [
        {
          "internalType": "uint256",
          "name": "",
          "type": "uint256"
        }
      ],
      "name": "tokenIdToCreatedDate",
      "outputs": [
        {
          "internalType": "uint256",
          "name": "",
          "type": "uint256"
        }
      ],
      "stateMutability": "view",
      "type": "function",
      "constant": true
    },
    {
      "inputs": [
        {
          "internalType": "uint256",
          "name": "",
          "type": "uint256"
        }
      ],
      "name": "tokenIdToHashtag",
      "outputs": [
        {
          "internalType": "string",
          "name": "",
          "type": "string"
        }
      ],
      "stateMutability": "view",
      "type": "function",
      "constant": true
    },
    {
      "inputs": [
        {
          "internalType": "uint256",
          "name": "",
          "type": "uint256"
        }
      ],
      "name": "tokenIdToPublisher",
      "outputs": [
        {
          "internalType": "address",
          "name": "",
          "type": "address"
        }
      ],
      "stateMutability": "view",
      "type": "function",
      "constant": true
    },
    {
      "inputs": [
        {
          "internalType": "address",
          "name": "owner",
          "type": "address"
        },
        {
          "internalType": "uint256",
          "name": "index",
          "type": "uint256"
        }
      ],
      "name": "tokenOfOwnerByIndex",
      "outputs": [
        {
          "internalType": "uint256",
          "name": "",
          "type": "uint256"
        }
      ],
      "stateMutability": "view",
      "type": "function",
      "constant": true
    },
    {
      "inputs": [],
      "name": "tokenPointer",
      "outputs": [
        {
          "internalType": "uint256",
          "name": "",
          "type": "uint256"
        }
      ],
      "stateMutability": "view",
      "type": "function",
      "constant": true
    },
    {
      "inputs": [
        {
          "internalType": "uint256",
          "name": "tokenId",
          "type": "uint256"
        }
      ],
      "name": "tokenURI",
      "outputs": [
        {
          "internalType": "string",
          "name": "",
          "type": "string"
        }
      ],
      "stateMutability": "view",
      "type": "function",
      "constant": true
    },
    {
      "inputs": [],
      "name": "totalSupply",
      "outputs": [
        {
          "internalType": "uint256",
          "name": "",
          "type": "uint256"
        }
      ],
      "stateMutability": "view",
      "type": "function",
      "constant": true
    },
    {
      "inputs": [
        {
          "internalType": "address",
          "name": "from",
          "type": "address"
        },
        {
          "internalType": "address",
          "name": "to",
          "type": "address"
        },
        {
          "internalType": "uint256",
          "name": "tokenId",
          "type": "uint256"
        }
      ],
      "name": "transferFrom",
      "outputs": [],
      "stateMutability": "nonpayable",
      "type": "function"
    },
    {
      "inputs": [
        {
          "internalType": "address",
          "name": "newOwner",
          "type": "address"
        }
      ],
      "name": "transferOwnership",
      "outputs": [],
      "stateMutability": "nonpayable",
      "type": "function"
    },
    {
      "inputs": [
        {
          "internalType": "uint256",
          "name": "tokenId",
          "type": "uint256"
        }
      ],
      "name": "exists",
      "outputs": [
        {
          "internalType": "bool",
          "name": "",
          "type": "bool"
        }
      ],
      "stateMutability": "view",
      "type": "function",
      "constant": true
    },
    {
      "inputs": [
        {
          "internalType": "address",
          "name": "owner",
          "type": "address"
        }
      ],
      "name": "tokensOfOwner",
      "outputs": [
        {
          "internalType": "uint256[]",
          "name": "",
          "type": "uint256[]"
        }
      ],
      "stateMutability": "view",
      "type": "function",
      "constant": true
    },
    {
      "inputs": [
        {
          "internalType": "uint256",
          "name": "tokenId",
          "type": "uint256"
        },
        {
          "internalType": "string",
          "name": "uri",
          "type": "string"
        }
      ],
      "name": "setTokenURI",
      "outputs": [],
      "stateMutability": "nonpayable",
      "type": "function"
    },
    {
      "inputs": [
        {
          "internalType": "string",
          "name": "baseURI",
          "type": "string"
        }
      ],
      "name": "setBaseURI",
      "outputs": [],
      "stateMutability": "nonpayable",
      "type": "function"
    },
    {
      "inputs": [
        {
          "internalType": "string",
          "name": "hashtag",
          "type": "string"
        },
        {
          "internalType": "address payable",
          "name": "publisher",
          "type": "address"
        }
      ],
      "name": "mint",
      "outputs": [],
      "stateMutability": "payable",
      "type": "function",
      "payable": true
    },
    {
      "inputs": [
        {
          "internalType": "uint256",
          "name": "_fee",
          "type": "uint256"
        }
      ],
      "name": "setFee",
      "outputs": [],
      "stateMutability": "nonpayable",
      "type": "function"
    },
    {
      "inputs": [
        {
          "internalType": "uint256",
          "name": "_platformPercentage",
          "type": "uint256"
        }
      ],
      "name": "setPlatformPercentage",
      "outputs": [],
      "stateMutability": "nonpayable",
      "type": "function"
    },
    {
      "inputs": [
        {
          "internalType": "address payable",
          "name": "_platform",
          "type": "address"
        }
      ],
      "name": "setPlatform",
      "outputs": [],
      "stateMutability": "nonpayable",
      "type": "function"
    },
    {
      "inputs": [
        {
          "internalType": "address",
          "name": "_publisher",
          "type": "address"
        }
      ],
      "name": "addPublisher",
      "outputs": [],
      "stateMutability": "nonpayable",
      "type": "function"
    },
    {
      "inputs": [
        {
          "internalType": "address",
          "name": "_publisher",
          "type": "address"
        }
      ],
      "name": "removePublisher",
      "outputs": [],
      "stateMutability": "nonpayable",
      "type": "function"
    }
  ],
  "bytecode": "0x60806040526000600e55662386f26fc10000600f55605a6016553480156200002657600080fd5b506040516200348438038062003484833981810160405260208110156200004c57600080fd5b5051604080518082018252601081526f12185cda1d1859c8141c9bdd1bd8dbdb60821b602082810191909152825180840190935260078352664841534854414760c81b908301529081816000620000ab6001600160e01b03620001b916565b600080546001600160a01b0319166001600160a01b0383169081178255604051929350917f8be0079c531659141344cd1fd0a4f28419497f9722a3daafe3b4186f6b6457e0908290a350620001106301ffc9a760e01b6001600160e01b03620001be16565b6200012b6380ac58cd60e01b6001600160e01b03620001be16565b6200014663780e9d6360e01b6001600160e01b03620001be16565b81516200015b90600a90602085019062000246565b5080516200017190600b90602084019062000246565b506200018d635b5e139f60e01b6001600160e01b03620001be16565b5050601580546001600160a01b0319166001600160a01b03949094169390931790925550620002e89050565b335b90565b6001600160e01b031980821614156200021e576040805162461bcd60e51b815260206004820152601c60248201527f4552433136353a20696e76616c696420696e7465726661636520696400000000604482015290519081900360640190fd5b6001600160e01b0319166000908152600160208190526040909120805460ff19169091179055565b828054600181600116156101000203166002900490600052602060002090601f016020900481019282601f106200028957805160ff1916838001178555620002b9565b82800160010185558215620002b9579182015b82811115620002b95782518255916020019190600101906200029c565b50620002c7929150620002cb565b5090565b620001bb91905b80821115620002c75760008155600101620002d2565b61318c80620002f86000396000f3fe6080604052600436106102465760003560e01c80636352211e1161013957806395d89b41116100b6578063c87b56dd1161007a578063c87b56dd14610b22578063d977a65314610b4c578063ddca3f4314610bfd578063e2e982c814610c12578063e985e9c514610c3c578063f2fde38b14610c7757610246565b806395d89b41146109a4578063a22cb465146109b9578063a569b025146109f4578063ae61c5ae14610a1e578063b88d4fde14610a5157610246565b8063715018a6116100fd578063715018a6146108af578063763f323d146108c45780638462151c146108f75780638da5cb5b1461097a5780638f32d59b1461098f57610246565b80636352211e146107e05780636945c5ea1461080a57806369fe0e2d1461083d5780636c0360eb1461086757806370a082311461087c57610246565b80631f741897116101c757806342966c681161018b57806342966c681461069c5780634bde38c8146106c65780634f558e79146106db5780634f6ccce71461070557806355f804b31461072f57610246565b80631f7418971461059557806323b872dd146105aa578063294ff4f1146105ed5780632f745c591461062057806342842e0e1461065957610246565b806314d39bad1161020e57806314d39bad146103c5578063162094c4146103ef57806318160ddd146104a7578063196f92d5146104bc5780631c351a9d146104e657610246565b806301ffc9a71461024b578063028316511461029357806306fdde03146102ba578063081812fc14610344578063095ea7b31461038a575b600080fd5b34801561025757600080fd5b5061027f6004803603602081101561026e57600080fd5b50356001600160e01b031916610caa565b604080519115158252519081900360200190f35b34801561029f57600080fd5b506102a8610ccd565b60408051918252519081900360200190f35b3480156102c657600080fd5b506102cf610cd3565b6040805160208082528351818301528351919283929083019185019080838360005b838110156103095781810151838201526020016102f1565b50505050905090810190601f1680156103365780820380516001836020036101000a031916815260200191505b509250505060405180910390f35b34801561035057600080fd5b5061036e6004803603602081101561036757600080fd5b5035610d6a565b604080516001600160a01b039092168252519081900360200190f35b34801561039657600080fd5b506103c3600480360360408110156103ad57600080fd5b506001600160a01b038135169060200135610dcc565b005b3480156103d157600080fd5b506103c3600480360360208110156103e857600080fd5b5035610ea7565b3480156103fb57600080fd5b506103c36004803603604081101561041257600080fd5b81359190810190604081016020820135600160201b81111561043357600080fd5b82018360208201111561044557600080fd5b803590602001918460018302840111600160201b8311171561046657600080fd5b91908080601f016020809104026020016040519081016040528093929190818152602001838380828437600092019190915250929550610ef3945050505050565b3480156104b357600080fd5b506102a8610f48565b3480156104c857600080fd5b5061036e600480360360208110156104df57600080fd5b5035610f4e565b6103c3600480360360408110156104fc57600080fd5b810190602081018135600160201b81111561051657600080fd5b82018360208201111561052857600080fd5b803590602001918460018302840111600160201b8311171561054957600080fd5b91908080601f016020809104026020016040519081016040528093929190818152602001838380828437600092019190915250929550505090356001600160a01b03169150610f699050565b3480156105a157600080fd5b506102a861130d565b3480156105b657600080fd5b506103c3600480360360608110156105cd57600080fd5b506001600160a01b03813581169160208101359091169060400135611313565b3480156105f957600080fd5b5061027f6004803603602081101561061057600080fd5b50356001600160a01b031661136a565b34801561062c57600080fd5b506102a86004803603604081101561064357600080fd5b506001600160a01b03813516906020013561137f565b34801561066557600080fd5b506103c36004803603606081101561067c57600080fd5b506001600160a01b038135811691602081013590911690604001356113ff565b3480156106a857600080fd5b506103c3600480360360208110156106bf57600080fd5b503561141a565b3480156106d257600080fd5b5061036e61146c565b3480156106e757600080fd5b5061027f600480360360208110156106fe57600080fd5b503561147b565b34801561071157600080fd5b506102a86004803603602081101561072857600080fd5b5035611486565b34801561073b57600080fd5b506103c36004803603602081101561075257600080fd5b810190602081018135600160201b81111561076c57600080fd5b82018360208201111561077e57600080fd5b803590602001918460018302840111600160201b8311171561079f57600080fd5b91908080601f0160208091040260200160405190810160405280939291908181526020018383808284376000920191909152509295506114ec945050505050565b3480156107ec57600080fd5b5061036e6004803603602081101561080357600080fd5b503561153c565b34801561081657600080fd5b506103c36004803603602081101561082d57600080fd5b50356001600160a01b0316611590565b34801561084957600080fd5b506103c36004803603602081101561086057600080fd5b50356115f9565b34801561087357600080fd5b506102cf611645565b34801561088857600080fd5b506102a86004803603602081101561089f57600080fd5b50356001600160a01b03166116a6565b3480156108bb57600080fd5b506103c361170e565b3480156108d057600080fd5b506103c3600480360360208110156108e757600080fd5b50356001600160a01b031661179f565b34801561090357600080fd5b5061092a6004803603602081101561091a57600080fd5b50356001600160a01b0316611832565b60408051602080825283518183015283519192839290830191858101910280838360005b8381101561096657818101518382015260200161094e565b505050509050019250505060405180910390f35b34801561098657600080fd5b5061036e611893565b34801561099b57600080fd5b5061027f6118a2565b3480156109b057600080fd5b506102cf6118c6565b3480156109c557600080fd5b506103c3600480360360408110156109dc57600080fd5b506001600160a01b0381351690602001351515611927565b348015610a0057600080fd5b506102a860048036036020811015610a1757600080fd5b5035611a2c565b348015610a2a57600080fd5b506103c360048036036020811015610a4157600080fd5b50356001600160a01b0316611a3e565b348015610a5d57600080fd5b506103c360048036036080811015610a7457600080fd5b6001600160a01b03823581169260208101359091169160408201359190810190608081016060820135600160201b811115610aae57600080fd5b820183602082011115610ac057600080fd5b803590602001918460018302840111600160201b83111715610ae157600080fd5b91908080601f016020809104026020016040519081016040528093929190818152602001838380828437600092019190915250929550611ace945050505050565b348015610b2e57600080fd5b506102cf60048036036020811015610b4557600080fd5b5035611b2c565b348015610b5857600080fd5b506102a860048036036020811015610b6f57600080fd5b810190602081018135600160201b811115610b8957600080fd5b820183602082011115610b9b57600080fd5b803590602001918460018302840111600160201b83111715610bbc57600080fd5b91908080601f016020809104026020016040519081016040528093929190818152602001838380828437600092019190915250929550611cf8945050505050565b348015610c0957600080fd5b506102a8611d15565b348015610c1e57600080fd5b506102cf60048036036020811015610c3557600080fd5b5035611d1b565b348015610c4857600080fd5b5061027f60048036036040811015610c5f57600080fd5b506001600160a01b0381358116916020013516611db6565b348015610c8357600080fd5b506103c360048036036020811015610c9a57600080fd5b50356001600160a01b0316611de4565b6001600160e01b0319811660009081526001602052604090205460ff165b919050565b600e5481565b600a8054604080516020601f6002600019610100600188161502019095169490940493840181900481028201810190925282815260609390929091830182828015610d5f5780601f10610d3457610100808354040283529160200191610d5f565b820191906000526020600020905b815481529060010190602001808311610d4257829003601f168201915b505050505090505b90565b6000610d7582611e34565b610db05760405162461bcd60e51b815260040180806020018281038252602c815260200180612fb4602c913960400191505060405180910390fd5b506000908152600360205260409020546001600160a01b031690565b6000610dd78261153c565b9050806001600160a01b0316836001600160a01b03161415610e2a5760405162461bcd60e51b81526004018080602001828103825260218152602001806130846021913960400191505060405180910390fd5b806001600160a01b0316610e3c611e51565b6001600160a01b03161480610e5d5750610e5d81610e58611e51565b611db6565b610e985760405162461bcd60e51b8152600401808060200182810382526038815260200180612ed06038913960400191505060405180910390fd5b610ea28383611e55565b505050565b610eaf6118a2565b610eee576040805162461bcd60e51b8152602060048201819052602482015260008051602061300c833981519152604482015290519081900360640190fd5b601655565b610efb6118a2565b610f3a576040805162461bcd60e51b8152602060048201819052602482015260008051602061300c833981519152604482015290519081900360640190fd5b610f448282611ec3565b5050565b60085490565b6012602052600090815260409020546001600160a01b031681565b600f5434101580610f7d5750610f7d6118a2565b610fb85760405162461bcd60e51b8152600401808060200182810382526038815260200180612f5b6038913960400191505060405180910390fd5b6001600160a01b03811660009081526014602052604090205460ff1615156001146110145760405162461bcd60e51b8152600401808060200182810382526026815260200180612e5a6026913960400191505060405180910390fd5b606061101f83611f26565b90506011816040518082805190602001908083835b602083106110535780518252601f199092019160209182019101611034565b51815160209384036101000a60001901801990921691161790529201948552506040519384900301909220541591506110d59050576040805162461bcd60e51b815260206004820152601c60248201527f4d696e743a204861736874616720616c7265616479206f776e65642e00000000604482015290519081900360640190fd5b600e546110e990600163ffffffff611f8a16565b600e8190556000818152601060209081526040909120835161110d92850190612d02565b50600e546011836040518082805190602001908083835b602083106111435780518252601f199092019160209182019101611124565b51815160209384036101000a60001901801990921691161790529201948552506040805194859003820190942094909455505060008381526012835281812080546001600160a01b0319166001600160a01b038816179055601390925290204290556111af3382611feb565b6016546000906111d6906111ca34606463ffffffff61212816565b9063ffffffff61216a16565b6015546040519192506001600160a01b03169082156108fc029083906000818181858888f19350505050158015611211573d6000803e3d6000fd5b506001600160a01b0384166108fc61122f348463ffffffff6121c316565b6040518115909202916000818181858888f19350505050158015611257573d6000803e3d6000fd5b50836001600160a01b0316336001600160a01b0316837f07b13007633d2ea39b2d62e9b25fd9f75d6936677e83436a7eef20143d24af16866040518080602001828103825283818151815260200191508051906020019080838360005b838110156112cc5781810151838201526020016112b4565b50505050905090810190601f1680156112f95780820380516001836020036101000a031916815260200191505b509250505060405180910390a45050505050565b60165481565b61132461131e611e51565b82612205565b61135f5760405162461bcd60e51b81526004018080602001828103825260318152602001806130a56031913960400191505060405180910390fd5b610ea28383836122a9565b60146020526000908152604090205460ff1681565b600061138a836116a6565b82106113c75760405162461bcd60e51b815260040180806020018281038252602b815260200180612dd7602b913960400191505060405180910390fd5b6001600160a01b03831660009081526006602052604090208054839081106113eb57fe5b906000526020600020015490505b92915050565b610ea283838360405180602001604052806000815250611ace565b61142561131e611e51565b6114605760405162461bcd60e51b81526004018080602001828103825260308152602001806131276030913960400191505060405180910390fd5b611469816123fa565b50565b6015546001600160a01b031681565b60006113f982611e34565b6000611490610f48565b82106114cd5760405162461bcd60e51b815260040180806020018281038252602c8152602001806130d6602c913960400191505060405180910390fd5b600882815481106114da57fe5b90600052602060002001549050919050565b6114f46118a2565b611533576040805162461bcd60e51b8152602060048201819052602482015260008051602061300c833981519152604482015290519081900360640190fd5b6114698161240c565b6000818152600260205260408120546001600160a01b0316806113f95760405162461bcd60e51b8152600401808060200182810382526029815260200180612f326029913960400191505060405180910390fd5b6115986118a2565b6115d7576040805162461bcd60e51b8152602060048201819052602482015260008051602061300c833981519152604482015290519081900360640190fd5b601580546001600160a01b0319166001600160a01b0392909216919091179055565b6116016118a2565b611640576040805162461bcd60e51b8152602060048201819052602482015260008051602061300c833981519152604482015290519081900360640190fd5b600f55565b600c8054604080516020601f6002600019610100600188161502019095169490940493840181900481028201810190925282815260609390929091830182828015610d5f5780601f10610d3457610100808354040283529160200191610d5f565b60006001600160a01b0382166116ed5760405162461bcd60e51b815260040180806020018281038252602a815260200180612f08602a913960400191505060405180910390fd5b6001600160a01b03821660009081526004602052604090206113f99061241f565b6117166118a2565b611755576040805162461bcd60e51b8152602060048201819052602482015260008051602061300c833981519152604482015290519081900360640190fd5b600080546040516001600160a01b03909116907f8be0079c531659141344cd1fd0a4f28419497f9722a3daafe3b4186f6b6457e0908390a3600080546001600160a01b0319169055565b6117a76118a2565b6117e6576040805162461bcd60e51b8152602060048201819052602482015260008051602061300c833981519152604482015290519081900360640190fd5b6001600160a01b038116600081815260146020526040808220805460ff19166001179055517fa72393b3e501bb225fcd2e5a2ed88bcc6c9b529edc2c920efe19cd598879e6019190a250565b606061183d82612423565b80548060200260200160405190810160405280929190818152602001828054801561188757602002820191906000526020600020905b815481526020019060010190808311611873575b50505050509050919050565b6000546001600160a01b031690565b600080546001600160a01b03166118b7611e51565b6001600160a01b031614905090565b600b8054604080516020601f6002600019610100600188161502019095169490940493840181900481028201810190925282815260609390929091830182828015610d5f5780601f10610d3457610100808354040283529160200191610d5f565b61192f611e51565b6001600160a01b0316826001600160a01b03161415611995576040805162461bcd60e51b815260206004820152601960248201527f4552433732313a20617070726f766520746f2063616c6c657200000000000000604482015290519081900360640190fd5b80600560006119a2611e51565b6001600160a01b03908116825260208083019390935260409182016000908120918716808252919093529120805460ff1916921515929092179091556119e6611e51565b60408051841515815290516001600160a01b0392909216917f17307eab39ab6107e8899845ad3d59bd9653f200f220920489ca2b5937696c319181900360200190a35050565b60136020526000908152604090205481565b611a466118a2565b611a85576040805162461bcd60e51b8152602060048201819052602482015260008051602061300c833981519152604482015290519081900360640190fd5b6001600160a01b038116600081815260146020526040808220805460ff19169055517f67ceb0358f48269cde7c31abf6a5328e388f9ad2c186f29f7719dd37e9333b729190a250565b611adf611ad9611e51565b83612205565b611b1a5760405162461bcd60e51b81526004018080602001828103825260318152602001806130a56031913960400191505060405180910390fd5b611b268484848461243d565b50505050565b6060611b3782611e34565b611b725760405162461bcd60e51b815260040180806020018281038252602f815260200180613055602f913960400191505060405180910390fd5b6000828152600d602090815260409182902080548351601f6002600019610100600186161502019093169290920491820184900484028101840190945280845260609392830182828015611c075780601f10611bdc57610100808354040283529160200191611c07565b820191906000526020600020905b815481529060010190602001808311611bea57829003601f168201915b50505050509050805160001415611c2e575050604080516020810190915260008152610cc8565b600c816040516020018083805460018160011615610100020316600290048015611c8f5780601f10611c6d576101008083540402835291820191611c8f565b820191906000526020600020905b815481529060010190602001808311611c7b575b5050825160208401908083835b60208310611cbb5780518252601f199092019160209182019101611c9c565b6001836020036101000a03801982511681845116808217855250505050505090500192505050604051602081830303815290604052915050610cc8565b805160208183018101805160118252928201919093012091525481565b600f5481565b60106020908152600091825260409182902080548351601f600260001961010060018616150201909316929092049182018490048402810184019094528084529091830182828015611dae5780601f10611d8357610100808354040283529160200191611dae565b820191906000526020600020905b815481529060010190602001808311611d9157829003601f168201915b505050505081565b6001600160a01b03918216600090815260056020908152604080832093909416825291909152205460ff1690565b611dec6118a2565b611e2b576040805162461bcd60e51b8152602060048201819052602482015260008051602061300c833981519152604482015290519081900360640190fd5b6114698161248f565b6000908152600260205260409020546001600160a01b0316151590565b3390565b600081815260036020526040902080546001600160a01b0319166001600160a01b0384169081179091558190611e8a8261153c565b6001600160a01b03167f8c5be1e5ebec7d5bd14f71427d1e84f3dd0314c0f7b2291e5b200ac8c7c3b92560405160405180910390a45050565b611ecc82611e34565b611f075760405162461bcd60e51b815260040180806020018281038252602c815260200180612fe0602c913960400191505060405180910390fd5b6000828152600d602090815260409091208251610ea292840190612d02565b60608160005b8151811015611f8357611f58828281518110611f4457fe5b01602001516001600160f81b03191661252f565b828281518110611f6457fe5b60200101906001600160f81b031916908160001a905350600101611f2c565b5092915050565b600082820183811015611fe4576040805162461bcd60e51b815260206004820152601b60248201527f536166654d6174683a206164646974696f6e206f766572666c6f770000000000604482015290519081900360640190fd5b9392505050565b6001600160a01b038216612046576040805162461bcd60e51b815260206004820181905260248201527f4552433732313a206d696e7420746f20746865207a65726f2061646472657373604482015290519081900360640190fd5b61204f81611e34565b156120a1576040805162461bcd60e51b815260206004820152601c60248201527f4552433732313a20746f6b656e20616c7265616479206d696e74656400000000604482015290519081900360640190fd5b6120ad60008383612577565b600081815260026020908152604080832080546001600160a01b0319166001600160a01b0387169081179091558352600490915290206120ec90612582565b60405181906001600160a01b038416906000907fddf252ad1be2c89b69c2b068fc378daa952ba7f163c4a11628f55a4df523b3ef908290a45050565b6000611fe483836040518060400160405280601a81526020017f536166654d6174683a206469766973696f6e206279207a65726f00000000000081525061258b565b600082612179575060006113f9565b8282028284828161218657fe5b0414611fe45760405162461bcd60e51b8152600401808060200182810382526021815260200180612f936021913960400191505060405180910390fd5b6000611fe483836040518060400160405280601e81526020017f536166654d6174683a207375627472616374696f6e206f766572666c6f77000081525061262d565b600061221082611e34565b61224b5760405162461bcd60e51b815260040180806020018281038252602c815260200180612ea4602c913960400191505060405180910390fd5b60006122568361153c565b9050806001600160a01b0316846001600160a01b031614806122915750836001600160a01b031661228684610d6a565b6001600160a01b0316145b806122a157506122a18185611db6565b949350505050565b826001600160a01b03166122bc8261153c565b6001600160a01b0316146123015760405162461bcd60e51b815260040180806020018281038252602981526020018061302c6029913960400191505060405180910390fd5b6001600160a01b0382166123465760405162461bcd60e51b8152600401808060200182810382526024815260200180612e806024913960400191505060405180910390fd5b612351838383612577565b61235c600082611e55565b6001600160a01b038316600090815260046020526040902061237d90612687565b6001600160a01b038216600090815260046020526040902061239e90612582565b60008181526002602052604080822080546001600160a01b0319166001600160a01b0386811691821790925591518493918716917fddf252ad1be2c89b69c2b068fc378daa952ba7f163c4a11628f55a4df523b3ef91a4505050565b6114696124068261153c565b8261269e565b8051610f4490600c906020840190612d02565b5490565b6001600160a01b0316600090815260066020526040902090565b6124488484846122a9565b61245484848484612783565b611b265760405162461bcd60e51b8152600401808060200182810382526032815260200180612e026032913960400191505060405180910390fd5b6001600160a01b0381166124d45760405162461bcd60e51b8152600401808060200182810382526026815260200180612e346026913960400191505060405180910390fd5b600080546040516001600160a01b03808516939216917f8be0079c531659141344cd1fd0a4f28419497f9722a3daafe3b4186f6b6457e091a3600080546001600160a01b0319166001600160a01b0392909216919091179055565b6000604160f81b6001600160f81b031983161080159061255d5750602d60f91b6001600160f81b0319831611155b15612573578160f81c60200160f81b9050610cc8565b5090565b610ea28383836129be565b80546001019055565b600081836126175760405162461bcd60e51b81526004018080602001828103825283818151815260200191508051906020019080838360005b838110156125dc5781810151838201526020016125c4565b50505050905090810190601f1680156126095780820380516001836020036101000a031916815260200191505b509250505060405180910390fd5b50600083858161262357fe5b0495945050505050565b6000818484111561267f5760405162461bcd60e51b81526020600482018181528351602484015283519092839260449091019190850190808383600083156125dc5781810151838201526020016125c4565b505050900390565b805461269a90600163ffffffff6121c316565b9055565b816001600160a01b03166126b18261153c565b6001600160a01b0316146126f65760405162461bcd60e51b81526004018080602001828103825260258152602001806131026025913960400191505060405180910390fd5b61270282600083612577565b61270d600082611e55565b6001600160a01b038216600090815260046020526040902061272e90612687565b60008181526002602052604080822080546001600160a01b0319169055518291906001600160a01b038516907fddf252ad1be2c89b69c2b068fc378daa952ba7f163c4a11628f55a4df523b3ef908390a45050565b6000612797846001600160a01b03166129c9565b6127a3575060016122a1565b600060606001600160a01b038616630a85bd0160e11b6127c1611e51565b89888860405160240180856001600160a01b03166001600160a01b03168152602001846001600160a01b03166001600160a01b0316815260200183815260200180602001828103825283818151815260200191508051906020019080838360005b8381101561283a578181015183820152602001612822565b50505050905090810190601f1680156128675780820380516001836020036101000a031916815260200191505b5060408051601f198184030181529181526020820180516001600160e01b03166001600160e01b0319909a16999099178952518151919890975087965094509250829150849050835b602083106128cf5780518252601f1990920191602091820191016128b0565b6001836020036101000a0380198251168184511680821785525050505050509050019150506000604051808303816000865af19150503d8060008114612931576040519150601f19603f3d011682016040523d82523d6000602084013e612936565b606091505b509150915081612987578051156129505780518082602001fd5b60405162461bcd60e51b8152600401808060200182810382526032815260200180612e026032913960400191505060405180910390fd5b600081806020019051602081101561299e57600080fd5b50516001600160e01b031916630a85bd0160e11b1493506122a192505050565b610ea2838383612a02565b6000813f7fc5d2460186f7233c927e7db2dcc703c0e500b653ca82273b7bfad8045d85a4708181148015906122a1575050151592915050565b612a0d838383612a59565b6001600160a01b038216610ea2576000818152600d60205260409020546002600019610100600184161502019091160415610ea2576000818152600d60205260408120610ea291612d7c565b612a64838383610ea2565b6001600160a01b038316612a8a57612a7c8282612aca565b612a8581612b08565b610ea2565b6001600160a01b038216612aba57612aa28382612b4c565b600081815260076020526040812055612a8581612c4e565b612ac48382612b4c565b610ea282825b6001600160a01b0390911660009081526006602081815260408084208054868652600784529185208290559282526001810183559183529091200155565b600880546000838152600960205260408120829055600182018355919091527ff3f7a9fe364faab93b216da50a3214154f22a0a2b415b23a84c8169e8b636ee30155565b6001600160a01b038216600090815260066020526040812054612b7690600163ffffffff6121c316565b600083815260076020526040902054909150808214612c11576001600160a01b0384166000908152600660205260408120805484908110612bb357fe5b906000526020600020015490508060066000876001600160a01b03166001600160a01b031681526020019081526020016000208381548110612bf157fe5b600091825260208083209091019290925591825260079052604090208190555b6001600160a01b0384166000908152600660205260409020805480612c3257fe5b6001900381819060005260206000200160009055905550505050565b600854600090612c6590600163ffffffff6121c316565b60008381526009602052604081205460088054939450909284908110612c8757fe5b906000526020600020015490508060088381548110612ca257fe5b60009182526020808320909101929092558281526009909152604090208290556008805480612ccd57fe5b600190038181906000526020600020016000905590556000600960008681526020019081526020016000208190555050505050565b828054600181600116156101000203166002900490600052602060002090601f016020900481019282601f10612d4357805160ff1916838001178555612d70565b82800160010185558215612d70579182015b82811115612d70578251825591602001919060010190612d55565b50612573929150612dbc565b50805460018160011615610100020316600290046000825580601f10612da25750611469565b601f01602090049060005260206000209081019061146991905b610d6791905b808211156125735760008155600101612dc256fe455243373231456e756d657261626c653a206f776e657220696e646578206f7574206f6620626f756e64734552433732313a207472616e7366657220746f206e6f6e20455243373231526563656976657220696d706c656d656e7465724f776e61626c653a206e6577206f776e657220697320746865207a65726f20616464726573734d696e743a20596f75206d7573742077686974656c697374656420746f207075626c6973682e4552433732313a207472616e7366657220746f20746865207a65726f20616464726573734552433732313a206f70657261746f7220717565727920666f72206e6f6e6578697374656e7420746f6b656e4552433732313a20617070726f76652063616c6c6572206973206e6f74206f776e6572206e6f7220617070726f76656420666f7220616c6c4552433732313a2062616c616e636520717565727920666f7220746865207a65726f20616464726573734552433732313a206f776e657220717565727920666f72206e6f6e6578697374656e7420746f6b656e4d696e743a20596f75206d7573742073656e64206174206c65617374207468652066656520616d6f756e74206f72206265206f776e65722e536166654d6174683a206d756c7469706c69636174696f6e206f766572666c6f774552433732313a20617070726f76656420717565727920666f72206e6f6e6578697374656e7420746f6b656e4552433732314d657461646174613a2055524920736574206f66206e6f6e6578697374656e7420746f6b656e4f776e61626c653a2063616c6c6572206973206e6f7420746865206f776e65724552433732313a207472616e73666572206f6620746f6b656e2074686174206973206e6f74206f776e4552433732314d657461646174613a2055524920717565727920666f72206e6f6e6578697374656e7420746f6b656e4552433732313a20617070726f76616c20746f2063757272656e74206f776e65724552433732313a207472616e736665722063616c6c6572206973206e6f74206f776e6572206e6f7220617070726f766564455243373231456e756d657261626c653a20676c6f62616c20696e646578206f7574206f6620626f756e64734552433732313a206275726e206f6620746f6b656e2074686174206973206e6f74206f776e4552433732314275726e61626c653a2063616c6c6572206973206e6f74206f776e6572206e6f7220617070726f766564a26469706673582212200aa3610e7569ade4516af6f9a455974e6f58f7672adea510159ca968ec77257b64736f6c63430006030033",
  "source": "pragma solidity ^0.6.0;\n\nimport \"@openzeppelin/contracts/token/ERC721/ERC721Full.sol\";\nimport \"@openzeppelin/contracts/token/ERC721/ERC721Burnable.sol\";\nimport \"@openzeppelin/contracts/math/SafeMath.sol\";\nimport \"@openzeppelin/contracts/ownership/Ownable.sol\";\nimport \"@openzeppelin/contracts/GSN/Context.sol\";\n\ncontract HashtagProtocol is Ownable, ERC721Full, ERC721Burnable {\n    using SafeMath for uint256;\n\n    event MintHashtag(uint256 indexed tokenId, address indexed owner, string hashtag, address indexed publisher);\n\n    event AddPublisher(address indexed publisher);\n    event RemovePublisher(address indexed publisher);\n\n    uint256 public tokenPointer = 0;\n    uint256 public fee = 0.01 ether;\n\n    mapping(uint256 => string) public tokenIdToHashtag;\n    mapping(string => uint256) public hashtagToTokenId;\n\n    mapping(uint256 => address) public tokenIdToPublisher;\n    mapping(uint256 => uint256) public tokenIdToCreatedDate;\n\n    mapping(address => bool) public publisherWhitelist;\n\n    address payable public platform;\n    uint256 public platformPercentage = 90;\n\n    constructor (address payable _platform) public ERC721Full(\"Hashtag Protocol\", \"HASHTAG\") {\n        platform = _platform;\n    }\n\n    function exists(uint256 tokenId) public view returns (bool) {\n        return _exists(tokenId);\n    }\n\n    function tokensOfOwner(address owner) public view returns (uint256[] memory) {\n        return _tokensOfOwner(owner);\n    }\n\n    function setTokenURI(uint256 tokenId, string memory uri) onlyOwner public {\n        _setTokenURI(tokenId, uri);\n    }\n\n    function setBaseURI(string memory baseURI) onlyOwner public {\n        _setBaseURI(baseURI);\n    }\n\n    function _beforeTokenTransfer(address from, address to, uint256 tokenId) internal virtual override(ERC721, ERC721Full) {\n        super._beforeTokenTransfer(from, to, tokenId);\n    }\n\n    function mint(string memory hashtag, address payable publisher) payable public {\n\n        require(msg.value >= fee || isOwner(), \"Mint: You must send at least the fee amount or be owner.\");\n\n        require(publisherWhitelist[publisher] == true, \"Mint: You must whitelisted to publish.\");\n\n        string memory lowerHashtag = lower(hashtag);\n        require(hashtagToTokenId[lowerHashtag] == 0, \"Mint: Hashtag already owned.\");\n\n        tokenPointer = tokenPointer.add(1);\n        uint256 tokenId = tokenPointer;\n\n        tokenIdToHashtag[tokenId] = lowerHashtag;\n        hashtagToTokenId[lowerHashtag] = tokenPointer;\n\n        tokenIdToPublisher[tokenId] = publisher;\n        tokenIdToCreatedDate[tokenId] = block.timestamp;\n\n        _mint(msg.sender, tokenId);\n\n        // split fee\n        uint256 platformPayment = msg.value.div(100).mul(platformPercentage);\n        platform.transfer(platformPayment);\n        publisher.transfer(msg.value.sub(platformPayment));\n\n        emit MintHashtag(tokenId, msg.sender, lowerHashtag, publisher);\n    }\n\n    function setFee(uint256 _fee) onlyOwner external {\n        fee = _fee;\n    }\n\n    function setPlatformPercentage(uint256 _platformPercentage) onlyOwner external {\n        platformPercentage = _platformPercentage;\n    }\n\n    function setPlatform(address payable _platform) onlyOwner external {\n        platform = _platform;\n    }\n\n    function addPublisher(address _publisher) onlyOwner external {\n        publisherWhitelist[_publisher] = true;\n\n        emit AddPublisher(_publisher);\n    }\n\n    function removePublisher(address _publisher) onlyOwner external {\n        publisherWhitelist[_publisher] = false;\n\n        emit RemovePublisher(_publisher);\n    }\n\n    // helper functions\n    function lower(string memory _base) internal pure returns (string memory) {\n        bytes memory _baseBytes = bytes(_base);\n        for (uint i = 0; i < _baseBytes.length; i++) {\n            _baseBytes[i] = _lower(_baseBytes[i]);\n        }\n        return string(_baseBytes);\n    }\n\n    function _lower(bytes1 _b1) private pure returns (bytes1) {\n\n        if (_b1 >= 0x41 && _b1 <= 0x5A) {\n            return bytes1(uint8(_b1) + 32);\n        }\n\n        return _b1;\n    }\n}",
  "sourcePath": "/Users/andygray/workspace/hashtag-contracts/contracts/HashtagProtocol.sol",
  "compiler": {
    "name": "solc",
    "version": "0.6.3+commit.8dda9521.Emscripten.clang"
  },
  "schemaVersion": "3.0.23",
  "updatedAt": "2020-03-19T14:14:11.864Z",
  "networkType": "ethereum",
  "devdoc": {
    "methods": {
      "approve(address,uint256)": {
        "details": "Approves another address to transfer the given token ID The zero address indicates there is no approved address. There can only be one approved address per token at a given time. Can only be called by the token owner or an approved operator.",
        "params": {
          "to": "address to be approved for the given token ID",
          "tokenId": "uint256 ID of the token to be approved"
        }
      },
      "balanceOf(address)": {
        "details": "Gets the balance of the specified address.",
        "params": {
          "owner": "address to query the balance of"
        },
        "returns": {
          "_0": "uint256 representing the amount owned by the passed address"
        }
      },
      "baseURI()": {
        "details": "Returns the base URI set via {_setBaseURI}. This will be automatically added as a preffix in {tokenURI} to each token's URI, when they are non-empty.    * _Available since v2.5.0._"
      },
      "burn(uint256)": {
        "details": "Burns a specific ERC721 token.",
        "params": {
          "tokenId": "uint256 id of the ERC721 token to be burned."
        }
      },
      "getApproved(uint256)": {
        "details": "Gets the approved address for a token ID, or zero if no address set Reverts if the token ID does not exist.",
        "params": {
          "tokenId": "uint256 ID of the token to query the approval of"
        },
        "returns": {
          "_0": "address currently approved for the given token ID"
        }
      },
      "isApprovedForAll(address,address)": {
        "details": "Tells whether an operator is approved by a given owner.",
        "params": {
          "operator": "operator address which you want to query the approval of",
          "owner": "owner address which you want to query the approval of"
        },
        "returns": {
          "_0": "bool whether the given operator is approved by the given owner"
        }
      },
      "isOwner()": {
        "details": "Returns true if the caller is the current owner."
      },
      "name()": {
        "details": "Gets the token name.",
        "returns": {
          "_0": "string representing the token name"
        }
      },
      "owner()": {
        "details": "Returns the address of the current owner."
      },
      "ownerOf(uint256)": {
        "details": "Gets the owner of the specified token ID.",
        "params": {
          "tokenId": "uint256 ID of the token to query the owner of"
        },
        "returns": {
          "_0": "address currently marked as the owner of the given token ID"
        }
      },
      "renounceOwnership()": {
        "details": "Leaves the contract without owner. It will not be possible to call `onlyOwner` functions anymore. Can only be called by the current owner.     * NOTE: Renouncing ownership will leave the contract without an owner, thereby removing any functionality that is only available to the owner."
      },
      "safeTransferFrom(address,address,uint256)": {
        "details": "Safely transfers the ownership of a given token ID to another address If the target address is a contract, it must implement {IERC721Receiver-onERC721Received}, which is called upon a safe transfer, and return the magic value `bytes4(keccak256(\"onERC721Received(address,address,uint256,bytes)\"))`; otherwise, the transfer is reverted. Requires the msg.sender to be the owner, approved, or operator",
        "params": {
          "from": "current owner of the token",
          "to": "address to receive the ownership of the given token ID",
          "tokenId": "uint256 ID of the token to be transferred"
        }
      },
      "safeTransferFrom(address,address,uint256,bytes)": {
        "details": "Safely transfers the ownership of a given token ID to another address If the target address is a contract, it must implement {IERC721Receiver-onERC721Received}, which is called upon a safe transfer, and return the magic value `bytes4(keccak256(\"onERC721Received(address,address,uint256,bytes)\"))`; otherwise, the transfer is reverted. Requires the _msgSender() to be the owner, approved, or operator",
        "params": {
          "_data": "bytes data to send along with a safe transfer check",
          "from": "current owner of the token",
          "to": "address to receive the ownership of the given token ID",
          "tokenId": "uint256 ID of the token to be transferred"
        }
      },
      "setApprovalForAll(address,bool)": {
        "details": "Sets or unsets the approval of a given operator An operator is allowed to transfer all tokens of the sender on their behalf.",
        "params": {
          "approved": "representing the status of the approval to be set",
          "operator": "operator address to set the approval"
        }
      },
      "supportsInterface(bytes4)": {
        "details": "See {IERC165-supportsInterface}.     * Time complexity O(1), guaranteed to always use less than 30 000 gas."
      },
      "symbol()": {
        "details": "Gets the token symbol.",
        "returns": {
          "_0": "string representing the token symbol"
        }
      },
      "tokenByIndex(uint256)": {
        "details": "Gets the token ID at a given index of all the tokens in this contract Reverts if the index is greater or equal to the total number of tokens.",
        "params": {
          "index": "uint256 representing the index to be accessed of the tokens list"
        },
        "returns": {
          "_0": "uint256 token ID at the given index of the tokens list"
        }
      },
      "tokenOfOwnerByIndex(address,uint256)": {
        "details": "Gets the token ID at a given index of the tokens list of the requested owner.",
        "params": {
          "index": "uint256 representing the index to be accessed of the requested tokens list",
          "owner": "address owning the tokens list to be accessed"
        },
        "returns": {
          "_0": "uint256 token ID at the given index of the tokens list owned by the requested address"
        }
      },
      "tokenURI(uint256)": {
        "details": "Returns the URI for a given token ID. May return an empty string.     * If the token's URI is non-empty and a base URI was set (via {_setBaseURI}), it will be added to the token ID's URI as a prefix.     * Reverts if the token ID does not exist."
      },
      "totalSupply()": {
        "details": "Gets the total amount of tokens stored by the contract.",
        "returns": {
          "_0": "uint256 representing the total amount of tokens"
        }
      },
      "transferFrom(address,address,uint256)": {
        "details": "Transfers the ownership of a given token ID to another address. Usage of this method is discouraged, use {safeTransferFrom} whenever possible. Requires the msg.sender to be the owner, approved, or operator.",
        "params": {
          "from": "current owner of the token",
          "to": "address to receive the ownership of the given token ID",
          "tokenId": "uint256 ID of the token to be transferred"
        }
      },
      "transferOwnership(address)": {
        "details": "Transfers ownership of the contract to a new account (`newOwner`). Can only be called by the current owner."
      }
    }
  },
  "userdoc": {
    "methods": {}
  }
}