{
  "contractName": "HashtagProtocol",
  "abi": [
    {
      "inputs": [],
      "stateMutability": "nonpayable",
      "type": "constructor"
    },
    {
      "anonymous": false,
      "inputs": [
        {
          "indexed": true,
          "internalType": "address",
          "name": "publisher",
          "type": "address"
        }
      ],
      "name": "AddPublisher",
      "type": "event"
    },
    {
      "anonymous": false,
      "inputs": [
        {
          "indexed": true,
          "internalType": "address",
          "name": "owner",
          "type": "address"
        },
        {
          "indexed": true,
          "internalType": "address",
          "name": "approved",
          "type": "address"
        },
        {
          "indexed": true,
          "internalType": "uint256",
          "name": "tokenId",
          "type": "uint256"
        }
      ],
      "name": "Approval",
      "type": "event"
    },
    {
      "anonymous": false,
      "inputs": [
        {
          "indexed": true,
          "internalType": "address",
          "name": "owner",
          "type": "address"
        },
        {
          "indexed": true,
          "internalType": "address",
          "name": "operator",
          "type": "address"
        },
        {
          "indexed": false,
          "internalType": "bool",
          "name": "approved",
          "type": "bool"
        }
      ],
      "name": "ApprovalForAll",
      "type": "event"
    },
    {
      "anonymous": false,
      "inputs": [
        {
          "indexed": true,
          "internalType": "address",
          "name": "owner",
          "type": "address"
        },
        {
          "indexed": false,
          "internalType": "string",
          "name": "hashtag",
          "type": "string"
        },
        {
          "indexed": true,
          "internalType": "address",
          "name": "publisher",
          "type": "address"
        }
      ],
      "name": "MintHashtag",
      "type": "event"
    },
    {
      "anonymous": false,
      "inputs": [
        {
          "indexed": true,
          "internalType": "address",
          "name": "previousOwner",
          "type": "address"
        },
        {
          "indexed": true,
          "internalType": "address",
          "name": "newOwner",
          "type": "address"
        }
      ],
      "name": "OwnershipTransferred",
      "type": "event"
    },
    {
      "anonymous": false,
      "inputs": [
        {
          "indexed": true,
          "internalType": "address",
          "name": "publisher",
          "type": "address"
        }
      ],
      "name": "RemovePublisher",
      "type": "event"
    },
    {
      "anonymous": false,
      "inputs": [
        {
          "indexed": true,
          "internalType": "address",
          "name": "from",
          "type": "address"
        },
        {
          "indexed": true,
          "internalType": "address",
          "name": "to",
          "type": "address"
        },
        {
          "indexed": true,
          "internalType": "uint256",
          "name": "tokenId",
          "type": "uint256"
        }
      ],
      "name": "Transfer",
      "type": "event"
    },
    {
      "inputs": [
        {
          "internalType": "address",
          "name": "to",
          "type": "address"
        },
        {
          "internalType": "uint256",
          "name": "tokenId",
          "type": "uint256"
        }
      ],
      "name": "approve",
      "outputs": [],
      "stateMutability": "nonpayable",
      "type": "function"
    },
    {
      "inputs": [
        {
          "internalType": "address",
          "name": "owner",
          "type": "address"
        }
      ],
      "name": "balanceOf",
      "outputs": [
        {
          "internalType": "uint256",
          "name": "",
          "type": "uint256"
        }
      ],
      "stateMutability": "view",
      "type": "function",
      "constant": true
    },
    {
      "inputs": [],
      "name": "baseURI",
      "outputs": [
        {
          "internalType": "string",
          "name": "",
          "type": "string"
        }
      ],
      "stateMutability": "view",
      "type": "function",
      "constant": true
    },
    {
      "inputs": [
        {
          "internalType": "uint256",
          "name": "tokenId",
          "type": "uint256"
        }
      ],
      "name": "burn",
      "outputs": [],
      "stateMutability": "nonpayable",
      "type": "function"
    },
    {
      "inputs": [],
      "name": "fee",
      "outputs": [
        {
          "internalType": "uint256",
          "name": "",
          "type": "uint256"
        }
      ],
      "stateMutability": "view",
      "type": "function",
      "constant": true
    },
    {
      "inputs": [
        {
          "internalType": "uint256",
          "name": "tokenId",
          "type": "uint256"
        }
      ],
      "name": "getApproved",
      "outputs": [
        {
          "internalType": "address",
          "name": "",
          "type": "address"
        }
      ],
      "stateMutability": "view",
      "type": "function",
      "constant": true
    },
    {
      "inputs": [
        {
          "internalType": "string",
          "name": "",
          "type": "string"
        }
      ],
      "name": "hashtagToTokenId",
      "outputs": [
        {
          "internalType": "uint256",
          "name": "",
          "type": "uint256"
        }
      ],
      "stateMutability": "view",
      "type": "function",
      "constant": true
    },
    {
      "inputs": [
        {
          "internalType": "address",
          "name": "owner",
          "type": "address"
        },
        {
          "internalType": "address",
          "name": "operator",
          "type": "address"
        }
      ],
      "name": "isApprovedForAll",
      "outputs": [
        {
          "internalType": "bool",
          "name": "",
          "type": "bool"
        }
      ],
      "stateMutability": "view",
      "type": "function",
      "constant": true
    },
    {
      "inputs": [],
      "name": "isOwner",
      "outputs": [
        {
          "internalType": "bool",
          "name": "",
          "type": "bool"
        }
      ],
      "stateMutability": "view",
      "type": "function",
      "constant": true
    },
    {
      "inputs": [],
      "name": "name",
      "outputs": [
        {
          "internalType": "string",
          "name": "",
          "type": "string"
        }
      ],
      "stateMutability": "view",
      "type": "function",
      "constant": true
    },
    {
      "inputs": [],
      "name": "owner",
      "outputs": [
        {
          "internalType": "address",
          "name": "",
          "type": "address"
        }
      ],
      "stateMutability": "view",
      "type": "function",
      "constant": true
    },
    {
      "inputs": [
        {
          "internalType": "uint256",
          "name": "tokenId",
          "type": "uint256"
        }
      ],
      "name": "ownerOf",
      "outputs": [
        {
          "internalType": "address",
          "name": "",
          "type": "address"
        }
      ],
      "stateMutability": "view",
      "type": "function",
      "constant": true
    },
    {
      "inputs": [
        {
          "internalType": "address",
          "name": "",
          "type": "address"
        }
      ],
      "name": "publisherWhitelist",
      "outputs": [
        {
          "internalType": "bool",
          "name": "",
          "type": "bool"
        }
      ],
      "stateMutability": "view",
      "type": "function",
      "constant": true
    },
    {
      "inputs": [],
      "name": "renounceOwnership",
      "outputs": [],
      "stateMutability": "nonpayable",
      "type": "function"
    },
    {
      "inputs": [
        {
          "internalType": "address",
          "name": "from",
          "type": "address"
        },
        {
          "internalType": "address",
          "name": "to",
          "type": "address"
        },
        {
          "internalType": "uint256",
          "name": "tokenId",
          "type": "uint256"
        }
      ],
      "name": "safeTransferFrom",
      "outputs": [],
      "stateMutability": "nonpayable",
      "type": "function"
    },
    {
      "inputs": [
        {
          "internalType": "address",
          "name": "from",
          "type": "address"
        },
        {
          "internalType": "address",
          "name": "to",
          "type": "address"
        },
        {
          "internalType": "uint256",
          "name": "tokenId",
          "type": "uint256"
        },
        {
          "internalType": "bytes",
          "name": "_data",
          "type": "bytes"
        }
      ],
      "name": "safeTransferFrom",
      "outputs": [],
      "stateMutability": "nonpayable",
      "type": "function"
    },
    {
      "inputs": [
        {
          "internalType": "address",
          "name": "operator",
          "type": "address"
        },
        {
          "internalType": "bool",
          "name": "approved",
          "type": "bool"
        }
      ],
      "name": "setApprovalForAll",
      "outputs": [],
      "stateMutability": "nonpayable",
      "type": "function"
    },
    {
      "inputs": [
        {
          "internalType": "bytes4",
          "name": "interfaceId",
          "type": "bytes4"
        }
      ],
      "name": "supportsInterface",
      "outputs": [
        {
          "internalType": "bool",
          "name": "",
          "type": "bool"
        }
      ],
      "stateMutability": "view",
      "type": "function",
      "constant": true
    },
    {
      "inputs": [],
      "name": "symbol",
      "outputs": [
        {
          "internalType": "string",
          "name": "",
          "type": "string"
        }
      ],
      "stateMutability": "view",
      "type": "function",
      "constant": true
    },
    {
      "inputs": [
        {
          "internalType": "uint256",
          "name": "index",
          "type": "uint256"
        }
      ],
      "name": "tokenByIndex",
      "outputs": [
        {
          "internalType": "uint256",
          "name": "",
          "type": "uint256"
        }
      ],
      "stateMutability": "view",
      "type": "function",
      "constant": true
    },
    {
      "inputs": [
        {
          "internalType": "uint256",
          "name": "",
          "type": "uint256"
        }
      ],
      "name": "tokenIdToCreatedDate",
      "outputs": [
        {
          "internalType": "uint256",
          "name": "",
          "type": "uint256"
        }
      ],
      "stateMutability": "view",
      "type": "function",
      "constant": true
    },
    {
      "inputs": [
        {
          "internalType": "uint256",
          "name": "",
          "type": "uint256"
        }
      ],
      "name": "tokenIdToHashtag",
      "outputs": [
        {
          "internalType": "string",
          "name": "",
          "type": "string"
        }
      ],
      "stateMutability": "view",
      "type": "function",
      "constant": true
    },
    {
      "inputs": [
        {
          "internalType": "uint256",
          "name": "",
          "type": "uint256"
        }
      ],
      "name": "tokenIdToPublisher",
      "outputs": [
        {
          "internalType": "address",
          "name": "",
          "type": "address"
        }
      ],
      "stateMutability": "view",
      "type": "function",
      "constant": true
    },
    {
      "inputs": [
        {
          "internalType": "address",
          "name": "owner",
          "type": "address"
        },
        {
          "internalType": "uint256",
          "name": "index",
          "type": "uint256"
        }
      ],
      "name": "tokenOfOwnerByIndex",
      "outputs": [
        {
          "internalType": "uint256",
          "name": "",
          "type": "uint256"
        }
      ],
      "stateMutability": "view",
      "type": "function",
      "constant": true
    },
    {
      "inputs": [],
      "name": "tokenPointer",
      "outputs": [
        {
          "internalType": "uint256",
          "name": "",
          "type": "uint256"
        }
      ],
      "stateMutability": "view",
      "type": "function",
      "constant": true
    },
    {
      "inputs": [
        {
          "internalType": "uint256",
          "name": "tokenId",
          "type": "uint256"
        }
      ],
      "name": "tokenURI",
      "outputs": [
        {
          "internalType": "string",
          "name": "",
          "type": "string"
        }
      ],
      "stateMutability": "view",
      "type": "function",
      "constant": true
    },
    {
      "inputs": [],
      "name": "totalSupply",
      "outputs": [
        {
          "internalType": "uint256",
          "name": "",
          "type": "uint256"
        }
      ],
      "stateMutability": "view",
      "type": "function",
      "constant": true
    },
    {
      "inputs": [
        {
          "internalType": "address",
          "name": "from",
          "type": "address"
        },
        {
          "internalType": "address",
          "name": "to",
          "type": "address"
        },
        {
          "internalType": "uint256",
          "name": "tokenId",
          "type": "uint256"
        }
      ],
      "name": "transferFrom",
      "outputs": [],
      "stateMutability": "nonpayable",
      "type": "function"
    },
    {
      "inputs": [
        {
          "internalType": "address",
          "name": "newOwner",
          "type": "address"
        }
      ],
      "name": "transferOwnership",
      "outputs": [],
      "stateMutability": "nonpayable",
      "type": "function"
    },
    {
      "inputs": [
        {
          "internalType": "uint256",
          "name": "tokenId",
          "type": "uint256"
        }
      ],
      "name": "exists",
      "outputs": [
        {
          "internalType": "bool",
          "name": "",
          "type": "bool"
        }
      ],
      "stateMutability": "view",
      "type": "function",
      "constant": true
    },
    {
      "inputs": [
        {
          "internalType": "address",
          "name": "owner",
          "type": "address"
        }
      ],
      "name": "tokensOfOwner",
      "outputs": [
        {
          "internalType": "uint256[]",
          "name": "",
          "type": "uint256[]"
        }
      ],
      "stateMutability": "view",
      "type": "function",
      "constant": true
    },
    {
      "inputs": [
        {
          "internalType": "uint256",
          "name": "tokenId",
          "type": "uint256"
        },
        {
          "internalType": "string",
          "name": "uri",
          "type": "string"
        }
      ],
      "name": "setTokenURI",
      "outputs": [],
      "stateMutability": "nonpayable",
      "type": "function"
    },
    {
      "inputs": [
        {
          "internalType": "string",
          "name": "baseURI",
          "type": "string"
        }
      ],
      "name": "setBaseURI",
      "outputs": [],
      "stateMutability": "nonpayable",
      "type": "function"
    },
    {
      "inputs": [
        {
          "internalType": "string",
          "name": "hashtag",
          "type": "string"
        },
        {
          "internalType": "address",
          "name": "publisher",
          "type": "address"
        }
      ],
      "name": "mint",
      "outputs": [],
      "stateMutability": "payable",
      "type": "function",
      "payable": true
    },
    {
      "inputs": [
        {
          "internalType": "uint256",
          "name": "_fee",
          "type": "uint256"
        }
      ],
      "name": "setFee",
      "outputs": [],
      "stateMutability": "nonpayable",
      "type": "function"
    },
    {
      "inputs": [
        {
          "internalType": "address",
          "name": "_publisher",
          "type": "address"
        }
      ],
      "name": "addPublisher",
      "outputs": [],
      "stateMutability": "nonpayable",
      "type": "function"
    },
    {
      "inputs": [
        {
          "internalType": "address",
          "name": "_publisher",
          "type": "address"
        }
      ],
      "name": "removePublisher",
      "outputs": [],
      "stateMutability": "nonpayable",
      "type": "function"
    }
  ],
  "bytecode": "0x60806040526000600e5567016345785d8a0000600f553480156200002257600080fd5b506040518060400160405280601081526020016f12185cda1d1859c8141c9bdd1bd8dbdb60821b815250604051806040016040528060078152602001664841534854414760c81b81525081816000620000806200016c60201b60201c565b600080546001600160a01b0319166001600160a01b0383169081178255604051929350917f8be0079c531659141344cd1fd0a4f28419497f9722a3daafe3b4186f6b6457e0908290a350620000e56301ffc9a760e01b6001600160e01b036200017116565b620001006380ac58cd60e01b6001600160e01b036200017116565b6200011b63780e9d6360e01b6001600160e01b036200017116565b81516200013090600a906020850190620001f9565b5080516200014690600b906020840190620001f9565b5062000162635b5e139f60e01b6001600160e01b036200017116565b505050506200029b565b335b90565b6001600160e01b03198082161415620001d1576040805162461bcd60e51b815260206004820152601c60248201527f4552433136353a20696e76616c696420696e7465726661636520696400000000604482015290519081900360640190fd5b6001600160e01b0319166000908152600160208190526040909120805460ff19169091179055565b828054600181600116156101000203166002900490600052602060002090601f016020900481019282601f106200023c57805160ff19168380011785556200026c565b828001600101855582156200026c579182015b828111156200026c5782518255916020019190600101906200024f565b506200027a9291506200027e565b5090565b6200016e91905b808211156200027a576000815560010162000285565b612e5180620002ab6000396000f3fe60806040526004361061021a5760003560e01c806369fe0e2d11610123578063a22cb465116100ab578063d977a6531161006f578063d977a65314610a99578063ddca3f4314610b4a578063e2e982c814610b5f578063e985e9c514610b89578063f2fde38b14610bc45761021a565b8063a22cb46514610906578063a569b02514610941578063ae61c5ae1461096b578063b88d4fde1461099e578063c87b56dd14610a6f5761021a565b8063763f323d116100f2578063763f323d146108115780638462151c146108445780638da5cb5b146108c75780638f32d59b146108dc57806395d89b41146108f15761021a565b806369fe0e2d1461078a5780636c0360eb146107b457806370a08231146107c9578063715018a6146107fc5761021a565b806323b872dd116101a657806342966c681161017557806342966c68146106315780634f558e791461065b5780634f6ccce71461068557806355f804b3146106af5780636352211e146107605761021a565b806323b872dd1461053f578063294ff4f1146105825780632f745c59146105b557806342842e0e146105ee5761021a565b8063095ea7b3116101ed578063095ea7b31461035e578063162094c41461039957806318160ddd14610451578063196f92d5146104665780631c351a9d146104905761021a565b806301ffc9a71461021f578063028316511461026757806306fdde031461028e578063081812fc14610318575b600080fd5b34801561022b57600080fd5b506102536004803603602081101561024257600080fd5b50356001600160e01b031916610bf7565b604080519115158252519081900360200190f35b34801561027357600080fd5b5061027c610c1a565b60408051918252519081900360200190f35b34801561029a57600080fd5b506102a3610c20565b6040805160208082528351818301528351919283929083019185019080838360005b838110156102dd5781810151838201526020016102c5565b50505050905090810190601f16801561030a5780820380516001836020036101000a031916815260200191505b509250505060405180910390f35b34801561032457600080fd5b506103426004803603602081101561033b57600080fd5b5035610cb7565b604080516001600160a01b039092168252519081900360200190f35b34801561036a57600080fd5b506103976004803603604081101561038157600080fd5b506001600160a01b038135169060200135610d19565b005b3480156103a557600080fd5b50610397600480360360408110156103bc57600080fd5b81359190810190604081016020820135600160201b8111156103dd57600080fd5b8201836020820111156103ef57600080fd5b803590602001918460018302840111600160201b8311171561041057600080fd5b91908080601f016020809104026020016040519081016040528093929190818152602001838380828437600092019190915250929550610df4945050505050565b34801561045d57600080fd5b5061027c610e49565b34801561047257600080fd5b506103426004803603602081101561048957600080fd5b5035610e4f565b610397600480360360408110156104a657600080fd5b810190602081018135600160201b8111156104c057600080fd5b8201836020820111156104d257600080fd5b803590602001918460018302840111600160201b831117156104f357600080fd5b91908080601f016020809104026020016040519081016040528093929190818152602001838380828437600092019190915250929550505090356001600160a01b03169150610e6a9050565b34801561054b57600080fd5b506103976004803603606081101561056257600080fd5b506001600160a01b0381358116916020810135909116906040013561116c565b34801561058e57600080fd5b50610253600480360360208110156105a557600080fd5b50356001600160a01b03166111c3565b3480156105c157600080fd5b5061027c600480360360408110156105d857600080fd5b506001600160a01b0381351690602001356111d8565b3480156105fa57600080fd5b506103976004803603606081101561061157600080fd5b506001600160a01b03813581169160208101359091169060400135611257565b34801561063d57600080fd5b506103976004803603602081101561065457600080fd5b5035611272565b34801561066757600080fd5b506102536004803603602081101561067e57600080fd5b50356112c4565b34801561069157600080fd5b5061027c600480360360208110156106a857600080fd5b50356112d5565b3480156106bb57600080fd5b50610397600480360360208110156106d257600080fd5b810190602081018135600160201b8111156106ec57600080fd5b8201836020820111156106fe57600080fd5b803590602001918460018302840111600160201b8311171561071f57600080fd5b91908080601f01602080910402602001604051908101604052809392919081815260200183838082843760009201919091525092955061133b945050505050565b34801561076c57600080fd5b506103426004803603602081101561078357600080fd5b503561138b565b34801561079657600080fd5b50610397600480360360208110156107ad57600080fd5b50356113df565b3480156107c057600080fd5b506102a361142b565b3480156107d557600080fd5b5061027c600480360360208110156107ec57600080fd5b50356001600160a01b031661148c565b34801561080857600080fd5b506103976114f4565b34801561081d57600080fd5b506103976004803603602081101561083457600080fd5b50356001600160a01b0316611585565b34801561085057600080fd5b506108776004803603602081101561086757600080fd5b50356001600160a01b0316611618565b60408051602080825283518183015283519192839290830191858101910280838360005b838110156108b357818101518382015260200161089b565b505050509050019250505060405180910390f35b3480156108d357600080fd5b50610342611679565b3480156108e857600080fd5b50610253611688565b3480156108fd57600080fd5b506102a36116ac565b34801561091257600080fd5b506103976004803603604081101561092957600080fd5b506001600160a01b038135169060200135151561170d565b34801561094d57600080fd5b5061027c6004803603602081101561096457600080fd5b5035611812565b34801561097757600080fd5b506103976004803603602081101561098e57600080fd5b50356001600160a01b0316611824565b3480156109aa57600080fd5b50610397600480360360808110156109c157600080fd5b6001600160a01b03823581169260208101359091169160408201359190810190608081016060820135600160201b8111156109fb57600080fd5b820183602082011115610a0d57600080fd5b803590602001918460018302840111600160201b83111715610a2e57600080fd5b91908080601f0160208091040260200160405190810160405280939291908181526020018383808284376000920191909152509295506118b4945050505050565b348015610a7b57600080fd5b506102a360048036036020811015610a9257600080fd5b5035611912565b348015610aa557600080fd5b5061027c60048036036020811015610abc57600080fd5b810190602081018135600160201b811115610ad657600080fd5b820183602082011115610ae857600080fd5b803590602001918460018302840111600160201b83111715610b0957600080fd5b91908080601f016020809104026020016040519081016040528093929190818152602001838380828437600092019190915250929550611ade945050505050565b348015610b5657600080fd5b5061027c611afb565b348015610b6b57600080fd5b506102a360048036036020811015610b8257600080fd5b5035611b01565b348015610b9557600080fd5b5061025360048036036040811015610bac57600080fd5b506001600160a01b0381358116916020013516611b9c565b348015610bd057600080fd5b5061039760048036036020811015610be757600080fd5b50356001600160a01b0316611bca565b6001600160e01b0319811660009081526001602052604090205460ff165b919050565b600e5481565b600a8054604080516020601f6002600019610100600188161502019095169490940493840181900481028201810190925282815260609390929091830182828015610cac5780601f10610c8157610100808354040283529160200191610cac565b820191906000526020600020905b815481529060010190602001808311610c8f57829003601f168201915b505050505090505b90565b6000610cc282611c1a565b610cfd5760405162461bcd60e51b815260040180806020018281038252602c815260200180612c79602c913960400191505060405180910390fd5b506000908152600360205260409020546001600160a01b031690565b6000610d248261138b565b9050806001600160a01b0316836001600160a01b03161415610d775760405162461bcd60e51b8152600401808060200182810382526021815260200180612d496021913960400191505060405180910390fd5b806001600160a01b0316610d89611c37565b6001600160a01b03161480610daa5750610daa81610da5611c37565b611b9c565b610de55760405162461bcd60e51b8152600401808060200182810382526038815260200180612bb66038913960400191505060405180910390fd5b610def8383611c3b565b505050565b610dfc611688565b610e3b576040805162461bcd60e51b81526020600482018190526024820152600080516020612cd1833981519152604482015290519081900360640190fd5b610e458282611ca9565b5050565b60085490565b6012602052600090815260409020546001600160a01b031681565b600f5434101580610e7e5750610e7e611688565b610eb95760405162461bcd60e51b8152600401808060200182810382526038815260200180612c416038913960400191505060405180910390fd5b6001600160a01b03811660009081526014602052604090205460ff161515600114610f155760405162461bcd60e51b8152600401808060200182810382526026815260200180612b406026913960400191505060405180910390fd5b6060610f2083611d0c565b90506011816040518082805190602001908083835b60208310610f545780518252601f199092019160209182019101610f35565b51815160209384036101000a6000190180199092169116179052920194855250604051938490030190922054159150610fd69050576040805162461bcd60e51b815260206004820152601c60248201527f4d696e743a204861736874616720616c7265616479206f776e65642e00000000604482015290519081900360640190fd5b600e54610fea90600163ffffffff611d7016565b600e8190556000908152601060209081526040909120825161100e928401906129e8565b50600e546011826040518082805190602001908083835b602083106110445780518252601f199092019160209182019101611025565b51815160209384036101000a600019018019909216911617905292019485525060408051948590038201909420949094555050600e805460009081526012845282812080546001600160a01b0319166001600160a01b0388161790558154815260139093529120429055546110ba903390611dd1565b816001600160a01b0316336001600160a01b03167f70cdb9161e1adca2f859bf167f0e41fc42e25a53a8f7343fb1f209c224988e99836040518080602001828103825283818151815260200191508051906020019080838360005b8381101561112d578181015183820152602001611115565b50505050905090810190601f16801561115a5780820380516001836020036101000a031916815260200191505b509250505060405180910390a3505050565b61117d611177611c37565b82611f0e565b6111b85760405162461bcd60e51b8152600401808060200182810382526031815260200180612d6a6031913960400191505060405180910390fd5b610def838383611fb2565b60146020526000908152604090205460ff1681565b60006111e38361148c565b82106112205760405162461bcd60e51b815260040180806020018281038252602b815260200180612abd602b913960400191505060405180910390fd5b6001600160a01b038316600090815260066020526040902080548390811061124457fe5b9060005260206000200154905092915050565b610def838383604051806020016040528060008152506118b4565b61127d611177611c37565b6112b85760405162461bcd60e51b8152600401808060200182810382526030815260200180612dec6030913960400191505060405180910390fd5b6112c181612103565b50565b60006112cf82611c1a565b92915050565b60006112df610e49565b821061131c5760405162461bcd60e51b815260040180806020018281038252602c815260200180612d9b602c913960400191505060405180910390fd5b6008828154811061132957fe5b90600052602060002001549050919050565b611343611688565b611382576040805162461bcd60e51b81526020600482018190526024820152600080516020612cd1833981519152604482015290519081900360640190fd5b6112c181612115565b6000818152600260205260408120546001600160a01b0316806112cf5760405162461bcd60e51b8152600401808060200182810382526029815260200180612c186029913960400191505060405180910390fd5b6113e7611688565b611426576040805162461bcd60e51b81526020600482018190526024820152600080516020612cd1833981519152604482015290519081900360640190fd5b600f55565b600c8054604080516020601f6002600019610100600188161502019095169490940493840181900481028201810190925282815260609390929091830182828015610cac5780601f10610c8157610100808354040283529160200191610cac565b60006001600160a01b0382166114d35760405162461bcd60e51b815260040180806020018281038252602a815260200180612bee602a913960400191505060405180910390fd5b6001600160a01b03821660009081526004602052604090206112cf90612128565b6114fc611688565b61153b576040805162461bcd60e51b81526020600482018190526024820152600080516020612cd1833981519152604482015290519081900360640190fd5b600080546040516001600160a01b03909116907f8be0079c531659141344cd1fd0a4f28419497f9722a3daafe3b4186f6b6457e0908390a3600080546001600160a01b0319169055565b61158d611688565b6115cc576040805162461bcd60e51b81526020600482018190526024820152600080516020612cd1833981519152604482015290519081900360640190fd5b6001600160a01b038116600081815260146020526040808220805460ff19166001179055517fa72393b3e501bb225fcd2e5a2ed88bcc6c9b529edc2c920efe19cd598879e6019190a250565b60606116238261212c565b80548060200260200160405190810160405280929190818152602001828054801561166d57602002820191906000526020600020905b815481526020019060010190808311611659575b50505050509050919050565b6000546001600160a01b031690565b600080546001600160a01b031661169d611c37565b6001600160a01b031614905090565b600b8054604080516020601f6002600019610100600188161502019095169490940493840181900481028201810190925282815260609390929091830182828015610cac5780601f10610c8157610100808354040283529160200191610cac565b611715611c37565b6001600160a01b0316826001600160a01b0316141561177b576040805162461bcd60e51b815260206004820152601960248201527f4552433732313a20617070726f766520746f2063616c6c657200000000000000604482015290519081900360640190fd5b8060056000611788611c37565b6001600160a01b03908116825260208083019390935260409182016000908120918716808252919093529120805460ff1916921515929092179091556117cc611c37565b60408051841515815290516001600160a01b0392909216917f17307eab39ab6107e8899845ad3d59bd9653f200f220920489ca2b5937696c319181900360200190a35050565b60136020526000908152604090205481565b61182c611688565b61186b576040805162461bcd60e51b81526020600482018190526024820152600080516020612cd1833981519152604482015290519081900360640190fd5b6001600160a01b038116600081815260146020526040808220805460ff19169055517f67ceb0358f48269cde7c31abf6a5328e388f9ad2c186f29f7719dd37e9333b729190a250565b6118c56118bf611c37565b83611f0e565b6119005760405162461bcd60e51b8152600401808060200182810382526031815260200180612d6a6031913960400191505060405180910390fd5b61190c84848484612146565b50505050565b606061191d82611c1a565b6119585760405162461bcd60e51b815260040180806020018281038252602f815260200180612d1a602f913960400191505060405180910390fd5b6000828152600d602090815260409182902080548351601f60026000196101006001861615020190931692909204918201849004840281018401909452808452606093928301828280156119ed5780601f106119c2576101008083540402835291602001916119ed565b820191906000526020600020905b8154815290600101906020018083116119d057829003601f168201915b50505050509050805160001415611a14575050604080516020810190915260008152610c15565b600c816040516020018083805460018160011615610100020316600290048015611a755780601f10611a53576101008083540402835291820191611a75565b820191906000526020600020905b815481529060010190602001808311611a61575b5050825160208401908083835b60208310611aa15780518252601f199092019160209182019101611a82565b6001836020036101000a03801982511681845116808217855250505050505090500192505050604051602081830303815290604052915050610c15565b805160208183018101805160118252928201919093012091525481565b600f5481565b60106020908152600091825260409182902080548351601f600260001961010060018616150201909316929092049182018490048402810184019094528084529091830182828015611b945780601f10611b6957610100808354040283529160200191611b94565b820191906000526020600020905b815481529060010190602001808311611b7757829003601f168201915b505050505081565b6001600160a01b03918216600090815260056020908152604080832093909416825291909152205460ff1690565b611bd2611688565b611c11576040805162461bcd60e51b81526020600482018190526024820152600080516020612cd1833981519152604482015290519081900360640190fd5b6112c181612198565b6000908152600260205260409020546001600160a01b0316151590565b3390565b600081815260036020526040902080546001600160a01b0319166001600160a01b0384169081179091558190611c708261138b565b6001600160a01b03167f8c5be1e5ebec7d5bd14f71427d1e84f3dd0314c0f7b2291e5b200ac8c7c3b92560405160405180910390a45050565b611cb282611c1a565b611ced5760405162461bcd60e51b815260040180806020018281038252602c815260200180612ca5602c913960400191505060405180910390fd5b6000828152600d602090815260409091208251610def928401906129e8565b60608160005b8151811015611d6957611d3e828281518110611d2a57fe5b01602001516001600160f81b031916612238565b828281518110611d4a57fe5b60200101906001600160f81b031916908160001a905350600101611d12565b5092915050565b600082820183811015611dca576040805162461bcd60e51b815260206004820152601b60248201527f536166654d6174683a206164646974696f6e206f766572666c6f770000000000604482015290519081900360640190fd5b9392505050565b6001600160a01b038216611e2c576040805162461bcd60e51b815260206004820181905260248201527f4552433732313a206d696e7420746f20746865207a65726f2061646472657373604482015290519081900360640190fd5b611e3581611c1a565b15611e87576040805162461bcd60e51b815260206004820152601c60248201527f4552433732313a20746f6b656e20616c7265616479206d696e74656400000000604482015290519081900360640190fd5b611e9360008383612280565b600081815260026020908152604080832080546001600160a01b0319166001600160a01b038716908117909155835260049091529020611ed29061228b565b60405181906001600160a01b038416906000907fddf252ad1be2c89b69c2b068fc378daa952ba7f163c4a11628f55a4df523b3ef908290a45050565b6000611f1982611c1a565b611f545760405162461bcd60e51b815260040180806020018281038252602c815260200180612b8a602c913960400191505060405180910390fd5b6000611f5f8361138b565b9050806001600160a01b0316846001600160a01b03161480611f9a5750836001600160a01b0316611f8f84610cb7565b6001600160a01b0316145b80611faa5750611faa8185611b9c565b949350505050565b826001600160a01b0316611fc58261138b565b6001600160a01b03161461200a5760405162461bcd60e51b8152600401808060200182810382526029815260200180612cf16029913960400191505060405180910390fd5b6001600160a01b03821661204f5760405162461bcd60e51b8152600401808060200182810382526024815260200180612b666024913960400191505060405180910390fd5b61205a838383612280565b612065600082611c3b565b6001600160a01b038316600090815260046020526040902061208690612294565b6001600160a01b03821660009081526004602052604090206120a79061228b565b60008181526002602052604080822080546001600160a01b0319166001600160a01b0386811691821790925591518493918716917fddf252ad1be2c89b69c2b068fc378daa952ba7f163c4a11628f55a4df523b3ef91a4505050565b6112c161210f8261138b565b826122ab565b8051610e4590600c9060208401906129e8565b5490565b6001600160a01b0316600090815260066020526040902090565b612151848484611fb2565b61215d84848484612390565b61190c5760405162461bcd60e51b8152600401808060200182810382526032815260200180612ae86032913960400191505060405180910390fd5b6001600160a01b0381166121dd5760405162461bcd60e51b8152600401808060200182810382526026815260200180612b1a6026913960400191505060405180910390fd5b600080546040516001600160a01b03808516939216917f8be0079c531659141344cd1fd0a4f28419497f9722a3daafe3b4186f6b6457e091a3600080546001600160a01b0319166001600160a01b0392909216919091179055565b6000604160f81b6001600160f81b03198316108015906122665750602d60f91b6001600160f81b0319831611155b1561227c578160f81c60200160f81b9050610c15565b5090565b610def8383836125cb565b80546001019055565b80546122a790600163ffffffff6125d616565b9055565b816001600160a01b03166122be8261138b565b6001600160a01b0316146123035760405162461bcd60e51b8152600401808060200182810382526025815260200180612dc76025913960400191505060405180910390fd5b61230f82600083612280565b61231a600082611c3b565b6001600160a01b038216600090815260046020526040902061233b90612294565b60008181526002602052604080822080546001600160a01b0319169055518291906001600160a01b038516907fddf252ad1be2c89b69c2b068fc378daa952ba7f163c4a11628f55a4df523b3ef908390a45050565b60006123a4846001600160a01b0316612618565b6123b057506001611faa565b600060606001600160a01b038616630a85bd0160e11b6123ce611c37565b89888860405160240180856001600160a01b03166001600160a01b03168152602001846001600160a01b03166001600160a01b0316815260200183815260200180602001828103825283818151815260200191508051906020019080838360005b8381101561244757818101518382015260200161242f565b50505050905090810190601f1680156124745780820380516001836020036101000a031916815260200191505b5060408051601f198184030181529181526020820180516001600160e01b03166001600160e01b0319909a16999099178952518151919890975087965094509250829150849050835b602083106124dc5780518252601f1990920191602091820191016124bd565b6001836020036101000a0380198251168184511680821785525050505050509050019150506000604051808303816000865af19150503d806000811461253e576040519150601f19603f3d011682016040523d82523d6000602084013e612543565b606091505b5091509150816125945780511561255d5780518082602001fd5b60405162461bcd60e51b8152600401808060200182810382526032815260200180612ae86032913960400191505060405180910390fd5b60008180602001905160208110156125ab57600080fd5b50516001600160e01b031916630a85bd0160e11b149350611faa92505050565b610def838383612651565b6000611dca83836040518060400160405280601e81526020017f536166654d6174683a207375627472616374696f6e206f766572666c6f7700008152506126a8565b6000813f7fc5d2460186f7233c927e7db2dcc703c0e500b653ca82273b7bfad8045d85a470818114801590611faa575050151592915050565b61265c83838361273f565b6001600160a01b038216610def576000818152600d60205260409020546002600019610100600184161502019091160415610def576000818152600d60205260408120610def91612a62565b600081848411156127375760405162461bcd60e51b81526004018080602001828103825283818151815260200191508051906020019080838360005b838110156126fc5781810151838201526020016126e4565b50505050905090810190601f1680156127295780820380516001836020036101000a031916815260200191505b509250505060405180910390fd5b505050900390565b61274a838383610def565b6001600160a01b0383166127705761276282826127b0565b61276b816127ee565b610def565b6001600160a01b0382166127a0576127888382612832565b60008181526007602052604081205561276b81612934565b6127aa8382612832565b610def82825b6001600160a01b0390911660009081526006602081815260408084208054868652600784529185208290559282526001810183559183529091200155565b600880546000838152600960205260408120829055600182018355919091527ff3f7a9fe364faab93b216da50a3214154f22a0a2b415b23a84c8169e8b636ee30155565b6001600160a01b03821660009081526006602052604081205461285c90600163ffffffff6125d616565b6000838152600760205260409020549091508082146128f7576001600160a01b038416600090815260066020526040812080548490811061289957fe5b906000526020600020015490508060066000876001600160a01b03166001600160a01b0316815260200190815260200160002083815481106128d757fe5b600091825260208083209091019290925591825260079052604090208190555b6001600160a01b038416600090815260066020526040902080548061291857fe5b6001900381819060005260206000200160009055905550505050565b60085460009061294b90600163ffffffff6125d616565b6000838152600960205260408120546008805493945090928490811061296d57fe5b90600052602060002001549050806008838154811061298857fe5b600091825260208083209091019290925582815260099091526040902082905560088054806129b357fe5b600190038181906000526020600020016000905590556000600960008681526020019081526020016000208190555050505050565b828054600181600116156101000203166002900490600052602060002090601f016020900481019282601f10612a2957805160ff1916838001178555612a56565b82800160010185558215612a56579182015b82811115612a56578251825591602001919060010190612a3b565b5061227c929150612aa2565b50805460018160011615610100020316600290046000825580601f10612a8857506112c1565b601f0160209004906000526020600020908101906112c191905b610cb491905b8082111561227c5760008155600101612aa856fe455243373231456e756d657261626c653a206f776e657220696e646578206f7574206f6620626f756e64734552433732313a207472616e7366657220746f206e6f6e20455243373231526563656976657220696d706c656d656e7465724f776e61626c653a206e6577206f776e657220697320746865207a65726f20616464726573734d696e743a20596f75206d7573742077686974656c697374656420746f207075626c6973682e4552433732313a207472616e7366657220746f20746865207a65726f20616464726573734552433732313a206f70657261746f7220717565727920666f72206e6f6e6578697374656e7420746f6b656e4552433732313a20617070726f76652063616c6c6572206973206e6f74206f776e6572206e6f7220617070726f76656420666f7220616c6c4552433732313a2062616c616e636520717565727920666f7220746865207a65726f20616464726573734552433732313a206f776e657220717565727920666f72206e6f6e6578697374656e7420746f6b656e4d696e743a20596f75206d7573742073656e64206174206c65617374207468652066656520616d6f756e74206f72206265206f776e65722e4552433732313a20617070726f76656420717565727920666f72206e6f6e6578697374656e7420746f6b656e4552433732314d657461646174613a2055524920736574206f66206e6f6e6578697374656e7420746f6b656e4f776e61626c653a2063616c6c6572206973206e6f7420746865206f776e65724552433732313a207472616e73666572206f6620746f6b656e2074686174206973206e6f74206f776e4552433732314d657461646174613a2055524920717565727920666f72206e6f6e6578697374656e7420746f6b656e4552433732313a20617070726f76616c20746f2063757272656e74206f776e65724552433732313a207472616e736665722063616c6c6572206973206e6f74206f776e6572206e6f7220617070726f766564455243373231456e756d657261626c653a20676c6f62616c20696e646578206f7574206f6620626f756e64734552433732313a206275726e206f6620746f6b656e2074686174206973206e6f74206f776e4552433732314275726e61626c653a2063616c6c6572206973206e6f74206f776e6572206e6f7220617070726f766564a2646970667358221220d637378261dc1d2838e3e8db9fd7a629ab0088f76103598a5595ea34f7548c2d64736f6c63430006030033",
  "source": "pragma solidity ^0.6.0;\n\nimport \"@openzeppelin/contracts/token/ERC721/ERC721Full.sol\";\nimport \"@openzeppelin/contracts/token/ERC721/ERC721Burnable.sol\";\nimport \"@openzeppelin/contracts/math/SafeMath.sol\";\nimport \"@openzeppelin/contracts/ownership/Ownable.sol\";\n\ncontract HashtagProtocol is Ownable, ERC721Full, ERC721Burnable {\n    using SafeMath for uint256;\n\n    event MintHashtag(address indexed owner, string hashtag, address indexed publisher);\n\n    event AddPublisher(address indexed publisher);\n    event RemovePublisher(address indexed publisher);\n\n    uint256 public tokenPointer = 0;\n    uint256 public fee = 0.1 ether;\n\n    mapping(uint256 => string) public tokenIdToHashtag;\n    mapping(string => uint256) public hashtagToTokenId;\n\n    mapping(uint256 => address) public tokenIdToPublisher;\n    mapping(uint256 => uint256) public tokenIdToCreatedDate;\n\n    mapping(address => bool) public publisherWhitelist;\n\n    constructor () public ERC721Full(\"Hashtag Protocol\", \"HASHTAG\") {\n    }\n\n    function exists(uint256 tokenId) public view returns (bool) {\n        return _exists(tokenId);\n    }\n\n    function tokensOfOwner(address owner) public view returns (uint256[] memory) {\n        return _tokensOfOwner(owner);\n    }\n\n    function setTokenURI(uint256 tokenId, string memory uri) onlyOwner public {\n        _setTokenURI(tokenId, uri);\n    }\n\n    function setBaseURI(string memory baseURI) onlyOwner public {\n        _setBaseURI(baseURI);\n    }\n\n    function _beforeTokenTransfer(address from, address to, uint256 tokenId) internal virtual override(ERC721, ERC721Full) {\n        super._beforeTokenTransfer(from, to, tokenId);\n    }\n\n    function mint(string memory hashtag, address publisher) payable public {\n\n        require(msg.value >= fee || isOwner(), \"Mint: You must send at least the fee amount or be owner.\");\n\n        require(publisherWhitelist[publisher] == true, \"Mint: You must whitelisted to publish.\");\n\n        string memory lowerHashtag = lower(hashtag);\n        require(hashtagToTokenId[lowerHashtag] == 0, \"Mint: Hashtag already owned.\");\n\n        tokenPointer = tokenPointer.add(1);\n\n        tokenIdToHashtag[tokenPointer] = lowerHashtag;\n        hashtagToTokenId[lowerHashtag] = tokenPointer;\n\n        tokenIdToPublisher[tokenPointer] = publisher;\n        tokenIdToCreatedDate[tokenPointer] = block.timestamp;\n\n        _mint(msg.sender, tokenPointer);\n\n        // FIXME\n        // split between protocol (aka owner) and publisher\n        // sent proportions 60/40 - configurable\n\n        emit MintHashtag(msg.sender, lowerHashtag, publisher);\n    }\n\n    function setFee(uint256 _fee) onlyOwner external {\n        fee = _fee;\n    }\n\n    function addPublisher(address _publisher) onlyOwner external {\n        publisherWhitelist[_publisher] = true;\n\n        emit AddPublisher(_publisher);\n    }\n\n    function removePublisher(address _publisher) onlyOwner external {\n        publisherWhitelist[_publisher] = false;\n\n        emit RemovePublisher(_publisher);\n    }\n\n    // helper functions\n    function lower(string memory _base) internal pure returns (string memory) {\n        bytes memory _baseBytes = bytes(_base);\n        for (uint i = 0; i < _baseBytes.length; i++) {\n            _baseBytes[i] = _lower(_baseBytes[i]);\n        }\n        return string(_baseBytes);\n    }\n\n    function _lower(bytes1 _b1) private pure returns (bytes1) {\n\n        if (_b1 >= 0x41 && _b1 <= 0x5A) {\n            return bytes1(uint8(_b1) + 32);\n        }\n\n        return _b1;\n    }\n}",
  "sourcePath": "/Users/Natalie/Projects/hashtag-protocol/hashtag-protocol-contracts/contracts/HashtagProtocol.sol",
  "compiler": {
    "name": "solc",
    "version": "0.6.3+commit.8dda9521.Emscripten.clang"
  },
  "schemaVersion": "3.0.22",
  "updatedAt": "2020-03-16T11:02:08.743Z",
  "networkType": "ethereum",
  "devdoc": {
    "methods": {
      "approve(address,uint256)": {
        "details": "Approves another address to transfer the given token ID The zero address indicates there is no approved address. There can only be one approved address per token at a given time. Can only be called by the token owner or an approved operator.",
        "params": {
          "to": "address to be approved for the given token ID",
          "tokenId": "uint256 ID of the token to be approved"
        }
      },
      "balanceOf(address)": {
        "details": "Gets the balance of the specified address.",
        "params": {
          "owner": "address to query the balance of"
        },
        "returns": {
          "_0": "uint256 representing the amount owned by the passed address"
        }
      },
      "baseURI()": {
        "details": "Returns the base URI set via {_setBaseURI}. This will be automatically added as a preffix in {tokenURI} to each token's URI, when they are non-empty.    * _Available since v2.5.0._"
      },
      "burn(uint256)": {
        "details": "Burns a specific ERC721 token.",
        "params": {
          "tokenId": "uint256 id of the ERC721 token to be burned."
        }
      },
      "getApproved(uint256)": {
        "details": "Gets the approved address for a token ID, or zero if no address set Reverts if the token ID does not exist.",
        "params": {
          "tokenId": "uint256 ID of the token to query the approval of"
        },
        "returns": {
          "_0": "address currently approved for the given token ID"
        }
      },
      "isApprovedForAll(address,address)": {
        "details": "Tells whether an operator is approved by a given owner.",
        "params": {
          "operator": "operator address which you want to query the approval of",
          "owner": "owner address which you want to query the approval of"
        },
        "returns": {
          "_0": "bool whether the given operator is approved by the given owner"
        }
      },
      "isOwner()": {
        "details": "Returns true if the caller is the current owner."
      },
      "name()": {
        "details": "Gets the token name.",
        "returns": {
          "_0": "string representing the token name"
        }
      },
      "owner()": {
        "details": "Returns the address of the current owner."
      },
      "ownerOf(uint256)": {
        "details": "Gets the owner of the specified token ID.",
        "params": {
          "tokenId": "uint256 ID of the token to query the owner of"
        },
        "returns": {
          "_0": "address currently marked as the owner of the given token ID"
        }
      },
      "renounceOwnership()": {
        "details": "Leaves the contract without owner. It will not be possible to call `onlyOwner` functions anymore. Can only be called by the current owner.     * NOTE: Renouncing ownership will leave the contract without an owner, thereby removing any functionality that is only available to the owner."
      },
      "safeTransferFrom(address,address,uint256)": {
        "details": "Safely transfers the ownership of a given token ID to another address If the target address is a contract, it must implement {IERC721Receiver-onERC721Received}, which is called upon a safe transfer, and return the magic value `bytes4(keccak256(\"onERC721Received(address,address,uint256,bytes)\"))`; otherwise, the transfer is reverted. Requires the msg.sender to be the owner, approved, or operator",
        "params": {
          "from": "current owner of the token",
          "to": "address to receive the ownership of the given token ID",
          "tokenId": "uint256 ID of the token to be transferred"
        }
      },
      "safeTransferFrom(address,address,uint256,bytes)": {
        "details": "Safely transfers the ownership of a given token ID to another address If the target address is a contract, it must implement {IERC721Receiver-onERC721Received}, which is called upon a safe transfer, and return the magic value `bytes4(keccak256(\"onERC721Received(address,address,uint256,bytes)\"))`; otherwise, the transfer is reverted. Requires the _msgSender() to be the owner, approved, or operator",
        "params": {
          "_data": "bytes data to send along with a safe transfer check",
          "from": "current owner of the token",
          "to": "address to receive the ownership of the given token ID",
          "tokenId": "uint256 ID of the token to be transferred"
        }
      },
      "setApprovalForAll(address,bool)": {
        "details": "Sets or unsets the approval of a given operator An operator is allowed to transfer all tokens of the sender on their behalf.",
        "params": {
          "approved": "representing the status of the approval to be set",
          "operator": "operator address to set the approval"
        }
      },
      "supportsInterface(bytes4)": {
        "details": "See {IERC165-supportsInterface}.     * Time complexity O(1), guaranteed to always use less than 30 000 gas."
      },
      "symbol()": {
        "details": "Gets the token symbol.",
        "returns": {
          "_0": "string representing the token symbol"
        }
      },
      "tokenByIndex(uint256)": {
        "details": "Gets the token ID at a given index of all the tokens in this contract Reverts if the index is greater or equal to the total number of tokens.",
        "params": {
          "index": "uint256 representing the index to be accessed of the tokens list"
        },
        "returns": {
          "_0": "uint256 token ID at the given index of the tokens list"
        }
      },
      "tokenOfOwnerByIndex(address,uint256)": {
        "details": "Gets the token ID at a given index of the tokens list of the requested owner.",
        "params": {
          "index": "uint256 representing the index to be accessed of the requested tokens list",
          "owner": "address owning the tokens list to be accessed"
        },
        "returns": {
          "_0": "uint256 token ID at the given index of the tokens list owned by the requested address"
        }
      },
      "tokenURI(uint256)": {
        "details": "Returns the URI for a given token ID. May return an empty string.     * If the token's URI is non-empty and a base URI was set (via {_setBaseURI}), it will be added to the token ID's URI as a prefix.     * Reverts if the token ID does not exist."
      },
      "totalSupply()": {
        "details": "Gets the total amount of tokens stored by the contract.",
        "returns": {
          "_0": "uint256 representing the total amount of tokens"
        }
      },
      "transferFrom(address,address,uint256)": {
        "details": "Transfers the ownership of a given token ID to another address. Usage of this method is discouraged, use {safeTransferFrom} whenever possible. Requires the msg.sender to be the owner, approved, or operator.",
        "params": {
          "from": "current owner of the token",
          "to": "address to receive the ownership of the given token ID",
          "tokenId": "uint256 ID of the token to be transferred"
        }
      },
      "transferOwnership(address)": {
        "details": "Transfers ownership of the contract to a new account (`newOwner`). Can only be called by the current owner."
      }
    }
  },
  "userdoc": {
    "methods": {}
  }
}