{
  "contractName": "HashtagProtocol",
  "abi": [
    {
      "inputs": [
        {
          "internalType": "contract HashtagAccessControls",
          "name": "_accessControls",
          "type": "address"
        },
        {
          "internalType": "address payable",
          "name": "_platform",
          "type": "address"
        }
      ],
      "stateMutability": "nonpayable",
      "type": "constructor"
    },
    {
      "anonymous": false,
      "inputs": [
        {
          "indexed": true,
          "internalType": "address",
          "name": "owner",
          "type": "address"
        },
        {
          "indexed": true,
          "internalType": "address",
          "name": "approved",
          "type": "address"
        },
        {
          "indexed": true,
          "internalType": "uint256",
          "name": "tokenId",
          "type": "uint256"
        }
      ],
      "name": "Approval",
      "type": "event"
    },
    {
      "anonymous": false,
      "inputs": [
        {
          "indexed": true,
          "internalType": "address",
          "name": "owner",
          "type": "address"
        },
        {
          "indexed": true,
          "internalType": "address",
          "name": "operator",
          "type": "address"
        },
        {
          "indexed": false,
          "internalType": "bool",
          "name": "approved",
          "type": "bool"
        }
      ],
      "name": "ApprovalForAll",
      "type": "event"
    },
    {
      "anonymous": false,
      "inputs": [
        {
          "indexed": true,
          "internalType": "uint256",
          "name": "tokenId",
          "type": "uint256"
        },
        {
          "indexed": true,
          "internalType": "address",
          "name": "owner",
          "type": "address"
        },
        {
          "indexed": false,
          "internalType": "string",
          "name": "hashtag",
          "type": "string"
        },
        {
          "indexed": false,
          "internalType": "string",
          "name": "displayHashtag",
          "type": "string"
        },
        {
          "indexed": true,
          "internalType": "address",
          "name": "publisher",
          "type": "address"
        },
        {
          "indexed": false,
          "internalType": "uint256",
          "name": "platformFee",
          "type": "uint256"
        },
        {
          "indexed": false,
          "internalType": "uint256",
          "name": "publisherFee",
          "type": "uint256"
        }
      ],
      "name": "MintHashtag",
      "type": "event"
    },
    {
      "anonymous": false,
      "inputs": [
        {
          "indexed": true,
          "internalType": "address",
          "name": "from",
          "type": "address"
        },
        {
          "indexed": true,
          "internalType": "address",
          "name": "to",
          "type": "address"
        },
        {
          "indexed": true,
          "internalType": "uint256",
          "name": "tokenId",
          "type": "uint256"
        }
      ],
      "name": "Transfer",
      "type": "event"
    },
    {
      "inputs": [],
      "name": "accessControls",
      "outputs": [
        {
          "internalType": "contract HashtagAccessControls",
          "name": "",
          "type": "address"
        }
      ],
      "stateMutability": "view",
      "type": "function",
      "constant": true
    },
    {
      "inputs": [
        {
          "internalType": "address",
          "name": "to",
          "type": "address"
        },
        {
          "internalType": "uint256",
          "name": "tokenId",
          "type": "uint256"
        }
      ],
      "name": "approve",
      "outputs": [],
      "stateMutability": "nonpayable",
      "type": "function"
    },
    {
      "inputs": [
        {
          "internalType": "address",
          "name": "owner",
          "type": "address"
        }
      ],
      "name": "balanceOf",
      "outputs": [
        {
          "internalType": "uint256",
          "name": "",
          "type": "uint256"
        }
      ],
      "stateMutability": "view",
      "type": "function",
      "constant": true
    },
    {
      "inputs": [],
      "name": "baseURI",
      "outputs": [
        {
          "internalType": "string",
          "name": "",
          "type": "string"
        }
      ],
      "stateMutability": "view",
      "type": "function",
      "constant": true
    },
    {
      "inputs": [
        {
          "internalType": "uint256",
          "name": "tokenId",
          "type": "uint256"
        }
      ],
      "name": "burn",
      "outputs": [],
      "stateMutability": "nonpayable",
      "type": "function"
    },
    {
      "inputs": [
        {
          "internalType": "string",
          "name": "",
          "type": "string"
        }
      ],
      "name": "displayHashtagToTokenId",
      "outputs": [
        {
          "internalType": "uint256",
          "name": "",
          "type": "uint256"
        }
      ],
      "stateMutability": "view",
      "type": "function",
      "constant": true
    },
    {
      "inputs": [],
      "name": "fee",
      "outputs": [
        {
          "internalType": "uint256",
          "name": "",
          "type": "uint256"
        }
      ],
      "stateMutability": "view",
      "type": "function",
      "constant": true
    },
    {
      "inputs": [
        {
          "internalType": "uint256",
          "name": "tokenId",
          "type": "uint256"
        }
      ],
      "name": "getApproved",
      "outputs": [
        {
          "internalType": "address",
          "name": "",
          "type": "address"
        }
      ],
      "stateMutability": "view",
      "type": "function",
      "constant": true
    },
    {
      "inputs": [],
      "name": "hashtagMaxStringLength",
      "outputs": [
        {
          "internalType": "uint256",
          "name": "",
          "type": "uint256"
        }
      ],
      "stateMutability": "view",
      "type": "function",
      "constant": true
    },
    {
      "inputs": [],
      "name": "hashtagMinStringLength",
      "outputs": [
        {
          "internalType": "uint256",
          "name": "",
          "type": "uint256"
        }
      ],
      "stateMutability": "view",
      "type": "function",
      "constant": true
    },
    {
      "inputs": [
        {
          "internalType": "string",
          "name": "",
          "type": "string"
        }
      ],
      "name": "hashtagToTokenId",
      "outputs": [
        {
          "internalType": "uint256",
          "name": "",
          "type": "uint256"
        }
      ],
      "stateMutability": "view",
      "type": "function",
      "constant": true
    },
    {
      "inputs": [
        {
          "internalType": "address",
          "name": "owner",
          "type": "address"
        },
        {
          "internalType": "address",
          "name": "operator",
          "type": "address"
        }
      ],
      "name": "isApprovedForAll",
      "outputs": [
        {
          "internalType": "bool",
          "name": "",
          "type": "bool"
        }
      ],
      "stateMutability": "view",
      "type": "function",
      "constant": true
    },
    {
      "inputs": [],
      "name": "name",
      "outputs": [
        {
          "internalType": "string",
          "name": "",
          "type": "string"
        }
      ],
      "stateMutability": "view",
      "type": "function",
      "constant": true
    },
    {
      "inputs": [
        {
          "internalType": "uint256",
          "name": "tokenId",
          "type": "uint256"
        }
      ],
      "name": "ownerOf",
      "outputs": [
        {
          "internalType": "address",
          "name": "",
          "type": "address"
        }
      ],
      "stateMutability": "view",
      "type": "function",
      "constant": true
    },
    {
      "inputs": [],
      "name": "platform",
      "outputs": [
        {
          "internalType": "address payable",
          "name": "",
          "type": "address"
        }
      ],
      "stateMutability": "view",
      "type": "function",
      "constant": true
    },
    {
      "inputs": [],
      "name": "platformPercentage",
      "outputs": [
        {
          "internalType": "uint256",
          "name": "",
          "type": "uint256"
        }
      ],
      "stateMutability": "view",
      "type": "function",
      "constant": true
    },
    {
      "inputs": [
        {
          "internalType": "address",
          "name": "from",
          "type": "address"
        },
        {
          "internalType": "address",
          "name": "to",
          "type": "address"
        },
        {
          "internalType": "uint256",
          "name": "tokenId",
          "type": "uint256"
        }
      ],
      "name": "safeTransferFrom",
      "outputs": [],
      "stateMutability": "nonpayable",
      "type": "function"
    },
    {
      "inputs": [
        {
          "internalType": "address",
          "name": "from",
          "type": "address"
        },
        {
          "internalType": "address",
          "name": "to",
          "type": "address"
        },
        {
          "internalType": "uint256",
          "name": "tokenId",
          "type": "uint256"
        },
        {
          "internalType": "bytes",
          "name": "_data",
          "type": "bytes"
        }
      ],
      "name": "safeTransferFrom",
      "outputs": [],
      "stateMutability": "nonpayable",
      "type": "function"
    },
    {
      "inputs": [
        {
          "internalType": "address",
          "name": "operator",
          "type": "address"
        },
        {
          "internalType": "bool",
          "name": "approved",
          "type": "bool"
        }
      ],
      "name": "setApprovalForAll",
      "outputs": [],
      "stateMutability": "nonpayable",
      "type": "function"
    },
    {
      "inputs": [
        {
          "internalType": "bytes4",
          "name": "interfaceId",
          "type": "bytes4"
        }
      ],
      "name": "supportsInterface",
      "outputs": [
        {
          "internalType": "bool",
          "name": "",
          "type": "bool"
        }
      ],
      "stateMutability": "view",
      "type": "function",
      "constant": true
    },
    {
      "inputs": [],
      "name": "symbol",
      "outputs": [
        {
          "internalType": "string",
          "name": "",
          "type": "string"
        }
      ],
      "stateMutability": "view",
      "type": "function",
      "constant": true
    },
    {
      "inputs": [
        {
          "internalType": "uint256",
          "name": "index",
          "type": "uint256"
        }
      ],
      "name": "tokenByIndex",
      "outputs": [
        {
          "internalType": "uint256",
          "name": "",
          "type": "uint256"
        }
      ],
      "stateMutability": "view",
      "type": "function",
      "constant": true
    },
    {
      "inputs": [
        {
          "internalType": "uint256",
          "name": "",
          "type": "uint256"
        }
      ],
      "name": "tokenIdToHashtag",
      "outputs": [
        {
          "internalType": "uint256",
          "name": "created",
          "type": "uint256"
        },
        {
          "internalType": "address",
          "name": "originalPublisher",
          "type": "address"
        },
        {
          "internalType": "address",
          "name": "creator",
          "type": "address"
        },
        {
          "internalType": "string",
          "name": "value",
          "type": "string"
        },
        {
          "internalType": "string",
          "name": "displayVersion",
          "type": "string"
        }
      ],
      "stateMutability": "view",
      "type": "function",
      "constant": true
    },
    {
      "inputs": [
        {
          "internalType": "address",
          "name": "owner",
          "type": "address"
        },
        {
          "internalType": "uint256",
          "name": "index",
          "type": "uint256"
        }
      ],
      "name": "tokenOfOwnerByIndex",
      "outputs": [
        {
          "internalType": "uint256",
          "name": "",
          "type": "uint256"
        }
      ],
      "stateMutability": "view",
      "type": "function",
      "constant": true
    },
    {
      "inputs": [],
      "name": "tokenPointer",
      "outputs": [
        {
          "internalType": "uint256",
          "name": "",
          "type": "uint256"
        }
      ],
      "stateMutability": "view",
      "type": "function",
      "constant": true
    },
    {
      "inputs": [
        {
          "internalType": "uint256",
          "name": "tokenId",
          "type": "uint256"
        }
      ],
      "name": "tokenURI",
      "outputs": [
        {
          "internalType": "string",
          "name": "",
          "type": "string"
        }
      ],
      "stateMutability": "view",
      "type": "function",
      "constant": true
    },
    {
      "inputs": [],
      "name": "totalSupply",
      "outputs": [
        {
          "internalType": "uint256",
          "name": "",
          "type": "uint256"
        }
      ],
      "stateMutability": "view",
      "type": "function",
      "constant": true
    },
    {
      "inputs": [
        {
          "internalType": "address",
          "name": "from",
          "type": "address"
        },
        {
          "internalType": "address",
          "name": "to",
          "type": "address"
        },
        {
          "internalType": "uint256",
          "name": "tokenId",
          "type": "uint256"
        }
      ],
      "name": "transferFrom",
      "outputs": [],
      "stateMutability": "nonpayable",
      "type": "function"
    },
    {
      "inputs": [
        {
          "internalType": "uint256",
          "name": "_tokenId",
          "type": "uint256"
        }
      ],
      "name": "exists",
      "outputs": [
        {
          "internalType": "bool",
          "name": "",
          "type": "bool"
        }
      ],
      "stateMutability": "view",
      "type": "function",
      "constant": true
    },
    {
      "inputs": [
        {
          "internalType": "uint256",
          "name": "_tokenId",
          "type": "uint256"
        },
        {
          "internalType": "string",
          "name": "_uri",
          "type": "string"
        }
      ],
      "name": "setTokenURI",
      "outputs": [],
      "stateMutability": "nonpayable",
      "type": "function"
    },
    {
      "inputs": [
        {
          "internalType": "string",
          "name": "_baseURI",
          "type": "string"
        }
      ],
      "name": "setBaseURI",
      "outputs": [],
      "stateMutability": "nonpayable",
      "type": "function"
    },
    {
      "inputs": [
        {
          "internalType": "string",
          "name": "_hashtag",
          "type": "string"
        },
        {
          "internalType": "address payable",
          "name": "_publisher",
          "type": "address"
        },
        {
          "internalType": "address",
          "name": "_recipient",
          "type": "address"
        }
      ],
      "name": "mint",
      "outputs": [
        {
          "internalType": "uint256",
          "name": "_tokenId",
          "type": "uint256"
        }
      ],
      "stateMutability": "payable",
      "type": "function",
      "payable": true
    },
    {
      "inputs": [
        {
          "internalType": "uint256",
          "name": "_fee",
          "type": "uint256"
        }
      ],
      "name": "setFee",
      "outputs": [],
      "stateMutability": "nonpayable",
      "type": "function"
    },
    {
      "inputs": [
        {
          "internalType": "uint256",
          "name": "_platformPercentage",
          "type": "uint256"
        }
      ],
      "name": "setPlatformPercentage",
      "outputs": [],
      "stateMutability": "nonpayable",
      "type": "function"
    },
    {
      "inputs": [
        {
          "internalType": "address payable",
          "name": "_platform",
          "type": "address"
        }
      ],
      "name": "setPlatform",
      "outputs": [],
      "stateMutability": "nonpayable",
      "type": "function"
    },
    {
      "inputs": [
        {
          "internalType": "uint256",
          "name": "_tokenId",
          "type": "uint256"
        }
      ],
      "name": "getPaymentAddresses",
      "outputs": [
        {
          "internalType": "address payable",
          "name": "_platform",
          "type": "address"
        },
        {
          "internalType": "address payable",
          "name": "_owner",
          "type": "address"
        }
      ],
      "stateMutability": "view",
      "type": "function",
      "constant": true
    }
  ],
  "bytecode": "0x60806040526000600a55662386f26fc10000600b556123286010556127106011556003601255600f6013553480156200003757600080fd5b5060405162003e9f38038062003e9f833981810160405260408110156200005d57600080fd5b508051602091820151604080518082018252601081526f12185cda1d1859c8141c9bdd1bd8dbdb60821b81860152815180830190925260078252664841534854414760c81b9482019490945291929091620000c86301ffc9a760e01b6001600160e01b036200017916565b8151620000dd906006906020850190620001fe565b508051620000f3906007906020840190620001fe565b506200010f6380ac58cd60e01b6001600160e01b036200017916565b6200012a635b5e139f60e01b6001600160e01b036200017916565b6200014563780e9d6360e01b6001600160e01b036200017916565b5050601480546001600160a01b039384166001600160a01b031991821617909155600f8054929093169116179055620002a3565b6001600160e01b03198082161415620001d9576040805162461bcd60e51b815260206004820152601c60248201527f4552433136353a20696e76616c696420696e7465726661636520696400000000604482015290519081900360640190fd5b6001600160e01b0319166000908152602081905260409020805460ff19166001179055565b828054600181600116156101000203166002900490600052602060002090601f016020900481019282601f106200024157805160ff191683800117855562000271565b8280016001018555821562000271579182015b828111156200027157825182559160200191906001019062000254565b506200027f92915062000283565b5090565b620002a091905b808211156200027f57600081556001016200028a565b90565b613bec80620002b36000396000f3fe60806040526004361061020f5760003560e01c80636352211e1161011857806395d89b41116100a0578063cc004cd11161006f578063cc004cd114610a00578063d977a65314610ab1578063ddca3f4314610b62578063e2e982c814610b77578063e985e9c514610cb85761020f565b806395d89b41146108b5578063a22cb465146108ca578063b88d4fde14610905578063c87b56dd146109d65761020f565b806370a08231116100e757806370a082311461074e578063748365ef14610781578063795cd9d0146107965780637e6d945e146107ab578063878327ab146108655761020f565b80636352211e146106b25780636945c5ea146106dc57806369fe0e2d1461070f5780636c0360eb146107395761020f565b806323b872dd1161019b57806342966c681161016a57806342966c681461056e5780634bde38c8146105985780634f558e79146105ad5780634f6ccce7146105d757806355f804b3146106015761020f565b806323b872dd1461049a5780632c32eb7d146104dd5780632f745c59146104f257806342842e0e1461052b5761020f565b8063095ea7b3116101e2578063095ea7b31461035357806314d39bad1461038e578063162094c4146103b857806318160ddd146104705780631f741897146104855761020f565b806301ffc9a714610214578063028316511461025c57806306fdde0314610283578063081812fc1461030d575b600080fd5b34801561022057600080fd5b506102486004803603602081101561023757600080fd5b50356001600160e01b031916610cf3565b604080519115158252519081900360200190f35b34801561026857600080fd5b50610271610d16565b60408051918252519081900360200190f35b34801561028f57600080fd5b50610298610d1c565b6040805160208082528351818301528351919283929083019185019080838360005b838110156102d25781810151838201526020016102ba565b50505050905090810190601f1680156102ff5780820380516001836020036101000a031916815260200191505b509250505060405180910390f35b34801561031957600080fd5b506103376004803603602081101561033057600080fd5b5035610db3565b604080516001600160a01b039092168252519081900360200190f35b34801561035f57600080fd5b5061038c6004803603604081101561037657600080fd5b506001600160a01b038135169060200135610e15565b005b34801561039a57600080fd5b5061038c600480360360208110156103b157600080fd5b5035610ef0565b3480156103c457600080fd5b5061038c600480360360408110156103db57600080fd5b81359190810190604081016020820135600160201b8111156103fc57600080fd5b82018360208201111561040e57600080fd5b803590602001918460018302840111600160201b8311171561042f57600080fd5b91908080601f016020809104026020016040519081016040528093929190818152602001838380828437600092019190915250929550610fc8945050505050565b34801561047c57600080fd5b506102716110a9565b34801561049157600080fd5b506102716110ba565b3480156104a657600080fd5b5061038c600480360360608110156104bd57600080fd5b506001600160a01b038135811691602081013590911690604001356110c0565b3480156104e957600080fd5b50610271611117565b3480156104fe57600080fd5b506102716004803603604081101561051557600080fd5b506001600160a01b03813516906020013561111d565b34801561053757600080fd5b5061038c6004803603606081101561054e57600080fd5b506001600160a01b0381358116916020810135909116906040013561114e565b34801561057a57600080fd5b5061038c6004803603602081101561059157600080fd5b5035611169565b3480156105a457600080fd5b506103376111bb565b3480156105b957600080fd5b50610248600480360360208110156105d057600080fd5b50356111ca565b3480156105e357600080fd5b50610271600480360360208110156105fa57600080fd5b50356111d5565b34801561060d57600080fd5b5061038c6004803603602081101561062457600080fd5b810190602081018135600160201b81111561063e57600080fd5b82018360208201111561065057600080fd5b803590602001918460018302840111600160201b8311171561067157600080fd5b91908080601f0160208091040260200160405190810160405280939291908181526020018383808284376000920191909152509295506111f1945050505050565b3480156106be57600080fd5b50610337600480360360208110156106d557600080fd5b50356112cd565b3480156106e857600080fd5b5061038c600480360360208110156106ff57600080fd5b50356001600160a01b03166112fb565b34801561071b57600080fd5b5061038c6004803603602081101561073257600080fd5b50356113f0565b34801561074557600080fd5b506102986114c8565b34801561075a57600080fd5b506102716004803603602081101561077157600080fd5b50356001600160a01b0316611529565b34801561078d57600080fd5b50610337611591565b3480156107a257600080fd5b506102716115a0565b610271600480360360608110156107c157600080fd5b810190602081018135600160201b8111156107db57600080fd5b8201836020820111156107ed57600080fd5b803590602001918460018302840111600160201b8311171561080e57600080fd5b91908080601f016020809104026020016040519081016040528093929190818152602001838380828437600092019190915250929550506001600160a01b0383358116945060209093013590921691506115a69050565b34801561087157600080fd5b5061088f6004803603602081101561088857600080fd5b5035611bb3565b604080516001600160a01b03938416815291909216602082015281519081900390910190f35b3480156108c157600080fd5b50610298611bd6565b3480156108d657600080fd5b5061038c600480360360408110156108ed57600080fd5b506001600160a01b0381351690602001351515611c37565b34801561091157600080fd5b5061038c6004803603608081101561092857600080fd5b6001600160a01b03823581169260208101359091169160408201359190810190608081016060820135600160201b81111561096257600080fd5b82018360208201111561097457600080fd5b803590602001918460018302840111600160201b8311171561099557600080fd5b91908080601f016020809104026020016040519081016040528093929190818152602001838380828437600092019190915250929550611d3c945050505050565b3480156109e257600080fd5b50610298600480360360208110156109f957600080fd5b5035611d9a565b348015610a0c57600080fd5b5061027160048036036020811015610a2357600080fd5b810190602081018135600160201b811115610a3d57600080fd5b820183602082011115610a4f57600080fd5b803590602001918460018302840111600160201b83111715610a7057600080fd5b91908080601f016020809104026020016040519081016040528093929190818152602001838380828437600092019190915250929550612041945050505050565b348015610abd57600080fd5b5061027160048036036020811015610ad457600080fd5b810190602081018135600160201b811115610aee57600080fd5b820183602082011115610b0057600080fd5b803590602001918460018302840111600160201b83111715610b2157600080fd5b91908080601f01602080910402602001604051908101604052809392919081815260200183838082843760009201919091525092955061205e945050505050565b348015610b6e57600080fd5b5061027161207b565b348015610b8357600080fd5b50610ba160048036036020811015610b9a57600080fd5b5035612081565b60405180868152602001856001600160a01b03166001600160a01b03168152602001846001600160a01b03166001600160a01b031681526020018060200180602001838103835285818151815260200191508051906020019080838360005b83811015610c18578181015183820152602001610c00565b50505050905090810190601f168015610c455780820380516001836020036101000a031916815260200191505b50838103825284518152845160209182019186019080838360005b83811015610c78578181015183820152602001610c60565b50505050905090810190601f168015610ca55780820380516001836020036101000a031916815260200191505b5097505050505050505060405180910390f35b348015610cc457600080fd5b5061024860048036036040811015610cdb57600080fd5b506001600160a01b03813581169160200135166121d1565b6001600160e01b0319811660009081526020819052604090205460ff165b919050565b600a5481565b60068054604080516020601f6002600019610100600188161502019095169490940493840181900481028201810190925282815260609390929091830182828015610da85780601f10610d7d57610100808354040283529160200191610da8565b820191906000526020600020905b815481529060010190602001808311610d8b57829003601f168201915b505050505090505b90565b6000610dbe826121ff565b610df95760405162461bcd60e51b815260040180806020018281038252602c8152602001806138ed602c913960400191505060405180910390fd5b506000908152600460205260409020546001600160a01b031690565b6000610e20826112cd565b9050806001600160a01b0316836001600160a01b03161415610e735760405162461bcd60e51b8152600401808060200182810382526021815260200180613a416021913960400191505060405180910390fd5b806001600160a01b0316610e85612212565b6001600160a01b03161480610ea65750610ea681610ea1612212565b6121d1565b610ee15760405162461bcd60e51b81526004018080602001828103825260388152602001806137f66038913960400191505060405180910390fd5b610eeb8383612216565b505050565b6014546001600160a01b03166324d7806c610f09612212565b6040518263ffffffff1660e01b815260040180826001600160a01b03166001600160a01b0316815260200191505060206040518083038186803b158015610f4f57600080fd5b505afa158015610f63573d6000803e3d6000fd5b505050506040513d6020811015610f7957600080fd5b5051610fc3576040805162461bcd60e51b815260206004820152601460248201527321b0b63632b91036bab9ba1031329030b236b4b760611b604482015290519081900360640190fd5b601055565b6014546001600160a01b03166324d7806c610fe1612212565b6040518263ffffffff1660e01b815260040180826001600160a01b03166001600160a01b0316815260200191505060206040518083038186803b15801561102757600080fd5b505afa15801561103b573d6000803e3d6000fd5b505050506040513d602081101561105157600080fd5b505161109b576040805162461bcd60e51b815260206004820152601460248201527321b0b63632b91036bab9ba1031329030b236b4b760611b604482015290519081900360640190fd5b6110a58282612284565b5050565b60006110b560026122e7565b905090565b60105481565b6110d16110cb612212565b826122f2565b61110c5760405162461bcd60e51b8152600401808060200182810382526031815260200180613aaa6031913960400191505060405180910390fd5b610eeb838383612396565b60125481565b6001600160a01b0382166000908152600160205260408120611145908363ffffffff6124f416565b90505b92915050565b610eeb83838360405180602001604052806000815250611d3c565b6111746110cb612212565b6111af5760405162461bcd60e51b8152600401808060200182810382526030815260200180613b056030913960400191505060405180910390fd5b6111b881612500565b50565b600f546001600160a01b031681565b6000611148826121ff565b6000806111e960028463ffffffff6125d916565b509392505050565b6014546001600160a01b03166324d7806c61120a612212565b6040518263ffffffff1660e01b815260040180826001600160a01b03166001600160a01b0316815260200191505060206040518083038186803b15801561125057600080fd5b505afa158015611264573d6000803e3d6000fd5b505050506040513d602081101561127a57600080fd5b50516112c4576040805162461bcd60e51b815260206004820152601460248201527321b0b63632b91036bab9ba1031329030b236b4b760611b604482015290519081900360640190fd5b6111b8816125f5565b600061114882604051806060016040528060298152602001613858602991396002919063ffffffff61260816565b6014546001600160a01b03166324d7806c611314612212565b6040518263ffffffff1660e01b815260040180826001600160a01b03166001600160a01b0316815260200191505060206040518083038186803b15801561135a57600080fd5b505afa15801561136e573d6000803e3d6000fd5b505050506040513d602081101561138457600080fd5b50516113ce576040805162461bcd60e51b815260206004820152601460248201527321b0b63632b91036bab9ba1031329030b236b4b760611b604482015290519081900360640190fd5b600f80546001600160a01b0319166001600160a01b0392909216919091179055565b6014546001600160a01b03166324d7806c611409612212565b6040518263ffffffff1660e01b815260040180826001600160a01b03166001600160a01b0316815260200191505060206040518083038186803b15801561144f57600080fd5b505afa158015611463573d6000803e3d6000fd5b505050506040513d602081101561147957600080fd5b50516114c3576040805162461bcd60e51b815260206004820152601460248201527321b0b63632b91036bab9ba1031329030b236b4b760611b604482015290519081900360640190fd5b600b55565b60098054604080516020601f6002600019610100600188161502019095169490940493840181900481028201810190925282815260609390929091830182828015610da85780601f10610d7d57610100808354040283529160200191610da8565b60006001600160a01b0382166115705760405162461bcd60e51b815260040180806020018281038252602a81526020018061382e602a913960400191505060405180910390fd5b6001600160a01b0382166000908152600160205260409020611148906122e7565b6014546001600160a01b031681565b60135481565b60145460408051630830b35960e31b81526001600160a01b038581166004830152915160009392909216916341859ac891602480820192602092909190829003018186803b1580156115f757600080fd5b505afa15801561160b573d6000803e3d6000fd5b505050506040513d602081101561162157600080fd5b505161165e5760405162461bcd60e51b81526004018080602001828103825260278152602001806139eb6027913960400191505060405180910390fd5b6014546001600160a01b03166324d7806c611677612212565b6040518263ffffffff1660e01b815260040180826001600160a01b03166001600160a01b0316815260200191505060206040518083038186803b1580156116bd57600080fd5b505afa1580156116d1573d6000803e3d6000fd5b505050506040513d60208110156116e757600080fd5b5051806116f65750600b543410155b611747576040805162461bcd60e51b815260206004820181905260248201527f4d696e743a204d7573742073656e642074686520706c6174666f726d20666565604482015290519081900360640190fd5b61175084612615565b600a5461176490600163ffffffff61291b16565b600a819055606061177486612975565b90506040518060a00160405280428152602001866001600160a01b0316815260200161179e612212565b6001600160a01b039081168252602080830185905260409283018a90526000868152600c825283902084518155848201516001820180549185166001600160a01b0319928316179055938501516002820180549190941694169390931790915560608301518051611815926003850192019061364f565b506080820151805161183191600484019160209091019061364f565b5090505081600d826040518082805190602001908083835b602083106118685780518252601f199092019160209182019101611849565b51815160209384036101000a6000190180199092169116179052920194855250604051938490038101842094909455505087518492600e928a9290918291908401908083835b602083106118cd5780518252601f1990920191602091820191016118ae565b51815160209384036101000a60001901801990921691161790529201948552506040519384900301909220929092555061190990508483612aab565b6000803415611a785761193b60105461192f601154600b54612be590919063ffffffff16565b9063ffffffff612c2716565b600f546040519193506000916001600160a01b039091169084908381818185875af1925050503d806000811461198d576040519150601f19603f3d011682016040523d82523d6000602084013e611992565b606091505b50509050806119d25760405162461bcd60e51b81526004018080602001828103825260298152602001806138a36029913960400191505060405180910390fd5b6119e2348463ffffffff612c8016565b6040519092506000906001600160a01b038a169084908381818185875af1925050503d8060008114611a30576040519150601f19603f3d011682016040523d82523d6000602084013e611a35565b606091505b5050905080611a755760405162461bcd60e51b815260040180806020018281038252602a815260200180613adb602a913960400191505060405180910390fd5b50505b611a80612cc2565b866001600160a01b0316866001600160a01b0316857ff7d826f7d32287a6f4acdbe6fa8dd5ec85ee5402b28ebdcdf3f3bba42be0893c868c8787604051808060200180602001858152602001848152602001838103835287818151815260200191508051906020019080838360005b83811015611b07578181015183820152602001611aef565b50505050905090810190601f168015611b345780820380516001836020036101000a031916815260200191505b50838103825286518152865160209182019188019080838360005b83811015611b67578181015183820152602001611b4f565b50505050905090810190601f168015611b945780820380516001836020036101000a031916815260200191505b50965050505050505060405180910390a45091925050505b9392505050565b600f5460009081906001600160a01b0316611bcd846112cd565b91509150915091565b60078054604080516020601f6002600019610100600188161502019095169490940493840181900481028201810190925282815260609390929091830182828015610da85780601f10610d7d57610100808354040283529160200191610da8565b611c3f612212565b6001600160a01b0316826001600160a01b03161415611ca5576040805162461bcd60e51b815260206004820152601960248201527f4552433732313a20617070726f766520746f2063616c6c657200000000000000604482015290519081900360640190fd5b8060056000611cb2612212565b6001600160a01b03908116825260208083019390935260409182016000908120918716808252919093529120805460ff191692151592909217909155611cf6612212565b60408051841515815290516001600160a01b0392909216917f17307eab39ab6107e8899845ad3d59bd9653f200f220920489ca2b5937696c319181900360200190a35050565b611d4d611d47612212565b836122f2565b611d885760405162461bcd60e51b8152600401808060200182810382526031815260200180613aaa6031913960400191505060405180910390fd5b611d9484848484612d5e565b50505050565b6060611da5826121ff565b611de05760405162461bcd60e51b815260040180806020018281038252602f815260200180613a12602f913960400191505060405180910390fd5b60008281526008602090815260409182902080548351601f6002600019610100600186161502019093169290920491820184900484028101840190945280845260609392830182828015611e755780601f10611e4a57610100808354040283529160200191611e75565b820191906000526020600020905b815481529060010190602001808311611e5857829003601f168201915b505060095493945050505060026000196101006001841615020190911604611e9e579050610d11565b805115611f6f576009816040516020018083805460018160011615610100020316600290048015611f065780601f10611ee4576101008083540402835291820191611f06565b820191906000526020600020905b815481529060010190602001808311611ef2575b5050825160208401908083835b60208310611f325780518252601f199092019160209182019101611f13565b6001836020036101000a03801982511681845116808217855250505050505090500192505050604051602081830303815290604052915050610d11565b6009611f7a84612db0565b6040516020018083805460018160011615610100020316600290048015611fd85780601f10611fb6576101008083540402835291820191611fd8565b820191906000526020600020905b815481529060010190602001808311611fc4575b5050825160208401908083835b602083106120045780518252601f199092019160209182019101611fe5565b6001836020036101000a03801982511681845116808217855250505050505090500192505050604051602081830303815290604052915050919050565b8051602081830181018051600e8252928201919093012091525481565b8051602081830181018051600d8252928201919093012091525481565b600b5481565b600c60209081526000918252604091829020805460018083015460028085015460038601805489516101009682161596909602600019011692909204601f810188900488028501880190985287845293966001600160a01b039283169692909416949390918301828280156121375780601f1061210c57610100808354040283529160200191612137565b820191906000526020600020905b81548152906001019060200180831161211a57829003601f168201915b5050505060048301805460408051602060026001851615610100026000190190941693909304601f81018490048402820184019092528181529495949350908301828280156121c75780601f1061219c576101008083540402835291602001916121c7565b820191906000526020600020905b8154815290600101906020018083116121aa57829003601f168201915b5050505050905085565b6001600160a01b03918216600090815260056020908152604080832093909416825291909152205460ff1690565b600061114860028363ffffffff612e8b16565b3390565b600081815260046020526040902080546001600160a01b0319166001600160a01b038416908117909155819061224b826112cd565b6001600160a01b03167f8c5be1e5ebec7d5bd14f71427d1e84f3dd0314c0f7b2291e5b200ac8c7c3b92560405160405180910390a45050565b61228d826121ff565b6122c85760405162461bcd60e51b815260040180806020018281038252602c815260200180613919602c913960400191505060405180910390fd5b60008281526008602090815260409091208251610eeb9284019061364f565b600061114882612e97565b60006122fd826121ff565b6123385760405162461bcd60e51b815260040180806020018281038252602c8152602001806137ca602c913960400191505060405180910390fd5b6000612343836112cd565b9050806001600160a01b0316846001600160a01b0316148061237e5750836001600160a01b031661237384610db3565b6001600160a01b0316145b8061238e575061238e81856121d1565b949350505050565b826001600160a01b03166123a9826112cd565b6001600160a01b0316146123ee5760405162461bcd60e51b81526004018080602001828103825260298152602001806139c26029913960400191505060405180910390fd5b6001600160a01b0382166124335760405162461bcd60e51b81526004018080602001828103825260248152602001806137a66024913960400191505060405180910390fd5b61243e838383612e9b565b612449600082612216565b6001600160a01b0383166000908152600160205260409020612471908263ffffffff612ea616565b506001600160a01b038216600090815260016020526040902061249a908263ffffffff612eb216565b506124ad6002828463ffffffff612ebe16565b5080826001600160a01b0316846001600160a01b03167fddf252ad1be2c89b69c2b068fc378daa952ba7f163c4a11628f55a4df523b3ef60405160405180910390a4505050565b60006111458383612ed4565b600061250b826112cd565b905061251981600084612e9b565b612524600083612216565b6000828152600860205260409020546002600019610100600184161502019091160415612562576000828152600860205260408120612562916136cd565b6001600160a01b038116600090815260016020526040902061258a908363ffffffff612ea616565b5061259c60028363ffffffff612f3816565b5060405182906000906001600160a01b038416907fddf252ad1be2c89b69c2b068fc378daa952ba7f163c4a11628f55a4df523b3ef908390a45050565b60008080806125e88686612f44565b9097909650945050505050565b80516110a590600990602084019061364f565b600061238e848484612fbf565b606061262082612975565b9050600d816040518082805190602001908083835b602083106126545780518252601f199092019160209182019101612635565b51815160209384036101000a60001901801990921691161790529201948552506040519384900301909220541591506126c090505760405162461bcd60e51b815260040180806020018281038252602a81526020018061377c602a913960400191505060405180910390fd5b6012548251839111156127045760405162461bcd60e51b8152600401808060200182810382526048815260200180613a626048913960600191505060405180910390fd5b601354815111156127465760405162461bcd60e51b8152600401808060200182810382526048815260200180613b6f6048913960600191505060405180910390fd5b6000805b82518110156128db57600083828151811061276157fe5b01602001516001600160f81b03191690506000600360fc1b82108015906127965750603960f81b6001600160f81b0319831611155b1580156127cc5750604160f81b6001600160f81b03198316108015906127ca5750602d60f91b6001600160f81b0319831611155b155b80156128015750606160f81b6001600160f81b03198316108015906127ff5750603d60f91b6001600160f81b0319831611155b155b801561281b5750601760f91b6001600160f81b0319831614155b9050801561285a5760405162461bcd60e51b815260040180806020018281038252603a815260200180613b35603a913960400191505060405180910390fd5b604160f81b6001600160f81b03198316108015906128865750602d60f91b6001600160f81b0319831611155b806128b85750606160f81b6001600160f81b03198316108015906128b85750603d60f91b6001600160f81b0319831611155b156128d1576128ce84600163ffffffff61291b16565b93505b505060010161274a565b5060018111611d945760405162461bcd60e51b815260040180806020018281038252604d815260200180613975604d913960600191505060405180910390fd5b600082820183811015611145576040805162461bcd60e51b815260206004820152601b60248201527f536166654d6174683a206164646974696f6e206f766572666c6f770000000000604482015290519081900360640190fd5b6060808290506060815167ffffffffffffffff8111801561299557600080fd5b506040519080825280601f01601f1916602001820160405280156129c0576020820181803683370190505b50905060005b82518110156111e957604160f81b8382815181106129e057fe5b01602001516001600160f81b03191610801590612a1b5750605a60f81b838281518110612a0957fe5b01602001516001600160f81b03191611155b15612a6857828181518110612a2c57fe5b602001015160f81c60f81b60f81c60200160f81b828281518110612a4c57fe5b60200101906001600160f81b031916908160001a905350612aa3565b828181518110612a7457fe5b602001015160f81c60f81b828281518110612a8b57fe5b60200101906001600160f81b031916908160001a9053505b6001016129c6565b6001600160a01b038216612b06576040805162461bcd60e51b815260206004820181905260248201527f4552433732313a206d696e7420746f20746865207a65726f2061646472657373604482015290519081900360640190fd5b612b0f816121ff565b15612b61576040805162461bcd60e51b815260206004820152601c60248201527f4552433732313a20746f6b656e20616c7265616479206d696e74656400000000604482015290519081900360640190fd5b612b6d60008383612e9b565b6001600160a01b0382166000908152600160205260409020612b95908263ffffffff612eb216565b50612ba86002828463ffffffff612ebe16565b5060405181906001600160a01b038416906000907fddf252ad1be2c89b69c2b068fc378daa952ba7f163c4a11628f55a4df523b3ef908290a45050565b600061114583836040518060400160405280601a81526020017f536166654d6174683a206469766973696f6e206279207a65726f000000000000815250613089565b600082612c3657506000611148565b82820282848281612c4357fe5b04146111455760405162461bcd60e51b81526004018080602001828103825260218152602001806138cc6021913960400191505060405180910390fd5b600061114583836040518060400160405280601e81526020017f536166654d6174683a207375627472616374696f6e206f766572666c6f7700008152506130ee565b306000612ccd612212565b6040516001600160a01b039182169184163190600081818185875af1925050503d8060008114612d19576040519150601f19603f3d011682016040523d82523d6000602084013e612d1e565b606091505b50509050806110a55760405162461bcd60e51b81526004018080602001828103825260308152602001806139456030913960400191505060405180910390fd5b612d69848484612396565b612d7584848484613148565b611d945760405162461bcd60e51b815260040180806020018281038252603281526020018061374a6032913960400191505060405180910390fd5b606081612dd557506040805180820190915260018152600360fc1b6020820152610d11565b8160005b8115612ded57600101600a82049150612dd9565b60608167ffffffffffffffff81118015612e0657600080fd5b506040519080825280601f01601f191660200182016040528015612e31576020820181803683370190505b50859350905060001982015b8315612e8257600a840660300160f81b82828060019003935081518110612e6057fe5b60200101906001600160f81b031916908160001a905350600a84049350612e3d565b50949350505050565b60006111458383613383565b5490565b610eeb838383610eeb565b6000611145838361339b565b60006111458383613461565b600061238e84846001600160a01b0385166134ab565b81546000908210612f165760405162461bcd60e51b81526004018080602001828103825260228152602001806137286022913960400191505060405180910390fd5b826000018281548110612f2557fe5b9060005260206000200154905092915050565b60006111458383613542565b815460009081908310612f885760405162461bcd60e51b81526004018080602001828103825260228152602001806138816022913960400191505060405180910390fd5b6000846000018481548110612f9957fe5b906000526020600020906002020190508060000154816001015492509250509250929050565b6000828152600184016020526040812054828161305a5760405162461bcd60e51b81526004018080602001828103825283818151815260200191508051906020019080838360005b8381101561301f578181015183820152602001613007565b50505050905090810190601f16801561304c5780820380516001836020036101000a031916815260200191505b509250505060405180910390fd5b5084600001600182038154811061306d57fe5b9060005260206000209060020201600101549150509392505050565b600081836130d85760405162461bcd60e51b815260206004820181815283516024840152835190928392604490910191908501908083836000831561301f578181015183820152602001613007565b5060008385816130e457fe5b0495945050505050565b600081848411156131405760405162461bcd60e51b815260206004820181815283516024840152835190928392604490910191908501908083836000831561301f578181015183820152602001613007565b505050900390565b600061315c846001600160a01b0316613616565b6131685750600161238e565b600060606001600160a01b038616630a85bd0160e11b613186612212565b89888860405160240180856001600160a01b03166001600160a01b03168152602001846001600160a01b03166001600160a01b0316815260200183815260200180602001828103825283818151815260200191508051906020019080838360005b838110156131ff5781810151838201526020016131e7565b50505050905090810190601f16801561322c5780820380516001836020036101000a031916815260200191505b5060408051601f198184030181529181526020820180516001600160e01b03166001600160e01b0319909a16999099178952518151919890975087965094509250829150849050835b602083106132945780518252601f199092019160209182019101613275565b6001836020036101000a0380198251168184511680821785525050505050509050019150506000604051808303816000865af19150503d80600081146132f6576040519150601f19603f3d011682016040523d82523d6000602084013e6132fb565b606091505b50915091508161334c578051156133155780518082602001fd5b60405162461bcd60e51b815260040180806020018281038252603281526020018061374a6032913960400191505060405180910390fd5b600081806020019051602081101561336357600080fd5b50516001600160e01b031916630a85bd0160e11b14935061238e92505050565b60009081526001919091016020526040902054151590565b6000818152600183016020526040812054801561345757835460001980830191908101906000908790839081106133ce57fe5b90600052602060002001549050808760000184815481106133eb57fe5b60009182526020808320909101929092558281526001898101909252604090209084019055865487908061341b57fe5b60019003818190600052602060002001600090559055866001016000878152602001908152602001600020600090556001945050505050611148565b6000915050611148565b600061346d8383613383565b6134a357508154600181810184556000848152602080822090930184905584548482528286019093526040902091909155611148565b506000611148565b600082815260018401602052604081205480613510575050604080518082018252838152602080820184815286546001818101895560008981528481209551600290930290950191825591519082015586548684528188019092529290912055611bac565b8285600001600183038154811061352357fe5b9060005260206000209060020201600101819055506000915050611bac565b60008181526001830160205260408120548015613457578354600019808301919081019060009087908390811061357557fe5b906000526020600020906002020190508087600001848154811061359557fe5b6000918252602080832084546002909302019182556001938401549184019190915583548252898301905260409020908401905586548790806135d457fe5b60008281526020808220600260001990940193840201828155600190810183905592909355888152898201909252604082209190915594506111489350505050565b6000813f7fc5d2460186f7233c927e7db2dcc703c0e500b653ca82273b7bfad8045d85a47081811480159061238e575050151592915050565b828054600181600116156101000203166002900490600052602060002090601f016020900481019282601f1061369057805160ff19168380011785556136bd565b828001600101855582156136bd579182015b828111156136bd5782518255916020019190600101906136a2565b506136c992915061370d565b5090565b50805460018160011615610100020316600290046000825580601f106136f357506111b8565b601f0160209004906000526020600020908101906111b891905b610db091905b808211156136c9576000815560010161371356fe456e756d657261626c655365743a20696e646578206f7574206f6620626f756e64734552433732313a207472616e7366657220746f206e6f6e20455243373231526563656976657220696d706c656d656e746572486173687461672076616c69646174696f6e3a204861736874616720616c7265616479206f776e65642e4552433732313a207472616e7366657220746f20746865207a65726f20616464726573734552433732313a206f70657261746f7220717565727920666f72206e6f6e6578697374656e7420746f6b656e4552433732313a20617070726f76652063616c6c6572206973206e6f74206f776e6572206e6f7220617070726f76656420666f7220616c6c4552433732313a2062616c616e636520717565727920666f7220746865207a65726f20616464726573734552433732313a206f776e657220717565727920666f72206e6f6e6578697374656e7420746f6b656e456e756d657261626c654d61703a20696e646578206f7574206f6620626f756e64734661696c656420746f207472616e7366657220636f6d6d697373696f6e20746f20706c6174666f726d536166654d6174683a206d756c7469706c69636174696f6e206f766572666c6f774552433732313a20617070726f76656420717565727920666f72206e6f6e6578697374656e7420746f6b656e4552433732314d657461646174613a2055524920736574206f66206e6f6e6578697374656e7420746f6b656e4661696c656420746f20726566756e64207468652072656d61696e696e672062616c616e636520746f2073656e646572486173687461672076616c69646174696f6e3a20546865206861736874616720646f6573206e6f742068617665206174206c65617374203120616c7068616265746963206368617261637465724552433732313a207472616e73666572206f6620746f6b656e2074686174206973206e6f74206f776e4d696e743a20546865207075626c6973686572206d7573742062652077686974656c69737465644552433732314d657461646174613a2055524920717565727920666f72206e6f6e6578697374656e7420746f6b656e4552433732313a20617070726f76616c20746f2063757272656e74206f776e6572486173687461672076616c69646174696f6e3a204861736874616720646f6573206e6f74206d65657420746865206d696e2063686172616374657220726571756972656d656e74734552433732313a207472616e736665722063616c6c6572206973206e6f74206f776e6572206e6f7220617070726f7665644661696c656420746f207472616e7366657220636f6d6d697373696f6e20746f207075626c69736865724552433732314275726e61626c653a2063616c6c6572206973206e6f74206f776e6572206e6f7220617070726f766564486173687461672076616c69646174696f6e3a20696e76616c69642063686172616374657220666f756e6420696e207468652068617368746167486173687461672076616c69646174696f6e3a2048617368746167206578636565647320746865206d6178206e756d626572206f6620616c6c6f7765642063686172616374657273a26469706673582212207ad2aac87090b5b4f81bdd207ca0004ffabf6e12fa49872fa32f6ebbebba254e64736f6c63430006060033",
  "immutableReferences": {},
  "source": "pragma solidity 0.6.6;\n\nimport \"@openzeppelin/contracts/token/ERC721/ERC721.sol\";\nimport \"@openzeppelin/contracts/token/ERC721/ERC721Burnable.sol\";\nimport \"@openzeppelin/contracts/math/SafeMath.sol\";\nimport \"./HashtagAccessControls.sol\";\n\n/**\n * @title HashtagProtocol contract\n * @notice Core smart contract of the protocol that governs the creation of hashtag tokens\n * @author Hashtag Protocol\n*/\ncontract HashtagProtocol is ERC721, ERC721Burnable {\n    using SafeMath for uint256;\n\n    event MintHashtag(\n        uint256 indexed tokenId,\n        address indexed owner,\n        string hashtag,\n        string displayHashtag,\n        address indexed publisher,\n        uint256 platformFee,\n        uint256 publisherFee\n    );\n\n    // Definition of a Hashtag which bundles associated metadata\n    struct Hashtag {\n        uint256 created;\n        address originalPublisher;\n        address creator;\n        string value;\n        string displayVersion;\n    }\n\n    uint256 public tokenPointer = 0;\n    uint256 public fee = 0.01 ether;\n\n    mapping(uint256 => Hashtag) public tokenIdToHashtag;\n    mapping(string => uint256) public hashtagToTokenId;\n    mapping(string => uint256) public displayHashtagToTokenId;\n\n    address payable public platform;\n    uint256 public platformPercentage = 9000;\n    uint256 modulo = 10000;\n\n    uint256 public hashtagMinStringLength = 3;\n    uint256 public hashtagMaxStringLength = 15;\n\n    HashtagAccessControls public accessControls;\n\n    /**\n     * @notice Admin only execution guard\n     * @dev When applied to a method, only allows execution when the sender has the admin role\n    */\n    modifier onlyAdmin() {\n        require(accessControls.isAdmin(_msgSender()), \"Caller must be admin\");\n        _;\n    }\n\n    constructor (HashtagAccessControls _accessControls, address payable _platform)\n    public ERC721(\"Hashtag Protocol\", \"HASHTAG\") {\n        accessControls = _accessControls;\n        platform = _platform;\n    }\n\n    /**\n     * @notice Utility method for checking whether a hashtag exists\n     * @param _tokenId ID of the hashtag\n     * @return bool True if a hashtag exists, false if not\n    */\n    function exists(uint256 _tokenId) public view returns (bool) {\n        return _exists(_tokenId);\n    }\n    \n    /**\n     * @notice Admin method for updating the token URI of a hashtag\n     * @param _tokenId ID of the hashtag\n     * @param _uri New token URI\n    */\n    function setTokenURI(uint256 _tokenId, string memory _uri) onlyAdmin public {\n        _setTokenURI(_tokenId, _uri);\n    }\n\n    /**\n     * @notice Admin method for updating the base token URI of a hashtag\n     * @param _baseURI Base URI for all tokens\n    */\n    function setBaseURI(string memory _baseURI) onlyAdmin public {\n        _setBaseURI(_baseURI);\n    }\n\n    function _beforeTokenTransfer(address _from, address _to, uint256 _tokenId) internal virtual override(ERC721) {\n        super._beforeTokenTransfer(_from, _to, _tokenId);\n    }\n\n    /**\n     * @notice Method that a publisher can call to create a hashtag\n     * @dev A fee is required unless the caller has an admin role\n     * @param _hashtag String version of the hashtag to mint\n     * @param _publisher Address of the publisher through which the hashtag is being created\n     * @param _recipient Address that will receive the hashtag\n     * @return _tokenId ID of the new hashtag\n    */\n    function mint(string memory _hashtag, address payable _publisher, address _recipient) payable public returns (uint256 _tokenId) {\n        require(accessControls.isPublisher(_publisher), \"Mint: The publisher must be whitelisted\");\n        require(accessControls.isAdmin(_msgSender()) || msg.value >= fee, \"Mint: Must send the platform fee\");\n\n        _assertHashtagIsValid(_hashtag);\n\n        // generate the new hashtag token id\n        tokenPointer = tokenPointer.add(1);\n        uint256 tokenId = tokenPointer;\n\n        // create the hashtag\n        string memory lowerHashtag = _lower(_hashtag);\n        tokenIdToHashtag[tokenId] = Hashtag({\n            value : lowerHashtag,\n            displayVersion : _hashtag,\n            created : now,\n            originalPublisher : _publisher,\n            creator : _msgSender()\n            });\n\n        // store a reverse lookup and mint the tag\n        hashtagToTokenId[lowerHashtag] = tokenId;\n        displayHashtagToTokenId[_hashtag] = tokenId;\n\n        _mint(_recipient, tokenId);\n\n        // As long as the sender is not admin, a fee is required to mint\n        uint256 platformFee;\n        uint256 publisherFee;\n        if (msg.value > 0) {\n            // split fee\n            platformFee = fee.div(modulo).mul(platformPercentage);\n            (bool platformSuccess,) = platform.call{value : platformFee}(\"\");\n            require(platformSuccess, \"Failed to transfer commission to platform\");\n\n            publisherFee = msg.value.sub(platformFee);\n            (bool publisherSuccess,) = _publisher.call{value : publisherFee}(\"\");\n            require(publisherSuccess, \"Failed to transfer commission to publisher\");\n        }\n\n        // send the user any change / unexpected funds back\n        _refundRemainingBalance();\n\n        // log the minting event\n        emit MintHashtag(tokenId, _recipient, lowerHashtag, _hashtag, _publisher, platformFee, publisherFee);\n\n        return tokenId;\n    }\n\n    /**\n     * @notice Admin functionality for setting the fee required in order to create and mint a hashtag\n     * @param _fee Value that the fee will be set to in WEI\n    */\n    function setFee(uint256 _fee) onlyAdmin external {\n        fee = _fee;\n    }\n\n    /**\n     * @notice Admin functionality for updating the percentage of the minting fee that the platform receives\n     * @dev The percentage defined must be to 2 decimal places. For example: For a percentage of 12.55%, multiply this by 100 to get 1255\n     * @param _platformPercentage Percentage of the minting fee that the Hashtag Protocol receives\n    */\n    function setPlatformPercentage(uint256 _platformPercentage) onlyAdmin external {\n        platformPercentage = _platformPercentage;\n    }\n\n    /**\n     * @notice Admin functionality for updating the address that receives the commission on behalf of the platform\n     * @param _platform Address that receives platform fees\n    */\n    function setPlatform(address payable _platform) onlyAdmin external {\n        platform = _platform;\n    }\n\n    /**\n     * @notice Returns the commission addresses related to a token\n     * @param _tokenId ID of a hashtag\n     * @return _platform Platform commission address\n     * @return _owner Address of the owner of the hashtag\n    */\n    function getPaymentAddresses(uint256 _tokenId) public view returns (\n        address payable _platform,\n        address payable _owner\n    ) {\n        return (\n        platform,\n        payable(ownerOf(_tokenId))\n        );\n    }\n\n    function _assertHashtagIsValid(string memory _hashtag) private view {\n        string memory lowerHashtag = _lower(_hashtag);\n        require(hashtagToTokenId[lowerHashtag] == 0, \"Hashtag validation: Hashtag already owned.\");\n\n        bytes memory hashtagStringBytes = bytes(_hashtag);\n        require(hashtagStringBytes.length >= hashtagMinStringLength, \"Hashtag validation: Hashtag does not meet the min character requirements\");\n        require(hashtagStringBytes.length <= hashtagMaxStringLength, \"Hashtag validation: Hashtag exceeds the max number of allowed characters\");\n\n        uint256 alphabetCharCount = 0;\n        for (uint256 i; i < hashtagStringBytes.length; i++) {\n            bytes1 char = hashtagStringBytes[i];\n\n            // Generally ensure that the character is alpha numeric\n            bool isInvalidCharacter = !(char >= 0x30 && char <= 0x39) && //0-9\n                                     !(char >= 0x41 && char <= 0x5A) && //A-Z\n                                     !(char >= 0x61 && char <= 0x7A) && //a-z\n                                     !(char == 0x2E);\n\n            require(!isInvalidCharacter, \"Hashtag validation: invalid character found in the hashtag\");\n\n            // Should the char be alphabetic, increment alphabetCharCount\n            if ((char >= 0x41 && char <= 0x5A) || (char >= 0x61 && char <= 0x7A)) {\n                alphabetCharCount = alphabetCharCount.add(1);\n            }\n        }\n\n        // Ensure alphabetCharCount is at least 1\n        require(alphabetCharCount > 1, \"Hashtag validation: The hashtag does not have at least 1 alphabetic character\");\n    }\n\n    /**\n     * @notice Converts a string to its lowercase equivalent\n     * @param _base String to convert\n     * @return string Lowercase version of string supplied\n    */\n    function _lower(string memory _base) internal pure returns (string memory) {\n        bytes memory bStr = bytes(_base);\n        bytes memory bLower = new bytes(bStr.length);\n        for (uint i = 0; i < bStr.length; i++) {\n            // Uppercase character...\n            if ((bStr[i] >= 0x41) && (bStr[i] <= 0x5A)) {\n                // So we add 32 to make it lowercase\n                bLower[i] = bytes1(uint8(bStr[i]) + 32);\n            } else {\n                bLower[i] = bStr[i];\n            }\n        }\n        return string(bLower);\n    }\n\n    /**\n     * @notice Given a contract balance, sends the value back to the sender - the equivalent of giving a user change\n    */\n    function _refundRemainingBalance() private {\n        address payable self = payable(address(this));\n        (bool refundSuccess,) = _msgSender().call{value : self.balance}(\"\");\n        require(refundSuccess, \"Failed to refund the remaining balance to sender\");\n    }\n}\n",
  "sourcePath": "/Users/Natalie/Projects/hashtag-contracts/contracts/HashtagProtocol.sol",
  "compiler": {
    "name": "solc",
    "version": "0.6.6+commit.6c089d02.Emscripten.clang"
  },
  "schemaVersion": "3.1.0",
  "updatedAt": "2020-05-12T10:29:04.885Z",
  "networkType": "ethereum",
  "devdoc": {
    "author": "Hashtag Protocol",
    "methods": {
      "approve(address,uint256)": {
        "details": "Approves another address to transfer the given token ID The zero address indicates there is no approved address. There can only be one approved address per token at a given time. Can only be called by the token owner or an approved operator.",
        "params": {
          "to": "address to be approved for the given token ID",
          "tokenId": "uint256 ID of the token to be approved"
        }
      },
      "balanceOf(address)": {
        "details": "Gets the balance of the specified address.",
        "params": {
          "owner": "address to query the balance of"
        },
        "returns": {
          "_0": "uint256 representing the amount owned by the passed address"
        }
      },
      "baseURI()": {
        "details": "Returns the base URI set via {_setBaseURI}. This will be automatically added as a prefix in {tokenURI} to each token's URI, or to the token ID if no specific URI is set for that token ID."
      },
      "burn(uint256)": {
        "details": "Burns a specific ERC721 token.",
        "params": {
          "tokenId": "uint256 id of the ERC721 token to be burned."
        }
      },
      "exists(uint256)": {
        "params": {
          "_tokenId": "ID of the hashtag"
        },
        "returns": {
          "_0": "bool True if a hashtag exists, false if not"
        }
      },
      "getApproved(uint256)": {
        "details": "Gets the approved address for a token ID, or zero if no address set Reverts if the token ID does not exist.",
        "params": {
          "tokenId": "uint256 ID of the token to query the approval of"
        },
        "returns": {
          "_0": "address currently approved for the given token ID"
        }
      },
      "getPaymentAddresses(uint256)": {
        "params": {
          "_tokenId": "ID of a hashtag"
        },
        "returns": {
          "_owner": "Address of the owner of the hashtag",
          "_platform": "Platform commission address"
        }
      },
      "isApprovedForAll(address,address)": {
        "details": "Tells whether an operator is approved by a given owner.",
        "params": {
          "operator": "operator address which you want to query the approval of",
          "owner": "owner address which you want to query the approval of"
        },
        "returns": {
          "_0": "bool whether the given operator is approved by the given owner"
        }
      },
      "mint(string,address,address)": {
        "details": "A fee is required unless the caller has an admin role",
        "params": {
          "_hashtag": "String version of the hashtag to mint",
          "_publisher": "Address of the publisher through which the hashtag is being created",
          "_recipient": "Address that will receive the hashtag"
        },
        "returns": {
          "_tokenId": "ID of the new hashtag"
        }
      },
      "name()": {
        "details": "Gets the token name.",
        "returns": {
          "_0": "string representing the token name"
        }
      },
      "ownerOf(uint256)": {
        "details": "Gets the owner of the specified token ID.",
        "params": {
          "tokenId": "uint256 ID of the token to query the owner of"
        },
        "returns": {
          "_0": "address currently marked as the owner of the given token ID"
        }
      },
      "safeTransferFrom(address,address,uint256)": {
        "details": "Safely transfers the ownership of a given token ID to another address If the target address is a contract, it must implement {IERC721Receiver-onERC721Received}, which is called upon a safe transfer, and return the magic value `bytes4(keccak256(\"onERC721Received(address,address,uint256,bytes)\"))`; otherwise, the transfer is reverted. Requires the msg.sender to be the owner, approved, or operator",
        "params": {
          "from": "current owner of the token",
          "to": "address to receive the ownership of the given token ID",
          "tokenId": "uint256 ID of the token to be transferred"
        }
      },
      "safeTransferFrom(address,address,uint256,bytes)": {
        "details": "Safely transfers the ownership of a given token ID to another address If the target address is a contract, it must implement {IERC721Receiver-onERC721Received}, which is called upon a safe transfer, and return the magic value `bytes4(keccak256(\"onERC721Received(address,address,uint256,bytes)\"))`; otherwise, the transfer is reverted. Requires the _msgSender() to be the owner, approved, or operator",
        "params": {
          "_data": "bytes data to send along with a safe transfer check",
          "from": "current owner of the token",
          "to": "address to receive the ownership of the given token ID",
          "tokenId": "uint256 ID of the token to be transferred"
        }
      },
      "setApprovalForAll(address,bool)": {
        "details": "Sets or unsets the approval of a given operator An operator is allowed to transfer all tokens of the sender on their behalf.",
        "params": {
          "approved": "representing the status of the approval to be set",
          "operator": "operator address to set the approval"
        }
      },
      "setBaseURI(string)": {
        "params": {
          "_baseURI": "Base URI for all tokens"
        }
      },
      "setFee(uint256)": {
        "params": {
          "_fee": "Value that the fee will be set to in WEI"
        }
      },
      "setPlatform(address)": {
        "params": {
          "_platform": "Address that receives platform fees"
        }
      },
      "setPlatformPercentage(uint256)": {
        "details": "The percentage defined must be to 2 decimal places. For example: For a percentage of 12.55%, multiply this by 100 to get 1255",
        "params": {
          "_platformPercentage": "Percentage of the minting fee that the Hashtag Protocol receives"
        }
      },
      "setTokenURI(uint256,string)": {
        "params": {
          "_tokenId": "ID of the hashtag",
          "_uri": "New token URI"
        }
      },
      "supportsInterface(bytes4)": {
        "details": "See {IERC165-supportsInterface}.     * Time complexity O(1), guaranteed to always use less than 30 000 gas."
      },
      "symbol()": {
        "details": "Gets the token symbol.",
        "returns": {
          "_0": "string representing the token symbol"
        }
      },
      "tokenByIndex(uint256)": {
        "details": "Gets the token ID at a given index of all the tokens in this contract Reverts if the index is greater or equal to the total number of tokens.",
        "params": {
          "index": "uint256 representing the index to be accessed of the tokens list"
        },
        "returns": {
          "_0": "uint256 token ID at the given index of the tokens list"
        }
      },
      "tokenOfOwnerByIndex(address,uint256)": {
        "details": "Gets the token ID at a given index of the tokens list of the requested owner.",
        "params": {
          "index": "uint256 representing the index to be accessed of the requested tokens list",
          "owner": "address owning the tokens list to be accessed"
        },
        "returns": {
          "_0": "uint256 token ID at the given index of the tokens list owned by the requested address"
        }
      },
      "tokenURI(uint256)": {
        "details": "Returns the URI for a given token ID. May return an empty string.     * If a base URI is set (via {_setBaseURI}), it is added as a prefix to the token's own URI (via {_setTokenURI}).     * If there is a base URI but no token URI, the token's ID will be used as its URI when appending it to the base URI. This pattern for autogenerated token URIs can lead to large gas savings.     * .Examples |=== |`_setBaseURI()` |`_setTokenURI()` |`tokenURI()` | \"\" | \"\" | \"\" | \"\" | \"token.uri/123\" | \"token.uri/123\" | \"token.uri/\" | \"123\" | \"token.uri/123\" | \"token.uri/\" | \"\" | \"token.uri/<tokenId>\" |===     * Requirements:     * - `tokenId` must exist."
      },
      "totalSupply()": {
        "details": "Gets the total amount of tokens stored by the contract.",
        "returns": {
          "_0": "uint256 representing the total amount of tokens"
        }
      },
      "transferFrom(address,address,uint256)": {
        "details": "Transfers the ownership of a given token ID to another address. Usage of this method is discouraged, use {safeTransferFrom} whenever possible. Requires the msg.sender to be the owner, approved, or operator.",
        "params": {
          "from": "current owner of the token",
          "to": "address to receive the ownership of the given token ID",
          "tokenId": "uint256 ID of the token to be transferred"
        }
      }
    },
    "title": "HashtagProtocol contract"
  },
  "userdoc": {
    "methods": {
      "exists(uint256)": {
        "notice": "Utility method for checking whether a hashtag exists"
      },
      "getPaymentAddresses(uint256)": {
        "notice": "Returns the commission addresses related to a token"
      },
      "mint(string,address,address)": {
        "notice": "Method that a publisher can call to create a hashtag"
      },
      "setBaseURI(string)": {
        "notice": "Admin method for updating the base token URI of a hashtag"
      },
      "setFee(uint256)": {
        "notice": "Admin functionality for setting the fee required in order to create and mint a hashtag"
      },
      "setPlatform(address)": {
        "notice": "Admin functionality for updating the address that receives the commission on behalf of the platform"
      },
      "setPlatformPercentage(uint256)": {
        "notice": "Admin functionality for updating the percentage of the minting fee that the platform receives"
      },
      "setTokenURI(uint256,string)": {
        "notice": "Admin method for updating the token URI of a hashtag"
      }
    },
    "notice": "Core smart contract of the protocol that governs the creation of hashtag tokens"
  }
}