{
  "contractName": "NFTTagger",
  "abi": [
    {
      "inputs": [
        {
          "internalType": "contract HashtagAccessControls",
          "name": "_accessControls",
          "type": "address"
        },
        {
          "internalType": "contract HashtagProtocol",
          "name": "_hashtagProtocol",
          "type": "address"
        },
        {
          "internalType": "contract HashtagLinkSplitter",
          "name": "_splitter",
          "type": "address"
        }
      ],
      "stateMutability": "nonpayable",
      "type": "constructor"
    },
    {
      "anonymous": false,
      "inputs": [
        {
          "indexed": true,
          "internalType": "address",
          "name": "_tagger",
          "type": "address"
        },
        {
          "indexed": true,
          "internalType": "address",
          "name": "_nftContract",
          "type": "address"
        },
        {
          "indexed": true,
          "internalType": "address",
          "name": "_publisher",
          "type": "address"
        },
        {
          "indexed": false,
          "internalType": "uint256",
          "name": "_hashtagId",
          "type": "uint256"
        },
        {
          "indexed": false,
          "internalType": "uint256",
          "name": "_nftId",
          "type": "uint256"
        }
      ],
      "name": "NFTTagged",
      "type": "event"
    },
    {
      "inputs": [],
      "name": "accessControls",
      "outputs": [
        {
          "internalType": "contract HashtagAccessControls",
          "name": "",
          "type": "address"
        }
      ],
      "stateMutability": "view",
      "type": "function",
      "constant": true
    },
    {
      "inputs": [
        {
          "internalType": "uint256",
          "name": "",
          "type": "uint256"
        },
        {
          "internalType": "uint256",
          "name": "",
          "type": "uint256"
        }
      ],
      "name": "hashtagIdToListOfTagIds",
      "outputs": [
        {
          "internalType": "uint256",
          "name": "",
          "type": "uint256"
        }
      ],
      "stateMutability": "view",
      "type": "function",
      "constant": true
    },
    {
      "inputs": [],
      "name": "hashtagProtocol",
      "outputs": [
        {
          "internalType": "contract HashtagProtocol",
          "name": "",
          "type": "address"
        }
      ],
      "stateMutability": "view",
      "type": "function",
      "constant": true
    },
    {
      "inputs": [],
      "name": "mintAndTagDiscount",
      "outputs": [
        {
          "internalType": "uint256",
          "name": "",
          "type": "uint256"
        }
      ],
      "stateMutability": "view",
      "type": "function",
      "constant": true
    },
    {
      "inputs": [],
      "name": "modulo",
      "outputs": [
        {
          "internalType": "uint256",
          "name": "",
          "type": "uint256"
        }
      ],
      "stateMutability": "view",
      "type": "function",
      "constant": true
    },
    {
      "inputs": [
        {
          "internalType": "address",
          "name": "",
          "type": "address"
        },
        {
          "internalType": "uint256",
          "name": "",
          "type": "uint256"
        },
        {
          "internalType": "uint256",
          "name": "",
          "type": "uint256"
        }
      ],
      "name": "nftToListOfTagIds",
      "outputs": [
        {
          "internalType": "uint256",
          "name": "",
          "type": "uint256"
        }
      ],
      "stateMutability": "view",
      "type": "function",
      "constant": true
    },
    {
      "inputs": [
        {
          "internalType": "address",
          "name": "",
          "type": "address"
        },
        {
          "internalType": "uint256",
          "name": "",
          "type": "uint256"
        }
      ],
      "name": "publisherToListOfTagIds",
      "outputs": [
        {
          "internalType": "uint256",
          "name": "",
          "type": "uint256"
        }
      ],
      "stateMutability": "view",
      "type": "function",
      "constant": true
    },
    {
      "inputs": [],
      "name": "splitter",
      "outputs": [
        {
          "internalType": "contract HashtagLinkSplitter",
          "name": "",
          "type": "address"
        }
      ],
      "stateMutability": "view",
      "type": "function",
      "constant": true
    },
    {
      "inputs": [],
      "name": "tagFee",
      "outputs": [
        {
          "internalType": "uint256",
          "name": "",
          "type": "uint256"
        }
      ],
      "stateMutability": "view",
      "type": "function",
      "constant": true
    },
    {
      "inputs": [
        {
          "internalType": "uint256",
          "name": "",
          "type": "uint256"
        }
      ],
      "name": "tagIdToTag",
      "outputs": [
        {
          "internalType": "uint256",
          "name": "hashtagId",
          "type": "uint256"
        },
        {
          "internalType": "address",
          "name": "nftContract",
          "type": "address"
        },
        {
          "internalType": "uint256",
          "name": "nftId",
          "type": "uint256"
        },
        {
          "internalType": "address",
          "name": "tagger",
          "type": "address"
        },
        {
          "internalType": "uint256",
          "name": "tagstamp",
          "type": "uint256"
        },
        {
          "internalType": "address",
          "name": "publisher",
          "type": "address"
        }
      ],
      "stateMutability": "view",
      "type": "function",
      "constant": true
    },
    {
      "inputs": [
        {
          "internalType": "address",
          "name": "",
          "type": "address"
        },
        {
          "internalType": "uint256",
          "name": "",
          "type": "uint256"
        }
      ],
      "name": "taggerToListOfTagIds",
      "outputs": [
        {
          "internalType": "uint256",
          "name": "",
          "type": "uint256"
        }
      ],
      "stateMutability": "view",
      "type": "function",
      "constant": true
    },
    {
      "inputs": [],
      "name": "totalTags",
      "outputs": [
        {
          "internalType": "uint256",
          "name": "",
          "type": "uint256"
        }
      ],
      "stateMutability": "view",
      "type": "function",
      "constant": true
    },
    {
      "inputs": [
        {
          "internalType": "string",
          "name": "hashtag",
          "type": "string"
        },
        {
          "internalType": "address",
          "name": "_nftContract",
          "type": "address"
        },
        {
          "internalType": "uint256",
          "name": "_nftId",
          "type": "uint256"
        },
        {
          "internalType": "address",
          "name": "_tagger",
          "type": "address"
        }
      ],
      "name": "mintAndTag",
      "outputs": [],
      "stateMutability": "payable",
      "type": "function",
      "payable": true
    },
    {
      "inputs": [
        {
          "internalType": "uint256",
          "name": "_hashtagId",
          "type": "uint256"
        },
        {
          "internalType": "address",
          "name": "_nftContract",
          "type": "address"
        },
        {
          "internalType": "uint256",
          "name": "_nftId",
          "type": "uint256"
        },
        {
          "internalType": "address",
          "name": "_tagger",
          "type": "address"
        }
      ],
      "name": "tag",
      "outputs": [],
      "stateMutability": "payable",
      "type": "function",
      "payable": true
    },
    {
      "inputs": [
        {
          "internalType": "uint256",
          "name": "_tagId",
          "type": "uint256"
        }
      ],
      "name": "getTagInfo",
      "outputs": [
        {
          "internalType": "uint256",
          "name": "_hashtagId",
          "type": "uint256"
        },
        {
          "internalType": "address",
          "name": "_nftContract",
          "type": "address"
        },
        {
          "internalType": "uint256",
          "name": "_nftId",
          "type": "uint256"
        },
        {
          "internalType": "address",
          "name": "_tagger",
          "type": "address"
        },
        {
          "internalType": "uint256",
          "name": "_tagstamp",
          "type": "uint256"
        },
        {
          "internalType": "address",
          "name": "_publisher",
          "type": "address"
        }
      ],
      "stateMutability": "view",
      "type": "function",
      "constant": true
    },
    {
      "inputs": [
        {
          "internalType": "uint256",
          "name": "_hashtagId",
          "type": "uint256"
        }
      ],
      "name": "getAllTagIdsForAGivenHashtag",
      "outputs": [
        {
          "internalType": "uint256[]",
          "name": "",
          "type": "uint256[]"
        }
      ],
      "stateMutability": "view",
      "type": "function",
      "constant": true
    },
    {
      "inputs": [
        {
          "internalType": "address",
          "name": "_nftContract",
          "type": "address"
        },
        {
          "internalType": "uint256",
          "name": "_nftId",
          "type": "uint256"
        }
      ],
      "name": "getAllTagIdsForAGivenNft",
      "outputs": [
        {
          "internalType": "uint256[]",
          "name": "",
          "type": "uint256[]"
        }
      ],
      "stateMutability": "view",
      "type": "function",
      "constant": true
    },
    {
      "inputs": [
        {
          "internalType": "address",
          "name": "_publisher",
          "type": "address"
        }
      ],
      "name": "getAllTagIdsForAGivenPublisher",
      "outputs": [
        {
          "internalType": "uint256[]",
          "name": "",
          "type": "uint256[]"
        }
      ],
      "stateMutability": "view",
      "type": "function",
      "constant": true
    },
    {
      "inputs": [
        {
          "internalType": "address",
          "name": "_tagger",
          "type": "address"
        }
      ],
      "name": "getAllTagIdsForAGivenTagger",
      "outputs": [
        {
          "internalType": "uint256[]",
          "name": "",
          "type": "uint256[]"
        }
      ],
      "stateMutability": "view",
      "type": "function",
      "constant": true
    },
    {
      "inputs": [
        {
          "internalType": "uint256",
          "name": "_fee",
          "type": "uint256"
        }
      ],
      "name": "setTagFee",
      "outputs": [],
      "stateMutability": "nonpayable",
      "type": "function"
    },
    {
      "inputs": [
        {
          "internalType": "uint256",
          "name": "_mintAndTagDiscount",
          "type": "uint256"
        }
      ],
      "name": "setMintAndTagDiscount",
      "outputs": [],
      "stateMutability": "nonpayable",
      "type": "function"
    },
    {
      "inputs": [],
      "name": "calculateTagFeeAfterDiscount",
      "outputs": [
        {
          "internalType": "uint256",
          "name": "",
          "type": "uint256"
        }
      ],
      "stateMutability": "view",
      "type": "function",
      "constant": true
    },
    {
      "inputs": [],
      "name": "calculateMintAndTagFee",
      "outputs": [
        {
          "internalType": "uint256",
          "name": "",
          "type": "uint256"
        }
      ],
      "stateMutability": "view",
      "type": "function",
      "constant": true
    },
    {
      "inputs": [
        {
          "internalType": "contract HashtagLinkSplitter",
          "name": "_splitter",
          "type": "address"
        }
      ],
      "name": "updateSplitter",
      "outputs": [],
      "stateMutability": "nonpayable",
      "type": "function"
    },
    {
      "inputs": [
        {
          "internalType": "contract HashtagAccessControls",
          "name": "_accessControls",
          "type": "address"
        }
      ],
      "name": "updateAccessControls",
      "outputs": [],
      "stateMutability": "nonpayable",
      "type": "function"
    }
  ],
  "bytecode": "0x60806040526000600355662386f26fc10000600455612710600555600060065534801561002b57600080fd5b50604051611c3a380380611c3a8339818101604052606081101561004e57600080fd5b5080516020820151604090920151600080546001600160a01b039384166001600160a01b0319918216179091556001805494841694821694909417909355600280549290911691909216179055611b90806100aa6000396000f3fe6080604052600436106101655760003560e01c80636ef3da94116100d1578063a8eb6d8e1161008a578063ccd8cedd11610064578063ccd8cedd146105ab578063cd75afce146105d5578063d5cb95ea14610608578063fd7a2d3d1461063257610165565b8063a8eb6d8e1461052a578063b0c315ee1461055d578063bf6a94fc1461059657610165565b80636ef3da9414610405578063716a5b491461043857806373b4818e1461044d578063748365ef146104d657806383c06c98146104eb578063a1b3c1841461050057610165565b806334db79821161012357806334db7982146102af57806338d3b069146102ee5780633cb1f26a146103775780633cd8045e1461038c5780635210b781146103bd578063648afdee146103f057610165565b8062e9236f1461016a578063014872db1461019157806311167ae0146101cf5780631d9e6a3f1461023757806329745262146102615780632ae1bd0e14610276575b600080fd5b34801561017657600080fd5b5061017f610662565b60408051918252519081900360200190f35b6101cd600480360360808110156101a757600080fd5b508035906001600160a01b03602082013581169160408101359160609091013516610668565b005b3480156101db57600080fd5b506101f9600480360360208110156101f257600080fd5b5035610e19565b604080519687526001600160a01b039586166020880152868101949094529184166060860152608085015290911660a0830152519081900360c00190f35b34801561024357600080fd5b506101cd6004803603602081101561025a57600080fd5b5035610e5d565b34801561026d57600080fd5b5061017f610eb5565b34801561028257600080fd5b5061017f6004803603604081101561029957600080fd5b506001600160a01b038135169060200135610ebb565b3480156102bb57600080fd5b5061017f600480360360608110156102d257600080fd5b506001600160a01b038135169060208101359060400135610ee9565b3480156102fa57600080fd5b506103276004803603604081101561031157600080fd5b506001600160a01b038135169060200135610f24565b60408051602080825283518183015283519192839290830191858101910280838360005b8381101561036357818101518382015260200161034b565b505050509050019250505060405180910390f35b34801561038357600080fd5b5061017f610f9a565b34801561039857600080fd5b506103a1610fe2565b604080516001600160a01b039092168252519081900360200190f35b3480156103c957600080fd5b50610327600480360360208110156103e057600080fd5b50356001600160a01b0316610ff1565b3480156103fc57600080fd5b506103a161105d565b34801561041157600080fd5b506101cd6004803603602081101561042857600080fd5b50356001600160a01b031661106c565b34801561044457600080fd5b5061017f6110e1565b6101cd6004803603608081101561046357600080fd5b81019060208101813564010000000081111561047e57600080fd5b82018360208201111561049057600080fd5b803590602001918460018302840111640100000000831117156104b257600080fd5b91935091506001600160a01b038135811691602081013591604090910135166110e7565b3480156104e257600080fd5b506103a161129c565b3480156104f757600080fd5b5061017f6112ab565b34801561050c57600080fd5b506101cd6004803603602081101561052357600080fd5b503561134d565b34801561053657600080fd5b506101cd6004803603602081101561054d57600080fd5b50356001600160a01b03166113a5565b34801561056957600080fd5b5061017f6004803603604081101561058057600080fd5b506001600160a01b03813516906020013561141a565b3480156105a257600080fd5b5061017f611433565b3480156105b757600080fd5b50610327600480360360208110156105ce57600080fd5b5035611439565b3480156105e157600080fd5b50610327600480360360208110156105f857600080fd5b50356001600160a01b0316611499565b34801561061457600080fd5b506101f96004803603602081101561062b57600080fd5b5035611503565b34801561063e57600080fd5b5061017f6004803603604081101561065557600080fd5b5080359060200135611590565b60035481565b6000610672610f9a565b905061068461067f6115a9565b6115ad565b806106a6575061069a6106956115a9565b611638565b80156106a65750803410155b6106e15760405162461bcd60e51b815260040180806020018281038252604c815260200180611aa0604c913960600191505060405180910390fd5b60015460408051634f558e7960e01b81526004810188905290516001600160a01b0390921691634f558e7991602480820192602092909190829003018186803b15801561072d57600080fd5b505afa158015610741573d6000803e3d6000fd5b505050506040513d602081101561075757600080fd5b50516107945760405162461bcd60e51b8152600401808060200182810382526038815260200180611aec6038913960400191505060405180910390fd5b6001600160a01b0384166107ef576040805162461bcd60e51b815260206004820152601c60248201527f496e76616c6964206e667420636f6e7472616374206164647265737300000000604482015290519081900360640190fd5b6001546001600160a01b038581169116141561083c5760405162461bcd60e51b8152600401808060200182810382526037815260200180611b246037913960400191505060405180910390fd5b6001600160a01b038216610888576040805162461bcd60e51b815260206004820152600e60248201526d24b73b30b634b2103a30b3b3b2b960911b604482015290519081900360640190fd5b836001600160a01b0316636352211e846040518263ffffffff1660e01b81526004018082815260200191505060206040518083038186803b1580156108cc57600080fd5b505afa9250505080156108f157506040513d60208110156108ec57600080fd5b505160015b610a7e576040516000815260443d101561090d575060006109aa565b60046000803e60005160e01c6308c379a0811461092e5760009150506109aa565b60043d036004833e81513d602482011167ffffffffffffffff8211171561095a576000925050506109aa565b808301805167ffffffffffffffff81111561097c5760009450505050506109aa565b8060208301013d860181111561099a576000955050505050506109aa565b601f01601f191660405250925050505b806109b55750610a3a565b8060405162461bcd60e51b81526004018080602001828103825283818151815260200191508051906020019080838360005b838110156109ff5781810151838201526020016109e7565b50505050905090810190601f168015610a2c5780820380516001836020036101000a031916815260200191505b509250505060405180910390fd5b6040805162461bcd60e51b8152602060048201526014602482015273151bdad95b88191bd95cc81b9bdd08195e1a5cdd60621b604482015290519081900360640190fd5b6001600160a01b038116610ac35760405162461bcd60e51b81526004018080602001828103825260348152602001806119c66034913960400191505060405180910390fd5b50600354610ad890600163ffffffff6116d716565b6003819055826000610ae86115a9565b90506040518060c00160405280898152602001886001600160a01b03168152602001878152602001836001600160a01b03168152602001428152602001826001600160a01b0316815250600760008581526020019081526020016000206000820151816000015560208201518160010160006101000a8154816001600160a01b0302191690836001600160a01b031602179055506040820151816002015560608201518160030160006101000a8154816001600160a01b0302191690836001600160a01b031602179055506080820151816004015560a08201518160050160006101000a8154816001600160a01b0302191690836001600160a01b031602179055509050506008600089815260200190815260200160002083908060018154018082558091505060019003906000526020600020016000909190919091505560096000886001600160a01b03166001600160a01b031681526020019081526020016000206000878152602001908152602001600020839080600181540180825580915050600190039060005260206000200160009091909190915055600a6000826001600160a01b03166001600160a01b03168152602001908152602001600020839080600181540180825580915050600190039060005260206000200160009091909190915055600b6000836001600160a01b03166001600160a01b03168152602001908152602001600020839080600181540180825580915050600190039060005260206000200160009091909190915055600260009054906101000a90046001600160a01b03166001600160a01b03166377b653ad858a846040518463ffffffff1660e01b815260040180838152602001826001600160a01b03166001600160a01b03168152602001925050506000604051808303818588803b158015610d9157600080fd5b505af1158015610da5573d6000803e3d6000fd5b5050505050610db2611738565b806001600160a01b0316876001600160a01b0316836001600160a01b03167fb294817116358af8525bb06e1cd0385810e188a0a0b3cb3a874ee35b04bf82848b8a604051808381526020018281526020019250505060405180910390a45050505050505050565b60076020526000908152604090208054600182015460028301546003840154600485015460059095015493946001600160a01b039384169492939182169290911686565b610e6861067f6115a9565b610eb0576040805162461bcd60e51b815260206004820152601460248201527321b0b63632b91036bab9ba1031329030b236b4b760611b604482015290519081900360640190fd5b600655565b60055481565b600b6020528160005260406000208181548110610ed457fe5b90600052602060002001600091509150505481565b60096020528260005260406000206020528160005260406000208181548110610f0e57fe5b9060005260206000200160009250925050505481565b6001600160a01b0382166000908152600960209081526040808320848452825291829020805483518184028101840190945280845260609392830182828015610f8c57602002820191906000526020600020905b815481526020019060010190808311610f78575b505050505090505b92915050565b600080610fc6600654610fba6005546004546117d890919063ffffffff16565b9063ffffffff61181a16565b600454909150610fdc908263ffffffff61187316565b91505090565b6002546001600160a01b031681565b6001600160a01b0381166000908152600a602090815260409182902080548351818402810184019094528084526060939283018282801561105157602002820191906000526020600020905b81548152602001906001019080831161103d575b50505050509050919050565b6001546001600160a01b031681565b61107761067f6115a9565b6110bf576040805162461bcd60e51b815260206004820152601460248201527321b0b63632b91036bab9ba1031329030b236b4b760611b604482015290519081900360640190fd5b600080546001600160a01b0319166001600160a01b0392909216919091179055565b60045481565b60006110f16112ab565b90506110fe61067f6115a9565b8061111b575061110f6106956115a9565b801561111b5750803410155b6111565760405162461bcd60e51b81526004018080602001828103825260558152602001806119fa6055913960600191505060405180910390fd5b6001546040805163ddca3f4360e01b815290516000926001600160a01b031691637e6d945e91839163ddca3f43916004808301926020929190829003018186803b1580156111a357600080fd5b505afa1580156111b7573d6000803e3d6000fd5b505050506040513d60208110156111cd57600080fd5b505189896111d96115a9565b6040516001600160e01b031960e087901b1681526001600160a01b0380831660248301528a166044820152606060048201908152606482018490528a918190608401868680828437600081840152601f19601f820116905080830192505050955050505050506020604051808303818588803b15801561125857600080fd5b505af115801561126c573d6000803e3d6000fd5b50505050506040513d602081101561128357600080fd5b5051905061129381868686610668565b50505050505050565b6000546001600160a01b031681565b600080600160009054906101000a90046001600160a01b03166001600160a01b031663ddca3f436040518163ffffffff1660e01b815260040160206040518083038186803b1580156112fc57600080fd5b505afa158015611310573d6000803e3d6000fd5b505050506040513d602081101561132657600080fd5b505190506000611334610f9a565b9050611346828263ffffffff6116d716565b9250505090565b61135861067f6115a9565b6113a0576040805162461bcd60e51b815260206004820152601460248201527321b0b63632b91036bab9ba1031329030b236b4b760611b604482015290519081900360640190fd5b600455565b6113b061067f6115a9565b6113f8576040805162461bcd60e51b815260206004820152601460248201527321b0b63632b91036bab9ba1031329030b236b4b760611b604482015290519081900360640190fd5b600280546001600160a01b0319166001600160a01b0392909216919091179055565b600a6020528160005260406000208181548110610ed457fe5b60065481565b600081815260086020908152604091829020805483518184028101840190945280845260609392830182828015611051576020028201919060005260206000209081548152602001906001019080831161103d5750505050509050919050565b6001600160a01b0381166000908152600b6020908152604091829020805483518184028101840190945280845260609392830182828015611051576020028201919060005260206000209081548152602001906001019080831161103d5750505050509050919050565b600080600080600080611514611974565b5050506000948552505060076020908152604093849020845160c081018652815480825260018301546001600160a01b039081169483018590526002840154978301889052600384015481166060840181905260048501546080850181905260059095015490911660a090930183905290979396955093509091565b60086020528160005260406000208181548110610ed457fe5b3390565b6000805460408051632474521560e21b8152600481018490526001600160a01b0385811660248301529151849392909216916391d1485491604480820192602092909190829003018186803b15801561160557600080fd5b505afa158015611619573d6000803e3d6000fd5b505050506040513d602081101561162f57600080fd5b50519392505050565b600080546040805168282aa12624a9a422a960b91b81528151908190036009018120632474521560e21b825260048201526001600160a01b038581166024830152915191909216916391d14854916044808301926020929190829003018186803b1580156116a557600080fd5b505afa1580156116b9573d6000803e3d6000fd5b505050506040513d60208110156116cf57600080fd5b505192915050565b600082820183811015611731576040805162461bcd60e51b815260206004820152601b60248201527f536166654d6174683a206164646974696f6e206f766572666c6f770000000000604482015290519081900360640190fd5b9392505050565b3060006117436115a9565b6040516001600160a01b039182169184163190600081818185875af1925050503d806000811461178f576040519150601f19603f3d011682016040523d82523d6000602084013e611794565b606091505b50509050806117d45760405162461bcd60e51b8152600401808060200182810382526030815260200180611a706030913960400191505060405180910390fd5b5050565b600061173183836040518060400160405280601a81526020017f536166654d6174683a206469766973696f6e206279207a65726f0000000000008152506118b5565b60008261182957506000610f94565b8282028284828161183657fe5b04146117315760405162461bcd60e51b8152600401808060200182810382526021815260200180611a4f6021913960400191505060405180910390fd5b600061173183836040518060400160405280601e81526020017f536166654d6174683a207375627472616374696f6e206f766572666c6f77000081525061191a565b600081836119045760405162461bcd60e51b81526020600482018181528351602484015283519092839260449091019190850190808383600083156109ff5781810151838201526020016109e7565b50600083858161191057fe5b0495945050505050565b6000818484111561196c5760405162461bcd60e51b81526020600482018181528351602484015283519092839260449091019190850190808383600083156109ff5781810151838201526020016109e7565b505050900390565b6040518060c001604052806000815260200160006001600160a01b031681526020016000815260200160006001600160a01b031681526020016000815260200160006001600160a01b03168152509056fe546f6b656e20646f6573206e6f74206578697374206f72206973206f776e656420627920746865207a65726f20616464726573734d696e7420616e64207461673a20596f75206d757374206569746865722062652061646d696e206f7220616e20617070726f766564207075626c697368657220746861742068617320706169642074686520666565536166654d6174683a206d756c7469706c69636174696f6e206f766572666c6f774661696c656420746f20726566756e64207468652072656d61696e696e672062616c616e636520746f2073656e6465725461673a20596f75206d757374206569746865722062652061646d696e206f7220616e20617070726f766564207075626c697368657220746861742068617320706169642074686520666565546865206861736874616720494420737570706c69656420697320696e76616c6964202d206e6f6e2d6578697374656e7420746f6b656e21496e76616c696420746167202d20796f752061726520617474656d7074696e6720746f2074616720616e6f746865722068617368746167a264697066735822122048f0ed9e55faf9615f4ecc8712607d971100dbe0a47f49bf8ce87b42d2ede05a64736f6c63430006040033",
  "source": "pragma solidity 0.6.4;\n\nimport \"@openzeppelin/contracts/math/SafeMath.sol\";\nimport \"@openzeppelin/contracts/token/ERC721/IERC721.sol\";\nimport \"@openzeppelin/contracts/GSN/Context.sol\";\nimport \"../HashtagLinkSplitter.sol\";\nimport \"../HashtagProtocol.sol\";\n\ncontract NFTTagger is Context {\n    using SafeMath for uint256;\n\n    HashtagAccessControls public accessControls;\n    HashtagProtocol public hashtagProtocol;\n    HashtagLinkSplitter public splitter;\n\n    uint256 public totalTags = 0;\n\n    uint256 public tagFee = 0.01 ether;\n\n    uint256 public modulo = 10000;\n    uint256 public mintAndTagDiscount = 0;\n\n    event NFTTagged(\n        address indexed _tagger,\n        address indexed _nftContract,\n        address indexed _publisher,\n        uint256 _hashtagId,\n        uint256 _nftId\n    );\n\n    struct Tag {\n        uint256 hashtagId;\n        address nftContract;\n        uint256 nftId;\n        address tagger;\n        uint256 tagstamp;\n        address publisher;\n    }\n\n    // tag id (will come from the totalTags pointer) -> tag\n    mapping(uint256 => Tag) public tagIdToTag;\n\n    // hashtag id -> list of tag ids (can use .length for count)\n    mapping(uint256 => uint256[]) public hashtagIdToListOfTagIds;\n\n    // nft contract -> nft id -> list of tag ids (can use .length for count)\n    mapping(address => mapping(uint256 => uint256[])) public nftToListOfTagIds;\n\n    // publisher -> list of tag ids tagged through publisher (can use .length for count)\n    mapping(address => uint256[]) public publisherToListOfTagIds;\n\n    // tagger -> list of tag ids tagged by tagger (can use .length for count)\n    mapping(address => uint256[]) public taggerToListOfTagIds;\n\n    modifier onlyAdmin() {\n        require(_isAdmin(_msgSender()), \"Caller must be admin\");\n        _;\n    }\n\n    constructor (HashtagAccessControls _accessControls, HashtagProtocol _hashtagProtocol, HashtagLinkSplitter _splitter) public {\n        accessControls = _accessControls;\n        hashtagProtocol = _hashtagProtocol;\n        splitter = _splitter;\n    }\n\n    function mintAndTag(string calldata hashtag, address _nftContract, uint256 _nftId, address _tagger) payable external {\n        uint256 mintAndTagFee = calculateMintAndTagFee();\n        require(_isAdmin(_msgSender()) || (_isPublisher(_msgSender()) && msg.value >= mintAndTagFee), \"Mint and tag: You must either be admin or an approved publisher that has paid the fee\");\n\n        uint256 hashtagId = hashtagProtocol.mint{value: hashtagProtocol.fee()}(hashtag, _msgSender(), _tagger);\n        tag(hashtagId, _nftContract, _nftId, _tagger);\n    }\n\n    function tag(uint256 _hashtagId, address _nftContract, uint256 _nftId, address _tagger) payable public {\n        uint256 tagFeeAfterDiscount = calculateTagFeeAfterDiscount();\n        require(_isAdmin(_msgSender()) || (_isPublisher(_msgSender()) && msg.value >= tagFeeAfterDiscount), \"Tag: You must either be admin or an approved publisher that has paid the fee\");\n        require(hashtagProtocol.exists(_hashtagId), \"The hashtag ID supplied is invalid - non-existent token!\");\n        require(_nftContract != address(0), \"Invalid nft contract address\");\n        require(_nftContract != address(hashtagProtocol), \"Invalid tag - you are attempting to tag another hashtag\");\n        require(_tagger != address(0), \"Invalid tagger\");\n\n        // NFT existence checks\n        try IERC721(_nftContract).ownerOf(_nftId) returns (address owner) {\n            require(owner != address(0), \"Token does not exist or is owned by the zero address\");\n        } catch Error(string memory reason) {\n            require(false, reason);\n        } catch {\n            require(false, \"Token does not exist\");\n        }\n\n        totalTags = totalTags.add(1);\n        uint256 tagId = totalTags;\n\n        address tagger = _tagger;\n        address publisher = _msgSender();\n\n        tagIdToTag[tagId] = Tag({\n            hashtagId: _hashtagId,\n            nftContract: _nftContract,\n            nftId: _nftId,\n            tagger: tagger,\n            tagstamp: now,\n            publisher: publisher\n        });\n\n        hashtagIdToListOfTagIds[_hashtagId].push(tagId);\n        nftToListOfTagIds[_nftContract][_nftId].push(tagId);\n        publisherToListOfTagIds[publisher].push(tagId);\n        taggerToListOfTagIds[tagger].push(tagId);\n\n        splitter.handlePayment{value: tagFeeAfterDiscount}(_hashtagId, publisher);\n\n        _refundRemainingBalance();\n\n        emit NFTTagged(tagger, _nftContract, publisher, _hashtagId, _nftId);\n    }\n\n    function getTagInfo(uint256 _tagId) external view returns (\n        uint256 _hashtagId,\n        address _nftContract,\n        uint256 _nftId,\n        address _tagger,\n        uint256 _tagstamp,\n        address _publisher\n    ) {\n        Tag memory tagInfo = tagIdToTag[_tagId];\n        return (\n            tagInfo.hashtagId,\n            tagInfo.nftContract,\n            tagInfo.nftId,\n            tagInfo.tagger,\n            tagInfo.tagstamp,\n            tagInfo.publisher\n        );\n    }\n\n    function getAllTagIdsForAGivenHashtag(uint256 _hashtagId) external view returns (uint256[] memory) {\n        return hashtagIdToListOfTagIds[_hashtagId];\n    }\n\n    function getAllTagIdsForAGivenNft(address _nftContract, uint256 _nftId) external view returns (uint256[] memory) {\n        return nftToListOfTagIds[_nftContract][_nftId];\n    }\n\n    function getAllTagIdsForAGivenPublisher(address _publisher) external view returns (uint256[] memory) {\n        return publisherToListOfTagIds[_publisher];\n    }\n\n    function getAllTagIdsForAGivenTagger(address _tagger) external view returns (uint256[] memory) {\n        return taggerToListOfTagIds[_tagger];\n    }\n\n    function setTagFee(uint256 _fee) onlyAdmin external {\n        tagFee = _fee;\n    }\n\n    function setMintAndTagDiscount(uint256 _mintAndTagDiscount) onlyAdmin external {\n        mintAndTagDiscount = _mintAndTagDiscount;\n    }\n\n    function calculateTagFeeAfterDiscount() public view returns (uint256) {\n        uint256 tagFeeDiscount = tagFee.div(modulo).mul(mintAndTagDiscount);\n        return tagFee.sub(tagFeeDiscount);\n    }\n\n    function calculateMintAndTagFee() public view returns (uint256) {\n        uint256 protocolFee = hashtagProtocol.fee();\n        uint256 finalTagFee = calculateTagFeeAfterDiscount();\n        return protocolFee.add(finalTagFee);\n    }\n\n    function updateSplitter(HashtagLinkSplitter _splitter) onlyAdmin external {\n        splitter = _splitter;\n    }\n\n    function updateAccessControls(HashtagAccessControls _accessControls) onlyAdmin external {\n        accessControls = _accessControls;\n    }\n\n    function _refundRemainingBalance() private {\n        address payable self = payable(address(this));\n        (bool refundSuccess, ) = _msgSender().call{value: self.balance}(\"\");\n        require(refundSuccess, \"Failed to refund the remaining balance to sender\");\n    }\n\n    // Checks whether an address has an admin role\n    function _isAdmin(address addr) private view returns (bool) {\n        bytes32 adminRole = 0x00;\n        return accessControls.hasRole(adminRole, addr);\n    }\n\n    // Checks whether an address has a publisher role\n    function _isPublisher(address addr) private view returns (bool) {\n        return accessControls.hasRole(keccak256(\"PUBLISHER\"), addr);\n    }\n}",
  "sourcePath": "/Users/Natalie/Projects/hashtag-contracts/contracts/taggers/NFTTagger.sol",
  "compiler": {
    "name": "solc",
    "version": "0.6.4+commit.1dca32f3.Emscripten.clang"
  },
  "schemaVersion": "3.0.23",
  "updatedAt": "2020-03-31T09:31:51.960Z",
  "networkType": "ethereum",
  "devdoc": {
    "methods": {}
  },
  "userdoc": {
    "methods": {}
  }
}