{
  "contractName": "NFTTagger",
  "abi": [
    {
      "inputs": [
        {
          "internalType": "contract HashtagAccessControls",
          "name": "_accessControls",
          "type": "address"
        },
        {
          "internalType": "contract HashtagProtocol",
          "name": "_hashtagProtocol",
          "type": "address"
        },
        {
          "internalType": "contract HashtagLinkSplitter",
          "name": "_splitter",
          "type": "address"
        }
      ],
      "stateMutability": "nonpayable",
      "type": "constructor"
    },
    {
      "anonymous": false,
      "inputs": [
        {
          "indexed": true,
          "internalType": "address",
          "name": "_tagger",
          "type": "address"
        },
        {
          "indexed": true,
          "internalType": "address",
          "name": "_nftContract",
          "type": "address"
        },
        {
          "indexed": true,
          "internalType": "address",
          "name": "_publisher",
          "type": "address"
        },
        {
          "indexed": false,
          "internalType": "uint256",
          "name": "_hashtagId",
          "type": "uint256"
        },
        {
          "indexed": false,
          "internalType": "uint256",
          "name": "_nftId",
          "type": "uint256"
        }
      ],
      "name": "NFTTagged",
      "type": "event"
    },
    {
      "inputs": [],
      "name": "accessControls",
      "outputs": [
        {
          "internalType": "contract HashtagAccessControls",
          "name": "",
          "type": "address"
        }
      ],
      "stateMutability": "view",
      "type": "function",
      "constant": true
    },
    {
      "inputs": [
        {
          "internalType": "uint256",
          "name": "",
          "type": "uint256"
        },
        {
          "internalType": "uint256",
          "name": "",
          "type": "uint256"
        }
      ],
      "name": "hashtagIdToListOfTagIds",
      "outputs": [
        {
          "internalType": "uint256",
          "name": "",
          "type": "uint256"
        }
      ],
      "stateMutability": "view",
      "type": "function",
      "constant": true
    },
    {
      "inputs": [],
      "name": "hashtagProtocol",
      "outputs": [
        {
          "internalType": "contract HashtagProtocol",
          "name": "",
          "type": "address"
        }
      ],
      "stateMutability": "view",
      "type": "function",
      "constant": true
    },
    {
      "inputs": [],
      "name": "mintAndTagDiscount",
      "outputs": [
        {
          "internalType": "uint256",
          "name": "",
          "type": "uint256"
        }
      ],
      "stateMutability": "view",
      "type": "function",
      "constant": true
    },
    {
      "inputs": [],
      "name": "modulo",
      "outputs": [
        {
          "internalType": "uint256",
          "name": "",
          "type": "uint256"
        }
      ],
      "stateMutability": "view",
      "type": "function",
      "constant": true
    },
    {
      "inputs": [
        {
          "internalType": "address",
          "name": "",
          "type": "address"
        },
        {
          "internalType": "uint256",
          "name": "",
          "type": "uint256"
        },
        {
          "internalType": "uint256",
          "name": "",
          "type": "uint256"
        }
      ],
      "name": "nftToListOfTagIds",
      "outputs": [
        {
          "internalType": "uint256",
          "name": "",
          "type": "uint256"
        }
      ],
      "stateMutability": "view",
      "type": "function",
      "constant": true
    },
    {
      "inputs": [
        {
          "internalType": "address",
          "name": "",
          "type": "address"
        },
        {
          "internalType": "uint256",
          "name": "",
          "type": "uint256"
        }
      ],
      "name": "publisherToListOfTagIds",
      "outputs": [
        {
          "internalType": "uint256",
          "name": "",
          "type": "uint256"
        }
      ],
      "stateMutability": "view",
      "type": "function",
      "constant": true
    },
    {
      "inputs": [],
      "name": "splitter",
      "outputs": [
        {
          "internalType": "contract HashtagLinkSplitter",
          "name": "",
          "type": "address"
        }
      ],
      "stateMutability": "view",
      "type": "function",
      "constant": true
    },
    {
      "inputs": [],
      "name": "tagFee",
      "outputs": [
        {
          "internalType": "uint256",
          "name": "",
          "type": "uint256"
        }
      ],
      "stateMutability": "view",
      "type": "function",
      "constant": true
    },
    {
      "inputs": [
        {
          "internalType": "uint256",
          "name": "",
          "type": "uint256"
        }
      ],
      "name": "tagIdToTag",
      "outputs": [
        {
          "internalType": "uint256",
          "name": "hashtagId",
          "type": "uint256"
        },
        {
          "internalType": "address",
          "name": "nftContract",
          "type": "address"
        },
        {
          "internalType": "uint256",
          "name": "nftId",
          "type": "uint256"
        },
        {
          "internalType": "address",
          "name": "tagger",
          "type": "address"
        },
        {
          "internalType": "uint256",
          "name": "tagstamp",
          "type": "uint256"
        },
        {
          "internalType": "address",
          "name": "publisher",
          "type": "address"
        }
      ],
      "stateMutability": "view",
      "type": "function",
      "constant": true
    },
    {
      "inputs": [
        {
          "internalType": "address",
          "name": "",
          "type": "address"
        },
        {
          "internalType": "uint256",
          "name": "",
          "type": "uint256"
        }
      ],
      "name": "taggerToListOfTagIds",
      "outputs": [
        {
          "internalType": "uint256",
          "name": "",
          "type": "uint256"
        }
      ],
      "stateMutability": "view",
      "type": "function",
      "constant": true
    },
    {
      "inputs": [],
      "name": "totalTags",
      "outputs": [
        {
          "internalType": "uint256",
          "name": "",
          "type": "uint256"
        }
      ],
      "stateMutability": "view",
      "type": "function",
      "constant": true
    },
    {
      "inputs": [
        {
          "internalType": "string",
          "name": "_hashtag",
          "type": "string"
        },
        {
          "internalType": "address",
          "name": "_nftContract",
          "type": "address"
        },
        {
          "internalType": "uint256",
          "name": "_nftId",
          "type": "uint256"
        },
        {
          "internalType": "address",
          "name": "_tagger",
          "type": "address"
        }
      ],
      "name": "mintAndTag",
      "outputs": [],
      "stateMutability": "payable",
      "type": "function",
      "payable": true
    },
    {
      "inputs": [
        {
          "internalType": "uint256",
          "name": "_hashtagId",
          "type": "uint256"
        },
        {
          "internalType": "address",
          "name": "_nftContract",
          "type": "address"
        },
        {
          "internalType": "uint256",
          "name": "_nftId",
          "type": "uint256"
        },
        {
          "internalType": "address",
          "name": "_tagger",
          "type": "address"
        }
      ],
      "name": "tag",
      "outputs": [],
      "stateMutability": "payable",
      "type": "function",
      "payable": true
    },
    {
      "inputs": [
        {
          "internalType": "uint256",
          "name": "_tagId",
          "type": "uint256"
        }
      ],
      "name": "getTagInfo",
      "outputs": [
        {
          "internalType": "uint256",
          "name": "_hashtagId",
          "type": "uint256"
        },
        {
          "internalType": "address",
          "name": "_nftContract",
          "type": "address"
        },
        {
          "internalType": "uint256",
          "name": "_nftId",
          "type": "uint256"
        },
        {
          "internalType": "address",
          "name": "_tagger",
          "type": "address"
        },
        {
          "internalType": "uint256",
          "name": "_tagstamp",
          "type": "uint256"
        },
        {
          "internalType": "address",
          "name": "_publisher",
          "type": "address"
        }
      ],
      "stateMutability": "view",
      "type": "function",
      "constant": true
    },
    {
      "inputs": [
        {
          "internalType": "uint256",
          "name": "_hashtagId",
          "type": "uint256"
        }
      ],
      "name": "getAllTagIdsForAGivenHashtag",
      "outputs": [
        {
          "internalType": "uint256[]",
          "name": "",
          "type": "uint256[]"
        }
      ],
      "stateMutability": "view",
      "type": "function",
      "constant": true
    },
    {
      "inputs": [
        {
          "internalType": "address",
          "name": "_nftContract",
          "type": "address"
        },
        {
          "internalType": "uint256",
          "name": "_nftId",
          "type": "uint256"
        }
      ],
      "name": "getAllTagIdsForAGivenNft",
      "outputs": [
        {
          "internalType": "uint256[]",
          "name": "",
          "type": "uint256[]"
        }
      ],
      "stateMutability": "view",
      "type": "function",
      "constant": true
    },
    {
      "inputs": [
        {
          "internalType": "address",
          "name": "_publisher",
          "type": "address"
        }
      ],
      "name": "getAllTagIdsForAGivenPublisher",
      "outputs": [
        {
          "internalType": "uint256[]",
          "name": "",
          "type": "uint256[]"
        }
      ],
      "stateMutability": "view",
      "type": "function",
      "constant": true
    },
    {
      "inputs": [
        {
          "internalType": "address",
          "name": "_tagger",
          "type": "address"
        }
      ],
      "name": "getAllTagIdsForAGivenTagger",
      "outputs": [
        {
          "internalType": "uint256[]",
          "name": "",
          "type": "uint256[]"
        }
      ],
      "stateMutability": "view",
      "type": "function",
      "constant": true
    },
    {
      "inputs": [
        {
          "internalType": "uint256",
          "name": "_fee",
          "type": "uint256"
        }
      ],
      "name": "setTagFee",
      "outputs": [],
      "stateMutability": "nonpayable",
      "type": "function"
    },
    {
      "inputs": [
        {
          "internalType": "uint256",
          "name": "_mintAndTagDiscount",
          "type": "uint256"
        }
      ],
      "name": "setMintAndTagDiscount",
      "outputs": [],
      "stateMutability": "nonpayable",
      "type": "function"
    },
    {
      "inputs": [],
      "name": "calculateTagFeeAfterDiscount",
      "outputs": [
        {
          "internalType": "uint256",
          "name": "",
          "type": "uint256"
        }
      ],
      "stateMutability": "view",
      "type": "function",
      "constant": true
    },
    {
      "inputs": [],
      "name": "calculateMintAndTagFee",
      "outputs": [
        {
          "internalType": "uint256",
          "name": "",
          "type": "uint256"
        }
      ],
      "stateMutability": "view",
      "type": "function",
      "constant": true
    },
    {
      "inputs": [
        {
          "internalType": "contract HashtagLinkSplitter",
          "name": "_splitter",
          "type": "address"
        }
      ],
      "name": "updateSplitter",
      "outputs": [],
      "stateMutability": "nonpayable",
      "type": "function"
    },
    {
      "inputs": [
        {
          "internalType": "contract HashtagAccessControls",
          "name": "_accessControls",
          "type": "address"
        }
      ],
      "name": "updateAccessControls",
      "outputs": [],
      "stateMutability": "nonpayable",
      "type": "function"
    }
  ],
  "bytecode": "0x60806040526000600355662386f26fc10000600455612710600555600060065534801561002b57600080fd5b50604051611fc2380380611fc28339818101604052606081101561004e57600080fd5b5080516020820151604090920151600080546001600160a01b039384166001600160a01b0319918216179091556001805494841694821694909417909355600280549290911691909216179055611f18806100aa6000396000f3fe6080604052600436106101655760003560e01c80636ef3da94116100d1578063a8eb6d8e1161008a578063ccd8cedd11610064578063ccd8cedd146105ab578063cd75afce146105d5578063d5cb95ea14610608578063fd7a2d3d1461063257610165565b8063a8eb6d8e1461052a578063b0c315ee1461055d578063bf6a94fc1461059657610165565b80636ef3da9414610405578063716a5b491461043857806373b4818e1461044d578063748365ef146104d657806383c06c98146104eb578063a1b3c1841461050057610165565b806334db79821161012357806334db7982146102af57806338d3b069146102ee5780633cb1f26a146103775780633cd8045e1461038c5780635210b781146103bd578063648afdee146103f057610165565b8062e9236f1461016a578063014872db1461019157806311167ae0146101cf5780631d9e6a3f1461023757806329745262146102615780632ae1bd0e14610276575b600080fd5b34801561017657600080fd5b5061017f610662565b60408051918252519081900360200190f35b6101cd600480360360808110156101a757600080fd5b508035906001600160a01b03602082013581169160408101359160609091013516610668565b005b3480156101db57600080fd5b506101f9600480360360208110156101f257600080fd5b503561102c565b604080519687526001600160a01b039586166020880152868101949094529184166060860152608085015290911660a0830152519081900360c00190f35b34801561024357600080fd5b506101cd6004803603602081101561025a57600080fd5b5035611070565b34801561026d57600080fd5b5061017f6110c8565b34801561028257600080fd5b5061017f6004803603604081101561029957600080fd5b506001600160a01b0381351690602001356110ce565b3480156102bb57600080fd5b5061017f600480360360608110156102d257600080fd5b506001600160a01b0381351690602081013590604001356110fc565b3480156102fa57600080fd5b506103276004803603604081101561031157600080fd5b506001600160a01b038135169060200135611137565b60408051602080825283518183015283519192839290830191858101910280838360005b8381101561036357818101518382015260200161034b565b505050509050019250505060405180910390f35b34801561038357600080fd5b5061017f6111ad565b34801561039857600080fd5b506103a16111f5565b604080516001600160a01b039092168252519081900360200190f35b3480156103c957600080fd5b50610327600480360360208110156103e057600080fd5b50356001600160a01b0316611204565b3480156103fc57600080fd5b506103a1611270565b34801561041157600080fd5b506101cd6004803603602081101561042857600080fd5b50356001600160a01b031661127f565b34801561044457600080fd5b5061017f6112f4565b6101cd6004803603608081101561046357600080fd5b81019060208101813564010000000081111561047e57600080fd5b82018360208201111561049057600080fd5b803590602001918460018302840111640100000000831117156104b257600080fd5b91935091506001600160a01b038135811691602081013591604090910135166112fa565b3480156104e257600080fd5b506103a16114af565b3480156104f757600080fd5b5061017f6114be565b34801561050c57600080fd5b506101cd6004803603602081101561052357600080fd5b5035611560565b34801561053657600080fd5b506101cd6004803603602081101561054d57600080fd5b50356001600160a01b03166115b8565b34801561056957600080fd5b5061017f6004803603604081101561058057600080fd5b506001600160a01b03813516906020013561162d565b3480156105a257600080fd5b5061017f611646565b3480156105b757600080fd5b50610327600480360360208110156105ce57600080fd5b503561164c565b3480156105e157600080fd5b50610327600480360360208110156105f857600080fd5b50356001600160a01b03166116ac565b34801561061457600080fd5b506101f96004803603602081101561062b57600080fd5b5035611716565b34801561063e57600080fd5b5061017f6004803603604081101561065557600080fd5b50803590602001356117a3565b60035481565b60006106726111ad565b905061068461067f6117bc565b6117c0565b806106a6575061069a6106956117bc565b61184b565b80156106a65750803410155b6106e15760405162461bcd60e51b815260040180806020018281038252604c815260200180611e28604c913960600191505060405180910390fd5b60015460408051634f558e7960e01b81526004810188905290516001600160a01b0390921691634f558e7991602480820192602092909190829003018186803b15801561072d57600080fd5b505afa158015610741573d6000803e3d6000fd5b505050506040513d602081101561075757600080fd5b50516107945760405162461bcd60e51b8152600401808060200182810382526038815260200180611e746038913960400191505060405180910390fd5b6001600160a01b0384166107ef576040805162461bcd60e51b815260206004820152601c60248201527f496e76616c6964206e667420636f6e7472616374206164647265737300000000604482015290519081900360640190fd5b6001546001600160a01b038581169116141561083c5760405162461bcd60e51b8152600401808060200182810382526037815260200180611eac6037913960400191505060405180910390fd5b6108478585856118ea565b610898576040805162461bcd60e51b815260206004820152601b60248201527f4e46542068617320616c7265616479206265656e207461676765640000000000604482015290519081900360640190fd5b6001600160a01b0382166108e4576040805162461bcd60e51b815260206004820152600e60248201526d24b73b30b634b2103a30b3b3b2b960911b604482015290519081900360640190fd5b604080516301ffc9a760e01b8152635b5e139f60e01b600482015290516001600160a01b038616916301ffc9a7916024808301926020929190829003018186803b15801561093157600080fd5b505afa92505050801561095657506040513d602081101561095157600080fd5b505160015b610ae3576040516000815260443d101561097257506000610a0f565b60046000803e60005160e01c6308c379a08114610993576000915050610a0f565b60043d036004833e81513d602482011167ffffffffffffffff821117156109bf57600092505050610a0f565b808301805167ffffffffffffffff8111156109e1576000945050505050610a0f565b8060208301013d86018111156109ff57600095505050505050610a0f565b601f01601f191660405250925050505b80610a1a5750610a9f565b8060405162461bcd60e51b81526004018080602001828103825283818151815260200191508051906020019080838360005b83811015610a64578181015183820152602001610a4c565b50505050905090810190601f168015610a915780820380516001836020036101000a031916815260200191505b509250505060405180910390fd5b6040805162461bcd60e51b8152602060048201526014602482015273125b9d985b1a59081391950818dbdb9d1c9858dd60621b604482015290519081900360640190fd5b600181151514610b245760405162461bcd60e51b8152600401808060200182810382526030815260200180611df86030913960400191505060405180910390fd5b50836001600160a01b0316636352211e846040518263ffffffff1660e01b81526004018082815260200191505060206040518083038186803b158015610b6957600080fd5b505afa925050508015610b8e57506040513d6020811015610b8957600080fd5b505160015b610c91576040516000815260443d1015610baa57506000610c47565b60046000803e60005160e01c6308c379a08114610bcb576000915050610c47565b60043d036004833e81513d602482011167ffffffffffffffff82111715610bf757600092505050610c47565b808301805167ffffffffffffffff811115610c19576000945050505050610c47565b8060208301013d8601811115610c3757600095505050505050610c47565b601f01601f191660405250925050505b80610a1a57506040805162461bcd60e51b8152602060048201526014602482015273151bdad95b88191bd95cc81b9bdd08195e1a5cdd60621b604482015290519081900360640190fd5b6001600160a01b038116610cd65760405162461bcd60e51b8152600401808060200182810382526034815260200180611d1e6034913960400191505060405180910390fd5b50600354610ceb90600163ffffffff611a2f16565b6003819055826000610cfb6117bc565b90506040518060c00160405280898152602001886001600160a01b03168152602001878152602001836001600160a01b03168152602001428152602001826001600160a01b0316815250600760008581526020019081526020016000206000820151816000015560208201518160010160006101000a8154816001600160a01b0302191690836001600160a01b031602179055506040820151816002015560608201518160030160006101000a8154816001600160a01b0302191690836001600160a01b031602179055506080820151816004015560a08201518160050160006101000a8154816001600160a01b0302191690836001600160a01b031602179055509050506008600089815260200190815260200160002083908060018154018082558091505060019003906000526020600020016000909190919091505560096000886001600160a01b03166001600160a01b031681526020019081526020016000206000878152602001908152602001600020839080600181540180825580915050600190039060005260206000200160009091909190915055600a6000826001600160a01b03166001600160a01b03168152602001908152602001600020839080600181540180825580915050600190039060005260206000200160009091909190915055600b6000836001600160a01b03166001600160a01b03168152602001908152602001600020839080600181540180825580915050600190039060005260206000200160009091909190915055600260009054906101000a90046001600160a01b03166001600160a01b03166377b653ad858a846040518463ffffffff1660e01b815260040180838152602001826001600160a01b03166001600160a01b03168152602001925050506000604051808303818588803b158015610fa457600080fd5b505af1158015610fb8573d6000803e3d6000fd5b5050505050610fc5611a90565b806001600160a01b0316876001600160a01b0316836001600160a01b03167fb294817116358af8525bb06e1cd0385810e188a0a0b3cb3a874ee35b04bf82848b8a604051808381526020018281526020019250505060405180910390a45050505050505050565b60076020526000908152604090208054600182015460028301546003840154600485015460059095015493946001600160a01b039384169492939182169290911686565b61107b61067f6117bc565b6110c3576040805162461bcd60e51b815260206004820152601460248201527321b0b63632b91036bab9ba1031329030b236b4b760611b604482015290519081900360640190fd5b600655565b60055481565b600b60205281600052604060002081815481106110e757fe5b90600052602060002001600091509150505481565b6009602052826000526040600020602052816000526040600020818154811061112157fe5b9060005260206000200160009250925050505481565b6001600160a01b038216600090815260096020908152604080832084845282529182902080548351818402810184019094528084526060939283018282801561119f57602002820191906000526020600020905b81548152602001906001019080831161118b575b505050505090505b92915050565b6000806111d96006546111cd600554600454611b3090919063ffffffff16565b9063ffffffff611b7216565b6004549091506111ef908263ffffffff611bcb16565b91505090565b6002546001600160a01b031681565b6001600160a01b0381166000908152600a602090815260409182902080548351818402810184019094528084526060939283018282801561126457602002820191906000526020600020905b815481526020019060010190808311611250575b50505050509050919050565b6001546001600160a01b031681565b61128a61067f6117bc565b6112d2576040805162461bcd60e51b815260206004820152601460248201527321b0b63632b91036bab9ba1031329030b236b4b760611b604482015290519081900360640190fd5b600080546001600160a01b0319166001600160a01b0392909216919091179055565b60045481565b60006113046114be565b905061131161067f6117bc565b8061132e57506113226106956117bc565b801561132e5750803410155b6113695760405162461bcd60e51b8152600401808060200182810382526055815260200180611d526055913960600191505060405180910390fd5b6001546040805163ddca3f4360e01b815290516000926001600160a01b031691637e6d945e91839163ddca3f43916004808301926020929190829003018186803b1580156113b657600080fd5b505afa1580156113ca573d6000803e3d6000fd5b505050506040513d60208110156113e057600080fd5b505189896113ec6117bc565b6040516001600160e01b031960e087901b1681526001600160a01b0380831660248301528a166044820152606060048201908152606482018490528a918190608401868680828437600081840152601f19601f820116905080830192505050955050505050506020604051808303818588803b15801561146b57600080fd5b505af115801561147f573d6000803e3d6000fd5b50505050506040513d602081101561149657600080fd5b505190506114a681868686610668565b50505050505050565b6000546001600160a01b031681565b600080600160009054906101000a90046001600160a01b03166001600160a01b031663ddca3f436040518163ffffffff1660e01b815260040160206040518083038186803b15801561150f57600080fd5b505afa158015611523573d6000803e3d6000fd5b505050506040513d602081101561153957600080fd5b5051905060006115476111ad565b9050611559828263ffffffff611a2f16565b9250505090565b61156b61067f6117bc565b6115b3576040805162461bcd60e51b815260206004820152601460248201527321b0b63632b91036bab9ba1031329030b236b4b760611b604482015290519081900360640190fd5b600455565b6115c361067f6117bc565b61160b576040805162461bcd60e51b815260206004820152601460248201527321b0b63632b91036bab9ba1031329030b236b4b760611b604482015290519081900360640190fd5b600280546001600160a01b0319166001600160a01b0392909216919091179055565b600a60205281600052604060002081815481106110e757fe5b60065481565b60008181526008602090815260409182902080548351818402810184019094528084526060939283018282801561126457602002820191906000526020600020908154815260200190600101908083116112505750505050509050919050565b6001600160a01b0381166000908152600b602090815260409182902080548351818402810184019094528084526060939283018282801561126457602002820191906000526020600020908154815260200190600101908083116112505750505050509050919050565b600080600080600080611727611ccc565b5050506000948552505060076020908152604093849020845160c081018652815480825260018301546001600160a01b039081169483018590526002840154978301889052600384015481166060840181905260048501546080850181905260059095015490911660a090930183905290979396955093509091565b600860205281600052604060002081815481106110e757fe5b3390565b6000805460408051632474521560e21b8152600481018490526001600160a01b0385811660248301529151849392909216916391d1485491604480820192602092909190829003018186803b15801561181857600080fd5b505afa15801561182c573d6000803e3d6000fd5b505050506040513d602081101561184257600080fd5b50519392505050565b600080546040805168282aa12624a9a422a960b91b81528151908190036009018120632474521560e21b825260048201526001600160a01b038581166024830152915191909216916391d14854916044808301926020929190829003018186803b1580156118b857600080fd5b505afa1580156118cc573d6000803e3d6000fd5b505050506040513d60208110156118e257600080fd5b505192915050565b6001600160a01b03821660009081526009602090815260408083208484528252808320805482518185028101850190935280835260609383018282801561195057602002820191906000526020600020905b81548152602001906001019080831161193c575b50939450600193506000925050505b8251811015611a2557600083828151811061197657fe5b60200260200101519050611988611ccc565b50600081815260076020908152604091829020825160c0810184528154815260018201546001600160a01b0390811693820184905260028301549482019490945260038201548416606082015260048201546080820152600590910154831660a08201529189161480156119ff5750868160400151145b8015611a0b5750805189145b15611a1b57600093505050611a25565b505060010161195f565b5095945050505050565b600082820183811015611a89576040805162461bcd60e51b815260206004820152601b60248201527f536166654d6174683a206164646974696f6e206f766572666c6f770000000000604482015290519081900360640190fd5b9392505050565b306000611a9b6117bc565b6040516001600160a01b039182169184163190600081818185875af1925050503d8060008114611ae7576040519150601f19603f3d011682016040523d82523d6000602084013e611aec565b606091505b5050905080611b2c5760405162461bcd60e51b8152600401808060200182810382526030815260200180611dc86030913960400191505060405180910390fd5b5050565b6000611a8983836040518060400160405280601a81526020017f536166654d6174683a206469766973696f6e206279207a65726f000000000000815250611c0d565b600082611b81575060006111a7565b82820282848281611b8e57fe5b0414611a895760405162461bcd60e51b8152600401808060200182810382526021815260200180611da76021913960400191505060405180910390fd5b6000611a8983836040518060400160405280601e81526020017f536166654d6174683a207375627472616374696f6e206f766572666c6f770000815250611c72565b60008183611c5c5760405162461bcd60e51b8152602060048201818152835160248401528351909283926044909101919085019080838360008315610a64578181015183820152602001610a4c565b506000838581611c6857fe5b0495945050505050565b60008184841115611cc45760405162461bcd60e51b8152602060048201818152835160248401528351909283926044909101919085019080838360008315610a64578181015183820152602001610a4c565b505050900390565b6040518060c001604052806000815260200160006001600160a01b031681526020016000815260200160006001600160a01b031681526020016000815260200160006001600160a01b03168152509056fe546f6b656e20646f6573206e6f74206578697374206f72206973206f776e656420627920746865207a65726f20616464726573734d696e7420616e64207461673a20596f75206d757374206569746865722062652061646d696e206f7220616e20617070726f766564207075626c697368657220746861742068617320706169642074686520666565536166654d6174683a206d756c7469706c69636174696f6e206f766572666c6f774661696c656420746f20726566756e64207468652072656d61696e696e672062616c616e636520746f2073656e646572436f6e747261637420646f6573206e6f7420696d706c656d656e74207468652045524337323120696e746572666163655461673a20596f75206d757374206569746865722062652061646d696e206f7220616e20617070726f766564207075626c697368657220746861742068617320706169642074686520666565546865206861736874616720494420737570706c69656420697320696e76616c6964202d206e6f6e2d6578697374656e7420746f6b656e21496e76616c696420746167202d20796f752061726520617474656d7074696e6720746f2074616720616e6f746865722068617368746167a2646970667358221220e56ddfd842a5977b1ee0ba31f09bb4d6a58a179e17bf4900b2c5eb986f6bee3b64736f6c63430006040033",
  "source": "pragma solidity 0.6.4;\n\nimport \"@openzeppelin/contracts/math/SafeMath.sol\";\nimport \"@openzeppelin/contracts/token/ERC721/IERC721.sol\";\nimport \"@openzeppelin/contracts/GSN/Context.sol\";\nimport \"../HashtagLinkSplitter.sol\";\nimport \"../HashtagProtocol.sol\";\n\n/**\n * @title NFTTagger\n * @notice Contract that allows any ERC721 asset to be tagged by a hashtag within the Hashtag protocol\n * @author Hashtag Protocol\n*/\ncontract NFTTagger is Context {\n    using SafeMath for uint256;\n\n    HashtagAccessControls public accessControls;\n    HashtagProtocol public hashtagProtocol;\n    HashtagLinkSplitter public splitter;\n\n    uint256 public totalTags = 0;\n\n    uint256 public tagFee = 0.01 ether;\n\n    uint256 public modulo = 10000;\n    uint256 public mintAndTagDiscount = 0;\n\n    // Used to log that an NFT has been tagged\n    event NFTTagged(\n        address indexed _tagger,\n        address indexed _nftContract,\n        address indexed _publisher,\n        uint256 _hashtagId,\n        uint256 _nftId\n    );\n\n    // Stores important information about a tagging event\n    struct Tag {\n        uint256 hashtagId;\n        address nftContract;\n        uint256 nftId;\n        address tagger;\n        uint256 tagstamp;\n        address publisher;\n    }\n\n    // tag id (will come from the totalTags pointer) -> tag\n    mapping(uint256 => Tag) public tagIdToTag;\n\n    // hashtag id -> list of tag ids (can use .length for count)\n    mapping(uint256 => uint256[]) public hashtagIdToListOfTagIds;\n\n    // nft contract -> nft id -> list of tag ids (can use .length for count)\n    mapping(address => mapping(uint256 => uint256[])) public nftToListOfTagIds;\n\n    // publisher -> list of tag ids tagged through publisher (can use .length for count)\n    mapping(address => uint256[]) public publisherToListOfTagIds;\n\n    // tagger -> list of tag ids tagged by tagger (can use .length for count)\n    mapping(address => uint256[]) public taggerToListOfTagIds;\n\n    bytes4 private constant _INTERFACE_ID_ERC721 = 0x5b5e139f;\n\n    /**\n     * @notice Admin only execution guard\n     * @dev When applied to a method, only allows execution when the sender has the admin role\n    */\n    modifier onlyAdmin() {\n        require(_isAdmin(_msgSender()), \"Caller must be admin\");\n        _;\n    }\n\n    constructor (HashtagAccessControls _accessControls, HashtagProtocol _hashtagProtocol, HashtagLinkSplitter _splitter) public {\n        accessControls = _accessControls;\n        hashtagProtocol = _hashtagProtocol;\n        splitter = _splitter;\n    }\n\n    /**\n     * @notice Combines the action of creating a new hashtag and then tagging an NFT asset with this new tag.\n     * @dev Only a whitelisted publisher can execute this with the required fee unless the caller / sender has admin privileges.\n     * @param _hashtag string value of the hashtag to be minted\n     * @param _nftContract address of nft contract\n     * @param _nftId ID of the nft to link from the above nft contract\n     * @param _tagger the ethereum account that made the original tagging request\n    */\n    function mintAndTag(string calldata _hashtag, address _nftContract, uint256 _nftId, address _tagger) payable external {\n        uint256 mintAndTagFee = calculateMintAndTagFee();\n        require(_isAdmin(_msgSender()) || (_isPublisher(_msgSender()) && msg.value >= mintAndTagFee), \"Mint and tag: You must either be admin or an approved publisher that has paid the fee\");\n\n        uint256 hashtagId = hashtagProtocol.mint{value: hashtagProtocol.fee()}(_hashtag, _msgSender(), _tagger);\n        tag(hashtagId, _nftContract, _nftId, _tagger);\n    }\n\n    /**\n     * @notice Tags an ERC721 NFT asset by storing a reference between the asset and a hashtag\n     * @dev Only a whitelisted publisher can execute this with the required fee unless the caller / sender has admin privileges.\n     * @param _hashtagId ID of the hashtag being linked\n     * @param _nftContract address of nft contract\n     * @param _nftId ID of the nft to link from the above nft contract\n     * @param _tagger the ethereum account that made the original tagging request\n    */\n    function tag(uint256 _hashtagId, address _nftContract, uint256 _nftId, address _tagger) payable public {\n        uint256 tagFeeAfterDiscount = calculateTagFeeAfterDiscount();\n        require(_isAdmin(_msgSender()) || (_isPublisher(_msgSender()) && msg.value >= tagFeeAfterDiscount), \"Tag: You must either be admin or an approved publisher that has paid the fee\");\n        require(hashtagProtocol.exists(_hashtagId), \"The hashtag ID supplied is invalid - non-existent token!\");\n        require(_nftContract != address(0), \"Invalid nft contract address\");\n        require(_nftContract != address(hashtagProtocol), \"Invalid tag - you are attempting to tag another hashtag\");\n        require(_isNewTagForNft(_hashtagId, _nftContract, _nftId), \"NFT has already been tagged\");\n        require(_tagger != address(0), \"Invalid tagger\");\n\n        // Ensure that we are dealing with an ERC721 compliant _nftContract\n        try IERC721(_nftContract).supportsInterface(_INTERFACE_ID_ERC721) returns (bool result) {\n            require(result == true, \"Contract does not implement the ERC721 interface\");\n        } catch Error(string memory reason) {\n            require(false, reason);\n        } catch {\n            require(false, \"Invalid NFT contract\");\n        }\n\n        // NFT existence checks - revert if NFT does not exist\n        try IERC721(_nftContract).ownerOf(_nftId) returns (address owner) {\n            require(owner != address(0), \"Token does not exist or is owned by the zero address\");\n        } catch Error(string memory reason) {\n            require(false, reason);\n        } catch {\n            require(false, \"Token does not exist\");\n        }\n\n        // Generate a new tag ID\n        totalTags = totalTags.add(1);\n        uint256 tagId = totalTags;\n\n        // Store the relevant information about this tagging event\n        address tagger = _tagger;\n        address publisher = _msgSender();\n\n        tagIdToTag[tagId] = Tag({\n            hashtagId: _hashtagId,\n            nftContract: _nftContract,\n            nftId: _nftId,\n            tagger: tagger,\n            tagstamp: now,\n            publisher: publisher\n        });\n\n        // Create the links between the tagging event and the hashtag, nft, publisher and tagger\n        hashtagIdToListOfTagIds[_hashtagId].push(tagId);\n        nftToListOfTagIds[_nftContract][_nftId].push(tagId);\n        publisherToListOfTagIds[publisher].push(tagId);\n        taggerToListOfTagIds[tagger].push(tagId);\n\n        // Split the tagging fee paid by the tagger to the relevant entities i.e. publisher, owner and platform\n        splitter.handlePayment{value: tagFeeAfterDiscount}(_hashtagId, publisher);\n\n        // Give the user their change if they've overpaid\n        _refundRemainingBalance();\n\n        // Log that an NFT has been tagged\n        emit NFTTagged(tagger, _nftContract, publisher, _hashtagId, _nftId);\n    }\n\n    /**\n     * @notice Retrieves information about a tag event\n     * @param _tagId ID of the tagging event of interest\n     * @return _hashtagId hashtag ID\n     * @return _nftContract NFT contract address\n     * @return _nftId NFT ID\n     * @return _tagger Address that tagged the NFT asset\n     * @return _tagstamp When the tag took place\n     * @return _publisher Publisher through which the tag took place\n    */\n    function getTagInfo(uint256 _tagId) external view returns (\n        uint256 _hashtagId,\n        address _nftContract,\n        uint256 _nftId,\n        address _tagger,\n        uint256 _tagstamp,\n        address _publisher\n    ) {\n        Tag memory tagInfo = tagIdToTag[_tagId];\n        return (\n            tagInfo.hashtagId,\n            tagInfo.nftContract,\n            tagInfo.nftId,\n            tagInfo.tagger,\n            tagInfo.tagstamp,\n            tagInfo.publisher\n        );\n    }\n\n    /**\n     * @notice Gets the IDs of all tag events related to a hashtag\n     * @param _hashtagId ID of the hashtag\n     * @return uint256[] List of tag IDs relating to tag events\n    */\n    function getAllTagIdsForAGivenHashtag(uint256 _hashtagId) external view returns (uint256[] memory) {\n        return hashtagIdToListOfTagIds[_hashtagId];\n    }\n\n    /**\n     * @notice Gets the IDs of all tag events related to an NFT\n     * @param _nftContract address of the nft contract\n     * @param _nftId ID of the nft\n     * @return uint256[] List of tag IDs relating to tag events\n    */\n    function getAllTagIdsForAGivenNft(address _nftContract, uint256 _nftId) external view returns (uint256[] memory) {\n        return nftToListOfTagIds[_nftContract][_nftId];\n    }\n\n    /**\n     * @notice Gets the IDs of all tag events that took place through a publisher\n     * @param _publisher Address of the publisher\n     * @return uint256[] List of tag IDs relating to tag events\n    */\n    function getAllTagIdsForAGivenPublisher(address _publisher) external view returns (uint256[] memory) {\n        return publisherToListOfTagIds[_publisher];\n    }\n\n    /**\n     * @notice Gets the IDs of all tag events that were triggered by a given address\n     * @param _tagger Address of the tagger\n     * @return uint256[] List of tag IDs relating to tag events\n    */\n    function getAllTagIdsForAGivenTagger(address _tagger) external view returns (uint256[] memory) {\n        return taggerToListOfTagIds[_tagger];\n    }\n\n    /**\n     * @notice Sets the fee required to tag an NFT asset\n     * @param _fee Value of the fee in WEI\n    */\n    function setTagFee(uint256 _fee) onlyAdmin external {\n        tagFee = _fee;\n    }\n\n    /**\n     * @notice Allows the configuration of a discount percentage on the tagging fee\n     * @dev The percentage defined must be to 2 decimal places. For example: For a discount of 12.55%, multiply this by 100 to get 1255\n     * @param _mintAndTagDiscount Discount percentage\n    */\n    function setMintAndTagDiscount(uint256 _mintAndTagDiscount) onlyAdmin external {\n        mintAndTagDiscount = _mintAndTagDiscount;\n    }\n\n    /**\n     * @notice Calculates the tagging fee after the discount is applied\n     * @return uint256 Tag fee after discount\n    */\n    function calculateTagFeeAfterDiscount() public view returns (uint256) {\n        uint256 tagFeeDiscount = tagFee.div(modulo).mul(mintAndTagDiscount);\n        return tagFee.sub(tagFeeDiscount);\n    }\n\n    /**\n     * @notice Calculates the fee that would be required to create a hashtag and tag an NFT asset in the same transaction\n     * @return uint256 Fee for minting and tagging\n    */\n    function calculateMintAndTagFee() public view returns (uint256) {\n        uint256 protocolFee = hashtagProtocol.fee();\n        uint256 finalTagFee = calculateTagFeeAfterDiscount();\n        return protocolFee.add(finalTagFee);\n    }\n\n    /**\n     * @notice Admin functionality for updating the commission splitter\n     * @param _splitter Address of the splitting contract\n    */\n    function updateSplitter(HashtagLinkSplitter _splitter) onlyAdmin external {\n        splitter = _splitter;\n    }\n\n    /**\n     * @notice Admin functionality for updating the access controls\n     * @param _accessControls Address of the access controls contract\n    */\n    function updateAccessControls(HashtagAccessControls _accessControls) onlyAdmin external {\n        accessControls = _accessControls;\n    }\n\n    /**\n     * @notice Given a contract balance, sends the value back to the sender - the equivalent of giving a user change\n    */\n    function _refundRemainingBalance() private {\n        address payable self = payable(address(this));\n        (bool refundSuccess, ) = _msgSender().call{value: self.balance}(\"\");\n        require(refundSuccess, \"Failed to refund the remaining balance to sender\");\n    }\n\n    /**\n     * @notice Checks whether an address has an admin role\n     * @param _addr Address being checked\n     * @return bool True if the address has the role, false if not\n    */\n    function _isAdmin(address _addr) private view returns (bool) {\n        bytes32 adminRole = 0x00;\n        return accessControls.hasRole(adminRole, _addr);\n    }\n\n    /**\n     * @notice Checks whether an address has a publisher role\n     * @param _addr Address being checked\n     * @return bool True if the address has the role, false if not\n    */\n    function _isPublisher(address _addr) private view returns (bool) {\n        return accessControls.hasRole(keccak256(\"PUBLISHER\"), _addr);\n    }\n\n    /**\n     * @notice Private method for checking whether a hashtag is already associated with an NFT\n     * @param _hashtagId ID of the hashtag\n     * @param _nftContract Address of the nft contract\n     * @param _nftId ID of the NFT\n     * @return bool True if the hashtag has never been associated with the nft, false if there is an existing link\n    */\n    function _isNewTagForNft(uint256 _hashtagId, address _nftContract, uint256 _nftId) private view returns (bool) {\n        uint256[] memory tagIds = nftToListOfTagIds[_nftContract][_nftId];\n\n        bool isNewTag = true;\n        for(uint256 i = 0; i < tagIds.length; i++) {\n            uint256 tagId = tagIds[i];\n            Tag memory aTag = tagIdToTag[tagId];\n\n            if (aTag.nftContract == _nftContract && aTag.nftId == _nftId && aTag.hashtagId == _hashtagId) {\n                isNewTag = false;\n\n                break;\n            }\n        }\n\n        return isNewTag;\n    }\n}",
  "sourcePath": "/Users/Natalie/Projects/hashtag-contracts/contracts/taggers/NFTTagger.sol",
  "compiler": {
    "name": "solc",
    "version": "0.6.4+commit.1dca32f3.Emscripten.clang"
  },
  "schemaVersion": "3.0.23",
  "updatedAt": "2020-04-08T12:45:54.878Z",
  "networkType": "ethereum",
  "devdoc": {
    "author": "Hashtag Protocol",
    "methods": {
      "getAllTagIdsForAGivenHashtag(uint256)": {
        "params": {
          "_hashtagId": "ID of the hashtag"
        },
        "returns": {
          "_0": "uint256[] List of tag IDs relating to tag events"
        }
      },
      "getAllTagIdsForAGivenNft(address,uint256)": {
        "params": {
          "_nftContract": "address of the nft contract",
          "_nftId": "ID of the nft"
        },
        "returns": {
          "_0": "uint256[] List of tag IDs relating to tag events"
        }
      },
      "getAllTagIdsForAGivenPublisher(address)": {
        "params": {
          "_publisher": "Address of the publisher"
        },
        "returns": {
          "_0": "uint256[] List of tag IDs relating to tag events"
        }
      },
      "getAllTagIdsForAGivenTagger(address)": {
        "params": {
          "_tagger": "Address of the tagger"
        },
        "returns": {
          "_0": "uint256[] List of tag IDs relating to tag events"
        }
      },
      "getTagInfo(uint256)": {
        "params": {
          "_tagId": "ID of the tagging event of interest"
        },
        "returns": {
          "_hashtagId": "hashtag ID",
          "_nftContract": "NFT contract address",
          "_nftId": "NFT ID",
          "_publisher": "Publisher through which the tag took place",
          "_tagger": "Address that tagged the NFT asset",
          "_tagstamp": "When the tag took place"
        }
      },
      "mintAndTag(string,address,uint256,address)": {
        "details": "Only a whitelisted publisher can execute this with the required fee unless the caller / sender has admin privileges.",
        "params": {
          "_hashtag": "string value of the hashtag to be minted",
          "_nftContract": "address of nft contract",
          "_nftId": "ID of the nft to link from the above nft contract",
          "_tagger": "the ethereum account that made the original tagging request"
        }
      },
      "setMintAndTagDiscount(uint256)": {
        "details": "The percentage defined must be to 2 decimal places. For example: For a discount of 12.55%, multiply this by 100 to get 1255",
        "params": {
          "_mintAndTagDiscount": "Discount percentage"
        }
      },
      "setTagFee(uint256)": {
        "params": {
          "_fee": "Value of the fee in WEI"
        }
      },
      "tag(uint256,address,uint256,address)": {
        "details": "Only a whitelisted publisher can execute this with the required fee unless the caller / sender has admin privileges.",
        "params": {
          "_hashtagId": "ID of the hashtag being linked",
          "_nftContract": "address of nft contract",
          "_nftId": "ID of the nft to link from the above nft contract",
          "_tagger": "the ethereum account that made the original tagging request"
        }
      },
      "updateAccessControls(address)": {
        "params": {
          "_accessControls": "Address of the access controls contract"
        }
      },
      "updateSplitter(address)": {
        "params": {
          "_splitter": "Address of the splitting contract"
        }
      }
    },
    "title": "NFTTagger"
  },
  "userdoc": {
    "methods": {
      "calculateMintAndTagFee()": {
        "notice": "Calculates the fee that would be required to create a hashtag and tag an NFT asset in the same transaction"
      },
      "calculateTagFeeAfterDiscount()": {
        "notice": "Calculates the tagging fee after the discount is applied"
      },
      "getAllTagIdsForAGivenHashtag(uint256)": {
        "notice": "Gets the IDs of all tag events related to a hashtag"
      },
      "getAllTagIdsForAGivenNft(address,uint256)": {
        "notice": "Gets the IDs of all tag events related to an NFT"
      },
      "getAllTagIdsForAGivenPublisher(address)": {
        "notice": "Gets the IDs of all tag events that took place through a publisher"
      },
      "getAllTagIdsForAGivenTagger(address)": {
        "notice": "Gets the IDs of all tag events that were triggered by a given address"
      },
      "getTagInfo(uint256)": {
        "notice": "Retrieves information about a tag event"
      },
      "mintAndTag(string,address,uint256,address)": {
        "notice": "Combines the action of creating a new hashtag and then tagging an NFT asset with this new tag."
      },
      "setMintAndTagDiscount(uint256)": {
        "notice": "Allows the configuration of a discount percentage on the tagging fee"
      },
      "setTagFee(uint256)": {
        "notice": "Sets the fee required to tag an NFT asset"
      },
      "tag(uint256,address,uint256,address)": {
        "notice": "Tags an ERC721 NFT asset by storing a reference between the asset and a hashtag"
      },
      "updateAccessControls(address)": {
        "notice": "Admin functionality for updating the access controls"
      },
      "updateSplitter(address)": {
        "notice": "Admin functionality for updating the commission splitter"
      }
    },
    "notice": "Contract that allows any ERC721 asset to be tagged by a hashtag within the Hashtag protocol"
  }
}